01#BPA#2025030089970001782127SECRETARIA MUNICIPAL DE SAUDE SMS   56901275000150SECRETARIA ESTADUAL DE SAUDE            MD04.01    
022059304202503225142001010301010137056000001BPA
022059304202503225142001020301010137081000001BPA
022059304202503225142001030301010137078000001BPA
022059304202503225142001040301010137055000001BPA
022059304202503225142001050301010137046000001BPA
022059304202503223505001060301100039000000008BPA
022059304202503322230001070301100152000000005BPA
022773228202503322230001010301100012000000001BPA
022773228202503322230001020301100101000000001BPA
022773228202503322230001030301100152000000017BPA
022773848202503223710001010301010137080000001BPA
022773848202503223710001020301010137099000001BPA
022773848202503223710001030301010137089000001BPA
022773848202503223710001040301010137001000001BPA
022773848202503223710001050301010137009000001BPA
022773848202503223710001060301010137029000001BPA
022773848202503223710001070301010137060000001BPA
022773848202503223710001080301010137062000001BPA
022773848202503223710001090301010137073000001BPA
022773848202503223710001100301010137077000002BPA
022773848202503223710001110301010137082000001BPA
022773848202503322230001120301100152000000006BPA
022773848202503322250001130301100152000000010BPA
022773856202503223505001010301010137090000001BPA
022773856202503223505001020301010137081000001BPA
022773856202503223505001030301010137085000001BPA
022773856202503223505001040301010137073000001BPA
022773856202503223505001050301010137087000001BPA
022773856202503223505001060301100039000000001BPA
022773856202503322250001070301100039000000001BPA
022773856202503223505001080301100152000000001BPA
022773856202503322230001090301100152000000006BPA
022773856202503322250001100301100152000000036BPA
023044114202503223505001010301100039000000001BPA
023044114202503322230001020301100039000000005BPA
023044114202503322230001030301100101000000001BPA
023044114202503322230001040301100152000000013BPA
026430163202503251510001010301080160000000004BPA
026430163202503322230001020301100039000000215BPA
026896847202503223505001010301010137026000004BPA
026896847202503223505001020301010137001000001BPA
026896847202503223505001030301010137009000002BPA
026896847202503223505001040301010137016000002BPA
026896847202503223505001050301010137029000002BPA
026896847202503223505001060301010137032000003BPA
026896847202503223505001070301010137037000002BPA
026896847202503223505001080301010137039000001BPA
026896847202503223505001090301010137047000002BPA
026896847202503223505001100301010137049000001BPA
026896847202503223505001110301010137050000004BPA
026896847202503223505001120301010137051000002BPA
026896847202503223505001130301010137052000001BPA
026896847202503223505001140301010137053000002BPA
026896847202503223505001150301010137054000003BPA
026896847202503223505001160301010137061000001BPA
026896847202503223505001170301010137062000001BPA
026896847202503223505001180301010137064000004BPA
026896847202503223505001190301010137065000002BPA
026896847202503223505001200301010137067000001BPA
026896847202503223505002010301010137070000002BPA
026896847202503223505002020301010137073000002BPA
026896847202503223505002030301010137075000002BPA
026896847202503223505002040301010137077000004BPA
026896847202503223505002050301010137078000003BPA
026896847202503223505002060301010137080000001BPA
026896847202503223505002070301010137081000002BPA
026896847202503223505002080301010137082000001BPA
026896847202503223505002090301010137086000003BPA
026896847202503223505002100301010137087000002BPA
026896847202503223505002110301010137090000003BPA
026896847202503223505002120301010137091000002BPA
026896847202503223505002130301010137092000005BPA
026896847202503223505002140301010137094000002BPA
026896847202503223505002150301010137099000001BPA
026896847202503223605002160301010137086000001BPA
026896847202503223605002170301010137082000002BPA
026896847202503223605002180301010137081000001BPA
026896847202503223605002190301010137077000004BPA
026896847202503223605002200301010137078000002BPA
026896847202503223605003010301010137079000001BPA
026896847202503223605003020301010137080000001BPA
026896847202503223605003030301010137099000001BPA
026896847202503223605003040301010137001000001BPA
026896847202503223605003050301010137028000003BPA
026896847202503223605003060301010137029000001BPA
026896847202503223605003070301010137032000001BPA
026896847202503223605003080301010137046000001BPA
026896847202503223605003090301010137047000002BPA
026896847202503223605003100301010137049000001BPA
026896847202503223605003110301010137051000001BPA
026896847202503223605003120301010137052000001BPA
026896847202503223605003130301010137053000001BPA
026896847202503223605003140301010137054000002BPA
026896847202503223605003150301010137062000001BPA
026896847202503223605003160301010137064000002BPA
026896847202503223605003170301010137065000002BPA
026896847202503223605003180301010137070000001BPA
026896847202503223605003190301010137073000001BPA
026896847202503223605003200301010137075000001BPA
026896847202503223605004010301010137094000001BPA
026896847202503223605004020301010137092000001BPA
026896847202503223605004030301010137091000002BPA
026896847202503223605004040301010137087000002BPA
026896847202503225125004050301010137075000001BPA
026896847202503225125004060301010137078000002BPA
026896847202503225125004070301010137081000001BPA
026896847202503225125004080301010137086000001BPA
026896847202503225125004090301010137091000001BPA
026896847202503225125004100301010137094000001BPA
026896847202503225125004110301010137099000002BPA
026896847202503225125004120301010137046000001BPA
026896847202503225125004130301010137047000001BPA
026896847202503225125004140301010137051000001BPA
026896847202503225125004150301010137052000001BPA
026896847202503225125004160301010137062000001BPA
026896847202503225125004170301010137064000001BPA
026896847202503225125004180301010137065000002BPA
026896847202503225125004190301010137070000001BPA
026896847202503225125004200301010137077000002BPA
026896847202503225125005010301010137009000001BPA
026896847202503225125005020301010137026000001BPA
026896847202503225125005030301010137028000001BPA
026896847202503225125005040301010137029000001BPA
026896847202503225125005050301010137037000001BPA
026896847202503223505005060301100152000000001BPA
026896847202503322205005070301100152000000017BPA
027047088202503223505001010301100039000000001BPA
027047088202503322250001020301100101000000002BPA
027047088202503322230001030301100152000000002BPA
027047088202503322250001040301100152000000005BPA
027047088202503322250001050309050049000000001BPA
029001808202503322230001010301100039000000001BPA
029001808202503322230001020301100152000000008BPA
03205930420250370120002219011322350520250315001040201020033706704771659920F350390    054     101             BPIMARIA BETANIA DA SILVA        1971031303    010                                07432670081Rua Tomi Miura                            934Sítio dos Fernandes
03205930420250370120002219011322350520250315001050201020033700803468113088F350390    050     101             BPIZENILDA DE JESUS              1975041201    010                                07432670081Rua Tomi Miura                            240Sítio dos Fernandes
03205930420250370120002219011322350520250315001060201020033700007721063900F350390    055     101             BPIELIANE LOPES DE MORAES        1970040101    010                                07432670081Rua Tomi Miura                B           227Sítio dos Fernandes
03205930420250370120002219011322350520250306001070201020033706309740838376F350390    045     101             BPIVANESSA DE OLIVEIRA           1979111602    010                                07432055081Rua Clementina                Casa 3      169Jardim Emília                 11 46525773
03205930420250370120002219011322350520250310001100201020033709200214104733F350390    052     101             BPIPAULA CRISTINA ACIOLI DA SILVA1972060603    010                                07432070081Rua Alice                     CASA 02      53Jardim Emília
03205930420250370120002219011322350520250329001110201020033706408692326887F350390    069     101             BPICELINA NATSUCO HIRATA DE ALMEI1956022004    010                                07431285081Rua Topázio                   CASA B      095Jardim Jóia                   11913469871
03205930420250370120002219011322350520250329001120201020033708209619151842F350390    032     101             BPIALINE SILVA DO NASCIMENTO     1992060103    010                                07400970081Avenida dos Expedicionários 29            S/NJardim Rincão
03205930420250370120002219011322350520250315001130201020033704301500823699F350390    063     101             BPILUZIA DE SOUZA BRAGA DE CARVAL1961042402    010                                07432070081Rua Alice                     CASAB        20Jardim Emília
03205930420250370120002219011322350520250315001140201020033706007872173844F350390    021     101             BPIPOLIANA DE CARVALHO DIAS      2003070603    010                                07432070081Rua Alice                     B CASA 01    20Jardim Emília
03205930420250370120002219011322350520250329001150201020033708000843944528F350390    046     101             BPIJANETE RODRIGUES DE OLIVEIRA  1978110803    010                                07432070081Rua Alice                     Casa 01      37Jardim Emília
03205930420250370120002219011322350520250310001160201020033702405096368022F350390    029     101             BPIPAMELLA DA SILVA RIOS         1995060901    010                                07431315081Rua Diamante                              275Jardim Jóia
03205930420250370120002219011322350520250321001170201020033704008187558870F350390    064     101             BPIJOSELITA BENICIO DOS SANTOS UR1961010903    010                                07432455081Rua dos Abacateiros                       411Recanto Primavera             11 46543379
03205930420250370120002219011322350520250315001180201020033705109362480640F350390    072     101             BPIERMELINDA LIDIA ROCHA         1953031101    010                                07432455081Rua dos Abacateiros                       221Recanto Primavera             11910083324
03205930420250370120002219011322350520250329001190201020033708409779329362F350390    051     101             BPIMARIA FRANCISCA DE BRITO      1973091003    010                                07432455081Rua dos Abacateiros           Casa a      296Recanto Primavera
03205930420250370120002219011322350520250321001200201020033704802070215148F350390    062     101             BPIABIGAIL JULIAO DE OLIVEIRA    1962051901    010                                07432465081Rua dos Jambeiros                         156Recanto Primavera
03205930420250370120002219011322350520250331002010201020033700008670907407F350390    041     101             BPICRISTIANE APARECIDA CORREIA DA1984041801    010                                07432121081Rua Regina Célia Gomes AlvarenCond2 Bl F   90CDHU Fazenda Albor
03205930420250370120002219011322350520250329002020201020033706002385368548F350390    041     101             BPIANDREIA CRISTINA BARBOSA FERNA1984040903    010                                07432075081Rua Dady                      CASA 02      55Jardim Emília                 11 46542813
03205930420250370120002219011322350520250331002030201020033700500119234653F350390    063     101             BPINORMA LUCIA SOARES SOUSA      1961061203    010                                07432121081Rua Regina Célia Gomes Alvaren             07CDHU Fazenda Albor
03205930420250370120002219011322350520250313002040201020033706707547664218F350390    047     101             BPIIARA GISLENE MOURA IBIAPINA   1978012101    010                                07432685081Rua Hirayoshi Amano                        05Sítio dos Fernandes           11953026000
03205930420250370120002219011322350520250313002050201020033898001432158726F350390    020     101             BPITHAINARA ALBUQUERQUE DA SILVA 2005032401    010                                07432455081Rua dos Abacateiros           Casa 2       75Recanto Primavera             11982939637
03205930420250370120002219011322350520250315002070201020033704202205627886F350390    059     101             BPIMARIA HELENA DOS SANTOS       1966020503    010                                07432121081Rua Regina Célia Gomes AlvarenBl C Cond    90CDHU Fazenda Albor
03205930420250370120002219011322350520250315002100201020033706206099390067F350390    023     101             BPIROBERTA DE SOUZA RIBEIRO      2001042804    010                                07432121081Rua Regina Célia Gomes AlvarenCond 2 Bl    90CDHU Fazenda Albor
03205930420250370120002219011322350520250329002110201020033707805642805619F350390    057     101             BPICLAUDIA FREITAS DA SILVA      1967072401    010                                07432121081Rua Regina Célia Gomes AlvarenCond3 Bl C   61CDHU Fazenda Albor
03205930420250370120002219011322350520250306002120201020033700006596192304F350390    018     101             BPINICOLI CRISTINI SILVA         2006100603    010                                07432445081Rua das Pitangueiras                      237Recanto Primavera
03205930420250370120002219011322350520250329002130201020033709809034542999F350390    065     101             BPIJOSEFA FERREIRA DA SILVA      1959050201    010                                07432121081Rua Regina Célia Gomes AlvarenCond2 Bl A  200CDHU Fazenda Albor
03205930420250370120002219011322350520250329002150201020033702006334812689F350390    038     101             BPIEDILENE DA CRUZ FERREIRA      1986052903    010                                07432590081Rua Takeji Shimmyo                         77Jardim das Cerejeiras
03205930420250370120002219011322350520250313002180201020033701400696369337F350390    043     101             BPIERIKA DOMINGOS DE OLIVEIRA    1981091001    010                                07431310081Rua Pérola                    CASA 2      100Jardim Jóia                   11 46543527
03205930420250370120002219011322350520250313002200201020033700506967786555F350390    046     101             BPIJOSENILDA BORGES DE SOUSA PERE1979021501    010                                07432575081Rua Tomi Saburo Yamamoto                  100Jardim das Cerejeiras
03205930420250370120002219011322350520250310003010201020033705000215009652F350390    030     101             BPICLAUDIANE ROCHA DE AQUINO SILV1994102503    010                                07432080081Rua Haroldo                                85Jardim Emília
03205930420250370120002219011322350520250306003020201020033702800177950564F350390    038     101             BPIROSANA NOVAIS SIMONE          1986061103    010                                07432120081Rua Marlene Paiva dos Santos  Casa 1       29CDHU Fazenda Albor
03205930420250370120002219011322350520250306003030201020033702906516267270F350390    021     101             BPIRILLARY NASCIMENTO SOUZA      2004022603    010                                07432465081Rua dos Jambeiros                         200Recanto Primavera
03205930420250370120002219011322350520250331003060201020033700001100304201F350390    053     101             BPIISABEL DE SOUZA ALMEIDA       1971062801    010                                07432122081Rua Nicolas Barbosa da Silva  Cond4 Bl C   30CDHU Fazenda Albor
03205930420250370120002219011322350520250331003070201020033702606231042745F350390    034     101             BPIGISELE BRAGA MENDES           1990111603    010                                07432465081Rua dos Jambeiros             A           183Recanto Primavera
03205930420250370120002219011322350520250329003080201020033702608290571149F350390    048     101             BPICARMEM SILVA DE ALMEIDA       1976061701    010                                07432675081Rua Tiaki Ogaçawara                        81Sítio dos Fernandes
03205930420250370120002219011322350520250313003090201020033700006449193209F350390    029     101             BPIFERNANDA SANTANA SILVA        1996042201    010                                07432465081Rua dos Jambeiros                         149Recanto Primavera
03205930420250370120002219011322350520250331003100201020033700709458620080F350390    039     101             BPIALINE ALVES DE SOUZA OLIVEIRA 1985042603    010                                07432445081Rua das Pitangueiras          Casa A      284Recanto Primavera
03205930420250370120002219011322350520250329003110201020033702105706628394F350390    052     101             BPIROSANA ALMEIDA GOMES          1973011801    010                                07432450081Rua dos Coqueiros                         153Recanto Primavera
03205930420250370120002219011322350520250315003120201020033701105821193380F350390    043     101             BPINEILA CELINA LOIOLA           1981100201    010                                07432675081Rua Tiaki Ogaçawara           Casa 02      71Sítio dos Fernandes
03205930420250370120002219011322350520250331003130201020033700509704072554F350390    068     101             BPIMARIA JOSE DE SOUZA           1956092501    010                                07432675081Rua Tiaki Ogaçawara                       108Sítio dos Fernandes
03205930420250370120002219011322350520250315003140201020033700003495749602F350390    065     101             BPIURACY DE OLIVEIRA SENCADES    1960032203    010                                07432050008Avenida Dutra                 Termino tr  116Jardim Emília                 11983198127
03205930420250370120002219011322350520250321003150201020033700805933580187F350390    048     101             BPIELAINE CUSTODIO DA COSTA      1976110301    010                                07432020008Avenida Dutra                             621Jardim Leika
03205930420250370120002219011322350520250315003160201020033704208777935581F350390    036     101             BPIANDRESA APARECIDA DUARTE SOUSA1988061401    010                                07432020008Avenida Dutra                 Casa 01    455AJardim Leika
03205930420250370120002219011322350520250310003170201020033705404412674098F350390    044     101             BPIALEXANDRA BATISTA PEREIRA     1980101101    010                                07420400081Alice                         Casa 01      70Jardim Emlia                  11978848528
03205930420250370120002219011322350520250315003180201020033700004546757209F350390    060     101             BPICLELIA DONIZETI MARTINS DOS SA1964061903    010                                07432060081Rua Nicolau                   930931122   263Jardim Emília                 11 46542383
03205930420250370120002219011322350520250310003190201020033700503760491154F350390    026     101             BPITIFFANI MACEDO ALVES          1999022301    010                                07432065081Rua Oscar Schiavon            Casa 2      300Jardim Emília
03205930420250370120002219011322350520250306003200201020033705004852146859F350390    028     101             BPIBRUNA DE MEDEIROS MOISES      1996100401    010                                07431285081Rua Topázio                   CASA 1      255Jardim Jóia
03205930420250370120002219011322350520250315004010201020033702807186502168F350390    047     101             BPIVALDIRENE PEREIRA DE OLIVEIRA 1977100102    010                                07432060081Rua Nicolau                                25Jardim Emília
03205930420250370120002219011322350520250329004030201020033701003833051399F350390    043     101             BPIELISANGELA GOUVEA LIMA SOARES 1981051401    010                                07432050008Avenida Dutra                 Casa 01     274Jardim Emília
03205930420250370120002219011322350520250329004040201020033700504546070055F350390    071     101             BPIIRENE MARIA DA GLORIA GANDRA  1953042501    010                                07432065081Rua Oscar Schiavon                         74Jardim Emília
03205930420250370120002219011322350520250329004050201020033705600469875712F350390    028     101             BPIARYELIS BEATRIZ MARTIARENA SER1996101203    010                                07432065081Rua Oscar Schiavon            CASA 1       73Jardim Emília
03205930420250370120002219011322350520250315004060201020033708003847083023F350390    058     101             BPIROSIMEIRE DOS SANTOS          1966080903    010                                07432065081Rua Oscar Schiavon            CASA 02      95Jardim Emília
03205930420250370120002219011322350520250331004070201020033708607005996687F350390    054     101             BPIROSANGELA CICERA DA SILVA     1970112501    010                                07432065081Rua Oscar Schiavon                         76Jardim Emília                 11 46542752
03205930420250370120002219011322350520250315004080201020033701009857223098F350390    036     101             BPIMARIA TATIANA DA SILVA GOMES  1988102003    010                                07432050008Avenida Dutra                             455Jardim Emília                 11 46475127
03205930420250370120002219011322350520250315004090201020033704209785577185F350390    058     101             BPICLEUSA MARTINS DE ALMEIDA     1966052802    010                                07432050008Avenida Dutra                 Casa 01     395Jardim Emília
03205930420250370120002219011322350520250313004130201020033700404926319641F350390    049     101             BPIMARIANA RODRIGUES ALVES       1975082003    010                                07432445081Rua das Pitangueiras                      264Recanto Primavera
03205930420250370120002219011322350520250331004140201020033700005967106507F350390    058     101             BPIELIZABETE SALES               1966121501    010                                07432121081Rua Regina Célia Gomes AlvarenCond3 Bloc   22CDHU Fazenda Albor
03205930420250370120002219011322350520250329004150201020033704503376540414F350390    057     101             BPILUZIA MARIA DOS SANTOS ALMEIDA1967100801    010                                07432050008Avenida Dutra                             475Jardim Emília
03205930420250370120002219011322350520250313004160201020033700302929863740F350390    038     101             BPIPATRICIA MOREIRA DE OLIVEIRA  1986061803    010                                07432120081Rua Marlene Paiva dos Santos  COND1 BLOC   52CDHU Fazenda Albor
03205930420250370120002219011322350520250329004180201020033705205493186873F350390    026     101             BPIDIANA DE AMORIM DA SILVA      1999010903    010                                07432050008Avenida Dutra                              76Jardim Emília
03205930420250370120002219011322350520250329004190201020033706506305041295F350390    061     101             BPINILZA GOMES DE OLIVEIRA MELO  1964022201    010                                07432050008Avenida Dutra                             270Jardim Emília
03205930420250370120002219011322350520250329004200201020033706903172142634F350390    064     101             BPICLEONICE FRANCISCA MENDES DE O1961031301    010                                07432050008Avenida Dutra                 CASA 03     227Jardim Emília
03205930420250370120002219011322350520250329005010201020033707004847687134F350390    063     101             BPIMARIA DE LOURDES DA SILVA     1961061303    010                                07432470081Rua das Mangueiras            Casa        418Recanto Primavera             11 46525412
03205930420250370120002219011322350520250310005020201020033707603278327892F350390    029     101             BPIJULIANA ARAUJO GUARDIANO      1996011803    010                                07432470081Rua das Mangueiras                        403Recanto Primavera
03205930420250370280161518926622350520250329005100201020033704002880544162F350390    045     101             BPIKELY OLIVEIRA DA SILVA VALERIO1980021701    010                                07432000081Rua Negrão                               1200Jardim Leika
03205930420250370280161518926622350520250329005140201020033704004800714769F350390    037     101             BPIJACQUELINE PAIVA DOS SANTOS BO1988013103    010                                07432070081Rua Alice                     CASA 03     154Jardim Emília
03205930420250370280161518926622350520250329006170201020033705003230416851F350390    061     101             BPIELIETE FERNANDES DE CAMPOS    1963122603    010                                07432122081Rua Nicolas Barbosa da Silva  COND 4 BL    30CDHU Fazenda Albor
03205930420250370500806699625522356520250328008170201020033706701595115118F350390    021     101             BPIKAUANNY OLIVEIRA ASSIS        2004040901    010                                07432055081Rua Clementina                CASA 02     161Jardim Emília
03205930420250370500806699625522356520250328008180201020033706803244679729F352310    032     101             BPITHAIS DE ANDRADE DA SILVA     1992080502    010                                08584160081Rua Petrônio Portela                       14Jardim Patrícia
03205930420250370500806699625522356520250328008200201020033706701552004012F350390    039     101             BPISOLANGE DA SILVA FERREIRA     1986041103    010                                07432675081Rua Tiaki Ogaçawara           Casa A       33Sítio dos Fernandes
03205930420250370500806699625522356520250328009020201020033707402009870970F350390    062     101             BPIALCIZA PEREIRA DA COSTA       1963033103    010                                07432590081Rua Takeji Shimmyo                         75Jardim das Cerejeiras
03205930420250370500806699625522356520250328009040201020033704103128884575F350390    048     101             BPIVERA LUCIA PEREIRA DA COSTA SA1976120303    010                                07432005081Rua Pedro Pereira da Silva                 15Jardim Leika
03205930420250370500806699625522356520250328009050201020033708401246515063F350390    047     101             BPIPAULA FERNANDA ANDRADE SOUZA  1977050803    010                                07432122081Rua Nicolas Barbosa da Silva  Cond4 Bl B   42CDHU Fazenda Albor
03205930420250370120002219011322350520250306001030214010040704309531735799F350390    024     101             BPINATHALIA ARAUJO SILVA         2001030801    010                                07432000081Rua Negrão                    Casa 1      300Jardim Leika
03205930420250370120002219011322350520250320002060214010040701203029936210F350390    034     101             BPIGLEICE MARIA FERNANDES MONTEIR1990121801    010                                07432455081Rua dos Abacateiros           Casa 01      32Recanto Primavera
03205930420250370500806699625522356520250327008190214010040706901178732938F350390    039     101             BPIFERNANDA ANDRADE DA SILVA     1985092801    010                                07432575081Rua Tomi Saburo Yamamoto      A           170Jardim das Cerejeiras
03205930420250370120002219011322350520250329001020214010058704002880544162F350390    045     101             BPIKELY OLIVEIRA DA SILVA VALERIO1980021701    010                                07432000081Rua Negrão                               1200Jardim Leika
03205930420250370120002219011322350520250329001090214010058704004800714769F350390    037     101             BPIJACQUELINE PAIVA DOS SANTOS BO1988013103    010                                07432070081Rua Alice                     CASA 03     154Jardim Emília
03205930420250370120002219011322350520250327003040214010058705005861367359M350390    030     101             BPIICARO DA SILVA DOS SANTOS     1994111503    010                                07432122081Rua Nicolas Barbosa da Silva  Cond4 Bloc   32CDHU Fazenda Albor
03205930420250370120002219011322350520250329003050214010058705003230416851F350390    061     101             BPIELIETE FERNANDES DE CAMPOS    1963122603    010                                07432122081Rua Nicolas Barbosa da Silva  COND 4 BL    30CDHU Fazenda Albor
03205930420250370120002219011322350520250321004100214010058700001552886004M350390    024     101             BPICARLOS ALEX GONCALVES ARRUDA  2000072301    010                                07432005081Rua Pedro Pereira da Silva    COND 4 BL   200Jardim Leika
03205930420250370280161518926622350520250329005060214010058706408692326887F350390    069     101             BPICELINA NATSUCO HIRATA DE ALMEI1956022004    010                                07431285081Rua Topázio                   CASA B      095Jardim Jóia                   11913469871
03205930420250370280161518926622350520250329005090214010058702608290571149F350390    048     101             BPICARMEM SILVA DE ALMEIDA       1976061701    010                                07432675081Rua Tiaki Ogaçawara                        81Sítio dos Fernandes
03205930420250370280161518926622350520250329005130214010058708000843944528F350390    046     101             BPIJANETE RODRIGUES DE OLIVEIRA  1978110803    010                                07432070081Rua Alice                     Casa 01      37Jardim Emília
03205930420250370280161518926622350520250329005150214010058700504546070055F350390    071     101             BPIIRENE MARIA DA GLORIA GANDRA  1953042501    010                                07432065081Rua Oscar Schiavon                         74Jardim Emília
03205930420250370280161518926622350520250329005160214010058705600469875712F350390    028     101             BPIARYELIS BEATRIZ MARTIARENA SER1996101203    010                                07432065081Rua Oscar Schiavon            CASA 1       73Jardim Emília
03205930420250370280161518926622350520250329006040214010058708209619151842F350390    032     101             BPIALINE SILVA DO NASCIMENTO     1992060103    010                                07400970081Avenida dos Expedicionários 29            S/NJardim Rincão
03205930420250370280161518926622350520250329006130214010058706903172142634F350390    064     101             BPICLEONICE FRANCISCA MENDES DE O1961031301    010                                07432050008Avenida Dutra                 CASA 03     227Jardim Emília
03205930420250370280161518926622350520250329006140214010058706506305041295F350390    061     101             BPINILZA GOMES DE OLIVEIRA MELO  1964022201    010                                07432050008Avenida Dutra                             270Jardim Emília
03205930420250370280161518926622350520250329006150214010058705205493186873F350390    026     101             BPIDIANA DE AMORIM DA SILVA      1999010903    010                                07432050008Avenida Dutra                              76Jardim Emília
03205930420250370280161518926622350520250329006160214010058704503376540414F350390    057     101             BPILUZIA MARIA DOS SANTOS ALMEIDA1967100801    010                                07432050008Avenida Dutra                             475Jardim Emília
03205930420250370280161518926622350520250329006200214010058706002385368548F350390    041     101             BPIANDREIA CRISTINA BARBOSA FERNA1984040903    010                                07432075081Rua Dady                      CASA 02      55Jardim Emília                 11 46542813
03205930420250370470300686154032223020250315007010214010058704208777935581F350390    036     101             BPIANDRESA APARECIDA DUARTE SOUSA1988061401    010                                07432020008Avenida Dutra                 Casa 01    455AJardim Leika
03205930420250370470300686154032223020250315007070214010058700004430646001F350390    050     101             BPIVALQUIRIA DA SILVA            1974043001    010                                07432000081Rua Negrão                    CASA 2      280Jardim Leika
03205930420250370470300686154032223020250315008020214010058708003847083023F350390    058     101             BPIROSIMEIRE DOS SANTOS          1966080903    010                                07432065081Rua Oscar Schiavon            CASA 02      95Jardim Emília
03205930420250370470300686154032223020250315008030214010058700004546757209F350390    060     101             BPICLELIA DONIZETI MARTINS DOS SA1964061903    010                                07432060081Rua Nicolau                   930931122   263Jardim Emília                 11 46542383
03205930420250370470300686154032223020250315008070214010058700003495749602F350390    065     101             BPIURACY DE OLIVEIRA SENCADES    1960032203    010                                07432050008Avenida Dutra                 Termino tr  116Jardim Emília                 11983198127
03205930420250370470300686154032223020250315008090214010058701009857223098F350390    036     101             BPIMARIA TATIANA DA SILVA GOMES  1988102003    010                                07432050008Avenida Dutra                             455Jardim Emília                 11 46475127
03205930420250370470300686154032223020250315008100214010058704209785577185F350390    058     101             BPICLEUSA MARTINS DE ALMEIDA     1966052802    010                                07432050008Avenida Dutra                 Casa 01     395Jardim Emília
03205930420250370470300686154032223020250315008110214010058701105821193380F350390    043     101             BPINEILA CELINA LOIOLA           1981100201    010                                07432675081Rua Tiaki Ogaçawara           Casa 02      71Sítio dos Fernandes
03205930420250370470300686154032223020250315008130214010058700007721063900F350390    055     101             BPIELIANE LOPES DE MORAES        1970040101    010                                07432670081Rua Tomi Miura                B           227Sítio dos Fernandes
03205930420250370470300686154032223020250315008140214010058704202205627886F350390    059     101             BPIMARIA HELENA DOS SANTOS       1966020503    010                                07432121081Rua Regina Célia Gomes AlvarenBl C Cond    90CDHU Fazenda Albor
03205930420250370470300686154032223020250315008150214010058700203408716822F350390    046     101             BPIELISANGELA DE SOUSA SILVA     1979010601    010                                07432670081Rua Tomi Miura                811 3       847Sítio dos Fernandes
03205930420250370470300686154032223020250315008160214010058700803468113088F350390    050     101             BPIZENILDA DE JESUS              1975041201    010                                07432670081Rua Tomi Miura                            240Sítio dos Fernandes
03205930420250370120002219011322350520250329001010214010074704002880544162F350390    045     101             BPIKELY OLIVEIRA DA SILVA VALERIO1980021701    010                                07432000081Rua Negrão                               1200Jardim Leika
03205930420250370120002219011322350520250329001080214010074704004800714769F350390    037     101             BPIJACQUELINE PAIVA DOS SANTOS BO1988013103    010                                07432070081Rua Alice                     CASA 03     154Jardim Emília
03205930420250370120002219011322350520250327002170214010074705005861367359M350390    030     101             BPIICARO DA SILVA DOS SANTOS     1994111503    010                                07432122081Rua Nicolas Barbosa da Silva  Cond4 Bloc   32CDHU Fazenda Albor
03205930420250370120002219011322350520250329002190214010074705003230416851F350390    061     101             BPIELIETE FERNANDES DE CAMPOS    1963122603    010                                07432122081Rua Nicolas Barbosa da Silva  COND 4 BL    30CDHU Fazenda Albor
03205930420250370120002219011322350520250321004110214010074700001552886004M350390    024     101             BPICARLOS ALEX GONCALVES ARRUDA  2000072301    010                                07432005081Rua Pedro Pereira da Silva    COND 4 BL   200Jardim Leika
03205930420250370280161518926622350520250329005080214010074702608290571149F350390    048     101             BPICARMEM SILVA DE ALMEIDA       1976061701    010                                07432675081Rua Tiaki Ogaçawara                        81Sítio dos Fernandes
03205930420250370280161518926622350520250329005120214010074708000843944528F350390    046     101             BPIJANETE RODRIGUES DE OLIVEIRA  1978110803    010                                07432070081Rua Alice                     Casa 01      37Jardim Emília
03205930420250370280161518926622350520250329005170214010074700504546070055F350390    071     101             BPIIRENE MARIA DA GLORIA GANDRA  1953042501    010                                07432065081Rua Oscar Schiavon                         74Jardim Emília
03205930420250370280161518926622350520250329005180214010074705600469875712F350390    028     101             BPIARYELIS BEATRIZ MARTIARENA SER1996101203    010                                07432065081Rua Oscar Schiavon            CASA 1       73Jardim Emília
03205930420250370280161518926622350520250329006020214010074708209619151842F350390    032     101             BPIALINE SILVA DO NASCIMENTO     1992060103    010                                07400970081Avenida dos Expedicionários 29            S/NJardim Rincão
03205930420250370280161518926622350520250329006050214010074706408692326887F350390    069     101             BPICELINA NATSUCO HIRATA DE ALMEI1956022004    010                                07431285081Rua Topázio                   CASA B      095Jardim Jóia                   11913469871
03205930420250370280161518926622350520250329006090214010074706903172142634F350390    064     101             BPICLEONICE FRANCISCA MENDES DE O1961031301    010                                07432050008Avenida Dutra                 CASA 03     227Jardim Emília
03205930420250370280161518926622350520250329006100214010074706506305041295F350390    061     101             BPINILZA GOMES DE OLIVEIRA MELO  1964022201    010                                07432050008Avenida Dutra                             270Jardim Emília
03205930420250370280161518926622350520250329006110214010074705205493186873F350390    026     101             BPIDIANA DE AMORIM DA SILVA      1999010903    010                                07432050008Avenida Dutra                              76Jardim Emília
03205930420250370280161518926622350520250329006120214010074704503376540414F350390    057     101             BPILUZIA MARIA DOS SANTOS ALMEIDA1967100801    010                                07432050008Avenida Dutra                             475Jardim Emília
03205930420250370280161518926622350520250329006190214010074706002385368548F350390    041     101             BPIANDREIA CRISTINA BARBOSA FERNA1984040903    010                                07432075081Rua Dady                      CASA 02      55Jardim Emília                 11 46542813
03205930420250370470300686154032223020250315007050214010074700004430646001F350390    050     101             BPIVALQUIRIA DA SILVA            1974043001    010                                07432000081Rua Negrão                    CASA 2      280Jardim Leika
03205930420250370470300686154032223020250315007080214010074700007721063900F350390    055     101             BPIELIANE LOPES DE MORAES        1970040101    010                                07432670081Rua Tomi Miura                B           227Sítio dos Fernandes
03205930420250370470300686154032223020250315007090214010074700203408716822F350390    046     101             BPIELISANGELA DE SOUSA SILVA     1979010601    010                                07432670081Rua Tomi Miura                811 3       847Sítio dos Fernandes
03205930420250370470300686154032223020250315007130214010074704202205627886F350390    059     101             BPIMARIA HELENA DOS SANTOS       1966020503    010                                07432121081Rua Regina Célia Gomes AlvarenBl C Cond    90CDHU Fazenda Albor
03205930420250370470300686154032223020250315007160214010074700803468113088F350390    050     101             BPIZENILDA DE JESUS              1975041201    010                                07432670081Rua Tomi Miura                            240Sítio dos Fernandes
03205930420250370470300686154032223020250315007170214010074704209785577185F350390    058     101             BPICLEUSA MARTINS DE ALMEIDA     1966052802    010                                07432050008Avenida Dutra                 Casa 01     395Jardim Emília
03205930420250370470300686154032223020250315007180214010074701009857223098F350390    036     101             BPIMARIA TATIANA DA SILVA GOMES  1988102003    010                                07432050008Avenida Dutra                             455Jardim Emília                 11 46475127
03205930420250370470300686154032223020250315007190214010074704208777935581F350390    036     101             BPIANDRESA APARECIDA DUARTE SOUSA1988061401    010                                07432020008Avenida Dutra                 Casa 01    455AJardim Leika
03205930420250370470300686154032223020250315008010214010074708003847083023F350390    058     101             BPIROSIMEIRE DOS SANTOS          1966080903    010                                07432065081Rua Oscar Schiavon            CASA 02      95Jardim Emília
03205930420250370470300686154032223020250315008040214010074700004546757209F350390    060     101             BPICLELIA DONIZETI MARTINS DOS SA1964061903    010                                07432060081Rua Nicolau                   930931122   263Jardim Emília                 11 46542383
03205930420250370470300686154032223020250315008080214010074701105821193380F350390    043     101             BPINEILA CELINA LOIOLA           1981100201    010                                07432675081Rua Tiaki Ogaçawara           Casa 02      71Sítio dos Fernandes
03205930420250370470300686154032223020250315008120214010074700003495749602F350390    065     101             BPIURACY DE OLIVEIRA SENCADES    1960032203    010                                07432050008Avenida Dutra                 Termino tr  116Jardim Emília                 11983198127
03205930420250370120002219011322350520250320002080214010082701203029936210F350390    034     101             BPIGLEICE MARIA FERNANDES MONTEIR1990121801    010                                07432455081Rua dos Abacateiros           Casa 01      32Recanto Primavera
03205930420250370120002219011322350520250306005040214010082704309531735799F350390    024     101             BPINATHALIA ARAUJO SILVA         2001030801    010                                07432000081Rua Negrão                    Casa 1      300Jardim Leika
03205930420250370500806699625522356520250327009010214010082706901178732938F350390    039     101             BPIFERNANDA ANDRADE DA SILVA     1985092801    010                                07432575081Rua Tomi Saburo Yamamoto      A           170Jardim das Cerejeiras
03205930420250370120002219011322350520250320002090214010090701203029936210F350390    034     101             BPIGLEICE MARIA FERNANDES MONTEIR1990121801    010                                07432455081Rua dos Abacateiros           Casa 01      32Recanto Primavera
03205930420250370120002219011322350520250327002140214010090705005861367359M350390    030     101             BPIICARO DA SILVA DOS SANTOS     1994111503    010                                07432122081Rua Nicolas Barbosa da Silva  Cond4 Bloc   32CDHU Fazenda Albor
03205930420250370120002219011322350520250329002160214010090705003230416851F350390    061     101             BPIELIETE FERNANDES DE CAMPOS    1963122603    010                                07432122081Rua Nicolas Barbosa da Silva  COND 4 BL    30CDHU Fazenda Albor
03205930420250370120002219011322350520250329004020214010090704004800714769F350390    037     101             BPIJACQUELINE PAIVA DOS SANTOS BO1988013103    010                                07432070081Rua Alice                     CASA 03     154Jardim Emília
03205930420250370120002219011322350520250321004120214010090700001552886004M350390    024     101             BPICARLOS ALEX GONCALVES ARRUDA  2000072301    010                                07432005081Rua Pedro Pereira da Silva    COND 4 BL   200Jardim Leika
03205930420250370120002219011322350520250306004170214010090704309531735799F350390    024     101             BPINATHALIA ARAUJO SILVA         2001030801    010                                07432000081Rua Negrão                    Casa 1      300Jardim Leika
03205930420250370120002219011322350520250329005030214010090704002880544162F350390    045     101             BPIKELY OLIVEIRA DA SILVA VALERIO1980021701    010                                07432000081Rua Negrão                               1200Jardim Leika
03205930420250370280161518926622350520250329005050214010090706408692326887F350390    069     101             BPICELINA NATSUCO HIRATA DE ALMEI1956022004    010                                07431285081Rua Topázio                   CASA B      095Jardim Jóia                   11913469871
03205930420250370280161518926622350520250329005070214010090702608290571149F350390    048     101             BPICARMEM SILVA DE ALMEIDA       1976061701    010                                07432675081Rua Tiaki Ogaçawara                        81Sítio dos Fernandes
03205930420250370280161518926622350520250329005110214010090708000843944528F350390    046     101             BPIJANETE RODRIGUES DE OLIVEIRA  1978110803    010                                07432070081Rua Alice                     Casa 01      37Jardim Emília
03205930420250370280161518926622350520250329005190214010090700504546070055F350390    071     101             BPIIRENE MARIA DA GLORIA GANDRA  1953042501    010                                07432065081Rua Oscar Schiavon                         74Jardim Emília
03205930420250370280161518926622350520250329005200214010090705600469875712F350390    028     101             BPIARYELIS BEATRIZ MARTIARENA SER1996101203    010                                07432065081Rua Oscar Schiavon            CASA 1       73Jardim Emília
03205930420250370280161518926622350520250329006010214010090708209619151842F350390    032     101             BPIALINE SILVA DO NASCIMENTO     1992060103    010                                07400970081Avenida dos Expedicionários 29            S/NJardim Rincão
03205930420250370280161518926622350520250329006030214010090706903172142634F350390    064     101             BPICLEONICE FRANCISCA MENDES DE O1961031301    010                                07432050008Avenida Dutra                 CASA 03     227Jardim Emília
03205930420250370280161518926622350520250329006060214010090706506305041295F350390    061     101             BPINILZA GOMES DE OLIVEIRA MELO  1964022201    010                                07432050008Avenida Dutra                             270Jardim Emília
03205930420250370280161518926622350520250329006070214010090705205493186873F350390    026     101             BPIDIANA DE AMORIM DA SILVA      1999010903    010                                07432050008Avenida Dutra                              76Jardim Emília
03205930420250370280161518926622350520250329006080214010090704503376540414F350390    057     101             BPILUZIA MARIA DOS SANTOS ALMEIDA1967100801    010                                07432050008Avenida Dutra                             475Jardim Emília
03205930420250370280161518926622350520250329006180214010090706002385368548F350390    041     101             BPIANDREIA CRISTINA BARBOSA FERNA1984040903    010                                07432075081Rua Dady                      CASA 02      55Jardim Emília                 11 46542813
03205930420250370500806699625522356520250327009030214010090706901178732938F350390    039     101             BPIFERNANDA ANDRADE DA SILVA     1985092801    010                                07432575081Rua Tomi Saburo Yamamoto      A           170Jardim das Cerejeiras
03205930420250370470300686154032223020250315007020214010090701009857223098F350390    036     101             BPIMARIA TATIANA DA SILVA GOMES  1988102003    010                                07432050008Avenida Dutra                             455Jardim Emília                 11 46475127
03205930420250370470300686154032223020250315007030214010090704209785577185F350390    058     101             BPICLEUSA MARTINS DE ALMEIDA     1966052802    010                                07432050008Avenida Dutra                 Casa 01     395Jardim Emília
03205930420250370470300686154032223020250315007040214010090700004430646001F350390    050     101             BPIVALQUIRIA DA SILVA            1974043001    010                                07432000081Rua Negrão                    CASA 2      280Jardim Leika
03205930420250370470300686154032223020250315007060214010090708003847083023F350390    058     101             BPIROSIMEIRE DOS SANTOS          1966080903    010                                07432065081Rua Oscar Schiavon            CASA 02      95Jardim Emília
03205930420250370470300686154032223020250315007100214010090700007721063900F350390    055     101             BPIELIANE LOPES DE MORAES        1970040101    010                                07432670081Rua Tomi Miura                B           227Sítio dos Fernandes
03205930420250370470300686154032223020250315007110214010090700203408716822F350390    046     101             BPIELISANGELA DE SOUSA SILVA     1979010601    010                                07432670081Rua Tomi Miura                811 3       847Sítio dos Fernandes
03205930420250370470300686154032223020250315007120214010090700803468113088F350390    050     101             BPIZENILDA DE JESUS              1975041201    010                                07432670081Rua Tomi Miura                            240Sítio dos Fernandes
03205930420250370470300686154032223020250315007140214010090700003495749602F350390    065     101             BPIURACY DE OLIVEIRA SENCADES    1960032203    010                                07432050008Avenida Dutra                 Termino tr  116Jardim Emília                 11983198127
03205930420250370470300686154032223020250315007150214010090704202205627886F350390    059     101             BPIMARIA HELENA DOS SANTOS       1966020503    010                                07432121081Rua Regina Célia Gomes AlvarenBl C Cond    90CDHU Fazenda Albor
03205930420250370470300686154032223020250315007200214010090704208777935581F350390    036     101             BPIANDRESA APARECIDA DUARTE SOUSA1988061401    010                                07432020008Avenida Dutra                 Casa 01    455AJardim Leika
03205930420250370470300686154032223020250315008050214010090700004546757209F350390    060     101             BPICLELIA DONIZETI MARTINS DOS SA1964061903    010                                07432060081Rua Nicolau                   930931122   263Jardim Emília                 11 46542383
03205930420250370470300686154032223020250315008060214010090701105821193380F350390    043     101             BPINEILA CELINA LOIOLA           1981100201    010                                07432675081Rua Tiaki Ogaçawara           Casa 02      71Sítio dos Fernandes
03205930420250370840474880406422512520250320009060301010072704702038883840F350390N771034     101             BPIANA CLAUDIA CORREA DOS SANTOS 1990073001    010                                07432595081Rua Keitome Hosoe                          92Jardim das Cerejeiras
03205930420250370840474880406422512520250327009070301010072706706285468920F350390N390055     101             BPIEDILANIA RODRIGUES SALES SAROK1969042803    010                                07432590081Rua Takeji Shimmyo                        165Jardim das Cerejeiras
03205930420250370840474880406422512520250327009080301010072703004851311272F350390N771012     101             BPINICOLE DE SOUSA MESQUITA SCOPP2013032701    010                                07432455081Rua dos Abacateiros           Casa 02     107Recanto Primavera
03205930420250370840474880406422512520250320009090301010072703400249263519F350390N645045     101             BPIARIANA LEAL SOUTO             1979102101    010                                07432070081Rua Alice                     Casa 02     191Jardim Emília
03205930420250370840474880406422512520250320009100301010072700009713778507F350390Z34 020     101             BPILETICIA DE PAULA MELO         2004073001    010                                07432670081Rua Tomi Miura                           1132Sítio dos Fernandes
03205930420250370840474880406422512520250327009110301010072700009713778507F350390O82 020     101             BPILETICIA DE PAULA MELO         2004073001    010                                07432670081Rua Tomi Miura                           1132Sítio dos Fernandes
03205930420250370840474880406422512520250327009120301010072705008248273453F350390N951063     101             BPIVALDELICE BENTO DA SILVA GARCI1961070503    010                                07432670081Rua Tomi Miura                B            44Sítio dos Fernandes           11972924753
03205930420250370840474880406422512520250320009130301010072704206272768384F350390Z34 026     101             BPISHAIENY DUARTE DINIZ          1998061703    010                                07432670081Rua Tomi Miura                            705Sítio dos Fernandes           11987862189
03205930420250370840474880406422512520250320009140301010072703407286654700F350390Z34 026     101             BPIINGRID ISLY CRISPIM DOMINGOS  1999041901    010                                07432455081Rua dos Abacateiros                       200Recanto Primavera
03205930420250370840474880406422512520250327009150301010072709508699548870F350390Z014050     101             BPIADILENE EVANGELISTA DE FRANCA 1974071401    010                                07432000081Rua Negrão                                196Jardim Leika
03205930420250370840474880406422512520250320009160301010072701204030715517F350390Z34 028     101             BPIALINE ALVES SOUZA PAIXAO      1996061003    010                                07480440081Rua Pacaembu                              240Jardim São Armando
03205930420250370840474880406422512520250327009170301010072708206132283542F350390Z34 025     101             BPIBRUNA VALIM DE LIMA DOS SANTOS2000010201    010                                07432075081Rua Dady                      CASA 02      95Jardim Emília
03205930420250370840474880406422512520250327009180301010072705409496914391F350390A09 056     101             BPIALDENIZE DA SILVA             1968092703    010                                07432000081Rua Negrão                                276Jardim Leika
03205930420250370840474880406422512520250320009190301010072702503348197933F350390Z39 027     101             BPISABRINA IGNES FERREIRA DE SOUZ1998011201    010                                07432000081Rua Negrão                    CASA 1      269Jardim Leika                  11956881659
03205930420250370840474880406422512520250327009200301010072702003840704988F350390Z30 023     101             BPINICOLLY DE OLIVEIRA ALMEIDA   2001091801    010                                07432000081Rua Negrão                                201Jardim Leika
03205930420250370840474880406422512520250327010010301010072709809034542999F350390N951065     101             BPIJOSEFA FERREIRA DA SILVA      1959050201    010                                07432121081Rua Regina Célia Gomes AlvarenCond2 Bl A  200CDHU Fazenda Albor
03205930420250370840474880406422512520250320010020301010072706208080315665F350390Z34 019     101             BPITAMIRIS KAROLLINY FERREIRA DE 2005110401    010                                07431295081Rua Safira                    CASA FUNDO  307Jardim Jóia                   19999500576
03205930420250370840474880406422512520250320010030301010072709207283424330F350390Z35 037     101             BPICAROLINE PERIS DA SILVA       1988041101    010                                07432455081Rua dos Abacateiros                       179Recanto Primavera
03205930420250370840474880406422512520250320010040301010072709502658685770F350390Z34 027     101             BPIMIREIA SOARES DE ANDRADE      1997092301    010                                07432121081Rua Regina Célia Gomes AlvarenCOND 02 -    90CDHU Fazenda Albor
03205930420250370840474880406422512520250327010050301010072704004381896561F350390N939048     101             BPIANDREIA DE LOURDES APARECIDO D1976071903    010                                07432121081Rua Regina Célia Gomes AlvarenCond3 Bloc   73CDHU Fazenda Albor
03205930420250370840474880406422512520250327010060301010072705002881840456F350390Z014069     101             BPIVALDECI OLIVEIRA MENDONCA JATO1956031601    010                                07432470081Rua das Mangueiras            A           398Recanto Primavera
03205930420250370840474880406422512520250320010070301010072702005819127782F350390Z34 021     101             BPIIZADORA CRISTINA RIBEIRO DA SI2003082103    010                                07432065081Rua Oscar Schiavon            CASA A      126Jardim Emília
03205930420250370840474880406422512520250327010080301010072706701552004012F350390Z30 039     101             BPISOLANGE DA SILVA FERREIRA     1986041103    010                                07432675081Rua Tiaki Ogaçawara           Casa A       33Sítio dos Fernandes
03205930420250370840474880406422512520250327010090301010072704500373801311F350390R10 022     101             BPIISABELA MESSIAS DA SILVA      2002122903    010                                07432065081Rua Oscar Schiavon                        390Jardim Emília
03205930420250370840474880406422512520250320010100301010072706209501146962F350390M544024     101             BPIINGRID KETLIN APARECIDA VIEIRA2000071203    010                                07432060081Rua Nicolau                   Casa 02      88Jardim Emília                 11997291153
03205930420250370840474880406422512520250327010110301010072708501398803370F350390N97 048     101             BPIAPARECIDA SEBASTIANA DA SILVA 1977040501    010                                07432470081Rua das Mangueiras            Casa B      251Recanto Primavera             11995758350
03205930420250370840474880406422512520250320010120301010072700006972546103F350390Z014028     101             BPIBRUNA ALVES DA SILVA          1996101103    010                                07432470081Rua das Mangueiras                        212Recanto Primavera
03205930420250370840474880406422512520250327010130301010072700501723801453F350390Z34 034     101             BPIBRUNA FELIPETTI DA SILVA      1990112301    010                                07432470081Rua das Mangueiras            Casa A      304Recanto Primavera
03205930420250370840474880406422512520250320010140301010072700501723801453F350390Z34 034     101             BPIBRUNA FELIPETTI DA SILVA      1990112301    010                                07432470081Rua das Mangueiras            Casa A      304Recanto Primavera
03205930420250370840474880406422512520250327010150301010072708905760836317F350390Z014053     101             BPIMARIA IRANEIDE DE OLIVEIRA    1971050601    010                                07432060081Rua Nicolau                                77Jardim Emília                 11 46525690
03205930420250370840474880406422512520250327010160301010072709602699619275F350390Z014038     101             BPIFRANCINEIDE MARIA DE ARAUJO   1986120801    010                                07432060081Rua Nicolau                   CASA 01      68Jardim Emília
03205930420250370840474880406422512520250327010170301010072708904725597017F350390Z014035     101             BPILETICIA JANIRA DO PRADO FELIPE1989102601    010                                07465090081Rua Rubens Borba Alves de MoraCASA 2     2010Conjunto Habitacional Juscelin
03205930420250370840474880406422512520250327010180301010072709200216665430F350390N97 032     101             BPIBEATRIZ CADETE DA SILVA       1992120301    010                                07432460081Rua das Jaqueiras             A            51Recanto Primavera
03205930420250370840474880406422512520250320010190301010072706006347791645F350390Z34 034     101             BPIJOSELITA XAVIER FERREIRA      1991010203    010                                07432121081Rua Regina Célia Gomes AlvarenCond3 Bloc   52CDHU Fazenda Albor
03205930420250370840474880406422512520250327010200301010072704500324304210F350390Z014056     101             BPIWALQUIRIA LUIZA NOGUEIRA DA SI1968062102    010                                07432575081Rua Tomi Saburo Yamamoto                  128Jardim das Cerejeiras         11950337181
03205930420250370840474880406422512520250320011010301010072702106798310192F350390O829019     101             BPIRAYSSA MARIANA PIRES DA SILVA 2006040101    010                                07432465081Rua dos Jambeiros                         186Recanto Primavera
03205930420250370840474880406422512520250320011020301010072709206228011231F350390N938042     101             BPICINTIA SILVA DE FARIA         1982091501    010                                07432465081Rua dos Jambeiros                          86Recanto Primavera
03205930420250370840474880406422512520250320011030301010072703607059898038F350390O80 025     101             BPIEDUARDA PRISCILA PEREIRA DA SI1999061203    010                                07432690081Rua Yoshi Sasaoka                         255Sítio dos Fernandes
03205930420250370840474880406422512520250327011040301010072700103978492214F350390N645039     101             BPITASCIANE DOS SANTOS SILVA     1985061403    010                                07432465081Rua dos Jambeiros                          89Recanto Primavera             11 46542857
03205930420250370840474880406422512520250320011050301010072700409920211045F350390Z30 030     101             BPIROBERTA PEREIRA DOS SANTOS    1994062902    010                                07432465081Rua dos Jambeiros             Casa 02     157Recanto Primavera
03205930420250370840474880406422512520250320011060301010072700709944275776F350390O80 024     101             BPIMARIANA SANTOS FERREIRA       2001041001    010                                07432445081Rua das Pitangueiras                      227Recanto Primavera
03205930420250370840474880406422512520250320011070301010072708703199447396F350390N93 031     101             BPIMARIA JOSIANNE SOUZA ARAUJO   1993080503    010                                07432445081Rua das Pitangueiras                       81Recanto Primavera
03205930420250370840474880406422512520250320011080301010072705002446568756F350390C508050     101             BPIROSINEIDE DOS SANTOS SILVA    1974082201    010                                07432050008Avenida Dutra                             144Jardim Emília                 11946219193
03205930420250370840474880406422512520250320011090301010072702006879151087F350390Z30 038     101             BPIMARIA JOSE CORREA DA SILVA    1987042001    010                                07432080081Rua Haroldo                   Casa 02     615Jardim Emília
03205930420250370840474880406422512520250320011100301010072709603678596676F350390Z34 020     101             BPIASHLEY NICOLLY DA SILVA OLIVEI2004042801    010                                07432050008Avenida Dutra                 Casa 01     274Jardim Emília
03205930420250370840474880406422512520250327011110301010072700108958414611F350390Z34 024     101             BPIALINE EMILLY FERREIRA SANTOS  2001021801    010                                07432050008Avenida Dutra                 CASA DE CI  405Jardim Emília
03205930420250370840474880406422512520250320011120301010072702800177950564F350390N939038     101             BPIROSANA NOVAIS SIMONE          1986061103    010                                07432120081Rua Marlene Paiva dos Santos  Casa 1       29CDHU Fazenda Albor
03205930420250370840474880406422512520250320011130301010072708501353897376F350390Z34 020     101             BPIPRISCILA RODRIGUES MARTINS    2005030801    010                                07432080081Rua Haroldo                                95Jardim Emília                 11911050628
03205930420250370840474880406422512520250327011140301010072700004570535008F350390Z014061     101             BPIANGELINA VILELA DO NASCIMENTO 1964040501    010                                07432122081Rua Nicolas Barbosa da Silva  Cond4 Bloc  200CDHU Fazenda Albor
03205930420250370840474880406422512520250320011150301010072705807485500234F350390N80 037     101             BPIJEANE DAVILLA DAS GRACAS LEITE1987111201    010                                07432075081Rua Dady                      Casa 01 Fr   04Jardim Emília
03205930420250370840474880406422512520250320011160301010072700505113522155F350390Z760037     101             BPIIONEIDE FERREIRA ALMEIDA      1987111003    010                                07432450081Rua dos Coqueiros                          91Recanto Primavera
03205930420250370840474880406422512520250320011170301010072701004847780097F350390Z34 016     101             BPIJULIA NEVES LIMA DIOGO        2008122001    010                                07432005081Rua Pedro Pereira da Silva    Casa 2       10Jardim Leika
03205930420250370840474880406422512520250320011180301010072700906950579795F350390Z014070     101             BPIMARIA GORETI FERREIRA DA SILVA1954080303    010                                07432080081Rua Haroldo                                40Jardim Emília                 11 46542816
03205930420250370840474880406422512520250327011190301010072703004851311272F350390F32 012     101             BPINICOLE DE SOUSA MESQUITA SCOPP2013032701    010                                07432455081Rua dos Abacateiros           Casa 02     107Recanto Primavera
03205930420250370840474880406422512520250320011200301010072700400992968942F350390R92 048     101             BPIELISANGELA NANCI DA SILVA DANT1976081603    010                                07432000081Rua Negrão                                265Jardim Leika
03205930420250370840474880406422512520250327012010301010072700500979820251F350390Z760019     101             BPIMARIA EDUARDA DIAS NASCIMENTO 2005110803    010                                07432000081Rua Negrão                    CASA A      118Jardim Leika
03277322820250370080892717798022350520250318001010201020033700007213265908F350390    060     101             BPIIVANICE JESUS DOS SANTOS      1964080401    010                                07417470081Rua José Eduardo da Silva     A           104Parque Rodrigo Barreto
03277322820250370080892717798022350520250321001040201020033700402104243050F350390    051     101             BPIMARIA APARECIDA DA SILVA      1973100103    010                                07400000008                              Casa B      582
03277322820250370080892717798022350520250318001070201020033702006830612781F350390    049     101             BPISIMONI AMERICO FERNANDES      1975120601    010                                07417440081Rua Benedito de Maggio        Casa 02      34Parque Rodrigo Barreto        11977334689
03277322820250370080892717798022350520250307001090201020033704003895456869F350390Z340031     101             BPIINGRID DAYANE LUZ E SILVA     1993091801    010                                07417460081Rua Jorge Cruz                A            29Parque Rodrigo Barreto
03277322820250370080892717798022350520250321001120201020033700805953020187F350390    033     101             BPILIZANDRA FERNANDES DE SOUZA SA1991052701    010                                07417465081Rua Antonia Manoel Fernandes  Casa        598Parque Rodrigo Barreto        11 22655260
03277322820250370080892717798022350520250307001130201020033700405464201840F350390    063     101             BPIELIZABETE MACHARET            1962012301    010                                07417465081Rua Antonia Manoel Fernandes              551Parque Rodrigo Barreto
03277322820250370080892717798022350520250321002030201020033700603911313062F350390    050     101             BPIJUREMA PATRICIA COSTA         1974120503    010                                07401730081Rua Carime Buissa             AP A         96Vila Pilar                    11933823265
03277322820250370080892717798022350520250318002060201020033708009359524921F350390    054     101             BPIANA LOPES RODRIGUES           1970111303    010                                07417320081Rua Claudino Antonio Barbosa              179Parque Rodrigo Barreto        11984118451
03277322820250370080892717798022350520250325003040201020033708501398651775F350390    044     101             BPIALINE ALVES DO NASCIMENTO CARV1980102001    010                                07417465081Rua Antonia Manoel Fernandes              595Parque Rodrigo Barreto
03277322820250370080892717798022350520250327003060201020033704806569431242F353060    032     101             BPIDEBORA BORGES DE PAULA        1992051702    010                                08730660081Rua Jardelina de Almeida LopesBl 10 Apto  935Chácara Jafet
03277322820250370500681930965722350520250328003080201020033706803202878723F350390    061     101             BPIMARIA MARGARIDA DA SILVA      1963090603    010                                07417445561Rua Sada João Fernandes       Casa B       94Parque Rodrigo Barreto
03277322820250370500681930965722350520250328003090201020033708104833024410F350390    046     101             BPIMARIA JOSE SOUZA DA SILVA     1978100402    010                                07417465081Rua Antonia Manoel Fernandes  5           330Parque Rodrigo Barreto
03277322820250370500681930965722350520250325003100201020033704301513879191F350390    055     101             BPIROSELI MULATO PINHEIRO        1970031603    010                                07401770081Rua Justino de Jesus Gomes    A           125Vila Pilar
03277322820250370500681930965722350520250311003110201020033702107725614990F350390    026     101             BPITAMIRES ARAUJO DE FREITAS     1999041501    010                                07417510081Rua José Maria Leandro da Silv            560Parque Rodrigo Barreto
03277322820250370500681930965722350520250328003120201020033700506127446651F350390    036     101             BPIANGELICA RODRIGUES DE OLIVEIRA1989030601    010                                07401785081Rua Maria Helena              Casa        327Vila Pilar
03277322820250370500681930965722350520250311003130201020033705003296260353F350390    054     101             BPIQUITERIA MARIA DA SILVA MOTA  1971031901    010                                07401730081Rua Carime Buissa             A           386Vila Pilar
03277322820250370500681930965722350520250325003140201020033708406292620766F350390    035     101             BPILANDIMARA STEFANELLI          1989092501    010                                07401770081Rua Justino de Jesus Gomes    CS 02       138Vila Pilar
03277322820250370500681930965722350520250328003150201020033708408791708067F350390    040     101             BPIVANIA VIANA DE OLIVEIRA ROGERI1984081101    010                                07417425081Rua Nelson Mastropasqua                    72Parque Rodrigo Barreto
03277322820250370500681930965722350520250328003160201020033700009239399709F350390    041     101             BPILUCILENE DE MELO LOPES        1983082201    010                                07417460081Rua Jorge Cruz                             29Parque Rodrigo Barreto        11956043350
03277322820250370500681930965722350520250311003170201020033706603580711510F350390    024     101             BPIMAYRA CELESTINO SILVA ALVES   2001022801    010                                07417465081Rua Antonia Manoel Fernandes              343Parque Rodrigo Barreto
03277322820250370500681930965722350520250328003180201020033700402932963040F350390    056     101             BPIHELENA TENORIO SILVA          1968112503    010                                07417510081Rua José Maria Leandro da Silv            550Parque Rodrigo Barreto
03277322820250370500681930965722350520250328003190201020033708608059427282F350390    039     101             BPILUANA RODRIGUES DA SILVA      1985112701    010                                07402015081Rua Maria de Lourdes Máximo               135Jardim Renata
03277322820250370500681930965722350520250311003200201020033700102945255611F350390    061     101             BPISILVANEZ BARBOSA DE SOUSA     1964021403    010                                07417265008Avenida Railda Alves de Olivei           2286Parque Rodrigo Barreto
03277322820250370500681930965722350520250325004010201020033704709746303334F350390    026     101             BPIITAMARA QUIRINO DA SILVA      1998112301    010                                07417455081Rua Padre Atílio Garrone      Casa        185Parque Rodrigo Barreto
03277322820250370500681930965722350520250325004020201020033706403196205584F350390    038     101             BPITHAMI RODRIGUES DE SOUZA      1987020501    010                                07417435081Rua Abdon Ferreira Silva                   77Parque Rodrigo Barreto
03277322820250370500681930965722350520250325004030201020033700002309043308F350390    036     101             BPIVALERIA KATIANE LIMA LOPES    1989010401    010                                07417325008Avenida Antonio Armando Justiç            676Parque Rodrigo Barreto
03277322820250370500681930965722350520250325004040201020033708403766772763F350390    057     101             BPIVALDETINA RODRIGUES DA SILVA S1967082901    010                                07417335081Rua Raymundo Fernandes                    210Parque Rodrigo Barreto        11 33701252
03277322820250370840973277606022350520250321004050201020033704201255544487F350390    045     101             BPIEUNICE DE SOUZA               1979080703    010                                07417510081Rua José Maria Leandro da SilvZona Rural  102Parque Rodrigo Barreto
03277322820250370080892717798022350520250305001020214010040704001390036763F350390    028     101             BPIMILLIENY CASSIA LOPES LIMA    1997040301    010                                07402010081Rua Judite Rodrigues Norte                 30Jardim Renata
03277322820250370080892717798022350520250306001160214010040898004860084146F350390    021     101             BPIPOLIANA MARTINELLI DA SILVA   2004020801    010                                07401790008Avenida dos Expedicionários              2345Vila Pilar                    11972917182
03277322820250370080892717798022350520250319002070214010040704008304462963F350390    032     101             BPIMICHELE APARECIDA SOARES DE MI1993030703    010                                07401785081Rua Maria Helena                          295Vila Pilar
03277322820250370080892717798022350520250314002150214010040702008385979388F350390    035     101             BPIJOYCE DARIA PEREIRA DA SILVA  1989103003    010                                07418085031Estrada da Peinha             A          3295Chácara Bananal
03277322820250370080892717798022350520250328002180214010040707302087354870F350390    030     101             BPILILIANE APARECIDA BARBOSA     1994083001    010                                07417450081Rua Rodrigo Mendes Barreto    B            64Parque Rodrigo Barreto
03277322820250370080892717798022350520250310003020214010040706009388349540M350390    019     101             BPIJOAO PAULO FERREIRA AVELINO   2005100701    010                                07442517008RAILDA ALVES DE OLIVEIRA      CASA 02     613PARQUE RODRIGO BARRETO
03277322820250370080892717798022350520250324003030214010040702300556552820F350390    025     101             BPIADRIELLI MARIA DA SILVA       1999052603    010                                07417325008Avenida Antonio Armando Justiç            571Parque Rodrigo Barreto
03277322820250370080892717798022350520250325001050214010058704207725135486F350390    038     101             BPIDANIELA SANTOS DE JESUS MEDEIR1987022603    010                                07417450081Rua Rodrigo Mendes Barreto    Casa 2       31Parque Rodrigo Barreto        11 43950921
03277322820250370080892717798022350520250331001170214010058704101109455271F350390    021     101             BPICAROLINE DE SOUZA FERNANDES   2003082801    010                                07401725081Rua Durval Ferreira de Almeida             53Vila Pilar                    11 46535602
03277322820250370080892717798022350520250313002010214010058706804740890220M350390    027     101             BPICHARLES HENRIQUE FEIJO FONTANA1998041501    010                                07417315081Rua Pedro Leme                             73Parque Rodrigo Barreto        11913373895
03277322820250370080892717798022350520250310002080214010058700006833825801M350390    028     101             BPICLAYTON SANTOS DA SILVA       1996103003    010                                07417455081Rua Padre Atílio Garrone      Casa 2      240Parque Rodrigo Barreto        11 46532552
03277322820250370080892717798022350520250319002170214010058700409488255243M350390    036     101             BPIDIEGO BORGES DE OLIVEIRA      1988121204    010                                07401770081Rua Justino de Jesus Gomes                353Vila Pilar
03277322820250370080892717798022350520250325001060214010074704207725135486F350390    038     101             BPIDANIELA SANTOS DE JESUS MEDEIR1987022603    010                                07417450081Rua Rodrigo Mendes Barreto    Casa 2       31Parque Rodrigo Barreto        11 43950921
03277322820250370080892717798022350520250331001100214010074704101109455271F350390    021     101             BPICAROLINE DE SOUZA FERNANDES   2003082801    010                                07401725081Rua Durval Ferreira de Almeida             53Vila Pilar                    11 46535602
03277322820250370080892717798022350520250313001140214010074706804740890220M350390    027     101             BPICHARLES HENRIQUE FEIJO FONTANA1998041501    010                                07417315081Rua Pedro Leme                             73Parque Rodrigo Barreto        11913373895
03277322820250370080892717798022350520250310002110214010074700006833825801M350390    028     101             BPICLAYTON SANTOS DA SILVA       1996103003    010                                07417455081Rua Padre Atílio Garrone      Casa 2      240Parque Rodrigo Barreto        11 46532552
03277322820250370080892717798022350520250319002200214010074700409488255243M350390    036     101             BPIDIEGO BORGES DE OLIVEIRA      1988121204    010                                07401770081Rua Justino de Jesus Gomes                353Vila Pilar
03277322820250370080892717798022350520250305001030214010082704001390036763F350390    028     101             BPIMILLIENY CASSIA LOPES LIMA    1997040301    010                                07402010081Rua Judite Rodrigues Norte                 30Jardim Renata
03277322820250370080892717798022350520250324001150214010082702300556552820F350390    025     101             BPIADRIELLI MARIA DA SILVA       1999052603    010                                07417325008Avenida Antonio Armando Justiç            571Parque Rodrigo Barreto
03277322820250370080892717798022350520250306001180214010082898004860084146F350390    021     101             BPIPOLIANA MARTINELLI DA SILVA   2004020801    010                                07401790008Avenida dos Expedicionários              2345Vila Pilar                    11972917182
03277322820250370080892717798022350520250328001200214010082707302087354870F350390    030     101             BPILILIANE APARECIDA BARBOSA     1994083001    010                                07417450081Rua Rodrigo Mendes Barreto    B            64Parque Rodrigo Barreto
03277322820250370080892717798022350520250314002100214010082702008385979388F350390    035     101             BPIJOYCE DARIA PEREIRA DA SILVA  1989103003    010                                07418085031Estrada da Peinha             A          3295Chácara Bananal
03277322820250370080892717798022350520250319002190214010082704008304462963F350390    032     101             BPIMICHELE APARECIDA SOARES DE MI1993030703    010                                07401785081Rua Maria Helena                          295Vila Pilar
03277322820250370080892717798022350520250310003050214010082706009388349540M350390    019     101             BPIJOAO PAULO FERREIRA AVELINO   2005100701    010                                07442517008RAILDA ALVES DE OLIVEIRA      CASA 02     613PARQUE RODRIGO BARRETO
03277322820250370080892717798022350520250310001080214010090706009388349540M350390    019     101             BPIJOAO PAULO FERREIRA AVELINO   2005100701    010                                07442517008RAILDA ALVES DE OLIVEIRA      CASA 02     613PARQUE RODRIGO BARRETO
03277322820250370080892717798022350520250313001110214010090706804740890220M350390    027     101             BPICHARLES HENRIQUE FEIJO FONTANA1998041501    010                                07417315081Rua Pedro Leme                             73Parque Rodrigo Barreto        11913373895
03277322820250370080892717798022350520250306001190214010090898004860084146F350390    021     101             BPIPOLIANA MARTINELLI DA SILVA   2004020801    010                                07401790008Avenida dos Expedicionários              2345Vila Pilar                    11972917182
03277322820250370080892717798022350520250325002020214010090704207725135486F350390    038     101             BPIDANIELA SANTOS DE JESUS MEDEIR1987022603    010                                07417450081Rua Rodrigo Mendes Barreto    Casa 2       31Parque Rodrigo Barreto        11 43950921
03277322820250370080892717798022350520250305002040214010090704001390036763F350390    028     101             BPIMILLIENY CASSIA LOPES LIMA    1997040301    010                                07402010081Rua Judite Rodrigues Norte                 30Jardim Renata
03277322820250370080892717798022350520250319002050214010090704008304462963F350390    032     101             BPIMICHELE APARECIDA SOARES DE MI1993030703    010                                07401785081Rua Maria Helena                          295Vila Pilar
03277322820250370080892717798022350520250314002090214010090702008385979388F350390    035     101             BPIJOYCE DARIA PEREIRA DA SILVA  1989103003    010                                07418085031Estrada da Peinha             A          3295Chácara Bananal
03277322820250370080892717798022350520250331002120214010090704101109455271F350390    021     101             BPICAROLINE DE SOUZA FERNANDES   2003082801    010                                07401725081Rua Durval Ferreira de Almeida             53Vila Pilar                    11 46535602
03277322820250370080892717798022350520250310002130214010090700006833825801M350390    028     101             BPICLAYTON SANTOS DA SILVA       1996103003    010                                07417455081Rua Padre Atílio Garrone      Casa 2      240Parque Rodrigo Barreto        11 46532552
03277322820250370080892717798022350520250324002140214010090702300556552820F350390    025     101             BPIADRIELLI MARIA DA SILVA       1999052603    010                                07417325008Avenida Antonio Armando Justiç            571Parque Rodrigo Barreto
03277322820250370080892717798022350520250328002160214010090707302087354870F350390    030     101             BPILILIANE APARECIDA BARBOSA     1994083001    010                                07417450081Rua Rodrigo Mendes Barreto    B            64Parque Rodrigo Barreto
03277322820250370080892717798022350520250319003010214010090700409488255243M350390    036     101             BPIDIEGO BORGES DE OLIVEIRA      1988121204    010                                07401770081Rua Justino de Jesus Gomes                353Vila Pilar
03277322820250370240905660072622371020250327003070301050155709003839775211M350390    006     101             BPIKAIO DOS SANTOS PEREIRA       2018122703    010                                07404040081Rua Serra do Itapeti          Casa        122Mirante do Arujá
03277384820250370040548352504422350520250329001010201020033704809555477345F350390    031     101             BPICARLA BENITE GOMES DA FONSECA 1993050401    010                                07404110081Rua Serra da Lua                           55Mirante do Arujá
03277384820250370040548352504422350520250329001020201020033701006819102693F350390    037     101             BPIMARIA CELESTE DE JESUS SANTOS 1987082303    010                                07404120081Rua Serra de Paranapiacaba    Casa 2      200Mirante do Arujá              11996633473
03277384820250370040548352504422350520250329001030201020033708504391827579F350390    057     101             BPIELIANA VIEIRA DE SOUZA SANTANA1967102603    010                                07404120081Rua Serra de Paranapiacaba                130Mirante do Arujá
03277384820250370040548352504422350520250329001040201020033708603543673089F350390    046     101             BPIMARIA HELENA CAMPOS DA SILVA  1978051701    010                                07404120081Rua Serra de Paranapiacaba                 65Mirante do Arujá              11 46532145
03277384820250370040548352504422350520250329001050201020033703202626073595F350390    075     101             BPIMARIA JOSE DE SOUSA SANTOS    1949062301    010                                07404090081Rua Serra do Jaire            CASA 1      485Mirante do Arujá
03277384820250370040548352504422350520250329001060201020033709609682620271F350390    036     101             BPIEDNA MARIA DA SILVA           1988121302    010                                07404155081Rua Serra de Itaberaba        Casa 01     181Mirante do Arujá              11933698370
03277384820250370040548352504422350520250329001070201020033708600012875087F350390    058     101             BPIIVANILDES DOS SANTOS SILVA    1966122702    010                                07404155081Rua Serra de Itaberaba                    181Mirante do Arujá
03277384820250370040548352504422350520250329001080201020033700006541178407F350390    063     101             BPIELENITA APARECIDA DE SOUZA OLI1961092803    010                                07404155081Rua Serra de Itaberaba        A            35Mirante do Arujá              11 46803248
03277384820250370040548352504422350520250329001090201020033708509311768575F350390    069     101             BPISONILES DE FTIMA DE CASTRO    1956032701    010                                07405435081Rua João de Barro                          39Jardim Pinheiro
03277384820250370040548352504422350520250329001100201020033708209196663047F350390    050     101             BPIFABIANA RODRIGUES             1974091903    010                                07405435081Rua João de Barro             A           214Jardim Pinheiro               11 46513188
03277384820250370040548352504422350520250329001110201020033707009845738437F350390    065     101             BPIADELICIA MARIA DA SILVA       1959080603    010                                07404185081Rua Serra do Araripe          Casa 2      292Mirante do Arujá              11951996404
03277384820250370040548352504422350520250329001120201020033705004679367550F350390    025     101             BPILAIS DOS SANTOS AMORIM        2000020203    010                                07400970081Avenida dos Expedicionários 29             40Jardim Rincão                 11971762189
03277384820250370040548352504422350520250329001130201020033207442681540018F350390    058     101             BPIGERZINA DA SILVA LOURENCO     1966091204    010                                07400970081Avenida dos Expedicionários 29A           645Jardim Rincão
03277384820250370040548352504422350520250329001140201020033703403266821500F350390    045     101             BPIANGELA APARECIDA DEMESTRINE FR1979101901    010                                07405310081Rua José Rodrigues Barbosa                921Pedra Fala
03277384820250370040548352504422350520250329001150201020033700605457447668F350390    060     101             BPIMARIA DE FATIMA MARTINS CANDID1964121901    010                                07404150081Rua Serra do Espinhaço                    449Mirante do Arujá              11971553546
03277384820250370040548352504422350520250329001160201020033705309449980090F350390    067     101             BPIALDECI FRANCISCA DOS SANTOS SI1958042003    010                                07405455081Rua Canário                   CASA 1      370Jardim Pinheiro               11974266580
03277384820250370040548352504422350520250329001170201020033707105339944620F350390    026     101             BPIGABRIELA SANTOS SABINO        1998061603    010                                07405455081Rua Canário                               330Jardim Pinheiro               11954819180
03277384820250370040548352504422350520250329001180201020033701004844344695F350390    070     101             BPISEVERINA CORDEIRO LOPES DE ASS1955020603    010                                07404095081Rua Serra do Jari             A            99Mirante do Arujá
03277384820250370040548352504422350520250329001190201020033704203749786882F350390    035     101             BPIERICA PALOMA MAGELA DE LIMA DI1990040901    010                                07404095081Rua Serra do Jari                          68Mirante do Arujá
03277384820250370040548352504422350520250329001200201020033706400134519884F350390    064     101             BPILEONORA GOMES DE SOUZA        1960111303    010                                07405450081Rua Gaivota                   CASA 1      166Jardim Pinheiro
03277384820250370040548352504422350520250329002010201020033702401585354020F350390    051     101             BPIMEIRE ALVES BAIS              1973060801    010                                07404105081Rua Serra do Botucatu                      58Mirante do Arujá
03277384820250370040548352504422350520250329002020201020033700307996399834F350390    058     101             BPIMARIA DA LUZ DOS SANTOS QUEIRO1967021102    010                                07405400081Rua Tuím                                   57Jardim Pinheiro
03277384820250370040548352504422350520250329002030201020033700400993641645F350390    020     101             BPIMARIA FERNANDA ALVES DA SILVA 2004070402    010                                07405400081Rua Tuím                                   42Jardim Pinheiro
03277384820250370040548352504422350520250329002040201020033700403916447344F350390    032     101             BPIMASSARA MARIA BUENO DA SILVA  1992080303    010                                07405400081Rua Tuím                                  211Jardim Pinheiro               11995518524
03277384820250370040548352504422350520250329002050201020033700500521775051F350390    071     101             BPINILZA ROBERTA DOS SANTOS      1953091401    010                                07405400081Rua Tuím                                  217Jardim Pinheiro               11 46513417
03277384820250370040548352504422350520250329002060201020033700509198342452F350390    044     101             BPIVANILDA MARIA ALVES DA SILVA  1981021603    010                                07405400081Rua Tuím                                   42Jardim Pinheiro               11 46531744
03277384820250370040548352504422350520250329002070201020033708109535936432F350390    060     101             BPIRUTE VAZ DA SILVA BRASIL      1964101501    010                                07405430081Rua Prefeito Julio Barbosa de Mudou SE    220Jardim Pinheiro               11 46533917
03277384820250370040548352504422350520250329002080201020033706409150514881F350390    039     101             BPISIMONE APARECIDA FERREIRA DO N1985072902    010                                07405430081Rua Prefeito Julio Barbosa de A           164Jardim Pinheiro
03277384820250370040548352504422350520250329002090201020033705009291078757F350390    046     101             BPINELIA DAS GRAAS TEIXEIRA      1978062103    010                                07405430081Rua Prefeito Julio Barbosa de             164Jardim Pinheiro
03277384820250370040548352504422350520250329002100201020033700103857600490F350390    048     101             BPIMARIA APARECIDA DE OLIVEIRA DE1976052701    010                                07405430081Rua Prefeito Julio Barbosa de             291Jardim Pinheiro
03277384820250370040548352504422350520250329002110201020033700307916298831F350390    060     101             BPIAPARECIDA RODRIGUES DE SOUZA  1964102001    010                                07404115081Rua Serra da Bocaina          CASA 1       69Mirante do Arujá              11998776814
03277384820250370040548352504422350520250329002120201020033704605115270228F350390    047     101             BPIANA PAULA DA SILVA COSTA REIS 1978012503    010                                07404075081Rua Serra do Mar              FUNDOS      314Mirante do Arujá              11 46535600
03277384820250370040548352504422350520250329002130201020033702603235981646F350390    029     101             BPIKARINA MARIANA TAVARES DO ESPI1996040301    010                                07404075081Rua Serra do Mar              A FUNDOS    222Mirante do Arujá              11 46512153
03277384820250370040548352504422350520250329002140201020033700006675529506F350390    043     101             BPIMARIA DE LOURDES SOARES DOS SA1981100503    010                                07404075081Rua Serra do Mar                          326Mirante do Arujá
03277384820250370040548352504422350520250329002150201020033708908722241916F350390    037     101             BPIELISA DE OLIVEIRA BRANCO      1988031001    010                                07405440081Rua Jacutinga                 A CASA 1    210Jardim Pinheiro
03277384820250370040548352504422350520250329002160201020033708605534762785F350390    053     101             BPIVALDETE ALVES VERNECK         1971102801    010                                07405440081Rua Jacutinga                 A- CASA 1   221Jardim Pinheiro               11973362598
03277384820250370040548352504422350520250329002170201020033701806284469670F350390    046     101             BPIELISABETE BARBOSA DOS SANTOS  1978101601    010                                07404145081Rua Serra Geral               Atualizado  428Mirante do Arujá
03277384820250370040548352504422350520250329002180201020033708205684642142F350390    067     101             BPIMARIA JOSEFA DE MELO          1957052303    010                                07405465081Rua Perdizes                              240Jardim Pinheiro
03277384820250370040548352504422350520250329002190201020033701800218243877F350390    042     101             BPIMARIA EDJANE DA SILVA NUNES   1983010203    010                                07428320081Rua Serpentina                            178Jardim Fazenda Rincão
03277384820250370040548352504422350520250329002200201020033700307969654535F350390    026     101             BPIBEATRIZ MARTINS TAVARES DA SIL1998052801    010                                07440015081Rua Jatobá                               1755Chácaras Vista Alegre
03277384820250370040548352504422350520250329003010201020033700308962294038F350390    037     101             BPIMANUELA SILVA DE JESUS        1988010503    010                                07405415081Rua Macuco                    A           188Jardim Pinheiro               11948864544
03277384820250370040548352504422350520250329003020201020033708603057750685F350390    036     101             BPICAROLINA SANTOS               1988050903    010                                07405425081Rua Rouxinol                  CASA B       77Jardim Pinheiro
03277384820250370040548352504422350520250329003030201020033704109150503576F350390    030     101             BPIDEBORAH STEPHANIE DA SILVA    1995031701    010                                07404085081Rua Serra de Bragança                     250Mirante do Arujá
03277384820250370040548352504422350520250329003040201020033700504947257555F350390    042     101             BPIADRIANA VASTEMAN PERES CANTERO1982103001    010                                07404085081Rua Serra de Bragança                      18Mirante do Arujá
03277384820250370040548352504422350520250329003050201020033700000328306503F350390    033     101             BPIBRUNA BENITE MIRANDA          1992030702    010                                07404175081Rua Serra da Mata da Corda    Casa 03     180Mirante do Arujá
03277384820250370040548352504422350520250329003060201020033708105699516440F350390    034     101             BPIJESSICA APARECIDA BARBOZA     1990122103    010                                07404210081Rua Serra dos Tinguás         APTO 1      197Mirante do Arujá              11 46513956
03277384820250370040548352504422350520250329003070201020033708200114041642F350390    046     101             BPINEIDE FERNANDES DE SOUSA      1978060702    010                                07404020031Estrada dos Fernandes         Sunset     1650Mirante do Arujá
03277384820250370040548352504422350520250329003080201020033708502578867580F350390    049     101             BPIEVA MARIA DE OLIVEIRA         1976021601    010                                07404215081Rua Serra Pelada              A            10Mirante do Arujá              11995894717
03277384820250370040548352504422350520250329003090201020033702800147434568F350390    044     101             BPIPATRICIA APARECIDA DE PETTA   1980042301    010                                07405445081Rua Andorinha                              63Jardim Pinheiro
03277384820250370040548352504422350520250329003100201020033700505749619958F350390    061     101             BPIMARIA DE FATIMA ROSARIO LUCIO 1963093003    010                                07405445081Rua Andorinha                 COND 2 BL   415Jardim Pinheiro               11 42373688
03277384820250370040548352504422350520250329003110201020033702902501674874F350390    039     101             BPITATIANA DA SILVA              1985112203    010                                07407015081Rua Sebastião Cubas dos Santos             35Jardim Santo Antônio
03277384820250370040548352504422350520250329003120201020033700702949870374F350390    019     101             BPIYASMIN FARIA MENDES           2005081001    010                                07403045081Rua João de Lima              Casa 2      204Arujamérica
03277384820250370280866848406422350520250313005080201020033700404909938746F350390    044     101             BPIERIKA JOSE DOS SANTOS VITOR   1980122703    010                                07404210081Rua Serra dos Tinguás                     143Mirante do Arujá
03277384820250370280866848406422350520250320005090201020033700002318280600F350390    054     101             BPIELENICE MARQUES DOS SANTOS    1971011601    010                                07404210081Rua Serra dos Tinguás                     144Mirante do Arujá              11 46533300
03277384820250370280866848406422350520250327005100201020033708403751412065F350390    055     101             BPIROSANGELA CLEIA DE OLIVEIRA QU1970032001    010                                07404090081Rua Serra do Jaire                        129Mirante do Arujá
03277384820250370280866848406422350520250320006010201020033704700798837331F350390    057     101             BPIMARIA SANTANA DE JESUS        1968040503    010                                07404180081Rua Serra do Caiapó                        46Mirante do Arujá
03277384820250370280866848406422350520250320006180201020033700404413842740F350390    035     101             BPICAMILA DOS SANTOS FERREIRA    1989100801    010                                07404110081Rua Serra da Lua                          130Mirante do Arujá              11968551486
03277384820250370280866848406422350520250313007010201020033700000032688800F350390    025     101             BPIJESSICA CARDOSO DE CERQUEIRA  2000032201    010                                07404165031Estrada dos Fernandes         LOTE 51    2540Mirante do Arujá
03277384820250370280866848406422350520250313007020201020033702900542752177F350390    058     101             BPIANA LUCIA SANTANA FERNANDES   1966102202    010                                07405400561Rua Tuím                                  228Jardim Pinheiro
