01#BPA#2024100103430002512130SECRETARIA MUNICIPAL DE SAUDE SMS   56901275000150SECRETARIA ESTADUAL DE SAUDE            MD04.01    
022059304202410223505001010101040024000000010BPA
022059304202410223710001020101040024000000050BPA
022059304202410225124001030101040024000000001BPA
022059304202410225125001040101040024000000010BPA
022059304202410225250001050101040024000000044BPA
022059304202410322230001060101040024000000122BPA
022059304202410322250001070101040024000000083BPA
022059304202410223505001080201020041000000078BPA
022059304202410322230001090201020041000000246BPA
022059304202410322250001100201020041000000066BPA
022059304202410223505001110214010015000000025BPA
022059304202410225142001120214010015000000011BPA
022059304202410322230001130214010015000000021BPA
022059304202410322250001140214010015000000014BPA
022059304202410223505001150301010110025000001BPA
022059304202410223505001160301010110034000001BPA
022059304202410223505001170301010110020000001BPA
022059304202410223505001180301010110031000002BPA
022059304202410223505001190301010110035000001BPA
022059304202410223505001200301010110017000001BPA
022059304202410223505002010301010110024000001BPA
022059304202410223505002020301010110029000002BPA
022059304202410223505002030301010110028000002BPA
022059304202410223505002040301010110021000001BPA
022059304202410223505002050301010110043000001BPA
022059304202410225125002060301010110026000001BPA
022059304202410225125002070301010110020000001BPA
022059304202410225125002080301010110032000001BPA
022059304202410225125002090301010110028000001BPA
022059304202410225125002100301010110024000001BPA
022059304202410225125002110301010110039000001BPA
022059304202410225125002120301010110033000001BPA
022059304202410225125002130301010110021000003BPA
022059304202410225125002140301010110031000001BPA
022059304202410225125002150301010110046000001BPA
022059304202410225250002160301010110022000009BPA
022059304202410225250002170301010110016000002BPA
022059304202410225250002180301010110018000006BPA
022059304202410225250002190301010110029000002BPA
022059304202410225250002200301010110034000001BPA
022059304202410225250003010301010110026000003BPA
022059304202410225250003020301010110036000001BPA
022059304202410225250003030301010110019000001BPA
022059304202410225250003040301010110020000004BPA
022059304202410225250003050301010110030000002BPA
022059304202410225250003060301010110038000002BPA
022059304202410225250003070301010110023000001BPA
022059304202410225250003080301010110028000002BPA
022059304202410225250003090301010110025000006BPA
022059304202410225250003100301010110021000002BPA
022059304202410225250003110301010110031000003BPA
022059304202410225250003120301010110035000001BPA
022059304202410225250003130301010110033000003BPA
022059304202410225250003140301010110015000002BPA
022059304202410225142003150301010137101000001BPA
022059304202410225142003160301010137088000001BPA
022059304202410223208003170301010153000000083BPA
022059304202410223505003180301040079000000074BPA
022059304202410322230003190301040079000000107BPA
022059304202410322250003200301040079000000029BPA
022059304202410223208004010301060037000000073BPA
022059304202410223208004020301100039000000002BPA
022059304202410223505004030301100039000000064BPA
022059304202410225125004040301100039000000010BPA
022059304202410225142004050301100039000000133BPA
022059304202410225250004060301100039000000044BPA
022059304202410322230004070301100039000000076BPA
022059304202410322250004080301100039000000065BPA
022059304202410322230004090301100152000000009BPA
022059304202410322250004100301100152000000004BPA
022773228202410223505001010101040024000000014BPA
022773228202410223710001020101040024000000056BPA
022773228202410225125001030101040024000000013BPA
022773228202410225250001040101040024000000062BPA
022773228202410322230001050101040024000000290BPA
022773228202410223505001060201020041000000016BPA
022773228202410322230001070201020041000000320BPA
022773228202410225125001080214010015000000001BPA
022773228202410322230001090214010015000000022BPA
022773228202410223505001100301010110041000002BPA
022773228202410223505001110301010110021000002BPA
022773228202410223505001120301010110019000001BPA
022773228202410223505001130301010110020000001BPA
022773228202410223505001140301010110026000002BPA
022773228202410223505001150301010110023000004BPA
022773228202410223505001160301010110032000002BPA
022773228202410223505001170301010110029000002BPA
022773228202410223505001180301010110022000002BPA
022773228202410223505001190301010110024000003BPA
022773228202410223505001200301010110027000001BPA
022773228202410225250002010301010110035000002BPA
022773228202410225250002020301010110022000007BPA
022773228202410225250002030301010110031000003BPA
022773228202410225250002040301010110026000005BPA
022773228202410225250002050301010110033000002BPA
022773228202410225250002060301010110019000001BPA
022773228202410225250002070301010110032000002BPA
022773228202410225250002080301010110037000001BPA
022773228202410225250002090301010110017000001BPA
022773228202410225250002100301010110016000001BPA
022773228202410225250002110301010110021000003BPA
022773228202410225250002120301010110028000003BPA
022773228202410225250002130301010110041000002BPA
022773228202410225250002140301010110024000002BPA
022773228202410225250002150301010110025000004BPA
022773228202410225250002160301010110027000004BPA
022773228202410225250002170301010110018000002BPA
022773228202410225250002180301010110030000002BPA
022773228202410225250002190301010110040000001BPA
022773228202410225250002200301010110020000001BPA
022773228202410225250003010301010110039000001BPA
022773228202410225250003020301010110036000003BPA
022773228202410225250003030301010110023000003BPA
022773228202410225250003040301010110029000004BPA
022773228202410223208003050301010153000000018BPA
022773228202410322230003060301040079000000021BPA
022773228202410223208003070301060037000000058BPA
022773228202410223505003080301100039000000014BPA
022773228202410225125003090301100039000000174BPA
022773228202410225250003100301100039000000071BPA
022773228202410322230003110301100039000000092BPA
022773228202410322230003120301100152000000018BPA
022773848202410223505001010101040024000000040BPA
022773848202410223710001020101040024000000064BPA
022773848202410225250001030101040024000000061BPA
022773848202410322250001040101040024000000322BPA
022773848202410322250001050102010226000000002BPA
022773848202410223505001060201020041000000059BPA
022773848202410322250001070201020041000000374BPA
022773848202410223505001080214010015000000040BPA
022773848202410322230001090214010015000000001BPA
022773848202410322250001100214010015000000090BPA
022773848202410223505001110301010110031000001BPA
022773848202410223505001120301010110016000001BPA
022773848202410223505001130301010110023000004BPA
022773848202410223505001140301010110039000001BPA
022773848202410223505001150301010110018000001BPA
022773848202410223505001160301010110020000001BPA
022773848202410223505001170301010110025000001BPA
022773848202410223505001180301010110028000004BPA
022773848202410223505001190301010110017000001BPA
022773848202410223505001200301010110026000002BPA
022773848202410223505002010301010110019000001BPA
022773848202410223505002020301010110024000002BPA
022773848202410223505002030301010110032000001BPA
022773848202410223505002040301010110035000001BPA
022773848202410223505002050301010110022000001BPA
022773848202410223505002060301010110021000002BPA
022773848202410223505002070301010110027000002BPA
022773848202410223505002080301010110014000001BPA
022773848202410225250002090301010110025000003BPA
022773848202410225250002100301010110019000004BPA
022773848202410225250002110301010110046000001BPA
022773848202410225250002120301010110014000001BPA
022773848202410225250002130301010110036000001BPA
022773848202410225250002140301010110020000006BPA
022773848202410225250002150301010110021000008BPA
022773848202410225250002160301010110040000001BPA
022773848202410225250002170301010110017000009BPA
022773848202410225250002180301010110032000002BPA
022773848202410225250002190301010110031000006BPA
022773848202410225250002200301010110028000005BPA
022773848202410225250003010301010110015000002BPA
022773848202410225250003020301010110023000012BPA
022773848202410225250003030301010110030000004BPA
022773848202410225250003040301010110034000002BPA
022773848202410225250003050301010110037000001BPA
022773848202410225250003060301010110018000004BPA
022773848202410225250003070301010110027000003BPA
022773848202410225250003080301010110026000012BPA
022773848202410225250003090301010110029000001BPA
022773848202410225250003100301010110016000001BPA
022773848202410225250003110301010110022000007BPA
022773848202410225250003120301010110024000006BPA
022773848202410225250003130301010110039000002BPA
022773848202410225250003140301010110033000001BPA
022773848202410223710003150301010137069000001BPA
022773848202410223710003160301010137080000001BPA
022773848202410223208003170301010153000000186BPA
022773848202410223505003180301040079000000081BPA
022773848202410322230003190301040079000000001BPA
022773848202410322250003200301040079000000192BPA
022773848202410223208004010301060037000000030BPA
022773848202410223505004020301100039000000130BPA
022773848202410225142004030301100039000000004BPA
022773848202410225250004040301100039000000061BPA
022773848202410322230004050301100039000000003BPA
022773848202410322250004060301100039000000332BPA
022773848202410322250004070301100101000000001BPA
022773848202410322250004080301100152000000016BPA
022773856202410223505001010101040024000000035BPA
022773856202410223710001020101040024000000181BPA
022773856202410225125001030101040024000000075BPA
022773856202410225142001040101040024000000173BPA
022773856202410225250001050101040024000000072BPA
022773856202410322230001060101040024000000035BPA
022773856202410322250001070101040024000000452BPA
022773856202410223505001080201020041000000273BPA
022773856202410322230001090201020041000000129BPA
022773856202410322250001100201020041000000535BPA
022773856202410223505001110214010015000000014BPA
022773856202410225125001120214010015000000008BPA
022773856202410225142001130214010015000000008BPA
022773856202410322250001140214010015000000046BPA
022773856202410225124001150301010072012000002BPA
022773856202410225124001160301010072007000008BPA
022773856202410225124001170301010072010000002BPA
022773856202410225124001180301010072004000007BPA
022773856202410225124001190301010072000000018BPA
022773856202410225124001200301010072011000003BPA
022773856202410225124002010301010072005000002BPA
022773856202410225124002020301010072008000008BPA
022773856202410225124002030301010072002000008BPA
022773856202410225124002040301010072006000003BPA
022773856202410225124002050301010072001000007BPA
022773856202410225124002060301010072003000005BPA
022773856202410223505002070301010110026000001BPA
022773856202410223505002080301010110021000001BPA
022773856202410223505002090301010110020000002BPA
022773856202410223505002100301010110019000001BPA
022773856202410223505002110301010110038000002BPA
022773856202410223505002120301010110024000002BPA
022773856202410223505002130301010110015000001BPA
022773856202410223505002140301010110018000001BPA
022773856202410223505002150301010110016000001BPA
022773856202410223505002160301010110031000002BPA
022773856202410223505002170301010110032000001BPA
022773856202410223505002180301010110030000001BPA
022773856202410223505002190301010110025000001BPA
022773856202410223505002200301010110043000001BPA
022773856202410223505003010301010110029000001BPA
022773856202410223505003020301010110034000001BPA
022773856202410223505003030301010110027000003BPA
022773856202410223505003040301010110023000002BPA
022773856202410223505003050301010110037000001BPA
022773856202410223505003060301010110017000001BPA
022773856202410225125003070301010110027000003BPA
022773856202410225125003080301010110042000001BPA
022773856202410225125003090301010110030000006BPA
022773856202410225125003100301010110037000005BPA
022773856202410225125003110301010110016000005BPA
022773856202410225125003120301010110023000009BPA
022773856202410225125003130301010110015000002BPA
022773856202410225125003140301010110024000006BPA
022773856202410225125003150301010110031000005BPA
022773856202410225125003160301010110019000004BPA
022773856202410225125003170301010110020000002BPA
022773856202410225125003180301010110029000008BPA
022773856202410225125003190301010110035000003BPA
022773856202410225125003200301010110028000003BPA
022773856202410225125004010301010110039000006BPA
022773856202410225125004020301010110038000001BPA
022773856202410225125004030301010110022000003BPA
022773856202410225125004040301010110025000005BPA
022773856202410225125004050301010110045000001BPA
022773856202410225125004060301010110032000002BPA
022773856202410225125004070301010110040000002BPA
022773856202410225125004080301010110018000004BPA
022773856202410225125004090301010110017000001BPA
022773856202410225125004100301010110026000006BPA
022773856202410225125004110301010110021000006BPA
022773856202410225250004120301010110022000004BPA
022773856202410225250004130301010110029000008BPA
022773856202410225250004140301010110027000007BPA
022773856202410225250004150301010110023000006BPA
022773856202410225250004160301010110024000002BPA
022773856202410225250004170301010110028000007BPA
022773856202410225250004180301010110019000002BPA
022773856202410225250004190301010110025000003BPA
022773856202410225250004200301010110030000006BPA
022773856202410225250005010301010110018000001BPA
022773856202410225250005020301010110026000003BPA
022773856202410225250005030301010110040000006BPA
022773856202410225250005040301010110017000008BPA
022773856202410225250005050301010110021000005BPA
022773856202410225250005060301010110035000004BPA
022773856202410225250005070301010110038000001BPA
022773856202410225250005080301010110032000005BPA
022773856202410225250005090301010110020000007BPA
022773856202410225250005100301010110031000013BPA
022773856202410223208005110301010153000000208BPA
022773856202410223505005120301040079000000023BPA
022773856202410322250005130301040079000000115BPA
022773856202410223208005140301060037000000050BPA
022773856202410223208005150301100039000000002BPA
022773856202410223505005160301100039000000060BPA
022773856202410225125005170301100039000000110BPA
022773856202410225142005180301100039000000495BPA
022773856202410225250005190301100039000000078BPA
022773856202410322230005200301100039000000026BPA
022773856202410322250006010301100039000000360BPA
022773856202410322250006020301100101000000006BPA
022773856202410223505006030301100152000000001BPA
022773856202410322250006040301100152000000031BPA
023044114202410223505001010101040024000000040BPA
023044114202410223710001020101040024000000039BPA
023044114202410225125001030101040024000000001BPA
023044114202410225250001040101040024000000041BPA
023044114202410322230001050101040024000000113BPA
023044114202410223505001060201020041000000066BPA
023044114202410322230001070201020041000000121BPA
023044114202410223505001080214010015000000257BPA
023044114202410322230001090214010015000000034BPA
023044114202410223505001100301010110021000001BPA
023044114202410223505001110301010110025000001BPA
023044114202410223505001120301010110023000001BPA
023044114202410223505001130301010110032000001BPA
023044114202410223505001140301010110026000001BPA
023044114202410223505001150301010110038000001BPA
023044114202410223505001160301010110024000003BPA
023044114202410225125001170301010110032000001BPA
023044114202410225250001180301010110024000002BPA
023044114202410225250001190301010110022000001BPA
023044114202410225250001200301010110019000002BPA
023044114202410225250002010301010110025000001BPA
023044114202410225250002020301010110033000001BPA
023044114202410225250002030301010110039000001BPA
023044114202410225250002040301010110018000001BPA
023044114202410225250002050301010110031000006BPA
023044114202410225250002060301010110020000001BPA
023044114202410225250002070301010110026000001BPA
023044114202410225250002080301010110027000004BPA
023044114202410225250002090301010110023000002BPA
023044114202410225250002100301010110034000001BPA
023044114202410225250002110301010110032000004BPA
023044114202410225250002120301010110038000002BPA
023044114202410225250002130301010110040000002BPA
023044114202410225250002140301010110030000002BPA
023044114202410225250002150301010110021000003BPA
023044114202410225250002160301010110036000001BPA
023044114202410225250002170301010110028000007BPA
023044114202410223208002180301010153000000019BPA
023044114202410322230002190301040079000000026BPA
023044114202410223208002200301060037000000042BPA
023044114202410223505003010301100039000000195BPA
023044114202410225125003020301100039000000001BPA
023044114202410225250003030301100039000000040BPA
023044114202410322230003040301100039000000167BPA
023044114202410322230003050301100101000000001BPA
023044114202410322230003060301100152000000011BPA
024794486202410223710001010101040024000000009BPA
024794486202410251605001020301040036000000004BPA
024794486202410251605001030301040079000000001BPA
026430163202410251510001010301010137035000001BPA
026430163202410251510001020301010137062000001BPA
026430163202410251510001030301080160000000022BPA
026430163202410322230001040301100039000000090BPA
026451098202410225124001010101040024000000113BPA
026451098202410225124001020301060037000000001BPA
026896839202410223208001010301010153000000107BPA
026896839202410223212001020301010153000000042BPA
026896839202410223288001030301010153000000002BPA
026896839202410223208001040301100039000000001BPA
026896847202410223505001010101040024000000016BPA
026896847202410223505001020101040024000000001BPA
026896847202410223710001030101040024000000019BPA
026896847202410225124001040101040024000000083BPA
026896847202410225125001050101040024000000020BPA
026896847202410225250001060101040024000000023BPA
026896847202410322205001070101040024000001115BPA
026896847202410322205001080101040024000001908BPA
026896847202410322230001090101040024000000081BPA
026896847202410225112001100102010072000000003BPA
026896847202410225120001110102010072000000001BPA
026896847202410225125001120102010072000000001BPA
026896847202410225135001130102010072000000001BPA
026896847202410225270001140102010072000000004BPA
026896847202410223505001150201020041000000002BPA
026896847202410322205001160201020041000000581BPA
026896847202410223505001170214010015000000017BPA
026896847202410223505001180214010015000000002BPA
026896847202410322205001190214010015000000518BPA
026896847202410322205001200214010015000000365BPA
026896847202410322230002010214010015000000082BPA
026896847202410225112002020301010072046000009BPA
026896847202410225112002030301010072021000003BPA
026896847202410225112002040301010072100000001BPA
026896847202410225112002050301010072077000008BPA
026896847202410225112002060301010072037000009BPA
026896847202410225112002070301010072010000002BPA
026896847202410225112002080301010072058000008BPA
026896847202410225112002090301010072004000001BPA
026896847202410225112002100301010072091000003BPA
026896847202410225112002110301010072078000005BPA
026896847202410225112002120301010072073000008BPA
026896847202410225112002130301010072075000008BPA
026896847202410225112002140301010072061000008BPA
026896847202410225112002150301010072067000008BPA
026896847202410225112002160301010072059000011BPA
026896847202410225112002170301010072011000001BPA
026896847202410225112002180301010072005000002BPA
026896847202410225112002190301010072031000006BPA
026896847202410225112002200301010072020000004BPA
026896847202410225112003010301010072025000002BPA
026896847202410225112003020301010072027000001BPA
026896847202410225112003030301010072087000001BPA
026896847202410225112003040301010072034000003BPA
026896847202410225112003050301010072090000002BPA
026896847202410225112003060301010072015000006BPA
026896847202410225112003070301010072024000005BPA
026896847202410225112003080301010072007000002BPA
026896847202410225112003090301010072016000004BPA
026896847202410225112003100301010072014000007BPA
026896847202410225112003110301010072044000009BPA
026896847202410225112003120301010072043000004BPA
026896847202410225112003130301010072013000002BPA
026896847202410225112003140301010072030000002BPA
026896847202410225112003150301010072042000010BPA
026896847202410225112003160301010072065000008BPA
026896847202410225112003170301010072050000003BPA
026896847202410225112003180301010072069000008BPA
026896847202410225112003190301010072082000004BPA
026896847202410225112003200301010072017000003BPA
026896847202410225112004010301010072088000001BPA
026896847202410225112004020301010072023000003BPA
026896847202410225112004030301010072089000001BPA
026896847202410225112004040301010072009000001BPA
026896847202410225112004050301010072076000009BPA
026896847202410225112004060301010072070000005BPA
026896847202410225112004070301010072072000009BPA
026896847202410225112004080301010072033000003BPA
026896847202410225112004090301010072029000004BPA
026896847202410225112004100301010072071000007BPA
026896847202410225112004110301010072040000007BPA
026896847202410225112004120301010072063000006BPA
026896847202410225112004130301010072038000007BPA
026896847202410225112004140301010072068000009BPA
026896847202410225112004150301010072083000002BPA
026896847202410225112004160301010072026000002BPA
026896847202410225112004170301010072036000002BPA
026896847202410225112004180301010072049000006BPA
026896847202410225112004190301010072079000006BPA
026896847202410225112004200301010072022000002BPA
026896847202410225112005010301010072039000005BPA
026896847202410225112005020301010072052000009BPA
026896847202410225112005030301010072001000001BPA
026896847202410225112005040301010072057000006BPA
026896847202410225112005050301010072085000003BPA
026896847202410225112005060301010072048000005BPA
026896847202410225112005070301010072032000004BPA
026896847202410225112005080301010072008000002BPA
026896847202410225112005090301010072018000005BPA
026896847202410225112005100301010072051000002BPA
026896847202410225112005110301010072035000007BPA
026896847202410225112005120301010072054000007BPA
026896847202410225112005130301010072060000011BPA
026896847202410225112005140301010072019000005BPA
026896847202410225112005150301010072047000007BPA
026896847202410225112005160301010072062000010BPA
026896847202410225112005170301010072028000005BPA
026896847202410225112005180301010072055000007BPA
026896847202410225112005190301010072002000001BPA
026896847202410225112005200301010072064000008BPA
026896847202410225112006010301010072045000011BPA
026896847202410225112006020301010072074000011BPA
026896847202410225112006030301010072086000003BPA
026896847202410225112006040301010072012000001BPA
026896847202410225112006050301010072080000003BPA
026896847202410225112006060301010072056000007BPA
026896847202410225112006070301010072066000011BPA
026896847202410225112006080301010072084000004BPA
026896847202410225112006090301010072003000003BPA
026896847202410225112006100301010072041000007BPA
026896847202410225112006110301010072053000006BPA
026896847202410225120006120301010072050000003BPA
026896847202410225120006130301010072046000003BPA
026896847202410225120006140301010072059000012BPA
026896847202410225120006150301010072049000006BPA
026896847202410225120006160301010072035000003BPA
026896847202410225120006170301010072081000007BPA
026896847202410225120006180301010072066000011BPA
026896847202410225120006190301010072078000009BPA
026896847202410225120006200301010072033000001BPA
026896847202410225120007010301010072043000004BPA
026896847202410225120007020301010072086000003BPA
026896847202410225120007030301010072088000001BPA
026896847202410225120007040301010072064000017BPA
026896847202410225120007050301010072085000003BPA
026896847202410225120007060301010072053000007BPA
026896847202410225120007070301010072044000003BPA
026896847202410225120007080301010072022000001BPA
026896847202410225120007090301010072089000002BPA
026896847202410225120007100301010072077000012BPA
026896847202410225120007110301010072047000004BPA
026896847202410225120007120301010072065000011BPA
026896847202410225120007130301010072093000001BPA
026896847202410225120007140301010072030000001BPA
026896847202410225120007150301010072016000002BPA
026896847202410225120007160301010072048000004BPA
026896847202410225120007170301010072076000013BPA
026896847202410225120007180301010072055000005BPA
026896847202410225120007190301010072060000009BPA
026896847202410225120007200301010072061000006BPA
026896847202410225120008010301010072039000004BPA
026896847202410225120008020301010072082000003BPA
026896847202410225120008030301010072067000015BPA
026896847202410225120008040301010072057000003BPA
026896847202410225120008050301010072029000002BPA
026896847202410225120008060301010072095000002BPA
026896847202410225120008070301010072080000005BPA
026896847202410225120008080301010072034000002BPA
026896847202410225120008090301010072073000009BPA
026896847202410225120008100301010072014000001BPA
026896847202410225120008110301010072036000001BPA
026896847202410225120008120301010072018000002BPA
026896847202410225120008130301010072083000006BPA
026896847202410225120008140301010072074000011BPA
026896847202410225120008150301010072062000009BPA
026896847202410225120008160301010072084000004BPA
026896847202410225120008170301010072068000006BPA
026896847202410225120008180301010072075000010BPA
026896847202410225120008190301010072041000002BPA
026896847202410225120008200301010072079000005BPA
026896847202410225120009010301010072038000001BPA
026896847202410225120009020301010072045000005BPA
026896847202410225120009030301010072069000011BPA
026896847202410225120009040301010072015000002BPA
026896847202410225120009050301010072063000007BPA
026896847202410225120009060301010072070000013BPA
026896847202410225120009070301010072024000001BPA
026896847202410225120009080301010072011000001BPA
026896847202410225120009090301010072054000006BPA
026896847202410225120009100301010072040000001BPA
026896847202410225120009110301010072042000004BPA
026896847202410225120009120301010072017000002BPA
026896847202410225120009130301010072051000002BPA
026896847202410225120009140301010072056000008BPA
026896847202410225120009150301010072072000013BPA
026896847202410225120009160301010072058000006BPA
026896847202410225120009170301010072026000001BPA
026896847202410225120009180301010072031000001BPA
026896847202410225120009190301010072071000009BPA
026896847202410225125009200301010072040000001BPA
026896847202410225125010010301010072030000001BPA
026896847202410225125010020301010072073000002BPA
026896847202410225125010030301010072050000002BPA
026896847202410225125010040301010072052000001BPA
026896847202410225125010050301010072039000001BPA
026896847202410225125010060301010072062000002BPA
026896847202410225125010070301010072045000002BPA
026896847202410225125010080301010072022000001BPA
026896847202410225125010090301010072068000002BPA
026896847202410225125010100301010072069000001BPA
026896847202410225125010110301010072065000002BPA
026896847202410225125010120301010072074000003BPA
026896847202410225125010130301010072028000001BPA
026896847202410225125010140301010072025000001BPA
026896847202410225125010150301010072063000001BPA
026896847202410225125010160301010072066000004BPA
026896847202410225125010170301010072038000002BPA
026896847202410225125010180301010072015000001BPA
026896847202410225125010190301010072085000001BPA
026896847202410225125010200301010072044000001BPA
026896847202410225125011010301010072011000001BPA
026896847202410225125011020301010072021000001BPA
026896847202410225125011030301010072047000004BPA
026896847202410225125011040301010072057000001BPA
026896847202410225125011050301010072037000001BPA
026896847202410225125011060301010072054000001BPA
026896847202410225125011070301010072078000002BPA
026896847202410225125011080301010072058000001BPA
026896847202410225125011090301010072056000001BPA
026896847202410225125011100301010072053000002BPA
026896847202410225125011110301010072043000001BPA
026896847202410225125011120301010072042000002BPA
026896847202410225125011130301010072059000001BPA
026896847202410225125011140301010072048000003BPA
026896847202410225125011150301010072032000002BPA
026896847202410225125011160301010072027000001BPA
026896847202410225125011170301010072016000001BPA
026896847202410225125011180301010072033000001BPA
026896847202410225125011190301010072061000004BPA
026896847202410225125011200301010072019000001BPA
026896847202410225125012010301010072072000001BPA
026896847202410225125012020301010072024000006BPA
026896847202410225127012030301010072057000001BPA
026896847202410225127012040301010072021000001BPA
026896847202410225127012050301010072031000001BPA
026896847202410225127012060301010072009000007BPA
026896847202410225127012070301010072064000003BPA
026896847202410225127012080301010072069000004BPA
026896847202410225127012090301010072072000002BPA
026896847202410225127012100301010072076000005BPA
026896847202410225127012110301010072035000001BPA
026896847202410225127012120301010072085000001BPA
026896847202410225127012130301010072001000001BPA
026896847202410225127012140301010072053000001BPA
026896847202410225127012150301010072054000001BPA
026896847202410225127012160301010072075000001BPA
026896847202410225127012170301010072060000003BPA
026896847202410225127012180301010072013000001BPA
026896847202410225127012190301010072079000002BPA
026896847202410225127012200301010072008000002BPA
026896847202410225127013010301010072081000001BPA
026896847202410225127013020301010072030000002BPA
026896847202410225127013030301010072049000001BPA
026896847202410225127013040301010072070000002BPA
026896847202410225127013050301010072007000006BPA
026896847202410225127013060301010072003000003BPA
026896847202410225127013070301010072010000005BPA
026896847202410225127013080301010072023000001BPA
026896847202410225127013090301010072011000004BPA
026896847202410225127013100301010072082000001BPA
026896847202410225127013110301010072004000003BPA
026896847202410225127013120301010072020000001BPA
026896847202410225127013130301010072028000002BPA
026896847202410225127013140301010072062000005BPA
026896847202410225127013150301010072047000001BPA
026896847202410225127013160301010072014000003BPA
026896847202410225127013170301010072073000002BPA
026896847202410225127013180301010072052000002BPA
026896847202410225127013190301010072002000002BPA
026896847202410225127013200301010072012000008BPA
026896847202410225127014010301010072059000001BPA
026896847202410225127014020301010072063000004BPA
026896847202410225127014030301010072005000005BPA
026896847202410225127014040301010072061000001BPA
026896847202410225127014050301010072034000001BPA
026896847202410225127014060301010072015000001BPA
026896847202410225127014070301010072045000001BPA
026896847202410225127014080301010072038000002BPA
026896847202410225127014090301010072029000001BPA
026896847202410225133014100301010072026000001BPA
026896847202410225133014110301010072040000002BPA
026896847202410225133014120301010072047000001BPA
026896847202410225133014130301010072079000001BPA
026896847202410225133014140301010072063000001BPA
026896847202410225133014150301010072053000002BPA
026896847202410225133014160301010072074000001BPA
026896847202410225133014170301010072052000001BPA
026896847202410225133014180301010072066000001BPA
026896847202410225133014190301010072048000003BPA
026896847202410225133014200301010072050000003BPA
026896847202410225133015010301010072006000023BPA
026896847202410225133015020301010072013000009BPA
026896847202410225133015030301010072045000001BPA
026896847202410225133015040301010072011000014BPA
026896847202410225133015050301010072069000002BPA
026896847202410225133015060301010072042000004BPA
026896847202410225133015070301010072055000001BPA
026896847202410225133015080301010072012000009BPA
026896847202410225133015090301010072010000009BPA
026896847202410225133015100301010072038000002BPA
026896847202410225133015110301010072018000005BPA
026896847202410225133015120301010072057000001BPA
026896847202410225133015130301010072002000003BPA
026896847202410225133015140301010072021000001BPA
026896847202410225133015150301010072022000003BPA
026896847202410225133015160301010072005000024BPA
026896847202410225133015170301010072020000001BPA
026896847202410225133015180301010072032000002BPA
026896847202410225133015190301010072041000002BPA
026896847202410225133015200301010072003000006BPA
026896847202410225133016010301010072067000001BPA
026896847202410225133016020301010072019000004BPA
026896847202410225133016030301010072008000011BPA
026896847202410225133016040301010072014000004BPA
026896847202410225133016050301010072015000008BPA
026896847202410225133016060301010072082000001BPA
026896847202410225133016070301010072043000002BPA
026896847202410225133016080301010072077000001BPA
026896847202410225133016090301010072031000002BPA
026896847202410225133016100301010072034000002BPA
026896847202410225133016110301010072027000001BPA
026896847202410225133016120301010072044000004BPA
026896847202410225133016130301010072068000003BPA
026896847202410225133016140301010072016000008BPA
026896847202410225133016150301010072035000002BPA
026896847202410225133016160301010072062000001BPA
026896847202410225133016170301010072007000012BPA
026896847202410225133016180301010072039000003BPA
026896847202410225133016190301010072009000019BPA
026896847202410225133016200301010072070000001BPA
026896847202410225133017010301010072017000013BPA
026896847202410225133017020301010072060000002BPA
026896847202410225133017030301010072004000020BPA
026896847202410225133017040301010072065000001BPA
026896847202410225133017050301010072046000001BPA
026896847202410225133017060301010072023000001BPA
026896847202410225133017070301010072064000002BPA
026896847202410225135017080301010072056000003BPA
026896847202410225135017090301010072043000002BPA
026896847202410225135017100301010072025000001BPA
026896847202410225135017110301010072076000004BPA
026896847202410225135017120301010072016000002BPA
026896847202410225135017130301010072063000006BPA
026896847202410225135017140301010072047000002BPA
026896847202410225135017150301010072049000002BPA
026896847202410225135017160301010072054000002BPA
026896847202410225135017170301010072053000004BPA
026896847202410225135017180301010072048000002BPA
026896847202410225135017190301010072060000008BPA
026896847202410225135017200301010072000000002BPA
026896847202410225135018010301010072030000001BPA
026896847202410225135018020301010072008000010BPA
026896847202410225135018030301010072086000003BPA
026896847202410225135018040301010072009000006BPA
026896847202410225135018050301010072077000001BPA
026896847202410225135018060301010072071000009BPA
026896847202410225135018070301010072006000006BPA
026896847202410225135018080301010072068000012BPA
026896847202410225135018090301010072007000002BPA
026896847202410225135018100301010072005000007BPA
026896847202410225135018110301010072002000006BPA
026896847202410225135018120301010072020000001BPA
026896847202410225135018130301010072027000001BPA
026896847202410225135018140301010072059000006BPA
026896847202410225135018150301010072040000001BPA
026896847202410225135018160301010072036000001BPA
026896847202410225135018170301010072010000005BPA
026896847202410225135018180301010072065000011BPA
026896847202410225135018190301010072035000002BPA
026896847202410225135018200301010072022000001BPA
026896847202410225135019010301010072024000001BPA
026896847202410225135019020301010072064000005BPA
026896847202410225135019030301010072067000008BPA
026896847202410225135019040301010072082000001BPA
026896847202410225135019050301010072074000009BPA
026896847202410225135019060301010072066000013BPA
026896847202410225135019070301010072089000001BPA
026896847202410225135019080301010072003000004BPA
026896847202410225135019090301010072050000001BPA
026896847202410225135019100301010072019000002BPA
026896847202410225135019110301010072046000001BPA
026896847202410225135019120301010072091000001BPA
026896847202410225135019130301010072014000002BPA
026896847202410225135019140301010072017000001BPA
026896847202410225135019150301010072051000005BPA
026896847202410225135019160301010072058000007BPA
026896847202410225135019170301010072029000002BPA
026896847202410225135019180301010072072000006BPA
026896847202410225135019190301010072075000004BPA
026896847202410225135019200301010072079000006BPA
026896847202410225135020010301010072015000001BPA
026896847202410225135020020301010072052000004BPA
026896847202410225135020030301010072031000002BPA
026896847202410225135020040301010072085000002BPA
026896847202410225135020050301010072012000001BPA
026896847202410225135020060301010072073000003BPA
026896847202410225135020070301010072061000006BPA
026896847202410225135020080301010072062000004BPA
026896847202410225135020090301010072088000001BPA
026896847202410225135020100301010072013000002BPA
026896847202410225135020110301010072042000003BPA
026896847202410225135020120301010072080000002BPA
026896847202410225135020130301010072070000003BPA
026896847202410225135020140301010072041000003BPA
026896847202410225135020150301010072081000002BPA
026896847202410225135020160301010072032000002BPA
026896847202410225135020170301010072045000002BPA
026896847202410225135020180301010072038000002BPA
026896847202410225135020190301010072001000002BPA
026896847202410225135020200301010072078000001BPA
026896847202410225135021010301010072055000003BPA
026896847202410225135021020301010072057000002BPA
026896847202410225135021030301010072034000001BPA
026896847202410225135021040301010072069000006BPA
026896847202410225135021050301010072083000001BPA
026896847202410225135021060301010072004000004BPA
026896847202410225155021070301010072052000008BPA
026896847202410225155021080301010072088000001BPA
026896847202410225155021090301010072031000003BPA
026896847202410225155021100301010072063000006BPA
026896847202410225155021110301010072055000006BPA
026896847202410225155021120301010072046000007BPA
026896847202410225155021130301010072039000001BPA
026896847202410225155021140301010072048000007BPA
026896847202410225155021150301010072075000003BPA
026896847202410225155021160301010072081000002BPA
026896847202410225155021170301010072068000005BPA
026896847202410225155021180301010072043000002BPA
026896847202410225155021190301010072037000005BPA
026896847202410225155021200301010072024000002BPA
026896847202410225155022010301010072064000010BPA
026896847202410225155022020301010072086000001BPA
026896847202410225155022030301010072073000006BPA
026896847202410225155022040301010072028000002BPA
026896847202410225155022050301010072051000002BPA
026896847202410225155022060301010072044000008BPA
026896847202410225155022070301010072070000005BPA
026896847202410225155022080301010072041000005BPA
026896847202410225155022090301010072077000002BPA
026896847202410225155022100301010072054000007BPA
026896847202410225155022110301010072030000003BPA
026896847202410225155022120301010072018000001BPA
026896847202410225155022130301010072072000002BPA
026896847202410225155022140301010072069000007BPA
026896847202410225155022150301010072025000002BPA
026896847202410225155022160301010072056000007BPA
026896847202410225155022170301010072045000007BPA
026896847202410225155022180301010072017000004BPA
026896847202410225155022190301010072021000002BPA
026896847202410225155022200301010072059000007BPA
026896847202410225155023010301010072026000003BPA
026896847202410225155023020301010072050000009BPA
026896847202410225155023030301010072066000004BPA
026896847202410225155023040301010072062000006BPA
026896847202410225155023050301010072042000005BPA
026896847202410225155023060301010072038000004BPA
026896847202410225155023070301010072076000001BPA
026896847202410225155023080301010072058000003BPA
026896847202410225155023090301010072022000001BPA
026896847202410225155023100301010072012000002BPA
026896847202410225155023110301010072034000003BPA
026896847202410225155023120301010072029000002BPA
026896847202410225155023130301010072015000001BPA
026896847202410225155023140301010072074000001BPA
026896847202410225155023150301010072016000003BPA
026896847202410225155023160301010072082000001BPA
026896847202410225155023170301010072065000008BPA
026896847202410225155023180301010072040000005BPA
026896847202410225155023190301010072087000001BPA
026896847202410225155023200301010072067000007BPA
026896847202410225155024010301010072036000007BPA
026896847202410225155024020301010072032000002BPA
026896847202410225155024030301010072057000007BPA
026896847202410225155024040301010072049000007BPA
026896847202410225155024050301010072014000001BPA
026896847202410225155024060301010072079000001BPA
026896847202410225155024070301010072009000002BPA
026896847202410225155024080301010072013000001BPA
026896847202410225155024090301010072080000002BPA
026896847202410225155024100301010072035000004BPA
026896847202410225155024110301010072060000005BPA
026896847202410225155024120301010072084000002BPA
026896847202410225155024130301010072061000010BPA
026896847202410225155024140301010072053000007BPA
026896847202410225155024150301010072047000003BPA
026896847202410225155024160301010072033000002BPA
026896847202410225265024170301010072030000003BPA
026896847202410225265024180301010072054000008BPA
026896847202410225265024190301010072077000006BPA
026896847202410225265024200301010072012000005BPA
026896847202410225265025010301010072047000005BPA
026896847202410225265025020301010072040000003BPA
026896847202410225265025030301010072045000004BPA
026896847202410225265025040301010072003000001BPA
026896847202410225265025050301010072070000009BPA
026896847202410225265025060301010072037000002BPA
026896847202410225265025070301010072058000007BPA
026896847202410225265025080301010072043000002BPA
026896847202410225265025090301010072019000004BPA
026896847202410225265025100301010072084000001BPA
026896847202410225265025110301010072026000002BPA
026896847202410225265025120301010072042000004BPA
026896847202410225265025130301010072076000005BPA
026896847202410225265025140301010072035000003BPA
026896847202410225265025150301010072016000004BPA
026896847202410225265025160301010072074000007BPA
026896847202410225265025170301010072053000006BPA
026896847202410225265025180301010072008000005BPA
026896847202410225265025190301010072056000007BPA
026896847202410225265025200301010072020000001BPA
026896847202410225265026010301010072036000003BPA
026896847202410225265026020301010072015000003BPA
026896847202410225265026030301010072052000009BPA
026896847202410225265026040301010072033000006BPA
026896847202410225265026050301010072063000009BPA
026896847202410225265026060301010072006000002BPA
026896847202410225265026070301010072071000005BPA
026896847202410225265026080301010072013000001BPA
026896847202410225265026090301010072083000001BPA
026896847202410225265026100301010072085000003BPA
026896847202410225265026110301010072050000003BPA
026896847202410225265026120301010072032000003BPA
026896847202410225265026130301010072038000004BPA
026896847202410225265026140301010072073000008BPA
026896847202410225265026150301010072079000003BPA
026896847202410225265026160301010072005000002BPA
026896847202410225265026170301010072010000008BPA
026896847202410225265026180301010072027000002BPA
026896847202410225265026190301010072067000004BPA
026896847202410225265026200301010072066000010BPA
026896847202410225265027010301010072041000005BPA
026896847202410225265027020301010072002000001BPA
026896847202410225265027030301010072023000001BPA
026896847202410225265027040301010072051000004BPA
026896847202410225265027050301010072044000005BPA
026896847202410225265027060301010072088000002BPA
026896847202410225265027070301010072082000002BPA
026896847202410225265027080301010072069000011BPA
026896847202410225265027090301010072007000004BPA
026896847202410225265027100301010072031000004BPA
026896847202410225265027110301010072072000010BPA
026896847202410225265027120301010072034000002BPA
026896847202410225265027130301010072009000004BPA
026896847202410225265027140301010072064000004BPA
026896847202410225265027150301010072022000002BPA
026896847202410225265027160301010072046000007BPA
026896847202410225265027170301010072080000002BPA
026896847202410225265027180301010072059000008BPA
026896847202410225265027190301010072021000001BPA
026896847202410225265027200301010072075000006BPA
026896847202410225265028010301010072011000005BPA
026896847202410225265028020301010072078000003BPA
026896847202410225265028030301010072028000001BPA
026896847202410225265028040301010072065000009BPA
026896847202410225265028050301010072060000008BPA
026896847202410225265028060301010072039000003BPA
026896847202410225265028070301010072068000009BPA
026896847202410225265028080301010072018000003BPA
026896847202410225265028090301010072004000003BPA
026896847202410225265028100301010072048000004BPA
026896847202410225265028110301010072089000001BPA
026896847202410225265028120301010072057000007BPA
026896847202410225265028130301010072001000001BPA
026896847202410225265028140301010072055000004BPA
026896847202410225265028150301010072061000009BPA
026896847202410225265028160301010072017000005BPA
026896847202410225265028170301010072049000012BPA
026896847202410225265028180301010072062000008BPA
026896847202410225270028190301010072086000001BPA
026896847202410225270028200301010072018000001BPA
026896847202410225270029010301010072055000019BPA
026896847202410225270029020301010072078000005BPA
026896847202410225270029030301010072030000005BPA
026896847202410225270029040301010072084000001BPA
026896847202410225270029050301010072057000017BPA
026896847202410225270029060301010072096000001BPA
026896847202410225270029070301010072000000001BPA
026896847202410225270029080301010072064000014BPA
026896847202410225270029090301010072016000003BPA
026896847202410225270029100301010072052000018BPA
026896847202410225270029110301010072053000016BPA
026896847202410225270029120301010072029000002BPA
026896847202410225270029130301010072042000017BPA
026896847202410225270029140301010072014000003BPA
026896847202410225270029150301010072072000015BPA
026896847202410225270029160301010072009000006BPA
026896847202410225270029170301010072070000014BPA
026896847202410225270029180301010072063000024BPA
026896847202410225270029190301010072005000002BPA
026896847202410225270029200301010072026000003BPA
026896847202410225270030010301010072038000003BPA
026896847202410225270030020301010072065000023BPA
026896847202410225270030030301010072011000004BPA
026896847202410225270030040301010072019000003BPA
026896847202410225270030050301010072028000001BPA
026896847202410225270030060301010072071000013BPA
026896847202410225270030070301010072036000007BPA
026896847202410225270030080301010072013000005BPA
026896847202410225270030090301010072004000003BPA
026896847202410225270030100301010072034000002BPA
026896847202410225270030110301010072021000002BPA
026896847202410225270030120301010072040000006BPA
026896847202410225270030130301010072039000005BPA
026896847202410225270030140301010072007000001BPA
026896847202410225270030150301010072056000015BPA
026896847202410225270030160301010072060000029BPA
026896847202410225270030170301010072010000002BPA
026896847202410225270030180301010072069000021BPA
026896847202410225270030190301010072067000019BPA
026896847202410225270030200301010072081000007BPA
026896847202410225270031010301010072047000018BPA
026896847202410225270031020301010072008000002BPA
026896847202410225270031030301010072002000002BPA
026896847202410225270031040301010072037000003BPA
026896847202410225270031050301010072076000004BPA
026896847202410225270031060301010072045000013BPA
026896847202410225270031070301010072012000003BPA
026896847202410225270031080301010072082000003BPA
026896847202410225270031090301010072061000014BPA
026896847202410225270031100301010072085000002BPA
026896847202410225270031110301010072075000007BPA
026896847202410225270031120301010072032000004BPA
026896847202410225270031130301010072080000003BPA
026896847202410225270031140301010072092000001BPA
026896847202410225270031150301010072073000010BPA
026896847202410225270031160301010072023000005BPA
026896847202410225270031170301010072066000019BPA
026896847202410225270031180301010072044000010BPA
026896847202410225270031190301010072058000019BPA
026896847202410225270031200301010072020000003BPA
026896847202410225270032010301010072043000014BPA
026896847202410225270032020301010072083000003BPA
026896847202410225270032030301010072079000008BPA
026896847202410225270032040301010072033000005BPA
026896847202410225270032050301010072051000005BPA
026896847202410225270032060301010072046000006BPA
026896847202410225270032070301010072041000011BPA
026896847202410225270032080301010072054000021BPA
026896847202410225270032090301010072017000004BPA
026896847202410225270032100301010072015000003BPA
026896847202410225270032110301010072050000016BPA
026896847202410225270032120301010072022000001BPA
026896847202410225270032130301010072077000006BPA
026896847202410225270032140301010072059000025BPA
026896847202410225270032150301010072035000001BPA
026896847202410225270032160301010072068000014BPA
026896847202410225270032170301010072074000014BPA
026896847202410225270032180301010072048000015BPA
026896847202410225270032190301010072062000022BPA
026896847202410225270032200301010072031000006BPA
026896847202410225270033010301010072025000001BPA
026896847202410225270033020301010072049000018BPA
026896847202410225275033030301010072060000005BPA
026896847202410225275033040301010072061000005BPA
026896847202410225275033050301010072077000001BPA
026896847202410225275033060301010072043000003BPA
026896847202410225275033070301010072011000007BPA
026896847202410225275033080301010072041000001BPA
026896847202410225275033090301010072072000007BPA
026896847202410225275033100301010072058000004BPA
026896847202410225275033110301010072080000003BPA
026896847202410225275033120301010072064000004BPA
026896847202410225275033130301010072056000006BPA
026896847202410225275033140301010072074000001BPA
026896847202410225275033150301010072037000002BPA
026896847202410225275033160301010072076000006BPA
026896847202410225275033170301010072004000004BPA
026896847202410225275033180301010072017000003BPA
026896847202410225275033190301010072047000002BPA
026896847202410225275033200301010072067000007BPA
026896847202410225275034010301010072026000003BPA
026896847202410225275034020301010072005000017BPA
026896847202410225275034030301010072062000007BPA
026896847202410225275034040301010072010000008BPA
026896847202410225275034050301010072015000006BPA
026896847202410225275034060301010072003000005BPA
026896847202410225275034070301010072034000001BPA
026896847202410225275034080301010072066000014BPA
026896847202410225275034090301010072012000009BPA
026896847202410225275034100301010072085000001BPA
026896847202410225275034110301010072068000002BPA
026896847202410225275034120301010072046000003BPA
026896847202410225275034130301010072071000003BPA
026896847202410225275034140301010072081000003BPA
026896847202410225275034150301010072006000014BPA
026896847202410225275034160301010072022000001BPA
026896847202410225275034170301010072063000003BPA
026896847202410225275034180301010072016000002BPA
026896847202410225275034190301010072023000003BPA
026896847202410225275034200301010072057000003BPA
026896847202410225275035010301010072024000001BPA
026896847202410225275035020301010072065000002BPA
026896847202410225275035030301010072073000002BPA
026896847202410225275035040301010072048000005BPA
026896847202410225275035050301010072070000003BPA
026896847202410225275035060301010072021000001BPA
026896847202410225275035070301010072055000002BPA
026896847202410225275035080301010072052000003BPA
026896847202410225275035090301010072002000005BPA
026896847202410225275035100301010072042000001BPA
026896847202410225275035110301010072000000002BPA
026896847202410225275035120301010072001000003BPA
026896847202410225275035130301010072054000003BPA
026896847202410225275035140301010072039000004BPA
026896847202410225275035150301010072030000001BPA
026896847202410225275035160301010072020000004BPA
026896847202410225275035170301010072044000005BPA
026896847202410225275035180301010072069000007BPA
026896847202410225275035190301010072028000003BPA
026896847202410225275035200301010072049000002BPA
026896847202410225275036010301010072018000004BPA
026896847202410225275036020301010072075000004BPA
026896847202410225275036030301010072059000004BPA
026896847202410225275036040301010072053000003BPA
026896847202410225275036050301010072045000002BPA
026896847202410225275036060301010072014000005BPA
026896847202410225275036070301010072031000002BPA
026896847202410225275036080301010072087000001BPA
026896847202410225275036090301010072035000003BPA
026896847202410225275036100301010072009000010BPA
026896847202410225275036110301010072051000005BPA
026896847202410225275036120301010072007000010BPA
026896847202410225275036130301010072078000001BPA
026896847202410225275036140301010072013000002BPA
026896847202410225275036150301010072008000006BPA
026896847202410225285036160301010072052000003BPA
026896847202410225285036170301010072063000004BPA
026896847202410225285036180301010072043000002BPA
026896847202410225285036190301010072021000001BPA
026896847202410225285036200301010072083000002BPA
026896847202410225285037010301010072076000005BPA
026896847202410225285037020301010072032000001BPA
026896847202410225285037030301010072023000001BPA
026896847202410225285037040301010072033000003BPA
026896847202410225285037050301010072051000004BPA
026896847202410225285037060301010072046000003BPA
026896847202410225285037070301010072055000005BPA
026896847202410225285037080301010072014000002BPA
026896847202410225285037090301010072020000001BPA
026896847202410225285037100301010072037000001BPA
026896847202410225285037110301010072077000004BPA
026896847202410225285037120301010072075000004BPA
026896847202410225285037130301010072067000015BPA
026896847202410225285037140301010072074000009BPA
026896847202410225285037150301010072079000003BPA
026896847202410225285037160301010072070000007BPA
026896847202410225285037170301010072041000001BPA
026896847202410225285037180301010072071000006BPA
026896847202410225285037190301010072064000010BPA
026896847202410225285037200301010072061000011BPA
026896847202410225285038010301010072066000014BPA
026896847202410225285038020301010072082000001BPA
026896847202410225285038030301010072056000007BPA
026896847202410225285038040301010072072000005BPA
026896847202410225285038050301010072028000002BPA
026896847202410225285038060301010072069000006BPA
026896847202410225285038070301010072049000006BPA
026896847202410225285038080301010072036000001BPA
026896847202410225285038090301010072081000001BPA
026896847202410225285038100301010072068000006BPA
026896847202410225285038110301010072060000004BPA
026896847202410225285038120301010072045000001BPA
026896847202410225285038130301010072086000001BPA
026896847202410225285038140301010072087000002BPA
026896847202410225285038150301010072057000004BPA
026896847202410225285038160301010072027000001BPA
026896847202410225285038170301010072016000001BPA
026896847202410225285038180301010072058000008BPA
026896847202410225285038190301010072048000003BPA
026896847202410225285038200301010072062000004BPA
026896847202410225285039010301010072015000001BPA
026896847202410225285039020301010072080000004BPA
026896847202410225285039030301010072050000001BPA
026896847202410225285039040301010072054000003BPA
026896847202410225285039050301010072042000003BPA
026896847202410225285039060301010072038000001BPA
026896847202410225285039070301010072030000002BPA
026896847202410225285039080301010072025000001BPA
026896847202410225285039090301010072035000005BPA
026896847202410225285039100301010072022000003BPA
026896847202410225285039110301010072088000001BPA
026896847202410225285039120301010072040000002BPA
026896847202410225285039130301010072065000005BPA
026896847202410225285039140301010072039000004BPA
026896847202410225285039150301010072073000005BPA
026896847202410225285039160301010072019000003BPA
026896847202410225285039170301010072029000001BPA
026896847202410225285039180301010072085000001BPA
026896847202410225285039190301010072078000002BPA
026896847202410225285039200301010072044000003BPA
026896847202410225285040010301010072053000003BPA
026896847202410225285040020301010072059000005BPA
026896847202410223505040030301010110037000001BPA
026896847202410223505040040301010110032000001BPA
026896847202410223505040050301010110023000002BPA
026896847202410223505040060301010110021000002BPA
026896847202410223505040070301010110041000001BPA
026896847202410223505040080301010110027000003BPA
026896847202410223505040090301010110039000001BPA
026896847202410223505040100301010110025000001BPA
026896847202410223505040110301010110031000001BPA
026896847202410223505040120301010110018000001BPA
026896847202410223505040130301010110022000001BPA
026896847202410223505040140301010110026000002BPA
026896847202410223505040150301010110024000003BPA
026896847202410225125040160301010110039000001BPA
026896847202410225125040170301010110032000001BPA
026896847202410225125040180301010110022000001BPA
026896847202410225125040190301010110026000003BPA
026896847202410225125040200301010110041000001BPA
026896847202410225125041010301010110035000002BPA
026896847202410225125041020301010110015000001BPA
026896847202410225125041030301010110027000003BPA
026896847202410225125041040301010110042000001BPA
026896847202410225125041050301010110021000002BPA
026896847202410225125041060301010110029000001BPA
026896847202410225125041070301010110037000001BPA
026896847202410225125041080301010110024000004BPA
026896847202410225125041090301010110020000001BPA
026896847202410225125041100301010110023000001BPA
026896847202410225250041110301010110030000001BPA
026896847202410225250041120301010110025000004BPA
026896847202410225250041130301010110020000005BPA
026896847202410225250041140301010110037000001BPA
026896847202410225250041150301010110029000002BPA
026896847202410225250041160301010110021000002BPA
026896847202410225250041170301010110027000002BPA
026896847202410225250041180301010110031000001BPA
026896847202410225250041190301010110024000006BPA
026896847202410225250041200301010110023000003BPA
026896847202410225250042010301010110035000001BPA
026896847202410225250042020301010110022000001BPA
026896847202410225250042030301010110018000001BPA
026896847202410225250042040301010110026000004BPA
026896847202410223208042050301010153000000065BPA
026896847202410223505042060301040079000000049BPA
026896847202410223505042070301040079000000034BPA
026896847202410322205042080301040079000000725BPA
026896847202410223208042090301060037000000029BPA
026896847202410223208042100301100039000000003BPA
026896847202410223505042110301100039000000009BPA
026896847202410223505042120301100039000000017BPA
026896847202410225125042130301100039000000022BPA
026896847202410225250042140301100039000000025BPA
026896847202410322205042150301100039000001829BPA
026896847202410322205042160301100039000001236BPA
026896847202410322230042170301100039000000082BPA
026896847202410322205042180301100152000000018BPA
027047088202410223505001010101040024000000044BPA
027047088202410223710001020101040024000000044BPA
027047088202410225142001030101040024000000040BPA
027047088202410225250001040101040024000000014BPA
027047088202410322230001050101040024000000027BPA
027047088202410322250001060101040024000000199BPA
027047088202410223505001070201020041000000058BPA
027047088202410322230001080201020041000000034BPA
027047088202410322250001090201020041000000345BPA
027047088202410223505001100214010015000000012BPA
027047088202410225142001110214010015000000074BPA
027047088202410322230001120214010015000000038BPA
027047088202410322250001130214010015000000163BPA
027047088202410223505001140301010110029000001BPA
027047088202410223505001150301010110030000001BPA
027047088202410223505001160301010110023000001BPA
027047088202410223505001170301010110018000001BPA
027047088202410223505001180301010110027000001BPA
027047088202410223505001190301010110037000001BPA
027047088202410223505001200301010110025000001BPA
027047088202410225250002010301010110025000002BPA
027047088202410225250002020301010110034000003BPA
027047088202410225250002030301010110027000003BPA
027047088202410225250002040301010110030000002BPA
027047088202410225250002050301010110026000005BPA
027047088202410225250002060301010110033000002BPA
027047088202410225250002070301010110037000003BPA
027047088202410225250002080301010110031000002BPA
027047088202410225250002090301010110023000002BPA
027047088202410225250002100301010110038000001BPA
027047088202410225250002110301010110022000004BPA
027047088202410225250002120301010110024000003BPA
027047088202410225250002130301010110020000004BPA
027047088202410225250002140301010110029000002BPA
027047088202410225250002150301010110032000007BPA
027047088202410225250002160301010110018000002BPA
027047088202410223208002170301010153000000038BPA
027047088202410223505002180301040079000000026BPA
027047088202410322230002190301040079000000028BPA
027047088202410322250002200301040079000000069BPA
027047088202410223208003010301060037000000043BPA
027047088202410223505003020301100039000000079BPA
027047088202410225142003030301100039000000204BPA
027047088202410225250003040301100039000000014BPA
027047088202410322230003050301100039000000157BPA
027047088202410322250003060301100039000000545BPA
027047088202410322250003070301100101000000004BPA
027047088202410322230003080301100152000000004BPA
027047088202410322250003090301100152000000007BPA
029001808202410223505001010101040024000000180BPA
029001808202410223710001020101040024000000039BPA
029001808202410225124001030101040024000000044BPA
029001808202410225125001040101040024000000022BPA
029001808202410225250001050101040024000000040BPA
029001808202410322230001060101040024000000139BPA
029001808202410223505001070102010226000000001BPA
029001808202410223505001080201020041000000116BPA
029001808202410322230001090201020041000000125BPA
029001808202410223505001100214010015000000075BPA
029001808202410225125001110214010015000000022BPA
029001808202410322230001120214010015000000188BPA
029001808202410223505001130301010110027000001BPA
029001808202410223505001140301010110031000001BPA
029001808202410223505001150301010110036000001BPA
029001808202410223505001160301010110037000001BPA
029001808202410223505001170301010110035000001BPA
029001808202410223505001180301010110034000002BPA
029001808202410223505001190301010110023000001BPA
029001808202410225250001200301010110034000002BPA
029001808202410225250002010301010110021000003BPA
029001808202410225250002020301010110030000004BPA
029001808202410225250002030301010110038000001BPA
029001808202410225250002040301010110023000003BPA
029001808202410225250002050301010110028000002BPA
029001808202410225250002060301010110017000001BPA
029001808202410225250002070301010110024000001BPA
029001808202410225250002080301010110029000002BPA
029001808202410225250002090301010110025000003BPA
029001808202410225250002100301010110019000003BPA
029001808202410225250002110301010110027000004BPA
029001808202410225250002120301010110036000001BPA
029001808202410225250002130301010110035000001BPA
029001808202410225250002140301010110037000004BPA
029001808202410225250002150301010110033000001BPA
029001808202410225250002160301010110026000001BPA
029001808202410225250002170301010110022000001BPA
029001808202410225250002180301010110032000005BPA
029001808202410225250002190301010110031000001BPA
029001808202410223505002200301010137009000003BPA
029001808202410223505003010301010137066000001BPA
029001808202410223505003020301010137051000004BPA
029001808202410223505003030301010137052000001BPA
029001808202410223505003040301010137021000002BPA
029001808202410223505003050301010137008000002BPA
029001808202410223505003060301010137078000002BPA
029001808202410223505003070301010137034000002BPA
029001808202410223505003080301010137064000002BPA
029001808202410223505003090301010137087000006BPA
029001808202410223505003100301010137019000001BPA
029001808202410223505003110301010137086000001BPA
029001808202410223505003120301010137085000001BPA
029001808202410223505003130301010137075000004BPA
029001808202410223505003140301010137070000010BPA
029001808202410223505003150301010137025000001BPA
029001808202410223505003160301010137090000003BPA
029001808202410223505003170301010137028000001BPA
029001808202410223505003180301010137050000002BPA
029001808202410223505003190301010137062000001BPA
029001808202410223505003200301010137074000006BPA
029001808202410223505004010301010137091000005BPA
029001808202410223505004020301010137093000001BPA
029001808202410223505004030301010137036000001BPA
029001808202410223505004040301010137098000001BPA
029001808202410223505004050301010137056000001BPA
029001808202410223505004060301010137069000003BPA
029001808202410223505004070301010137049000002BPA
029001808202410223505004080301010137081000004BPA
029001808202410223505004090301010137080000004BPA
029001808202410223505004100301010137072000002BPA
029001808202410223505004110301010137063000002BPA
029001808202410223505004120301010137031000004BPA
029001808202410223505004130301010137027000001BPA
029001808202410223505004140301010137077000006BPA
029001808202410223505004150301010137001000002BPA
029001808202410223505004160301010137092000004BPA
029001808202410223505004170301010137084000003BPA
029001808202410223605004180301010137051000001BPA
029001808202410223605004190301010137056000001BPA
029001808202410223605004200301010137063000001BPA
029001808202410223605005010301010137027000001BPA
029001808202410223605005020301010137072000002BPA
029001808202410223605005030301010137049000001BPA
029001808202410223605005040301010137078000001BPA
029001808202410223605005050301010137069000001BPA
029001808202410223605005060301010137014000001BPA
029001808202410223605005070301010137085000001BPA
029001808202410223605005080301010137009000001BPA
029001808202410223605005090301010137008000001BPA
029001808202410223605005100301010137084000001BPA
029001808202410223605005110301010137052000002BPA
029001808202410223605005120301010137086000001BPA
029001808202410223605005130301010137091000002BPA
029001808202410223605005140301010137021000001BPA
029001808202410223605005150301010137098000001BPA
029001808202410223605005160301010137028000002BPA
029001808202410223605005170301010137064000001BPA
029001808202410223605005180301010137050000001BPA
029001808202410223605005190301010137047000001BPA
029001808202410223605005200301010137075000002BPA
029001808202410223605006010301010137070000003BPA
029001808202410223605006020301010137025000002BPA
029001808202410223605006030301010137058000001BPA
029001808202410223605006040301010137019000002BPA
029001808202410223605006050301010137094000001BPA
029001808202410223605006060301010137044000001BPA
029001808202410223605006070301010137087000002BPA
029001808202410223605006080301010137062000001BPA
029001808202410223605006090301010137077000003BPA
029001808202410223605006100301010137074000001BPA
029001808202410223605006110301010137065000001BPA
029001808202410223605006120301010137080000002BPA
029001808202410223605006130301010137092000002BPA
029001808202410223605006140301010137001000001BPA
029001808202410223605006150301010137081000001BPA
029001808202410223710006160301010137078000001BPA
029001808202410223710006170301010137044000001BPA
029001808202410223710006180301010137072000001BPA
029001808202410223710006190301010137028000001BPA
029001808202410223710006200301010137084000001BPA
029001808202410223710007010301010137091000001BPA
029001808202410223710007020301010137074000001BPA
029001808202410225125007030301010137025000002BPA
029001808202410225125007040301010137074000002BPA
029001808202410225125007050301010137072000004BPA
029001808202410225125007060301010137087000001BPA
029001808202410225125007070301010137062000001BPA
029001808202410225125007080301010137098000002BPA
029001808202410225125007090301010137050000001BPA
029001808202410225125007100301010137085000001BPA
029001808202410225125007110301010137036000001BPA
029001808202410225125007120301010137001000001BPA
029001808202410225125007130301010137092000002BPA
029001808202410225125007140301010137075000002BPA
029001808202410225125007150301010137081000001BPA
029001808202410225125007160301010137058000001BPA
029001808202410225125007170301010137009000002BPA
029001808202410225125007180301010137078000001BPA
029001808202410225125007190301010137070000001BPA
029001808202410225125007200301010137052000001BPA
029001808202410225125008010301010137069000001BPA
029001808202410225125008020301010137028000001BPA
029001808202410225125008030301010137086000001BPA
029001808202410225125008040301010137077000001BPA
029001808202410225125008050301010137047000001BPA
029001808202410225125008060301010137080000001BPA
029001808202410225125008070301010137091000001BPA
029001808202410225125008080301010137049000001BPA
029001808202410223505008090301040079000000313BPA
029001808202410225310008100301040079000000110BPA
029001808202410322230008110301040079000000093BPA
029001808202410223505008120301100039000000278BPA
029001808202410225125008130301100039000000382BPA
029001808202410225250008140301100039000000040BPA
029001808202410225310008150301100039000000001BPA
029001808202410322230008160301100039000000349BPA
029001808202410223505008170301100152000000002BPA
029001808202410322230008180301100152000000013BPA
03049138120241070050453405345222360520241001001020302060030701409652952736M350390G838026     101             BPIARTHUR DOS SANTOS VIANNA PINHO1998100801    010                                07417265008RAILDA ALVES DE OLIVEIRA      A           856PARQUE RODRIGO BARRETO        11 46554774
03049138120241070050453405345222360520241001001100302060030700206991639330F350390G838010     101             BPIISABELLA VITORIA ALVES SOARES 2014111201    010                                07403105081JOO LEITE DE CAMARGO                      184ARUJAMRICA
03049138120241070050453405345222360520241001001120302060030704801024804348F350390G838010     101             BPIISABEL SOUSA FONSECA          2014080801    010                                07417565081Jose Barbosa de Souza                      15Parque Rodrigo Barreto
03049138120241070050453405345222360520241003002030302060030704603611129420F350390G838020     101             BPIGIOVANNA OLIVEIRA DE CARVALHO 2004100701    010                                07400885081Armando Tenorio de Araujo                  53Aruja Centro Residencial
03049138120241070050453405345222360520241003002040302060030700402404310640M350390G838009     101             BPIGABRIEL FERNANDES GONTAN      2015050803    010                                07403000008HANS OSSAMU SUZUKI                        220ARUJAMRICA                    11 46550954
03049138120241070050453405345222360520241003002080302060030703404648057800F350390G838009     101             BPIANA CLARA PIRES DOS SANTOS    2014122201    010                                07402205081MINAS GERAIS                               15JARDIM PLANALTO               11 46523629
03049138120241070050453405345222360520241003002110302060030708000839197225M350390G838014     101             BPILUAN COSTA MARQUES            2010080503    010                                07405425081ROUXINOL                                   86JARDIM PINHEIRO               11 46533690
03049138120241070050453405345222360520241003002120302060030701401642375631F350390G838003     101             BPIANTONELA PINOTI COSTA CARVALHO2021031501    010                                07411215081SAO LUIS                                  110JORDANPOLIS
03049138120241070050453405345222360520241008003020302060030700206991639330F350390G838010     101             BPIISABELLA VITORIA ALVES SOARES 2014111201    010                                07403105081JOO LEITE DE CAMARGO                      184ARUJAMRICA
03049138120241070050453405345222360520241008003090302060030701409652952736M350390G838026     101             BPIARTHUR DOS SANTOS VIANNA PINHO1998100801    010                                07417265008RAILDA ALVES DE OLIVEIRA      A           856PARQUE RODRIGO BARRETO        11 46554774
03049138120241070050453405345222360520241008003110302060030704801024804348F350390G838010     101             BPIISABEL SOUSA FONSECA          2014080801    010                                07417565081Jose Barbosa de Souza                      15Parque Rodrigo Barreto
03049138120241070050453405345222360520241008003150302060030700507118196959F350390G838018     101             BPIIZABEL DA LUZ BARROS          2006041503    010                                07417465081ANTONIA MANOEL FERNANDES                  639PARQUE RODRIGO BARRETO        11 46531105
03049138120241070050453405345222360520241010003160302060030703404648057800F350390G838009     101             BPIANA CLARA PIRES DOS SANTOS    2014122201    010                                07402205081MINAS GERAIS                               15JARDIM PLANALTO               11 46523629
03049138120241070050453405345222360520241010003200302060030700402404310640M350390G838009     101             BPIGABRIEL FERNANDES GONTAN      2015050803    010                                07403000008HANS OSSAMU SUZUKI                        220ARUJAMRICA                    11 46550954
03049138120241070050453405345222360520241010004010302060030700004487906207M350390G838009     101             BPILUCAS PIETRO DO CARMO SANTOS  2015060701    010                                07417500081ANTO BERNARDO DA SILVA                     96PARQUE RODRIGO BARRETO        11 46497722
03049138120241070050453405345222360520241010004170302060030705002456823155M350390G838017     101             BPIGABRIEL PEDRO LOPES DA SILVA  2007062301    010                                07401720081IRACI PINTO FERREIRA BRAZ     A            19VILA PILAR                    11 46513585
03049138120241070050453405345222360520241010004180302060030701401642375631F350390G838003     101             BPIANTONELA PINOTI COSTA CARVALHO2021031501    010                                07411215081SAO LUIS                                  110JORDANPOLIS
03049138120241070050453405345222360520241010004190302060030704603611129420F350390G838020     101             BPIGIOVANNA OLIVEIRA DE CARVALHO 2004100701    010                                07400885081Armando Tenorio de Araujo                  53Aruja Centro Residencial
03049138120241070050453405345222360520241015005030302060030704801024804348F350390G838010     101             BPIISABEL SOUSA FONSECA          2014080801    010                                07417565081Jose Barbosa de Souza                      15Parque Rodrigo Barreto
03049138120241070050453405345222360520241015005080302060030700206991639330F350390G838010     101             BPIISABELLA VITORIA ALVES SOARES 2014111201    010                                07403105081JOO LEITE DE CAMARGO                      184ARUJAMRICA
03049138120241070050453405345222360520241015005170302060030701409652952736M350390G838026     101             BPIARTHUR DOS SANTOS VIANNA PINHO1998100801    010                                07417265008RAILDA ALVES DE OLIVEIRA      A           856PARQUE RODRIGO BARRETO        11 46554774
03049138120241070050453405345222360520241017006050302060030704603611129420F350390G838020     101             BPIGIOVANNA OLIVEIRA DE CARVALHO 2004100701    010                                07400885081Armando Tenorio de Araujo                  53Aruja Centro Residencial
03049138120241070050453405345222360520241017006080302060030700004487906207M350390G838009     101             BPILUCAS PIETRO DO CARMO SANTOS  2015060701    010                                07417500081ANTO BERNARDO DA SILVA                     96PARQUE RODRIGO BARRETO        11 46497722
03049138120241070050453405345222360520241017006100302060030703404648057800F350390G838009     101             BPIANA CLARA PIRES DOS SANTOS    2014122201    010                                07402205081MINAS GERAIS                               15JARDIM PLANALTO               11 46523629
03049138120241070050453405345222360520241017006120302060030705002456823155M350390G838017     101             BPIGABRIEL PEDRO LOPES DA SILVA  2007062301    010                                07401720081IRACI PINTO FERREIRA BRAZ     A            19VILA PILAR                    11 46513585
03049138120241070050453405345222360520241017006130302060030708000839197225M350390G838014     101             BPILUAN COSTA MARQUES            2010080503    010                                07405425081ROUXINOL                                   86JARDIM PINHEIRO               11 46533690
03049138120241070050453405345222360520241017006150302060030701401642375631F350390G838003     101             BPIANTONELA PINOTI COSTA CARVALHO2021031501    010                                07411215081SAO LUIS                                  110JORDANPOLIS
03049138120241070050453405345222360520241017006160302060030700402404310640M350390G838009     101             BPIGABRIEL FERNANDES GONTAN      2015050803    010                                07403000008HANS OSSAMU SUZUKI                        220ARUJAMRICA                    11 46550954
03049138120241070050453405345222360520241022007080302060030701409652952736M350390G838026     101             BPIARTHUR DOS SANTOS VIANNA PINHO1998100801    010                                07417265008RAILDA ALVES DE OLIVEIRA      A           856PARQUE RODRIGO BARRETO        11 46554774
03049138120241070050453405345222360520241022007100302060030700507118196959F350390G838018     101             BPIIZABEL DA LUZ BARROS          2006041503    010                                07417465081ANTONIA MANOEL FERNANDES                  639PARQUE RODRIGO BARRETO        11 46531105
03049138120241070050453405345222360520241022007140302060030704801024804348F350390G838010     101             BPIISABEL SOUSA FONSECA          2014080801    010                                07417565081Jose Barbosa de Souza                      15Parque Rodrigo Barreto
03049138120241070050453405345222360520241024008090302060030705002456823155M350390G838017     101             BPIGABRIEL PEDRO LOPES DA SILVA  2007062301    010                                07401720081IRACI PINTO FERREIRA BRAZ     A            19VILA PILAR                    11 46513585
03049138120241070050453405345222360520241024008100302060030704603611129420F350390G838020     101             BPIGIOVANNA OLIVEIRA DE CARVALHO 2004100701    010                                07400885081Armando Tenorio de Araujo                  53Aruja Centro Residencial
03049138120241070050453405345222360520241024008110302060030700004487906207M350390G838009     101             BPILUCAS PIETRO DO CARMO SANTOS  2015060701    010                                07417500081ANTO BERNARDO DA SILVA                     96PARQUE RODRIGO BARRETO        11 46497722
03049138120241070050453405345222360520241024008140302060030701401642375631F350390G838003     101             BPIANTONELA PINOTI COSTA CARVALHO2021031501    010                                07411215081SAO LUIS                                  110JORDANPOLIS
03049138120241070050453405345222360520241024008160302060030708000839197225M350390G838014     101             BPILUAN COSTA MARQUES            2010080503    010                                07405425081ROUXINOL                                   86JARDIM PINHEIRO               11 46533690
03049138120241070050453405345222360520241029008180302060030700206991639330F350390G838010     101             BPIISABELLA VITORIA ALVES SOARES 2014111201    010                                07403105081JOO LEITE DE CAMARGO                      184ARUJAMRICA
03049138120241070050453405345222360520241029009030302060030704801024804348F350390G838010     101             BPIISABEL SOUSA FONSECA          2014080801    010                                07417565081Jose Barbosa de Souza                      15Parque Rodrigo Barreto
03049138120241070050453405345222360520241029009090302060030701409652952736M350390G838026     101             BPIARTHUR DOS SANTOS VIANNA PINHO1998100801    010                                07417265008RAILDA ALVES DE OLIVEIRA      A           856PARQUE RODRIGO BARRETO        11 46554774
03049138120241070050453405345222360520241029009130302060030700507118196959F350390G838018     101             BPIIZABEL DA LUZ BARROS          2006041503    010                                07417465081ANTONIA MANOEL FERNANDES                  639PARQUE RODRIGO BARRETO        11 46531105
03049138120241070050453405345222360520241031010010302060030703404648057800F350390G838009     101             BPIANA CLARA PIRES DOS SANTOS    2014122201    010                                07402205081MINAS GERAIS                               15JARDIM PLANALTO               11 46523629
03049138120241070050453405345222360520241031010060302060030700402404310640M350390G838009     101             BPIGABRIEL FERNANDES GONTAN      2015050803    010                                07403000008HANS OSSAMU SUZUKI                        220ARUJAMRICA                    11 46550954
03049138120241070050453405345222360520241031010090302060030701401642375631F350390G838003     101             BPIANTONELA PINOTI COSTA CARVALHO2021031501    010                                07411215081SAO LUIS                                  110JORDANPOLIS
03049138120241070050453405345222360520241031010100302060030708000839197225M350390G838014     101             BPILUAN COSTA MARQUES            2010080503    010                                07405425081ROUXINOL                                   86JARDIM PINHEIRO               11 46533690
03049138120241070050453405345222360520241031010110302060030705002456823155M350390G838017     101             BPIGABRIEL PEDRO LOPES DA SILVA  2007062301    010                                07401720081IRACI PINTO FERREIRA BRAZ     A            19VILA PILAR                    11 46513585
03049138120241070050453405345222360520241031010120302060030700004487906207M350390G838009     101             BPILUCAS PIETRO DO CARMO SANTOS  2015060701    010                                07417500081ANTO BERNARDO DA SILVA                     96PARQUE RODRIGO BARRETO        11 46497722
03049138120241070050453405345222360520241001001010302060049706708783728020M350390G804014     101             BPIMATHEUS HENDERSON CALHEIRO GOM2009123003    010                                07434130081DOS LIMOEIROS                              75JARDIM LIMOEIRO
03049138120241070050453405345222360520241001001030302060049708904756630113M350390G804009     101             BPIGABRIEL DAVI SOUZA BARROS     2015020601    010                                07404090081SERRA DO JAIRE                CS4         315MIRANTE DO ARUJ               11 46558284
03049138120241070050453405345222360520241001001040302060049708607048327582F350390G804007     101             BPIISADORA GUEDES BORGES         2017060303    010                                07417485081IRACI SOUZA DA ROCHA                       75PARQUE RODRIGO BARRETO        11 46552787
03049138120241070050453405345222360520241001001050302060049706403624093789M350390G804008     101             BPILUCAS CARDOZO DOS SANTOS      2015121501    010                                07428315081RUBELITA                                  155JARDIM FAZENDA RINCO          11 46525079
03049138120241070050453405345222360520241001001060302060049704202761323381M350390G804014     101             BPIRENATO RODRIGUES SANTOS       2010020401    010                                07400795081Benjamin de Jesus Rodrigues   Viela       739Aruj Centro Residencial       11965745780
03049138120241070050453405345222360520241001001070302060049700005631673708F350390G804007     101             BPIYASMIN CREUSA DE MOURA SILVA  2017040901    010                                07400370081La Paz                        Casa 1      114Jardim Rinco                  11 46512002
03049138120241070050453405345222360520241001001080302060049708106526577031M350390G804008     101             BPIMATHEUS PAULO LEITE DA SILVA  2016051203    010                                07405445081ANDORINHA                     L 5         364JARDIM PINHEIRO               11912861623
03049138120241070050453405345222360520241001001090302060049700507118196959F350390G804018     101             BPIIZABEL DA LUZ BARROS          2006041503    010                                07417465081ANTONIA MANOEL FERNANDES                  639PARQUE RODRIGO BARRETO        11 46531105
03049138120241070050453405345222360520241001001110302060049705601486775713M350390G804005     101             BPIJOAQUIM FERREIRA ANTUNES DOS S2019011201    010                                07411390004DAS ROSAS                                 753CIDADE NOVA ARUJA             11956777705
03049138120241070050453405345222360520241001001130302060049700801940003986M350390G804008     101             BPIDANIEL RIBEIRO AQUINO DA SILVE2016020203    010                                07400470081Siqueira Campos                            30Jardim Rinco
03049138120241070050453405345222360520241001001140302060049708006887642328M350390G804005     101             BPIPAULO HENRIQUE SILVA LEITE    2019031201    010                                07417380081JOS SEVERINO FILHO            CASA 1      120PARQUE RODRIGO BARRETO        11 46531574
03049138120241070050453405345222360520241001001150302060049706906106273834M350390G804011     101             BPIGUSTAVO PEDRO DE JESUS HONORIO2013080401    010                                07411155008Santa Terezinha                           555Jordanpolis
03049138120241070050453405345222360520241003001160302060049703408226916815M350390G804011     101             BPIMIGUEL PONCIANO SOARES        2013112201    010                                07407040008Airton dos Santos Heras GalvezCasa 24     120Jardim Santo Antonio
03049138120241070050453405345222360520241003001170302060049704105194737072M350390G804007     101             BPIKAUAN PINOTI SILVA CARVALHO   2017091801    010                                07411215081LUIZ                                      110JORDANPOLIS
03049138120241070050453405345222360520241003001180302060049704708700913538M350390G804008     101             BPIRICARDO MIGUEL JUNIOR APARECID2016011001    010                                07405440081Tuim                          A           180Jardim Pinheiro
03049138120241070050453405345222360520241003001190302060049705001225714554M350390G804020     101             BPILUCAS CORTICEIRO SANTOS       2004072004    010                                07417590081Pedro Jos de Morais                        32Parque Rodrigo Barreto
03049138120241070050453405345222360520241003001200302060049705002456823155M350390G804017     101             BPIGABRIEL PEDRO LOPES DA SILVA  2007062301    010                                07401720081IRACI PINTO FERREIRA BRAZ     A            19VILA PILAR                    11 46513585
03049138120241070050453405345222360520241003002010302060049705008816205755M350390G804007     101             BPIBERNARDO PINOTI SILVA CARVALHO2017091801    010                                07411215081LUIZ                                      110JORDANPOLIS
03049138120241070050453405345222360520241003002020302060049705207421017775M350390G804008     101             BPIARTHUR MOREIRA DA MOTTA       2016081303    010                                07439050081MOLIBIDENIO                               170CHACARAS COPACO               11 46543261
03049138120241070050453405345222360520241003002050302060049705003094227452M350390G804004     101             BPIHUGO HENRIQUE DE PETTA ANTUNES2020022901    010                                07405445081ANDORINHA                     A            63JARDIM PINHEIRO
03049138120241070050453405345222360520241003002060302060049708200168857241M350390G804019     101             BPIKLAYVERTT BELO MOITINHO       2005112801    010                                07400970008GEORGETONE                                 16JD RINCAO
03049138120241070050453405345222360520241003002070302060049708406711778169M350390G804007     101             BPIKAUE PESQUEIRA LOURENCO DA SIL2017012503    010                                07432445081PITANGUEIRAS                  CASA B      211RECANTO PRIMAVERA
03049138120241070050453405345222360520241003002090302060049708603521580584M350390G804016     101             BPIMATHEUS LIMA DOS SANTOS       2008101201    010                                07400970081DADY                          CASA 2      165JARDIM EMILIA
03049138120241070050453405345222360520241003002100302060049700403970687048M350390G804017     101             BPIIAGO RAFIK VIANA DOS SANTOS   2007101204    010                                07404090081SERRA DO JAIRE                            395PEDREIRA                      11993464084
03049138120241070050453405345222360520241003002130302060049700004487906207M350390G804009     101             BPILUCAS PIETRO DO CARMO SANTOS  2015060701    010                                07417500081ANTO BERNARDO DA SILVA                     96PARQUE RODRIGO BARRETO        11 46497722
03049138120241070050453405345222360520241003002140302060049700607493571960M350390G804008     101             BPIHENRIQUE MOREIRA DA MOTTA     2016081303    010                                07400970081Avenida dos Expedicionarios               S/NCentro
03049138120241070050453405345222360520241003002150302060049700802480068088M350390G804009     101             BPIISAQUE SABINO SOARES          2015043003    010                                07400380081CARACAS                       CASA 2      250CENTRO
03049138120241070050453405345222360520241003002160302060049701203002931919F350390G804015     101             BPINATALIA SILVA SANTOS DO NASCIM2009021803    010                                07412010008P.l. do Brasil                              5Porto
03049138120241070050453405345222360520241003002170302060049702401032630725M350390G804010     101             BPIHENRIQUE ALMEIDA SILVA        2014031401    010                                07400970081LUIZ GONZAGA COLANGELO NOBREGA            525PARQUE RODRIGO BARRETO        11 37545224
03049138120241070050453405345222360520241003002180302060049700609919724261M350390G804011     101             BPIBRYAN SANTOS DA HORA          2013062803    010                                07417100081Alice Sanches Ribeiro         Casa 03      62Parque Rodrigo Barreto
03049138120241070050453405345222360520241003002190302060049700503147078256M350390G804007     101             BPIOSCAR BARUC TAVARES DE JESUS  2017081803    010                                07401110081NANCI ARAKI                                85ARUJA CENTER VILLE            11980798292
03049138120241070050453405345222360520241003002200302060049707602259771994M350390G804006     101             BPIDANIEL MEDEIROS DIAS          2018102203    010                                07437050081Cedros                                    185Parque dos Jacarands          11989113704
03049138120241070050453405345222360520241008003010302060049705601486775713M350390G804005     101             BPIJOAQUIM FERREIRA ANTUNES DOS S2019011201    010                                07411390004DAS ROSAS                                 753CIDADE NOVA ARUJA             11956777705
03049138120241070050453405345222360520241008003030302060049708106526577031M350390G804008     101             BPIMATHEUS PAULO LEITE DA SILVA  2016051203    010                                07405445081ANDORINHA                     L 5         364JARDIM PINHEIRO               11912861623
03049138120241070050453405345222360520241008003040302060049700005631673708F350390G804007     101             BPIYASMIN CREUSA DE MOURA SILVA  2017040901    010                                07400370081La Paz                        Casa 1      114Jardim Rinco                  11 46512002
03049138120241070050453405345222360520241008003050302060049706403624093789M350390G804008     101             BPILUCAS CARDOZO DOS SANTOS      2015121501    010                                07428315081RUBELITA                                  155JARDIM FAZENDA RINCO          11 46525079
03049138120241070050453405345222360520241008003060302060049700202902613922M350390G804008     101             BPIDAVI MOTA DE JESUS            2016030801    010                                07405470081PELICANO                      CASA 03      68JARDIM PINHEIRO
03049138120241070050453405345222360520241008003070302060049702909551787571M353060G804007     101             BPIMURILO DE SOUZA RAMPAZI       2016122601    010                                08740540081PREFEITO JOSE DE MELO FRANCO              195JARDIM UNIVERSO
03049138120241070050453405345222360520241008003080302060049706708783728020M350390G804014     101             BPIMATHEUS HENDERSON CALHEIRO GOM2009123003    010                                07434130081DOS LIMOEIROS                              75JARDIM LIMOEIRO
03049138120241070050453405345222360520241008003100302060049708607048327582F350390G804007     101             BPIISADORA GUEDES BORGES         2017060303    010                                07417485081IRACI SOUZA DA ROCHA                       75PARQUE RODRIGO BARRETO        11 46552787
03049138120241070050453405345222360520241008003120302060049708006887642328M350390G804005     101             BPIPAULO HENRIQUE SILVA LEITE    2019031201    010                                07417380081JOS SEVERINO FILHO            CASA 1      120PARQUE RODRIGO BARRETO        11 46531574
03049138120241070050453405345222360520241008003130302060049700801940003986M350390G804008     101             BPIDANIEL RIBEIRO AQUINO DA SILVE2016020203    010                                07400470081Siqueira Campos                            30Jardim Rinco
03049138120241070050453405345222360520241008003140302060049708904756630113M350390G804009     101             BPIGABRIEL DAVI SOUZA BARROS     2015020601    010                                07404090081SERRA DO JAIRE                CS4         315MIRANTE DO ARUJ               11 46558284
03049138120241070050453405345222360520241010003170302060049700403970687048M350390G804017     101             BPIIAGO RAFIK VIANA DOS SANTOS   2007101204    010                                07404090081SERRA DO JAIRE                            395PEDREIRA                      11993464084
03049138120241070050453405345222360520241010003180302060049700607493571960M350390G804008     101             BPIHENRIQUE MOREIRA DA MOTTA     2016081303    010                                07400970081Avenida dos Expedicionarios               S/NCentro
03049138120241070050453405345222360520241010003190302060049700609919724261M350390G804011     101             BPIBRYAN SANTOS DA HORA          2013062803    010                                07417100081Alice Sanches Ribeiro         Casa 03      62Parque Rodrigo Barreto
03049138120241070050453405345222360520241010004020302060049708603521580584M350390G804016     101             BPIMATHEUS LIMA DOS SANTOS       2008101201    010                                07400970081DADY                          CASA 2      165JARDIM EMILIA
03049138120241070050453405345222360520241010004030302060049708406711778169M350390G804007     101             BPIKAUE PESQUEIRA LOURENCO DA SIL2017012503    010                                07432445081PITANGUEIRAS                  CASA B      211RECANTO PRIMAVERA
03049138120241070050453405345222360520241010004040302060049708200168857241M350390G804019     101             BPIKLAYVERTT BELO MOITINHO       2005112801    010                                07400970008GEORGETONE                                 16JD RINCAO
03049138120241070050453405345222360520241010004050302060049708000839197225M350390G804014     101             BPILUAN COSTA MARQUES            2010080503    010                                07405425081ROUXINOL                                   86JARDIM PINHEIRO               11 46533690
03049138120241070050453405345222360520241010004060302060049707602259771994M350390G804006     101             BPIDANIEL MEDEIROS DIAS          2018102203    010                                07437050081Cedros                                    185Parque dos Jacarands          11989113704
03049138120241070050453405345222360520241010004070302060049705207421017775M350390G804008     101             BPIARTHUR MOREIRA DA MOTTA       2016081303    010                                07439050081MOLIBIDENIO                               170CHACARAS COPACO               11 46543261
03049138120241070050453405345222360520241010004080302060049705008816205755M350390G804007     101             BPIBERNARDO PINOTI SILVA CARVALHO2017091801    010                                07411215081LUIZ                                      110JORDANPOLIS
03049138120241070050453405345222360520241010004090302060049705003094227452M350390G804004     101             BPIHUGO HENRIQUE DE PETTA ANTUNES2020022901    010                                07405445081ANDORINHA                     A            63JARDIM PINHEIRO
03049138120241070050453405345222360520241010004100302060049705001225714554M350390G804020     101             BPILUCAS CORTICEIRO SANTOS       2004072004    010                                07417590081Pedro Jos de Morais                        32Parque Rodrigo Barreto
03049138120241070050453405345222360520241010004110302060049704708700913538M350390G804008     101             BPIRICARDO MIGUEL JUNIOR APARECID2016011001    010                                07405440081Tuim                          A           180Jardim Pinheiro
03049138120241070050453405345222360520241010004120302060049704105194737072M350390G804007     101             BPIKAUAN PINOTI SILVA CARVALHO   2017091801    010                                07411215081LUIZ                                      110JORDANPOLIS
03049138120241070050453405345222360520241010004130302060049703408226916815M350390G804011     101             BPIMIGUEL PONCIANO SOARES        2013112201    010                                07407040008Airton dos Santos Heras GalvezCasa 24     120Jardim Santo Antonio
03049138120241070050453405345222360520241010004140302060049702401032630725M350390G804010     101             BPIHENRIQUE ALMEIDA SILVA        2014031401    010                                07400970081LUIZ GONZAGA COLANGELO NOBREGA            525PARQUE RODRIGO BARRETO        11 37545224
03049138120241070050453405345222360520241010004150302060049700802480068088M350390G804009     101             BPIISAQUE SABINO SOARES          2015043003    010                                07400380081CARACAS                       CASA 2      250CENTRO
03049138120241070050453405345222360520241010004160302060049701203002931919F350390G804015     101             BPINATALIA SILVA SANTOS DO NASCIM2009021803    010                                07412010008P.l. do Brasil                              5Porto
03049138120241070050453405345222360520241015004200302060049700801940003986M350390G804008     101             BPIDANIEL RIBEIRO AQUINO DA SILVE2016020203    010                                07400470081Siqueira Campos                            30Jardim Rinco
03049138120241070050453405345222360520241015005010302060049708006887642328M350390G804005     101             BPIPAULO HENRIQUE SILVA LEITE    2019031201    010                                07417380081JOS SEVERINO FILHO            CASA 1      120PARQUE RODRIGO BARRETO        11 46531574
03049138120241070050453405345222360520241015005020302060049706403624093789M350390G804008     101             BPILUCAS CARDOZO DOS SANTOS      2015121501    010                                07428315081RUBELITA                                  155JARDIM FAZENDA RINCO          11 46525079
03049138120241070050453405345222360520241015005040302060049708904756630113M350390G804009     101             BPIGABRIEL DAVI SOUZA BARROS     2015020601    010                                07404090081SERRA DO JAIRE                CS4         315MIRANTE DO ARUJ               11 46558284
03049138120241070050453405345222360520241015005050302060049706906106273834M350390G804011     101             BPIGUSTAVO PEDRO DE JESUS HONORIO2013080401    010                                07411155008Santa Terezinha                           555Jordanpolis
03049138120241070050453405345222360520241015005060302060049708607048327582F350390G804007     101             BPIISADORA GUEDES BORGES         2017060303    010                                07417485081IRACI SOUZA DA ROCHA                       75PARQUE RODRIGO BARRETO        11 46552787
