01#BPA#2024110063740002031534SECRETARIA MUNICIPAL DE SAUDE SMS   56901275000150SECRETARIA ESTADUAL DE SAUDE            MD04.01    
022059304202411225142001010301010137067000001BPA
022059304202411225142001020301010137084000001BPA
022059304202411225142001030301010137089000001BPA
022059304202411225142001040301010137073000001BPA
022059304202411225142001050301010137062000001BPA
022059304202411223505001060301100039000000009BPA
022059304202411322230001070301100152000000006BPA
022059304202411322250001080301100152000000002BPA
022773228202411322230001010301100152000000014BPA
022773848202411223710001010301010137069000001BPA
022773848202411223710001020301010137093000001BPA
022773848202411223710001030301010137086000002BPA
022773848202411223710001040301010137098000001BPA
022773848202411322230001050301100039000000004BPA
022773848202411322230001060301100152000000002BPA
022773848202411322250001070301100152000000017BPA
022773856202411225124001010301010072000000031BPA
022773856202411225124001020301010072001000010BPA
022773856202411225124001030301010072009000006BPA
022773856202411225124001040301010072011000005BPA
022773856202411225124001050301010072004000013BPA
022773856202411225124001060301010072002000011BPA
022773856202411225124001070301010072007000006BPA
022773856202411225124001080301010072008000008BPA
022773856202411225124001090301010072006000007BPA
022773856202411225124001100301010072010000009BPA
022773856202411225124001110301010072005000009BPA
022773856202411225124001120301010072003000012BPA
022773856202411225124001130301010072012000007BPA
022773856202411223505001140301100039000000003BPA
022773856202411223505001150301100152000000001BPA
022773856202411322230001160301100152000000003BPA
022773856202411322250001170301100152000000032BPA
023044114202411322230001010301100039000000015BPA
023044114202411223505001020301100101000000001BPA
023044114202411322230001030301100101000000005BPA
023044114202411322230001040301100152000000011BPA
026430163202411251510001010301080160000000015BPA
026430163202411322230001020301100039000000128BPA
026896847202411225112001010301010072065000005BPA
026896847202411225112001020301010072071000005BPA
026896847202411225112001030301010072072000007BPA
026896847202411225112001040301010072005000002BPA
026896847202411225112001050301010072039000003BPA
026896847202411225112001060301010072083000003BPA
026896847202411225112001070301010072077000009BPA
026896847202411225112001080301010072026000001BPA
026896847202411225112001090301010072012000004BPA
026896847202411225112001100301010072032000006BPA
026896847202411225112001110301010072010000001BPA
026896847202411225112001120301010072055000007BPA
026896847202411225112001130301010072044000003BPA
026896847202411225112001140301010072053000006BPA
026896847202411225112001150301010072014000002BPA
026896847202411225112001160301010072022000004BPA
026896847202411225112001170301010072011000004BPA
026896847202411225112001180301010072067000007BPA
026896847202411225112001190301010072087000003BPA
026896847202411225112001200301010072003000003BPA
026896847202411225112002010301010072042000005BPA
026896847202411225112002020301010072023000003BPA
026896847202411225112002030301010072050000009BPA
026896847202411225112002040301010072046000004BPA
026896847202411225112002050301010072036000006BPA
026896847202411225112002060301010072018000003BPA
026896847202411225112002070301010072024000001BPA
026896847202411225112002080301010072015000006BPA
026896847202411225112002090301010072043000008BPA
026896847202411225112002100301010072047000010BPA
026896847202411225112002110301010072080000007BPA
026896847202411225112002120301010072070000008BPA
026896847202411225112002130301010072066000017BPA
026896847202411225112002140301010072017000002BPA
026896847202411225112002150301010072054000009BPA
026896847202411225112002160301010072073000005BPA
026896847202411225112002170301010072045000006BPA
026896847202411225112002180301010072009000003BPA
026896847202411225112002190301010072040000005BPA
026896847202411225112002200301010072069000012BPA
026896847202411225112003010301010072085000001BPA
026896847202411225112003020301010072084000004BPA
026896847202411225112003030301010072052000007BPA
026896847202411225112003040301010072031000003BPA
026896847202411225112003050301010072078000005BPA
026896847202411225112003060301010072008000001BPA
026896847202411225112003070301010072089000001BPA
026896847202411225112003080301010072076000009BPA
026896847202411225112003090301010072079000006BPA
026896847202411225112003100301010072034000007BPA
026896847202411225112003110301010072074000008BPA
026896847202411225112003120301010072051000006BPA
026896847202411225112003130301010072002000001BPA
026896847202411225112003140301010072027000004BPA
026896847202411225112003150301010072058000004BPA
026896847202411225112003160301010072041000001BPA
026896847202411225112003170301010072037000003BPA
026896847202411225112003180301010072000000001BPA
026896847202411225112003190301010072038000002BPA
026896847202411225112003200301010072028000003BPA
026896847202411225112004010301010072056000004BPA
026896847202411225112004020301010072025000003BPA
026896847202411225112004030301010072068000016BPA
026896847202411225112004040301010072021000002BPA
026896847202411225112004050301010072019000007BPA
026896847202411225112004060301010072029000007BPA
026896847202411225112004070301010072060000003BPA
026896847202411225112004080301010072057000004BPA
026896847202411225112004090301010072081000006BPA
026896847202411225112004100301010072006000002BPA
026896847202411225112004110301010072063000007BPA
026896847202411225112004120301010072062000013BPA
026896847202411225112004130301010072007000003BPA
026896847202411225112004140301010072004000003BPA
026896847202411225112004150301010072035000007BPA
026896847202411225112004160301010072020000005BPA
026896847202411225112004170301010072048000002BPA
026896847202411225112004180301010072061000005BPA
026896847202411225112004190301010072082000003BPA
026896847202411225112004200301010072013000001BPA
026896847202411225112005010301010072075000008BPA
026896847202411225112005020301010072016000006BPA
026896847202411225112005030301010072033000006BPA
026896847202411225112005040301010072064000008BPA
026896847202411225112005050301010072030000002BPA
026896847202411225112005060301010072086000002BPA
026896847202411225112005070301010072059000005BPA
026896847202411225112005080301010072049000005BPA
026896847202411225120005090301010072022000001BPA
026896847202411225120005100301010072077000006BPA
026896847202411225120005110301010072078000003BPA
026896847202411225120005120301010072054000007BPA
026896847202411225120005130301010072014000001BPA
026896847202411225120005140301010072089000002BPA
026896847202411225120005150301010072053000004BPA
026896847202411225120005160301010072093000001BPA
026896847202411225120005170301010072018000001BPA
026896847202411225120005180301010072050000002BPA
026896847202411225120005190301010072056000008BPA
026896847202411225120005200301010072035000001BPA
026896847202411225120006010301010072045000002BPA
026896847202411225120006020301010072080000010BPA
026896847202411225120006030301010072087000001BPA
026896847202411225120006040301010072062000008BPA
026896847202411225120006050301010072029000001BPA
026896847202411225120006060301010072046000003BPA
026896847202411225120006070301010072085000006BPA
026896847202411225120006080301010072055000005BPA
026896847202411225120006090301010072083000002BPA
026896847202411225120006100301010072081000003BPA
026896847202411225120006110301010072079000003BPA
026896847202411225120006120301010072011000001BPA
026896847202411225120006130301010072065000013BPA
026896847202411225120006140301010072082000002BPA
026896847202411225120006150301010072060000005BPA
026896847202411225120006160301010072073000010BPA
026896847202411225120006170301010072043000002BPA
026896847202411225120006180301010072012000001BPA
026896847202411225120006190301010072061000007BPA
026896847202411225120006200301010072031000001BPA
026896847202411225120007010301010072034000001BPA
026896847202411225120007020301010072042000002BPA
026896847202411225120007030301010072084000003BPA
026896847202411225120007040301010072063000010BPA
026896847202411225120007050301010072059000003BPA
026896847202411225120007060301010072070000012BPA
026896847202411225120007070301010072049000002BPA
026896847202411225120007080301010072074000006BPA
026896847202411225120007090301010072040000003BPA
026896847202411225120007100301010072047000005BPA
026896847202411225120007110301010072026000001BPA
026896847202411225120007120301010072076000004BPA
026896847202411225120007130301010072058000009BPA
026896847202411225120007140301010072086000001BPA
026896847202411225120007150301010072067000019BPA
026896847202411225120007160301010072068000009BPA
026896847202411225120007170301010072064000009BPA
026896847202411225120007180301010072020000003BPA
026896847202411225120007190301010072069000015BPA
026896847202411225120007200301010072066000007BPA
026896847202411225120008010301010072044000002BPA
026896847202411225120008020301010072039000002BPA
026896847202411225120008030301010072024000001BPA
026896847202411225120008040301010072052000003BPA
026896847202411225120008050301010072075000006BPA
026896847202411225120008060301010072037000005BPA
026896847202411225120008070301010072048000010BPA
026896847202411225120008080301010072072000010BPA
026896847202411225120008090301010072032000002BPA
026896847202411225120008100301010072013000001BPA
026896847202411225120008110301010072071000009BPA
026896847202411225120008120301010072051000004BPA
026896847202411225120008130301010072016000003BPA
026896847202411225120008140301010072019000001BPA
026896847202411225120008150301010072057000005BPA
026896847202411225125008160301010072030000002BPA
026896847202411225125008170301010072066000002BPA
026896847202411225125008180301010072050000001BPA
026896847202411225125008190301010072052000001BPA
026896847202411225125008200301010072035000002BPA
026896847202411225125009010301010072065000002BPA
026896847202411225125009020301010072047000003BPA
026896847202411225125009030301010072080000001BPA
026896847202411225125009040301010072011000001BPA
026896847202411225125009050301010072024000001BPA
026896847202411225125009060301010072028000001BPA
026896847202411225125009070301010072059000001BPA
026896847202411225125009080301010072045000001BPA
026896847202411225125009090301010072043000001BPA
026896847202411225125009100301010072019000001BPA
026896847202411225125009110301010072074000001BPA
026896847202411225125009120301010072040000002BPA
026896847202411225125009130301010072062000001BPA
026896847202411225125009140301010072032000002BPA
026896847202411225125009150301010072073000001BPA
026896847202411225125009160301010072067000001BPA
026896847202411225125009170301010072070000001BPA
026896847202411225125009180301010072056000002BPA
026896847202411225125009190301010072025000001BPA
026896847202411225125009200301010072069000002BPA
026896847202411225127010010301010072068000001BPA
026896847202411225127010020301010072005000003BPA
026896847202411225127010030301010072036000002BPA
026896847202411225127010040301010072052000001BPA
026896847202411225127010050301010072055000002BPA
026896847202411225127010060301010072065000001BPA
026896847202411225127010070301010072003000003BPA
026896847202411225127010080301010072002000001BPA
026896847202411225127010090301010072063000008BPA
026896847202411225127010100301010072070000001BPA
026896847202411225127010110301010072006000005BPA
026896847202411225127010120301010072031000001BPA
026896847202411225127010130301010072001000005BPA
026896847202411225127010140301010072060000001BPA
026896847202411225127010150301010072008000002BPA
026896847202411225127010160301010072038000001BPA
026896847202411225127010170301010072046000003BPA
026896847202411225127010180301010072076000001BPA
026896847202411225127010190301010072028000001BPA
026896847202411225127010200301010072062000002BPA
026896847202411225127011010301010072013000001BPA
026896847202411225127011020301010072035000001BPA
026896847202411225127011030301010072066000005BPA
026896847202411225127011040301010072012000001BPA
026896847202411225127011050301010072078000002BPA
026896847202411225127011060301010072079000002BPA
026896847202411225127011070301010072011000004BPA
026896847202411225127011080301010072082000002BPA
026896847202411225127011090301010072067000002BPA
026896847202411225127011100301010072075000001BPA
026896847202411225127011110301010072010000003BPA
026896847202411225127011120301010072081000001BPA
026896847202411225127011130301010072047000001BPA
026896847202411225127011140301010072039000001BPA
026896847202411225127011150301010072007000002BPA
026896847202411225127011160301010072071000002BPA
026896847202411225127011170301010072009000003BPA
026896847202411225127011180301010072061000002BPA
026896847202411225127011190301010072090000001BPA
026896847202411225127011200301010072048000001BPA
026896847202411225127012010301010072056000002BPA
026896847202411225127012020301010072069000004BPA
026896847202411225127012030301010072073000003BPA
026896847202411225127012040301010072004000001BPA
026896847202411225127012050301010072051000001BPA
026896847202411225127012060301010072077000002BPA
026896847202411225127012070301010072064000002BPA
026896847202411225133012080301010072012000009BPA
026896847202411225133012090301010072045000003BPA
026896847202411225133012100301010072002000001BPA
026896847202411225133012110301010072018000003BPA
026896847202411225133012120301010072011000017BPA
026896847202411225133012130301010072008000014BPA
026896847202411225133012140301010072057000002BPA
026896847202411225133012150301010072010000010BPA
026896847202411225133012160301010072082000001BPA
026896847202411225133012170301010072043000002BPA
026896847202411225133012180301010072017000003BPA
026896847202411225133012190301010072055000004BPA
026896847202411225133012200301010072034000002BPA
026896847202411225133013010301010072046000003BPA
026896847202411225133013020301010072037000001BPA
026896847202411225133013030301010072052000002BPA
026896847202411225133013040301010072026000001BPA
026896847202411225133013050301010072060000001BPA
026896847202411225133013060301010072032000001BPA
026896847202411225133013070301010072058000002BPA
026896847202411225133013080301010072004000017BPA
026896847202411225133013090301010072042000001BPA
026896847202411225133013100301010072047000006BPA
026896847202411225133013110301010072077000001BPA
026896847202411225133013120301010072028000001BPA
026896847202411225133013130301010072048000002BPA
026896847202411225133013140301010072039000001BPA
026896847202411225133013150301010072007000008BPA
026896847202411225133013160301010072062000002BPA
026896847202411225133013170301010072068000002BPA
026896847202411225133013180301010072065000001BPA
026896847202411225133013190301010072040000002BPA
026896847202411225133013200301010072080000001BPA
026896847202411225133014010301010072019000004BPA
026896847202411225133014020301010072070000001BPA
026896847202411225133014030301010072024000002BPA
026896847202411225133014040301010072054000004BPA
026896847202411225133014050301010072035000002BPA
026896847202411225133014060301010072021000004BPA
026896847202411225133014070301010072049000006BPA
026896847202411225133014080301010072063000001BPA
026896847202411225133014090301010072009000013BPA
026896847202411225133014100301010072073000001BPA
026896847202411225133014110301010072003000005BPA
026896847202411225133014120301010072005000013BPA
026896847202411225133014130301010072041000003BPA
026896847202411225133014140301010072069000003BPA
026896847202411225133014150301010072006000016BPA
026896847202411225133014160301010072066000002BPA
026896847202411225133014170301010072079000001BPA
026896847202411225133014180301010072085000001BPA
026896847202411225133014190301010072025000001BPA
026896847202411225133014200301010072016000007BPA
026896847202411225133015010301010072020000002BPA
026896847202411225133015020301010072089000001BPA
026896847202411225133015030301010072038000002BPA
026896847202411225133015040301010072015000008BPA
026896847202411225133015050301010072044000001BPA
026896847202411225133015060301010072013000006BPA
026896847202411225133015070301010072022000001BPA
026896847202411225133015080301010072064000002BPA
026896847202411225133015090301010072059000007BPA
026896847202411225133015100301010072056000003BPA
026896847202411225133015110301010072072000002BPA
026896847202411225133015120301010072061000001BPA
026896847202411225133015130301010072067000002BPA
026896847202411225133015140301010072033000001BPA
026896847202411225133015150301010072031000003BPA
026896847202411225133015160301010072051000004BPA
026896847202411225133015170301010072053000003BPA
026896847202411225133015180301010072014000006BPA
026896847202411225135015190301010072047000003BPA
026896847202411225135015200301010072078000001BPA
026896847202411225135016010301010072069000001BPA
026896847202411225135016020301010072022000001BPA
026896847202411225135016030301010072067000003BPA
026896847202411225135016040301010072032000001BPA
026896847202411225135016050301010072012000005BPA
026896847202411225135016060301010072052000006BPA
026896847202411225135016070301010072053000003BPA
026896847202411225135016080301010072017000003BPA
026896847202411225135016090301010072041000003BPA
026896847202411225135016100301010072023000002BPA
026896847202411225135016110301010072074000001BPA
026896847202411225135016120301010072072000001BPA
026896847202411225135016130301010072019000003BPA
026896847202411225135016140301010072034000004BPA
026896847202411225135016150301010072044000002BPA
026896847202411225135016160301010072006000001BPA
026896847202411225135016170301010072055000005BPA
026896847202411225135016180301010072024000005BPA
026896847202411225135016190301010072042000003BPA
026896847202411225135016200301010072021000002BPA
026896847202411225135017010301010072009000001BPA
026896847202411225135017020301010072038000003BPA
026896847202411225135017030301010072079000001BPA
026896847202411225135017040301010072064000001BPA
026896847202411225135017050301010072046000007BPA
026896847202411225135017060301010072058000001BPA
026896847202411225135017070301010072015000003BPA
026896847202411225135017080301010072057000004BPA
026896847202411225135017090301010072056000006BPA
026896847202411225135017100301010072065000001BPA
026896847202411225135017110301010072051000002BPA
026896847202411225135017120301010072076000001BPA
026896847202411225135017130301010072060000007BPA
026896847202411225135017140301010072085000001BPA
026896847202411225135017150301010072048000004BPA
026896847202411225135017160301010072010000002BPA
026896847202411225135017170301010072028000004BPA
026896847202411225135017180301010072043000006BPA
026896847202411225135017190301010072050000003BPA
026896847202411225135017200301010072016000006BPA
026896847202411225135018010301010072005000002BPA
026896847202411225135018020301010072037000004BPA
026896847202411225135018030301010072026000004BPA
026896847202411225135018040301010072068000001BPA
026896847202411225135018050301010072013000002BPA
026896847202411225135018060301010072030000001BPA
026896847202411225135018070301010072080000001BPA
026896847202411225135018080301010072054000005BPA
026896847202411225135018090301010072003000002BPA
026896847202411225135018100301010072035000004BPA
026896847202411225135018110301010072036000003BPA
026896847202411225135018120301010072007000001BPA
026896847202411225135018130301010072031000003BPA
026896847202411225135018140301010072027000002BPA
026896847202411225135018150301010072075000001BPA
026896847202411225135018160301010072008000001BPA
026896847202411225135018170301010072045000002BPA
026896847202411225135018180301010072033000002BPA
026896847202411225135018190301010072059000001BPA
026896847202411225135018200301010072011000005BPA
026896847202411225135019010301010072018000002BPA
026896847202411225135019020301010072040000008BPA
026896847202411225135019030301010072025000007BPA
026896847202411225155019040301010072063000007BPA
026896847202411225155019050301010072079000001BPA
026896847202411225155019060301010072066000011BPA
026896847202411225155019070301010072088000001BPA
026896847202411225155019080301010072042000005BPA
026896847202411225155019090301010072035000003BPA
026896847202411225155019100301010072067000009BPA
026896847202411225155019110301010072044000003BPA
026896847202411225155019120301010072016000002BPA
026896847202411225155019130301010072048000004BPA
026896847202411225155019140301010072059000006BPA
026896847202411225155019150301010072071000005BPA
026896847202411225155019160301010072032000002BPA
026896847202411225155019170301010072060000003BPA
026896847202411225155019180301010072087000001BPA
026896847202411225155019190301010072056000005BPA
026896847202411225155019200301010072012000001BPA
026896847202411225155020010301010072075000005BPA
026896847202411225155020020301010072076000006BPA
026896847202411225155020030301010072013000002BPA
026896847202411225155020040301010072073000009BPA
026896847202411225155020050301010072041000003BPA
026896847202411225155020060301010072083000001BPA
026896847202411225155020070301010072074000003BPA
026896847202411225155020080301010072021000001BPA
026896847202411225155020090301010072031000001BPA
026896847202411225155020100301010072061000004BPA
026896847202411225155020110301010072018000002BPA
026896847202411225155020120301010072028000002BPA
026896847202411225155020130301010072062000013BPA
026896847202411225155020140301010072055000004BPA
026896847202411225155020150301010072039000005BPA
026896847202411225155020160301010072090000001BPA
026896847202411225155020170301010072081000002BPA
026896847202411225155020180301010072020000004BPA
026896847202411225155020190301010072078000003BPA
026896847202411225155020200301010072049000007BPA
026896847202411225155021010301010072037000003BPA
026896847202411225155021020301010072080000002BPA
026896847202411225155021030301010072043000001BPA
026896847202411225155021040301010072047000004BPA
026896847202411225155021050301010072069000007BPA
026896847202411225155021060301010072068000003BPA
026896847202411225155021070301010072027000002BPA
026896847202411225155021080301010072033000003BPA
026896847202411225155021090301010072050000004BPA
026896847202411225155021100301010072026000002BPA
026896847202411225155021110301010072051000006BPA
026896847202411225155021120301010072046000005BPA
026896847202411225155021130301010072036000006BPA
026896847202411225155021140301010072029000004BPA
026896847202411225155021150301010072030000001BPA
026896847202411225155021160301010072057000004BPA
026896847202411225155021170301010072045000005BPA
026896847202411225155021180301010072070000005BPA
026896847202411225155021190301010072072000003BPA
026896847202411225155021200301010072034000002BPA
026896847202411225155022010301010072065000004BPA
026896847202411225155022020301010072058000005BPA
026896847202411225155022030301010072038000005BPA
026896847202411225155022040301010072025000001BPA
026896847202411225155022050301010072077000002BPA
026896847202411225155022060301010072023000001BPA
026896847202411225155022070301010072082000002BPA
026896847202411225155022080301010072052000008BPA
026896847202411225155022090301010072054000007BPA
026896847202411225155022100301010072064000009BPA
026896847202411225155022110301010072015000001BPA
026896847202411225155022120301010072040000002BPA
026896847202411225155022130301010072053000006BPA
026896847202411225155022140301010072022000001BPA
026896847202411225265022150301010072052000006BPA
026896847202411225265022160301010072075000009BPA
026896847202411225265022170301010072068000013BPA
026896847202411225265022180301010072010000003BPA
026896847202411225265022190301010072006000005BPA
026896847202411225265022200301010072054000010BPA
026896847202411225265023010301010072069000010BPA
026896847202411225265023020301010072058000007BPA
026896847202411225265023030301010072063000005BPA
026896847202411225265023040301010072011000001BPA
026896847202411225265023050301010072046000003BPA
026896847202411225265023060301010072021000003BPA
026896847202411225265023070301010072081000002BPA
026896847202411225265023080301010072002000001BPA
026896847202411225265023090301010072079000001BPA
026896847202411225265023100301010072073000007BPA
026896847202411225265023110301010072038000004BPA
026896847202411225265023120301010072040000002BPA
026896847202411225265023130301010072086000001BPA
026896847202411225265023140301010072077000005BPA
026896847202411225265023150301010072025000003BPA
026896847202411225265023160301010072037000001BPA
026896847202411225265023170301010072003000001BPA
026896847202411225265023180301010072031000001BPA
026896847202411225265023190301010072028000005BPA
026896847202411225265023200301010072013000003BPA
026896847202411225265024010301010072014000002BPA
026896847202411225265024020301010072057000006BPA
026896847202411225265024030301010072072000005BPA
026896847202411225265024040301010072039000004BPA
026896847202411225265024050301010072044000002BPA
026896847202411225265024060301010072027000003BPA
026896847202411225265024070301010072071000003BPA
026896847202411225265024080301010072016000003BPA
026896847202411225265024090301010072035000001BPA
026896847202411225265024100301010072062000007BPA
026896847202411225265024110301010072082000003BPA
026896847202411225265024120301010072043000004BPA
026896847202411225265024130301010072024000001BPA
026896847202411225265024140301010072048000003BPA
026896847202411225265024150301010072060000004BPA
026896847202411225265024160301010072067000007BPA
026896847202411225265024170301010072083000001BPA
026896847202411225265024180301010072023000001BPA
026896847202411225265024190301010072049000007BPA
026896847202411225265024200301010072055000008BPA
026896847202411225265025010301010072047000007BPA
026896847202411225265025020301010072085000001BPA
026896847202411225265025030301010072007000004BPA
026896847202411225265025040301010072064000007BPA
026896847202411225265025050301010072042000001BPA
026896847202411225265025060301010072034000001BPA
026896847202411225265025070301010072050000008BPA
026896847202411225265025080301010072066000012BPA
026896847202411225265025090301010072056000005BPA
026896847202411225265025100301010072045000001BPA
026896847202411225265025110301010072080000005BPA
026896847202411225265025120301010072070000012BPA
026896847202411225265025130301010072009000007BPA
026896847202411225265025140301010072093000001BPA
026896847202411225265025150301010072041000004BPA
026896847202411225265025160301010072022000002BPA
026896847202411225265025170301010072053000004BPA
026896847202411225265025180301010072032000002BPA
026896847202411225265025190301010072017000001BPA
026896847202411225265025200301010072051000007BPA
026896847202411225265026010301010072078000001BPA
026896847202411225265026020301010072090000001BPA
026896847202411225265026030301010072076000007BPA
026896847202411225265026040301010072065000010BPA
026896847202411225265026050301010072030000002BPA
026896847202411225265026060301010072004000002BPA
026896847202411225265026070301010072005000003BPA
026896847202411225265026080301010072019000002BPA
026896847202411225265026090301010072012000003BPA
026896847202411225265026100301010072036000003BPA
026896847202411225265026110301010072061000006BPA
026896847202411225265026120301010072020000006BPA
026896847202411225265026130301010072008000003BPA
026896847202411225265026140301010072059000010BPA
026896847202411225265026150301010072029000001BPA
026896847202411225265026160301010072074000008BPA
026896847202411225270026170301010072003000002BPA
026896847202411225270026180301010072078000002BPA
026896847202411225270026190301010072037000002BPA
026896847202411225270026200301010072059000014BPA
026896847202411225270027010301010072076000003BPA
026896847202411225270027020301010072032000002BPA
026896847202411225270027030301010072007000001BPA
026896847202411225270027040301010072035000005BPA
026896847202411225270027050301010072070000012BPA
026896847202411225270027060301010072080000001BPA
026896847202411225270027070301010072074000009BPA
026896847202411225270027080301010072051000013BPA
026896847202411225270027090301010072053000013BPA
026896847202411225270027100301010072022000004BPA
026896847202411225270027110301010072069000012BPA
026896847202411225270027120301010072050000009BPA
026896847202411225270027130301010072013000002BPA
026896847202411225270027140301010072024000001BPA
026896847202411225270027150301010072065000009BPA
026896847202411225270027160301010072027000002BPA
026896847202411225270027170301010072075000007BPA
026896847202411225270027180301010072038000006BPA
026896847202411225270027190301010072060000011BPA
026896847202411225270027200301010072045000008BPA
026896847202411225270028010301010072033000004BPA
026896847202411225270028020301010072034000003BPA
026896847202411225270028030301010072012000001BPA
026896847202411225270028040301010072029000001BPA
026896847202411225270028050301010072073000006BPA
026896847202411225270028060301010072020000001BPA
026896847202411225270028070301010072011000001BPA
026896847202411225270028080301010072017000001BPA
026896847202411225270028090301010072056000020BPA
026896847202411225270028100301010072057000015BPA
026896847202411225270028110301010072081000001BPA
026896847202411225270028120301010072036000005BPA
026896847202411225270028130301010072086000002BPA
026896847202411225270028140301010072001000002BPA
026896847202411225270028150301010072044000014BPA
026896847202411225270028160301010072066000015BPA
026896847202411225270028170301010072068000006BPA
026896847202411225270028180301010072039000008BPA
026896847202411225270028190301010072063000006BPA
026896847202411225270028200301010072026000006BPA
026896847202411225270029010301010072043000008BPA
026896847202411225270029020301010072048000007BPA
026896847202411225270029030301010072030000005BPA
026896847202411225270029040301010072040000009BPA
026896847202411225270029050301010072067000010BPA
026896847202411225270029060301010072064000017BPA
026896847202411225270029070301010072047000015BPA
026896847202411225270029080301010072019000001BPA
026896847202411225270029090301010072000000001BPA
026896847202411225270029100301010072031000001BPA
026896847202411225270029110301010072072000002BPA
026896847202411225270029120301010072023000001BPA
026896847202411225270029130301010072055000009BPA
026896847202411225270029140301010072002000002BPA
026896847202411225270029150301010072042000006BPA
026896847202411225270029160301010072008000001BPA
026896847202411225270029170301010072054000015BPA
026896847202411225270029180301010072061000010BPA
026896847202411225270029190301010072085000003BPA
026896847202411225270029200301010072004000004BPA
026896847202411225270030010301010072041000005BPA
026896847202411225270030020301010072005000002BPA
026896847202411225270030030301010072049000015BPA
026896847202411225270030040301010072010000003BPA
026896847202411225270030050301010072058000014BPA
026896847202411225270030060301010072052000011BPA
026896847202411225270030070301010072046000015BPA
026896847202411225270030080301010072015000002BPA
026896847202411225270030090301010072077000003BPA
026896847202411225270030100301010072016000001BPA
026896847202411225270030110301010072071000010BPA
026896847202411225270030120301010072062000021BPA
026896847202411225275030130301010072006000003BPA
026896847202411225275030140301010072085000001BPA
026896847202411225275030150301010072013000003BPA
026896847202411225275030160301010072049000002BPA
026896847202411225275030170301010072003000004BPA
026896847202411225275030180301010072010000009BPA
026896847202411225275030190301010072064000002BPA
026896847202411225275030200301010072001000001BPA
026896847202411225275031010301010072024000001BPA
026896847202411225275031020301010072019000001BPA
026896847202411225275031030301010072005000002BPA
026896847202411225275031040301010072080000002BPA
026896847202411225275031050301010072050000002BPA
026896847202411225275031060301010072037000001BPA
026896847202411225275031070301010072008000009BPA
026896847202411225275031080301010072047000002BPA
026896847202411225275031090301010072073000002BPA
026896847202411225275031100301010072056000006BPA
026896847202411225275031110301010072000000001BPA
026896847202411225275031120301010072041000002BPA
026896847202411225275031130301010072058000003BPA
026896847202411225275031140301010072045000002BPA
026896847202411225275031150301010072077000005BPA
026896847202411225275031160301010072051000001BPA
026896847202411225275031170301010072065000002BPA
026896847202411225275031180301010072021000002BPA
026896847202411225275031190301010072059000002BPA
026896847202411225275031200301010072036000002BPA
026896847202411225275032010301010072075000002BPA
026896847202411225275032020301010072018000003BPA
026896847202411225275032030301010072032000001BPA
026896847202411225275032040301010072039000001BPA
026896847202411225275032050301010072067000003BPA
026896847202411225275032060301010072068000001BPA
026896847202411225275032070301010072002000002BPA
026896847202411225275032080301010072012000005BPA
026896847202411225275032090301010072066000006BPA
026896847202411225275032100301010072069000008BPA
026896847202411225275032110301010072023000003BPA
026896847202411225275032120301010072026000001BPA
026896847202411225275032130301010072042000001BPA
026896847202411225275032140301010072057000002BPA
026896847202411225275032150301010072029000003BPA
026896847202411225275032160301010072062000005BPA
026896847202411225275032170301010072011000002BPA
026896847202411225275032180301010072027000002BPA
026896847202411225275032190301010072074000002BPA
026896847202411225275032200301010072071000003BPA
026896847202411225275033010301010072054000001BPA
026896847202411225275033020301010072022000002BPA
026896847202411225275033030301010072061000003BPA
026896847202411225275033040301010072030000001BPA
026896847202411225275033050301010072072000005BPA
026896847202411225275033060301010072035000003BPA
026896847202411225275033070301010072016000007BPA
026896847202411225275033080301010072053000007BPA
026896847202411225275033090301010072040000004BPA
026896847202411225275033100301010072015000004BPA
026896847202411225275033110301010072076000003BPA
026896847202411225275033120301010072052000005BPA
026896847202411225275033130301010072063000004BPA
026896847202411225275033140301010072014000002BPA
026896847202411225275033150301010072020000006BPA
026896847202411225275033160301010072044000002BPA
026896847202411225275033170301010072060000007BPA
026896847202411225275033180301010072038000001BPA
026896847202411225275033190301010072048000003BPA
026896847202411225275033200301010072082000004BPA
026896847202411225275034010301010072034000002BPA
026896847202411225275034020301010072043000005BPA
026896847202411225275034030301010072070000006BPA
026896847202411225275034040301010072004000001BPA
026896847202411225275034050301010072009000003BPA
026896847202411225275034060301010072086000002BPA
026896847202411225275034070301010072025000001BPA
026896847202411225275034080301010072055000003BPA
026896847202411225275034090301010072078000001BPA
026896847202411225275034100301010072007000002BPA
026896847202411225275034110301010072017000002BPA
026896847202411225285034120301010072048000001BPA
026896847202411225285034130301010072050000001BPA
026896847202411225285034140301010072073000009BPA
026896847202411225285034150301010072035000001BPA
026896847202411225285034160301010072017000002BPA
026896847202411225285034170301010072031000002BPA
026896847202411225285034180301010072053000005BPA
026896847202411225285034190301010072068000009BPA
026896847202411225285034200301010072091000001BPA
026896847202411225285035010301010072062000002BPA
026896847202411225285035020301010072080000002BPA
026896847202411225285035030301010072063000005BPA
026896847202411225285035040301010072041000002BPA
026896847202411225285035050301010072025000001BPA
026896847202411225285035060301010072045000004BPA
026896847202411225285035070301010072011000003BPA
026896847202411225285035080301010072044000002BPA
026896847202411225285035090301010072061000005BPA
026896847202411225285035100301010072088000001BPA
026896847202411225285035110301010072065000008BPA
026896847202411225285035120301010072033000001BPA
026896847202411225285035130301010072019000001BPA
026896847202411225285035140301010072076000006BPA
026896847202411225285035150301010072023000001BPA
026896847202411225285035160301010072046000001BPA
026896847202411225285035170301010072056000001BPA
026896847202411225285035180301010072067000005BPA
026896847202411225285035190301010072026000002BPA
026896847202411225285035200301010072081000001BPA
026896847202411225285036010301010072055000005BPA
026896847202411225285036020301010072071000002BPA
026896847202411225285036030301010072064000007BPA
026896847202411225285036040301010072010000001BPA
026896847202411225285036050301010072059000006BPA
026896847202411225285036060301010072027000001BPA
026896847202411225285036070301010072070000007BPA
026896847202411225285036080301010072078000004BPA
026896847202411225285036090301010072037000001BPA
026896847202411225285036100301010072030000001BPA
026896847202411225285036110301010072057000002BPA
026896847202411225285036120301010072052000005BPA
026896847202411225285036130301010072077000005BPA
026896847202411225285036140301010072060000007BPA
026896847202411225285036150301010072051000006BPA
026896847202411225285036160301010072066000009BPA
026896847202411225285036170301010072022000001BPA
026896847202411225285036180301010072047000001BPA
026896847202411225285036190301010072038000003BPA
026896847202411225285036200301010072086000002BPA
026896847202411225285037010301010072028000001BPA
026896847202411225285037020301010072072000006BPA
026896847202411225285037030301010072054000002BPA
026896847202411225285037040301010072040000004BPA
026896847202411225285037050301010072036000001BPA
026896847202411225285037060301010072043000001BPA
026896847202411225285037070301010072021000001BPA
026896847202411225285037080301010072058000005BPA
026896847202411225285037090301010072083000001BPA
026896847202411225285037100301010072082000003BPA
026896847202411225285037110301010072075000005BPA
026896847202411225285037120301010072069000007BPA
026896847202411225285037130301010072074000005BPA
026896847202411225285037140301010072079000003BPA
026896847202411225285037150301010072089000001BPA
026896847202411223505037160301100039000000001BPA
026896847202411322205037170301100039000000007BPA
026896847202411322230037180301100039000000007BPA
026896847202411322205037190301100152000000013BPA
027047088202411322250001010301100101000000002BPA
027047088202411322230001020301100152000000006BPA
027047088202411322250001030301100152000000008BPA
029001808202411223505001010301010137075000003BPA
029001808202411223505001020301010137070000004BPA
029001808202411223505001030301010137028000002BPA
029001808202411223505001040301010137098000002BPA
029001808202411223505001050301010137025000001BPA
029001808202411223505001060301010137062000002BPA
029001808202411223505001070301010137049000001BPA
029001808202411223505001080301010137074000004BPA
029001808202411223505001090301010137077000005BPA
029001808202411223505001100301010137031000007BPA
029001808202411223505001110301010137008000003BPA
029001808202411223505001120301010137072000003BPA
029001808202411223505001130301010137051000002BPA
029001808202411223505001140301010137094000001BPA
029001808202411223505001150301010137083000003BPA
029001808202411223505001160301010137087000004BPA
029001808202411223505001170301010137091000002BPA
029001808202411223505001180301010137084000004BPA
029001808202411223505001190301010137001000005BPA
029001808202411223505001200301010137092000006BPA
029001808202411223505002010301010137096000001BPA
029001808202411223505002020301010137009000004BPA
029001808202411223505002030301010137058000001BPA
029001808202411223505002040301010137081000008BPA
029001808202411223505002050301010137052000001BPA
029001808202411223505002060301010137036000002BPA
029001808202411223505002070301010137069000002BPA
029001808202411223505002080301010137029000002BPA
029001808202411223505002090301010137082000005BPA
029001808202411223505002100301010137086000002BPA
029001808202411223505002110301010137073000002BPA
029001808202411223505002120301010137078000001BPA
029001808202411223505002130301010137050000003BPA
029001808202411223505002140301010137090000001BPA
029001808202411223505002150301010137063000004BPA
029001808202411223505002160301010137080000002BPA
029001808202411223505002170301010137065000002BPA
029001808202411223505002180301010137027000001BPA
029001808202411223605002190301010137078000001BPA
029001808202411223605002200301010137072000001BPA
029001808202411223605003010301010137063000001BPA
029001808202411223605003020301010137058000001BPA
029001808202411223605003030301010137049000001BPA
029001808202411223605003040301010137001000002BPA
029001808202411223605003050301010137092000002BPA
029001808202411223605003060301010137098000002BPA
029001808202411223605003070301010137087000002BPA
029001808202411223605003080301010137052000001BPA
029001808202411223605003090301010137081000002BPA
029001808202411223605003100301010137080000004BPA
029001808202411223605003110301010137075000003BPA
029001808202411223605003120301010137070000001BPA
029001808202411223605003130301010137086000001BPA
029001808202411223605003140301010137056000001BPA
029001808202411223605003150301010137077000004BPA
029001808202411223710003160301010137087000001BPA
029001808202411223710003170301010137070000001BPA
029001808202411223710003180301010137008000001BPA
029001808202411223710003190301010137063000001BPA
029001808202411225125003200301010137052000001BPA
029001808202411225125004010301010137078000001BPA
029001808202411225125004020301010137077000001BPA
029001808202411225125004030301010137036000001BPA
029001808202411225125004040301010137028000001BPA
029001808202411225125004050301010137063000001BPA
029001808202411225125004060301010137070000001BPA
029001808202411225125004070301010137081000002BPA
029001808202411225125004080301010137031000002BPA
029001808202411225125004090301010137092000001BPA
029001808202411225125004100301010137072000001BPA
029001808202411225125004110301010137050000001BPA
029001808202411225125004120301010137009000001BPA
029001808202411225125004130301010137058000001BPA
029001808202411225125004140301010137001000001BPA
029001808202411223505004150301060118000000001BPA
029001808202411322230004160301100152000000008BPA
029001808202411223505004170301100179000000003BPA
03049138120241170050453405345222360520241107001020302060030704603611129420F350390G838020     101             BPIGIOVANNA OLIVEIRA DE CARVALHO 2004100701    010                                07400885081Armando Tenorio de Araujo                  53Aruja Centro Residencial
03049138120241170050453405345222360520241119001030302060030704603611129420F350390G838020     101             BPIGIOVANNA OLIVEIRA DE CARVALHO 2004100701    010                                07400885081Armando Tenorio de Araujo                  53Aruja Centro Residencial
03049138120241170050453405345222360520241128001040302060030704603611129420F350390G838020     101             BPIGIOVANNA OLIVEIRA DE CARVALHO 2004100701    010                                07400885081Armando Tenorio de Araujo                  53Aruja Centro Residencial
03049138120241170050453405345222360520241105001050302060030704801024804348F350390G838010     101             BPIISABEL SOUSA FONSECA          2014080801    010                                07417565081Jose Barbosa de Souza                      15Parque Rodrigo Barreto
03049138120241170050453405345222360520241112001060302060030704801024804348F350390G838010     101             BPIISABEL SOUSA FONSECA          2014080801    010                                07417565081Jose Barbosa de Souza                      15Parque Rodrigo Barreto
03049138120241170050453405345222360520241119001070302060030704801024804348F350390G838010     101             BPIISABEL SOUSA FONSECA          2014080801    010                                07417565081Jose Barbosa de Souza                      15Parque Rodrigo Barreto
03049138120241170050453405345222360520241107001080302060030705002456823155M350390G838017     101             BPIGABRIEL PEDRO LOPES DA SILVA  2007062301    010                                07401720081IRACI PINTO FERREIRA BRAZ     A            19VILA PILAR                    11 46513585
03049138120241170050453405345222360520241114001090302060030705002456823155M350390G838017     101             BPIGABRIEL PEDRO LOPES DA SILVA  2007062301    010                                07401720081IRACI PINTO FERREIRA BRAZ     A            19VILA PILAR                    11 46513585
03049138120241170050453405345222360520241121001100302060030705002456823155M350390G838017     101             BPIGABRIEL PEDRO LOPES DA SILVA  2007062301    010                                07401720081IRACI PINTO FERREIRA BRAZ     A            19VILA PILAR                    11 46513585
03049138120241170050453405345222360520241114001110302060030708000839197225M350390G838014     101             BPILUAN COSTA MARQUES            2010080503    010                                07405425081ROUXINOL                                   86JARDIM PINHEIRO               11 46533690
03049138120241170050453405345222360520241121001120302060030708000839197225M350390G838014     101             BPILUAN COSTA MARQUES            2010080503    010                                07405425081ROUXINOL                                   86JARDIM PINHEIRO               11 46533690
03049138120241170050453405345222360520241107007080302060030700004487906207M350390G838009     101             BPILUCAS PIETRO DO CARMO SANTOS  2015060701    010                                07417500081ANTO BERNARDO DA SILVA                     96PARQUE RODRIGO BARRETO        11 46497722
03049138120241170050453405345222360520241114007090302060030700004487906207M350390G838009     101             BPILUCAS PIETRO DO CARMO SANTOS  2015060701    010                                07417500081ANTO BERNARDO DA SILVA                     96PARQUE RODRIGO BARRETO        11 46497722
03049138120241170050453405345222360520241121007100302060030700004487906207M350390G838009     101             BPILUCAS PIETRO DO CARMO SANTOS  2015060701    010                                07417500081ANTO BERNARDO DA SILVA                     96PARQUE RODRIGO BARRETO        11 46497722
03049138120241170050453405345222360520241128007110302060030700004487906207M350390G838009     101             BPILUCAS PIETRO DO CARMO SANTOS  2015060701    010                                07417500081ANTO BERNARDO DA SILVA                     96PARQUE RODRIGO BARRETO        11 46497722
03049138120241170050453405345222360520241105007120302060030700206991639330F350390G838010     101             BPIISABELLA VITORIA ALVES SOARES 2014111201    010                                07403105081JOO LEITE DE CAMARGO                      184ARUJAMRICA
03049138120241170050453405345222360520241112007130302060030700206991639330F350390G838010     101             BPIISABELLA VITORIA ALVES SOARES 2014111201    010                                07403105081JOO LEITE DE CAMARGO                      184ARUJAMRICA
03049138120241170050453405345222360520241119007140302060030700206991639330F350390G838010     101             BPIISABELLA VITORIA ALVES SOARES 2014111201    010                                07403105081JOO LEITE DE CAMARGO                      184ARUJAMRICA
03049138120241170050453405345222360520241126007150302060030700206991639330F350390G838010     101             BPIISABELLA VITORIA ALVES SOARES 2014111201    010                                07403105081JOO LEITE DE CAMARGO                      184ARUJAMRICA
03049138120241170050453405345222360520241107007160302060030700402404310640M350390G838009     101             BPIGABRIEL FERNANDES GONTAN      2015050803    010                                07403000008HANS OSSAMU SUZUKI                        220ARUJAMRICA                    11 46550954
03049138120241170050453405345222360520241114007170302060030700402404310640M350390G838009     101             BPIGABRIEL FERNANDES GONTAN      2015050803    010                                07403000008HANS OSSAMU SUZUKI                        220ARUJAMRICA                    11 46550954
03049138120241170050453405345222360520241121007180302060030700402404310640M350390G838009     101             BPIGABRIEL FERNANDES GONTAN      2015050803    010                                07403000008HANS OSSAMU SUZUKI                        220ARUJAMRICA                    11 46550954
03049138120241170050453405345222360520241126007190302060030700507118196959F350390G838018     101             BPIIZABEL DA LUZ BARROS          2006041503    010                                07417465081ANTONIA MANOEL FERNANDES                  639PARQUE RODRIGO BARRETO        11 46531105
03049138120241170050453405345222360520241107007200302060030701401642375631F350390G838003     101             BPIANTONELA PINOTI COSTA CARVALHO2021031501    010                                07411215081SAO LUIS                                  110JORDANPOLIS
03049138120241170050453405345222360520241114008010302060030701401642375631F350390G838003     101             BPIANTONELA PINOTI COSTA CARVALHO2021031501    010                                07411215081SAO LUIS                                  110JORDANPOLIS
03049138120241170050453405345222360520241121008020302060030701401642375631F350390G838003     101             BPIANTONELA PINOTI COSTA CARVALHO2021031501    010                                07411215081SAO LUIS                                  110JORDANPOLIS
03049138120241170050453405345222360520241128008030302060030701401642375631F350390G838003     101             BPIANTONELA PINOTI COSTA CARVALHO2021031501    010                                07411215081SAO LUIS                                  110JORDANPOLIS
03049138120241170050453405345222360520241105008040302060030701409652952736M350390G838026     101             BPIARTHUR DOS SANTOS VIANNA PINHO1998100801    010                                07417265008RAILDA ALVES DE OLIVEIRA      A           856PARQUE RODRIGO BARRETO        11 46554774
03049138120241170050453405345222360520241112008050302060030701409652952736M350390G838026     101             BPIARTHUR DOS SANTOS VIANNA PINHO1998100801    010                                07417265008RAILDA ALVES DE OLIVEIRA      A           856PARQUE RODRIGO BARRETO        11 46554774
03049138120241170050453405345222360520241119008060302060030701409652952736M350390G838026     101             BPIARTHUR DOS SANTOS VIANNA PINHO1998100801    010                                07417265008RAILDA ALVES DE OLIVEIRA      A           856PARQUE RODRIGO BARRETO        11 46554774
03049138120241170050453405345222360520241126008070302060030701409652952736M350390G838026     101             BPIARTHUR DOS SANTOS VIANNA PINHO1998100801    010                                07417265008RAILDA ALVES DE OLIVEIRA      A           856PARQUE RODRIGO BARRETO        11 46554774
03049138120241170050453405345222360520241107008080302060030703404648057800F350390G838010     101             BPIANA CLARA PIRES DOS SANTOS    2014122201    010                                07402205081MINAS GERAIS                               15JARDIM PLANALTO               11 46523629
03049138120241170050453405345222360520241121008090302060030703404648057800F350390G838010     101             BPIANA CLARA PIRES DOS SANTOS    2014122201    010                                07402205081MINAS GERAIS                               15JARDIM PLANALTO               11 46523629
03049138120241170050453405345222360520241121001010302060049700802480068088M350390G804009     101             BPIISAQUE SABINO SOARES          2015043003    010                                07400380081CARACAS                       CASA 2      250CENTRO
03049138120241170050453405345222360520241112001130302060049702909551787571M353060G804008     101             BPIMURILO DE SOUZA RAMPAZI       2016122601    010                                08740540081PREFEITO JOSE DE MELO FRANCO              195JARDIM UNIVERSO
03049138120241170050453405345222360520241119001140302060049702909551787571M353060G804008     101             BPIMURILO DE SOUZA RAMPAZI       2016122601    010                                08740540081PREFEITO JOSE DE MELO FRANCO              195JARDIM UNIVERSO
03049138120241170050453405345222360520241126001150302060049702909551787571M353060G804008     101             BPIMURILO DE SOUZA RAMPAZI       2016122601    010                                08740540081PREFEITO JOSE DE MELO FRANCO              195JARDIM UNIVERSO
03049138120241170050453405345222360520241105001160302060049702909551787571M353060G804008     101             BPIMURILO DE SOUZA RAMPAZI       2016122601    010                                08740540081PREFEITO JOSE DE MELO FRANCO              195JARDIM UNIVERSO
03049138120241170050453405345222360520241105001170302060049700005631673708F350390G804007     101             BPIYASMIN CREUSA DE MOURA SILVA  2017040901    010                                07400370081La Paz                        Casa 1      114Jardim Rinco                  11 46512002
03049138120241170050453405345222360520241112001180302060049700005631673708F350390G804007     101             BPIYASMIN CREUSA DE MOURA SILVA  2017040901    010                                07400370081La Paz                        Casa 1      114Jardim Rinco                  11 46512002
03049138120241170050453405345222360520241126001190302060049700005631673708F350390G804007     101             BPIYASMIN CREUSA DE MOURA SILVA  2017040901    010                                07400370081La Paz                        Casa 1      114Jardim Rinco                  11 46512002
03049138120241170050453405345222360520241105001200302060049700202902613922M350390G804008     101             BPIDAVI MOTA DE JESUS            2016030801    010                                07405470081PELICANO                      CASA 03      68JARDIM PINHEIRO
03049138120241170050453405345222360520241112002010302060049700202902613922M350390G804008     101             BPIDAVI MOTA DE JESUS            2016030801    010                                07405470081PELICANO                      CASA 03      68JARDIM PINHEIRO
03049138120241170050453405345222360520241119002020302060049700202902613922M350390G804008     101             BPIDAVI MOTA DE JESUS            2016030801    010                                07405470081PELICANO                      CASA 03      68JARDIM PINHEIRO
03049138120241170050453405345222360520241126002030302060049700202902613922M350390G804008     101             BPIDAVI MOTA DE JESUS            2016030801    010                                07405470081PELICANO                      CASA 03      68JARDIM PINHEIRO
03049138120241170050453405345222360520241128002040302060049700402404310640M350390G804009     101             BPIGABRIEL FERNANDES GONTAN      2015050803    010                                07403000008HANS OSSAMU SUZUKI                        220ARUJAMRICA                    11 46550954
03049138120241170050453405345222360520241107002050302060049700403970687048M350390G804017     101             BPIIAGO RAFIK VIANA DOS SANTOS   2007101204    010                                07404090081SERRA DO JAIRE                            395PEDREIRA                      11993464084
03049138120241170050453405345222360520241114002060302060049700403970687048M350390G804017     101             BPIIAGO RAFIK VIANA DOS SANTOS   2007101204    010                                07404090081SERRA DO JAIRE                            395PEDREIRA                      11993464084
03049138120241170050453405345222360520241121002070302060049700403970687048M350390G804017     101             BPIIAGO RAFIK VIANA DOS SANTOS   2007101204    010                                07404090081SERRA DO JAIRE                            395PEDREIRA                      11993464084
03049138120241170050453405345222360520241107002080302060049700503147078256M350390G804007     101             BPIOSCAR BARUC TAVARES DE JESUS  2017081803    010                                07401110081NANCI ARAKI                                85ARUJA CENTER VILLE            11980798292
03049138120241170050453405345222360520241114002090302060049700503147078256M350390G804007     101             BPIOSCAR BARUC TAVARES DE JESUS  2017081803    010                                07401110081NANCI ARAKI                                85ARUJA CENTER VILLE            11980798292
03049138120241170050453405345222360520241121002100302060049700503147078256M350390G804007     101             BPIOSCAR BARUC TAVARES DE JESUS  2017081803    010                                07401110081NANCI ARAKI                                85ARUJA CENTER VILLE            11980798292
03049138120241170050453405345222360520241128002110302060049700503147078256M350390G804007     101             BPIOSCAR BARUC TAVARES DE JESUS  2017081803    010                                07401110081NANCI ARAKI                                85ARUJA CENTER VILLE            11980798292
03049138120241170050453405345222360520241105002120302060049700607493571960M350390G804008     101             BPIHENRIQUE MOREIRA DA MOTTA     2016081303    010                                07400970081Avenida dos Expedicionarios               S/NCentro
03049138120241170050453405345222360520241119002130302060049700607493571960M350390G804008     101             BPIHENRIQUE MOREIRA DA MOTTA     2016081303    010                                07400970081Avenida dos Expedicionarios               S/NCentro
03049138120241170050453405345222360520241105002140302060049700609919724261M350390G804011     101             BPIBRYAN SANTOS DA HORA          2013062803    010                                07417100081Alice Sanches Ribeiro         Casa 03      62Parque Rodrigo Barreto
03049138120241170050453405345222360520241112002150302060049700609919724261M350390G804011     101             BPIBRYAN SANTOS DA HORA          2013062803    010                                07417100081Alice Sanches Ribeiro         Casa 03      62Parque Rodrigo Barreto
03049138120241170050453405345222360520241119002160302060049700609919724261M350390G804011     101             BPIBRYAN SANTOS DA HORA          2013062803    010                                07417100081Alice Sanches Ribeiro         Casa 03      62Parque Rodrigo Barreto
03049138120241170050453405345222360520241126002170302060049700609919724261M350390G804011     101             BPIBRYAN SANTOS DA HORA          2013062803    010                                07417100081Alice Sanches Ribeiro         Casa 03      62Parque Rodrigo Barreto
03049138120241170050453405345222360520241105002180302060049700801940003986M350390G804008     101             BPIDANIEL RIBEIRO AQUINO DA SILVE2016020203    010                                07400470081Siqueira Campos                            30Jardim Rinco
03049138120241170050453405345222360520241112002190302060049700801940003986M350390G804008     101             BPIDANIEL RIBEIRO AQUINO DA SILVE2016020203    010                                07400470081Siqueira Campos                            30Jardim Rinco
03049138120241170050453405345222360520241119002200302060049700801940003986M350390G804008     101             BPIDANIEL RIBEIRO AQUINO DA SILVE2016020203    010                                07400470081Siqueira Campos                            30Jardim Rinco
03049138120241170050453405345222360520241126003010302060049700801940003986M350390G804008     101             BPIDANIEL RIBEIRO AQUINO DA SILVE2016020203    010                                07400470081Siqueira Campos                            30Jardim Rinco
03049138120241170050453405345222360520241107003020302060049700802480068088M350390G804009     101             BPIISAQUE SABINO SOARES          2015043003    010                                07400380081CARACAS                       CASA 2      250CENTRO
03049138120241170050453405345222360520241114003030302060049700802480068088M350390G804009     101             BPIISAQUE SABINO SOARES          2015043003    010                                07400380081CARACAS                       CASA 2      250CENTRO
03049138120241170050453405345222360520241128003040302060049700802480068088M350390G804009     101             BPIISAQUE SABINO SOARES          2015043003    010                                07400380081CARACAS                       CASA 2      250CENTRO
03049138120241170050453405345222360520241107003050302060049701203002931919F350390G804015     101             BPINATALIA SILVA SANTOS DO NASCIM2009021803    010                                07412010008P.l. do Brasil                              5Porto
03049138120241170050453405345222360520241114003060302060049701203002931919F350390G804015     101             BPINATALIA SILVA SANTOS DO NASCIM2009021803    010                                07412010008P.l. do Brasil                              5Porto
03049138120241170050453405345222360520241121003070302060049701203002931919F350390G804015     101             BPINATALIA SILVA SANTOS DO NASCIM2009021803    010                                07412010008P.l. do Brasil                              5Porto
03049138120241170050453405345222360520241128003080302060049701203002931919F350390G804015     101             BPINATALIA SILVA SANTOS DO NASCIM2009021803    010                                07412010008P.l. do Brasil                              5Porto
03049138120241170050453405345222360520241107003090302060049702401032630725M350390G804010     101             BPIHENRIQUE ALMEIDA SILVA        2014031401    010                                07400970081LUIZ GONZAGA COLANGELO NOBREGA            525PARQUE RODRIGO BARRETO        11 37545224
03049138120241170050453405345222360520241114003100302060049702401032630725M350390G804010     101             BPIHENRIQUE ALMEIDA SILVA        2014031401    010                                07400970081LUIZ GONZAGA COLANGELO NOBREGA            525PARQUE RODRIGO BARRETO        11 37545224
03049138120241170050453405345222360520241121003110302060049702401032630725M350390G804010     101             BPIHENRIQUE ALMEIDA SILVA        2014031401    010                                07400970081LUIZ GONZAGA COLANGELO NOBREGA            525PARQUE RODRIGO BARRETO        11 37545224
03049138120241170050453405345222360520241128003120302060049702401032630725M350390G804010     101             BPIHENRIQUE ALMEIDA SILVA        2014031401    010                                07400970081LUIZ GONZAGA COLANGELO NOBREGA            525PARQUE RODRIGO BARRETO        11 37545224
03049138120241170050453405345222360520241114003130302060049703404648057800F350390G804010     101             BPIANA CLARA PIRES DOS SANTOS    2014122201    010                                07402205081MINAS GERAIS                               15JARDIM PLANALTO               11 46523629
03049138120241170050453405345222360520241107003140302060049703408226916815M350390G804011     101             BPIMIGUEL PONCIANO SOARES        2013112201    010                                07407040008Airton dos Santos Heras GalvezCasa 24     120Jardim Santo Antonio
03049138120241170050453405345222360520241114003150302060049703408226916815M350390G804011     101             BPIMIGUEL PONCIANO SOARES        2013112201    010                                07407040008Airton dos Santos Heras GalvezCasa 24     120Jardim Santo Antonio
03049138120241170050453405345222360520241121003160302060049703408226916815M350390G804011     101             BPIMIGUEL PONCIANO SOARES        2013112201    010                                07407040008Airton dos Santos Heras GalvezCasa 24     120Jardim Santo Antonio
03049138120241170050453405345222360520241128003170302060049703408226916815M350390G804011     101             BPIMIGUEL PONCIANO SOARES        2013112201    010                                07407040008Airton dos Santos Heras GalvezCasa 24     120Jardim Santo Antonio
03049138120241170050453405345222360520241105003180302060049704101245579580M350390G804004     101             BPITHEO ROCHA MACEDO             2020072301    010                                07417265008Railda Alves de Oliveira                  841Parque Rodrigo Barreto
03049138120241170050453405345222360520241119003190302060049704101245579580M350390G804004     101             BPITHEO ROCHA MACEDO             2020072301    010                                07417265008Railda Alves de Oliveira                  841Parque Rodrigo Barreto
03049138120241170050453405345222360520241126003200302060049704101245579580M350390G804004     101             BPITHEO ROCHA MACEDO             2020072301    010                                07417265008Railda Alves de Oliveira                  841Parque Rodrigo Barreto
03049138120241170050453405345222360520241107004010302060049704105194737072M350390G804007     101             BPIKAUAN PINOTI SILVA CARVALHO   2017091801    010                                07411215081LUIZ                                      110JORDANPOLIS
03049138120241170050453405345222360520241114004020302060049704105194737072M350390G804007     101             BPIKAUAN PINOTI SILVA CARVALHO   2017091801    010                                07411215081LUIZ                                      110JORDANPOLIS
03049138120241170050453405345222360520241121004030302060049704105194737072M350390G804007     101             BPIKAUAN PINOTI SILVA CARVALHO   2017091801    010                                07411215081LUIZ                                      110JORDANPOLIS
03049138120241170050453405345222360520241128004040302060049704105194737072M350390G804007     101             BPIKAUAN PINOTI SILVA CARVALHO   2017091801    010                                07411215081LUIZ                                      110JORDANPOLIS
03049138120241170050453405345222360520241105004050302060049704202761323381M350390G804014     101             BPIRENATO RODRIGUES SANTOS       2010020401    010                                07400795081Benjamin de Jesus Rodrigues   Viela       739Aruj Centro Residencial       11965745780
03049138120241170050453405345222360520241112004060302060049704202761323381M350390G804014     101             BPIRENATO RODRIGUES SANTOS       2010020401    010                                07400795081Benjamin de Jesus Rodrigues   Viela       739Aruj Centro Residencial       11965745780
03049138120241170050453405345222360520241119004070302060049704202761323381M350390G804014     101             BPIRENATO RODRIGUES SANTOS       2010020401    010                                07400795081Benjamin de Jesus Rodrigues   Viela       739Aruj Centro Residencial       11965745780
03049138120241170050453405345222360520241107004080302060049704708700913538M350390G804008     101             BPIRICARDO MIGUEL JUNIOR APARECID2016011001    010                                07405440081Tuim                          A           180Jardim Pinheiro
03049138120241170050453405345222360520241114004090302060049704708700913538M350390G804008     101             BPIRICARDO MIGUEL JUNIOR APARECID2016011001    010                                07405440081Tuim                          A           180Jardim Pinheiro
03049138120241170050453405345222360520241121004100302060049704708700913538M350390G804008     101             BPIRICARDO MIGUEL JUNIOR APARECID2016011001    010                                07405440081Tuim                          A           180Jardim Pinheiro
03049138120241170050453405345222360520241128004110302060049704708700913538M350390G804008     101             BPIRICARDO MIGUEL JUNIOR APARECID2016011001    010                                07405440081Tuim                          A           180Jardim Pinheiro
03049138120241170050453405345222360520241126004120302060049704801024804348F350390G804010     101             BPIISABEL SOUSA FONSECA          2014080801    010                                07417565081Jose Barbosa de Souza                      15Parque Rodrigo Barreto
03049138120241170050453405345222360520241107004130302060049705001225714554M350390G804020     101             BPILUCAS CORTICEIRO SANTOS       2004072004    010                                07417590081Pedro Jos de Morais                        32Parque Rodrigo Barreto
03049138120241170050453405345222360520241114004140302060049705001225714554M350390G804020     101             BPILUCAS CORTICEIRO SANTOS       2004072004    010                                07417590081Pedro Jos de Morais                        32Parque Rodrigo Barreto
03049138120241170050453405345222360520241121004150302060049705001225714554M350390G804020     101             BPILUCAS CORTICEIRO SANTOS       2004072004    010                                07417590081Pedro Jos de Morais                        32Parque Rodrigo Barreto
03049138120241170050453405345222360520241128004160302060049705001225714554M350390G804020     101             BPILUCAS CORTICEIRO SANTOS       2004072004    010                                07417590081Pedro Jos de Morais                        32Parque Rodrigo Barreto
03049138120241170050453405345222360520241107004170302060049705003094227452M350390G804004     101             BPIHUGO HENRIQUE DE PETTA ANTUNES2020022901    010                                07405445081ANDORINHA                     A            63JARDIM PINHEIRO
03049138120241170050453405345222360520241114004180302060049705003094227452M350390G804004     101             BPIHUGO HENRIQUE DE PETTA ANTUNES2020022901    010                                07405445081ANDORINHA                     A            63JARDIM PINHEIRO
03049138120241170050453405345222360520241121004190302060049705003094227452M350390G804004     101             BPIHUGO HENRIQUE DE PETTA ANTUNES2020022901    010                                07405445081ANDORINHA                     A            63JARDIM PINHEIRO
03049138120241170050453405345222360520241128004200302060049705003094227452M350390G804004     101             BPIHUGO HENRIQUE DE PETTA ANTUNES2020022901    010                                07405445081ANDORINHA                     A            63JARDIM PINHEIRO
03049138120241170050453405345222360520241107005010302060049705008816205755M350390G804007     101             BPIBERNARDO PINOTI SILVA CARVALHO2017091801    010                                07411215081LUIZ                                      110JORDANPOLIS
03049138120241170050453405345222360520241114005020302060049705008816205755M350390G804007     101             BPIBERNARDO PINOTI SILVA CARVALHO2017091801    010                                07411215081LUIZ                                      110JORDANPOLIS
03049138120241170050453405345222360520241121005030302060049705008816205755M350390G804007     101             BPIBERNARDO PINOTI SILVA CARVALHO2017091801    010                                07411215081LUIZ                                      110JORDANPOLIS
03049138120241170050453405345222360520241128005040302060049705008816205755M350390G804007     101             BPIBERNARDO PINOTI SILVA CARVALHO2017091801    010                                07411215081LUIZ                                      110JORDANPOLIS
03049138120241170050453405345222360520241105005050302060049705207421017775M350390G804008     101             BPIARTHUR MOREIRA DA MOTTA       2016081303    010                                07439050081MOLIBIDENIO                               170CHACARAS COPACO               11 46543261
03049138120241170050453405345222360520241119005060302060049705207421017775M350390G804008     101             BPIARTHUR MOREIRA DA MOTTA       2016081303    010                                07439050081MOLIBIDENIO                               170CHACARAS COPACO               11 46543261
03049138120241170050453405345222360520241105005070302060049705601486775713M350390G804005     101             BPIJOAQUIM FERREIRA ANTUNES DOS S2019011201    010                                07411390004DAS ROSAS                                 753CIDADE NOVA ARUJA             11956777705
03049138120241170050453405345222360520241119005080302060049705601486775713M350390G804005     101             BPIJOAQUIM FERREIRA ANTUNES DOS S2019011201    010                                07411390004DAS ROSAS                                 753CIDADE NOVA ARUJA             11956777705
03049138120241170050453405345222360520241126005090302060049705601486775713M350390G804005     101             BPIJOAQUIM FERREIRA ANTUNES DOS S2019011201    010                                07411390004DAS ROSAS                                 753CIDADE NOVA ARUJA             11956777705
03049138120241170050453405345222360520241105005100302060049706403624093789M350390G804009     101             BPILUCAS CARDOZO DOS SANTOS      2015121501    010                                07428315081RUBELITA                                  155JARDIM FAZENDA RINCO          11 46525079
03049138120241170050453405345222360520241112005110302060049706403624093789M350390G804009     101             BPILUCAS CARDOZO DOS SANTOS      2015121501    010                                07428315081RUBELITA                                  155JARDIM FAZENDA RINCO          11 46525079
03049138120241170050453405345222360520241119005120302060049706403624093789M350390G804009     101             BPILUCAS CARDOZO DOS SANTOS      2015121501    010                                07428315081RUBELITA                                  155JARDIM FAZENDA RINCO          11 46525079
03049138120241170050453405345222360520241126005130302060049706403624093789M350390G804009     101             BPILUCAS CARDOZO DOS SANTOS      2015121501    010                                07428315081RUBELITA                                  155JARDIM FAZENDA RINCO          11 46525079
03049138120241170050453405345222360520241105005140302060049706708783728020M350390G804015     101             BPIMATHEUS HENDERSON CALHEIRO GOM2009123003    010                                07434130081DOS LIMOEIROS                              75JARDIM LIMOEIRO
03049138120241170050453405345222360520241119005150302060049706708783728020M350390G804015     101             BPIMATHEUS HENDERSON CALHEIRO GOM2009123003    010                                07434130081DOS LIMOEIROS                              75JARDIM LIMOEIRO
03049138120241170050453405345222360520241126005160302060049706708783728020M350390G804015     101             BPIMATHEUS HENDERSON CALHEIRO GOM2009123003    010                                07434130081DOS LIMOEIROS                              75JARDIM LIMOEIRO
03049138120241170050453405345222360520241105005170302060049706906106273834M350390G804011     101             BPIGUSTAVO PEDRO DE JESUS HONORIO2013080401    010                                07411155008Santa Terezinha                           555Jordanpolis
03049138120241170050453405345222360520241112005180302060049706906106273834M350390G804011     101             BPIGUSTAVO PEDRO DE JESUS HONORIO2013080401    010                                07411155008Santa Terezinha                           555Jordanpolis
03049138120241170050453405345222360520241126005190302060049706906106273834M350390G804011     101             BPIGUSTAVO PEDRO DE JESUS HONORIO2013080401    010                                07411155008Santa Terezinha                           555Jordanpolis
03049138120241170050453405345222360520241107005200302060049707602259771994M350390G804006     101             BPIDANIEL MEDEIROS DIAS          2018102203    010                                07437050081Cedros                                    185Parque dos Jacarands          11989113704
03049138120241170050453405345222360520241114006010302060049707602259771994M350390G804006     101             BPIDANIEL MEDEIROS DIAS          2018102203    010                                07437050081Cedros                                    185Parque dos Jacarands          11989113704
03049138120241170050453405345222360520241121006020302060049707602259771994M350390G804006     101             BPIDANIEL MEDEIROS DIAS          2018102203    010                                07437050081Cedros                                    185Parque dos Jacarands          11989113704
03049138120241170050453405345222360520241128006030302060049707602259771994M350390G804006     101             BPIDANIEL MEDEIROS DIAS          2018102203    010                                07437050081Cedros                                    185Parque dos Jacarands          11989113704
03049138120241170050453405345222360520241128006040302060049708000839197225M350390G804014     101             BPILUAN COSTA MARQUES            2010080503    010                                07405425081ROUXINOL                                   86JARDIM PINHEIRO               11 46533690
03049138120241170050453405345222360520241105006050302060049708006887642328M350390G804005     101             BPIPAULO HENRIQUE SILVA LEITE    2019031201    010                                07417380081JOS SEVERINO FILHO            CASA 1      120PARQUE RODRIGO BARRETO        11 46531574
03049138120241170050453405345222360520241112006060302060049708006887642328M350390G804005     101             BPIPAULO HENRIQUE SILVA LEITE    2019031201    010                                07417380081JOS SEVERINO FILHO            CASA 1      120PARQUE RODRIGO BARRETO        11 46531574
03049138120241170050453405345222360520241126006070302060049708006887642328M350390G804005     101             BPIPAULO HENRIQUE SILVA LEITE    2019031201    010                                07417380081JOS SEVERINO FILHO            CASA 1      120PARQUE RODRIGO BARRETO        11 46531574
03049138120241170050453405345222360520241105006080302060049708106526577031M350390G804008     101             BPIMATHEUS PAULO LEITE DA SILVA  2016051203    010                                07405445081ANDORINHA                     L 5         364JARDIM PINHEIRO               11912861623
03049138120241170050453405345222360520241112006090302060049708106526577031M350390G804008     101             BPIMATHEUS PAULO LEITE DA SILVA  2016051203    010                                07405445081ANDORINHA                     L 5         364JARDIM PINHEIRO               11912861623
03049138120241170050453405345222360520241119006100302060049708106526577031M350390G804008     101             BPIMATHEUS PAULO LEITE DA SILVA  2016051203    010                                07405445081ANDORINHA                     L 5         364JARDIM PINHEIRO               11912861623
03049138120241170050453405345222360520241126006110302060049708106526577031M350390G804008     101             BPIMATHEUS PAULO LEITE DA SILVA  2016051203    010                                07405445081ANDORINHA                     L 5         364JARDIM PINHEIRO               11912861623
03049138120241170050453405345222360520241107006120302060049708200168857241M350390G804019     101             BPIKLAYVERTT BELO MOITINHO       2005112801    010                                07400970008GEORGETONE                                 16JD RINCAO
03049138120241170050453405345222360520241114006130302060049708200168857241M350390G804019     101             BPIKLAYVERTT BELO MOITINHO       2005112801    010                                07400970008GEORGETONE                                 16JD RINCAO
03049138120241170050453405345222360520241121006140302060049708200168857241M350390G804019     101             BPIKLAYVERTT BELO MOITINHO       2005112801    010                                07400970008GEORGETONE                                 16JD RINCAO
03049138120241170050453405345222360520241107006150302060049708406711778169M350390G804007     101             BPIKAUE PESQUEIRA LOURENCO DA SIL2017012503    010                                07432445081PITANGUEIRAS                  CASA B      211RECANTO PRIMAVERA
03049138120241170050453405345222360520241114006160302060049708406711778169M350390G804007     101             BPIKAUE PESQUEIRA LOURENCO DA SIL2017012503    010                                07432445081PITANGUEIRAS                  CASA B      211RECANTO PRIMAVERA
03049138120241170050453405345222360520241128006170302060049708406711778169M350390G804007     101             BPIKAUE PESQUEIRA LOURENCO DA SIL2017012503    010                                07432445081PITANGUEIRAS                  CASA B      211RECANTO PRIMAVERA
03049138120241170050453405345222360520241107006180302060049708603521580584M350390G804016     101             BPIMATHEUS LIMA DOS SANTOS       2008101201    010                                07400970081DADY                          CASA 2      165JARDIM EMILIA
03049138120241170050453405345222360520241114006190302060049708603521580584M350390G804016     101             BPIMATHEUS LIMA DOS SANTOS       2008101201    010                                07400970081DADY                          CASA 2      165JARDIM EMILIA
03049138120241170050453405345222360520241121006200302060049708603521580584M350390G804016     101             BPIMATHEUS LIMA DOS SANTOS       2008101201    010                                07400970081DADY                          CASA 2      165JARDIM EMILIA
03049138120241170050453405345222360520241128007010302060049708603521580584M350390G804016     101             BPIMATHEUS LIMA DOS SANTOS       2008101201    010                                07400970081DADY                          CASA 2      165JARDIM EMILIA
03049138120241170050453405345222360520241105007020302060049708607048327582F350390G804007     101             BPIISADORA GUEDES BORGES         2017060303    010                                07417485081IRACI SOUZA DA ROCHA                       75PARQUE RODRIGO BARRETO        11 46552787
03049138120241170050453405345222360520241119007030302060049708607048327582F350390G804007     101             BPIISADORA GUEDES BORGES         2017060303    010                                07417485081IRACI SOUZA DA ROCHA                       75PARQUE RODRIGO BARRETO        11 46552787
03049138120241170050453405345222360520241105007040302060049708904756630113M350390G804009     101             BPIGABRIEL DAVI SOUZA BARROS     2015020601    010                                07404090081SERRA DO JAIRE                CS4         315MIRANTE DO ARUJ               11 46558284
03049138120241170050453405345222360520241112007050302060049708904756630113M350390G804009     101             BPIGABRIEL DAVI SOUZA BARROS     2015020601    010                                07404090081SERRA DO JAIRE                CS4         315MIRANTE DO ARUJ               11 46558284
03049138120241170050453405345222360520241119007060302060049708904756630113M350390G804009     101             BPIGABRIEL DAVI SOUZA BARROS     2015020601    010                                07404090081SERRA DO JAIRE                CS4         315MIRANTE DO ARUJ               11 46558284
03049138120241170050453405345222360520241126007070302060049708904756630113M350390G804009     101             BPIGABRIEL DAVI SOUZA BARROS     2015020601    010                                07404090081SERRA DO JAIRE                CS4         315MIRANTE DO ARUJ               11 46558284
03205930420241170120002219011322350520241111001010201020033704301593024090F350390    053     101             BPIANTONIA MARIA DA SILVA BEZERRA1971101601    010                                07432065081Oscar Schiavon                            263Jardim Emlia
03205930420241170120002219011322350520241111001100201020033704602776551330F350390    059     101             BPIMARIA SOELI DE ARAUJO         1965112201    010                                07432020008Dutra                         Casa A      565Jardim Leika
03205930420241170120002219011322350520241107001110201020033705003248999557F350390    042     101             BPIRAQUEL SANTANA DA SILVA       1982091903    010                                07432575081TOMI SABURO YAMAMOTO                      390JARDIM DAS CEREJEIRAS         11 20173525
03205930420241170120002219011322350520241104001120201020033705008015263854F350390    043     101             BPISIDARLANEA DOS SANTOS         1981082001    010                                07432020008Dutra                         Quadra Cal  626Jardim Leika
03205930420241170120002219011322350520241111001130201020033705402422454293F350390    040     101             BPILILIAN APARECIDA DA COSTA     1984081901    010                                07432070081Alice                                     161Jardim Emlia
03205930420241170120002219011322350520241104001140201020033707803693254510F350390    053     101             BPIILENI IMACULADA TOLEDO DA SILV1971052203    010                                07432685081Hirayoshi Amano               Casa A       57Stio dos Fernandes
03205930420241170120002219011322350520241111001180201020033700002820032308F350390    046     101             BPIVANDA PEREIRA SOARES          1978051004    010                                07432070081Alice                         Casa 02      70Jardim Emilia
03205930420241170120002219011322350520241111001190201020033700601420516662F350390    040     101             BPIANA PAULA SANTOS DA SILVA     1984112901    010                                07431280081Armando Pereira               Bl milano   435Jardim Jia
03205930420241170120002219011322350520241111001200201020033702504330221736F350390    043     101             BPIVANESSA SIMOES PINTO DOS REIS 1981080703    010                                07432445081das Pitangueiras                          105Recanto Primavera
03205930420241170280161518926622350520241121002010201020033700901933356096F350390    032     101             BPIRENATA DOS SANTOS BATISTA     1992042003    010                                07432455081Abacateiros                   Casa 02     210Recanto Primavera
03205930420241170280161518926622350520241121002020201020033701200070903213F350390    057     101             BPIMARIA OZELINA DA SILVA        1967081903    010                                07432470081Mangueiras                    Casa B      360Recanto Primavera             11986236325
03205930420241170280161518926622350520241128002030201020033702001395531081F350390    048     101             BPICRISTIANE SILVA DE CASTRO     1976012803    010                                07432590081Takeji Shimmyo                             86Jardim das Cerejeiras
03205930420241170280161518926622350520241107002040201020033702604201961449F350390    055     101             BPIELAINE MALLMANN DOS REIS      1969051901    010                                07432122081Nicolas Barbosa da Silva      Cond4 Bloc  200Cdhu Fazenda Albor
03205930420241170280161518926622350520241107002050201020033702608284364145F350390    063     101             BPIGIZELMA TRINDADE PINHEIRO     1961122701    010                                07432595081Keitome Hosoe                              52Jardimdas Cerejeiras
03205930420241170280161518926622350520241107002060201020033702800629484469F350390    046     101             BPITANIA DAS NEVES DOS SANTOS    1978121401    010                                07432050008Dutra                                     765Jardim Emlia
03205930420241170280161518926622350520241107002070201020033705000633068557F350390    054     101             BPIANGELA RAFAEL TOBIAS DOS SANTO1970061702    010                                07432060081Nicolau                       Casa 01      95Jardim Emlia                  11 46555358
03205930420241170280161518926622350520241107002080201020033705604436859517F350390    025     101             BPIBIANCA BEATRIZ DA SILVA       1999121601    010                                07432590081Takeji Shimmyo                             45Jardim das Cerejeiras
03205930420241170280161518926622350520241121002090201020033706003813712641F350390    040     101             BPIFERNANDA GONCALVES DA SILVA   1984031203    010                                07432050008Dutra                                     448Jardim Emlia
03205930420241170280161518926622350520241107002100201020033706901137310133F350390    035     101             BPIVANESSA APARECIDA FERNANDES LE1989052401    010                                07432080081HAROLDO                                   615JARDIM EMLIA
03205930420241170280161518926622350520241128002110201020033707702661688310F350390    045     101             BPIGILMA ODILON NEVES            1979090201    010                                07432450081COQUEIROS                     CASA         50RECANTO PRIMAVERA             11996998382
03205930420241170280161518926622350520241121002120201020033708605595441288F350390    049     101             BPIHELENITA BRITO DAMASCENO      1975081901    010                                07432470081Mangueiras                                 23Recanto Primavera
03205930420241170280161518926622350520241128006100201020033700006141007001F350390    059     101             BPIROSELY MAGDA BARRETO          1965070202    010                                07432580081Sango Matsuzaki                           160Jardim das Cerejeiras
03205930420241170280161518926622350520241107006110201020033709002834661810F350390    043     101             BPIVANESSA DA SILVA              1981080703    010                                07432435008Perimetral                                266Recanto Primavera
03205930420241170280161518926622350520241107007050201020033700007690345101F350390    048     101             BPIBARBARA REGINA DE OLIVEIRA    1976011401    010                                07432055081Clementina                    Casa 02     160Jardim Emlia
03205930420241170280161518926622350520241128007060201020033700400904187846F350390    058     101             BPIMARILENE FERREIRA DE PAULA    1966032801    010                                07432470081Mangueiras                                342Recanto Primavera
03205930420241170280161518926622350520241107007070201020033700501953238858F350390    058     101             BPIMARIA DAS DORES ALMEIDA DE OLI1966120803    010                                07432050008Dutra                                     137Jardim Emlia
03205930420241170280161518926622350520241128007080201020033700505156436552F350390    058     101             BPISANDRA PINHEIRO DE FREITAS    1966110701    010                                07432060081Nicolau                                   380Jardim Emlia
03205930420241170120002219011322350520241108001020214010040702909507364873F350390    035     101             BPIREGINA DA CONCEICAO MATIAS    1989050503    010                                07432685081Hirayoshi Amano               Travessa S   14Stio dos Fernandes
03205930420241170120002219011322350520241108001030214010040706202587980463F350390    028     101             BPIARIANE DA SILVA DE CARVALHO   1996081603    010                                07432000081NEGRO                         CASA B      280JARDIM LEIKA
03205930420241170120002219011322350520241107001060214010040706208080315665F350390    019     101             BPITAMIRIS KAROLLINY FERREIRA DE 2005110401    010                                07431295081SAFIRA                        CASA FUNDO  307JARDIM JIA                    19999500576
03205930420241170120002219011322350520241108001150214010040700802491532082F350390    023     101             BPIBIANCA LOUREIRO DOS SANTOS    2001101801    010                                07431220008BARTIRA                                     7JARDIM TUPI                   11 46543223
03205930420241170280161518926622350520241127002130214010040707606206091895F350390    025     101             BPIDORYANIS ALEJANDRA TERAN BOLIV1999070703    010                                07432060081Nicolau                       Casa 02     240Jardim Emlia
03205930420241170280161518926622350520241101002140214010040708206132283542F350390    024     101             BPIBRUNA VALIM DE LIMA DOS SANTOS2000010201    010                                07432075081DADY                          CASA 02      95JARDIM EMLIA
03205930420241170280161518926622350520241125002150214010040709603678596676F350390    020     101             BPIASHLEY NICOLLY DA SILVA OLIVEI2004042801    010                                07432050008DUTRA                         CASA 01     274JARDIM EMLIA
03205930420241170120002219011322350520241111001090214010058700603913626564M350390    048     101             BPIGILVAN ALBERTO DA SILVA VALERI1976121701    010                                07432000081Negro                                    1200Jardim Leika
03205930420241170280161518926622350520241129002160214010058700002083820201F350390    026     101             BPICAROLINE LEMOS SOUZA MIURA    1998061801    010                                07432465081Jambeiros                     Casa 3      212Recanto Primavera
03205930420241170280161518926622350520241123002170214010058700007505800501M350390    045     101             BPIDIOGENES RIBEIRO DOS REIS     1979022002    010                                07432075081Dady                          A            33Jardim Emlia
03205930420241170280161518926622350520241123002180214010058700008021985709M350390    056     101             BPIADAO LUIZ DOS SANTOS          1967123103    010                                07432070081Alice                                     180Jardim Emilia--perobal
03205930420241170280161518926622350520241123002190214010058700009082047505M350390    063     101             BPISERAFIM APARECIDO GANDRA      1961030803    010                                07432065081OSCAR SCHIAVON                             74JARDIM EMLIA
03205930420241170280161518926622350520241123002200214010058700402406211941M350390    041     101             BPIWILLAMES ROQUE DOS SANTOS     1983122703    010                                07432020008DUTRA 430/99999               QUADRA CAL  120PEROBAL                       11998315975
03205930420241170280161518926622350520241123003010214010058700504728133451M350390    046     101             BPIELESSANDRE ALVES DE LIMA      1978030501    010                                07432065081OSCAR SCHIAVON                            111JARDIM EMLIA
03205930420241170280161518926622350520241128003020214010058700700971017679M350390    030     101             BPIGIOVANNY NICHOLAS APARECIDA DA1994061401    010                                07432020008Dutra                                     715Jardim Leika
03205930420241170280161518926622350520241123003030214010058700808971153781M350390    045     101             BPIFRANCISCO IRLAM ALMEIDA DE LIM1979030701    010                                07432070081Alice                                     151Jardim Emlia                  11968582679
03205930420241170280161518926622350520241123003040214010058701004897283097M350390    044     101             BPIMARCELO MONTREAL CARDOSO      1980010703    010                                07432005081PEDRO PEREIRA DA SILVA        COND 2 BL   200JARDIM LEIKA
03205930420241170280161518926622350520241108003050214010058701005864388990F350390    017     101             BPIMIKAELA LORRANY MENDES DOMINGO2007051003    010                                07432122081Nicolas Barbosa da Silva      Con D4 Bl    30Cdhu Fazenda Albor            11 46521625
03205930420241170280161518926622350520241123003060214010058701203071890517M350390    066     101             BPIHENRIQUE FORTUNATO DE SOUSA   1958071501    010                                07432675081Tiaki Ogaawara                Fundos       26Stio dos Fernandes
03205930420241170280161518926622350520241123003070214010058701401645210536M350390    053     101             BPIEDIVALDO DA SILVA             1971011203    010                                07432470081Mangueiras                    B           251Recanto Primavera
03205930420241170280161518926622350520241123003080214010058702000383703280M350390    052     101             BPIEMERSON ALVES DE LIMA         1972112101    010                                07432065081OSCAR SCHIAVON                CASA 01     111JARDIM EMLIA
03205930420241170280161518926622350520241123003090214010058702307124733810M350390    061     101             BPIJOSE DE ANDRADE DUARTE        1963110601    010                                07432050008DUTRA                                     200JARDIM EMLIA                  11983198127
03205930420241170280161518926622350520241123003100214010058702402577867627M350390    046     101             BPIMAURO DE SOUZA BRAGA          1978052803    010                                07432050008DUTRA                         CASA EM CI  341JARDIM EMLIA                  11 46543671
03205930420241170280161518926622350520241123003110214010058702801115721562M350390    065     101             BPIMARIO DARCI MOREIRA           1959112901    010                                07432000081NEGRO                                      66JARDIM LEIKA
03205930420241170280161518926622350520241123003120214010058702909537095374M350390    046     101             BPIJAILSON DA SILVA SANTOS       1978052703    010                                07432675081TIAKI OGAAWARA                CASA 1       71STIO DOS FERNANDES
03205930420241170280161518926622350520241123003130214010058704608637371029M350390    041     101             BPIJOSE ANTONIO DA SILVA HENRIQUE1983071003    010                                07432685081Hirayoshi Amano                            05Stio dos Fernandes
03205930420241170280161518926622350520241123003140214010058704702781884937M350390    050     101             BPIANDERSON VITOR DA SILVA       1974090101    010                                07432470081MANGUEIRAS                                435RECANTO PRIMAVERA
03205930420241170280161518926622350520241123003150214010058704703740665131M350390    070     101             BPIDORIVAL TADEU DA SILVA SOARES 1954070203    010                                07432121081REGINA CELIA GOMES DE ALVARENGCOND3 BLOC   61CDHU FAZENDA ALBOR
03205930420241170280161518926622350520241123003160214010058704804030728847M350390    053     101             BPIJOSE RAMALHO GOMES            1971102701    010                                07432670081TOMI MIURA                               1080JD DAS CEREJEIRAS
03205930420241170280161518926622350520241123003170214010058705609475290613M350390    053     101             BPIJOSE DE SOUZA MONTE           1971032601    010                                07432000081Negro                                     298Jardim Leika
03205930420241170280161518926622350520241106003180214010058706008344301347M350390    018     101             BPIDIEGO SERRA ALMEIDA           2006121003    010                                07432455081Abacateiros                   Casa 1      211Recanto Primavera
03205930420241170280161518926622350520241123003190214010058706203061743865M350390    061     101             BPITHEODORICO RODRIGUES DE OLIVEI1963070103    010                                07432065081OSCAR SCHIAVON                CASA 02      43JARDIM EMLIA/PEROBAL          11 46543749
03205930420241170280161518926622350520241123003200214010058706505313468293M350390    067     101             BPIVALDOMIRO DO NASCIMENTO       1957082303    010                                07432470081Mangueiras                                428Recanto Primavera             11 46542862
03205930420241170280161518926622350520241123004010214010058708603590976785M350390    060     101             BPIEUTIMIO CARDOSO DE JESUS      1964050802    010                                07432670081TOMI MIURA                                216PEROBAL                       11963156141
03205930420241170280161518926622350520241123004020214010058708703107875493M350390    053     101             BPIJESUS ENRIQUE VIELMA NAVAS    1971082003    010                                07432050008Dutra                         AP 7        244Jardim Emlia
03205930420241170280161518926622350520241123004030214010058708708146221290M350390    044     101             BPILUIZ CARLOS DA SILVA          1980121403    010                                07432065081OSCAR SCHIAVON                CASA 02     111JARDIM EMLIA
