01#BPA#2024080052090001791206SECRETARIA MUNICIPAL DE SAUDE SMS   56901275000150SECRETARIA ESTADUAL DE SAUDE            MD04.01    
026430163202408251510001010301010048040000003BPA
026430163202408251510001020301010048030000001BPA
026430163202408251510001030301010048021000002BPA
026430163202408251510001040301010048056000002BPA
026430163202408251510001050301010048053000001BPA
026430163202408251510001060301010048033000001BPA
026430163202408251510001070301010048042000001BPA
026430163202408251510001080301010048037000002BPA
026430163202408251510001090301010048034000001BPA
026430163202408251510001100301010048046000004BPA
026430163202408251510001110301010048024000002BPA
026430163202408251510001120301010048073000002BPA
026430163202408251510001130301010048031000003BPA
026430163202408251510001140301010048075000003BPA
026430163202408251510001150301010048022000001BPA
026430163202408251510001160301010048038000002BPA
026430163202408251510001170301010048048000003BPA
026430163202408251510001180301010048062000002BPA
026430163202408251510001190301010048078000001BPA
026430163202408251510001200301010048032000001BPA
026430163202408251510002010301010137048000001BPA
026430163202408251510002020301010161000000001BPA
026430163202408251510002030301080160000000020BPA
026430163202408322230002040301100039000000167BPA
026896839202408223208001010301010048066000003BPA
026896839202408223208001020301010048074000004BPA
026896839202408223208001030301010048038000005BPA
026896839202408223208001040301010048031000004BPA
026896839202408223208001050301010048069000001BPA
026896839202408223208001060301010048029000001BPA
026896839202408223208001070301010048043000006BPA
026896839202408223208001080301010048032000009BPA
026896839202408223208001090301010048004000002BPA
026896839202408223208001100301010048050000002BPA
026896839202408223208001110301010048077000002BPA
026896839202408223208001120301010048037000007BPA
026896839202408223208001130301010048008000004BPA
026896839202408223208001140301010048036000008BPA
026896839202408223208001150301010048016000001BPA
026896839202408223208001160301010048010000006BPA
026896839202408223208001170301010048007000005BPA
026896839202408223208001180301010048033000003BPA
026896839202408223208001190301010048053000003BPA
026896839202408223208001200301010048059000002BPA
026896839202408223208002010301010048030000007BPA
026896839202408223208002020301010048072000001BPA
026896839202408223208002030301010048006000010BPA
026896839202408223208002040301010048028000005BPA
026896839202408223208002050301010048056000004BPA
026896839202408223208002060301010048055000003BPA
026896839202408223208002070301010048001000001BPA
026896839202408223208002080301010048026000003BPA
026896839202408223208002090301010048046000005BPA
026896839202408223208002100301010048078000001BPA
026896839202408223208002110301010048013000003BPA
026896839202408223208002120301010048058000006BPA
026896839202408223208002130301010048062000003BPA
026896839202408223208002140301010048070000002BPA
026896839202408223208002150301010048057000004BPA
026896839202408223208002160301010048063000002BPA
026896839202408223208002170301010048011000001BPA
026896839202408223208002180301010048039000006BPA
026896839202408223208002190301010048045000007BPA
026896839202408223208002200301010048065000005BPA
026896839202408223208003010301010048012000003BPA
026896839202408223208003020301010048021000005BPA
026896839202408223208003030301010048020000002BPA
026896839202408223208003040301010048015000004BPA
026896839202408223208003050301010048014000001BPA
026896839202408223208003060301010048019000004BPA
026896839202408223208003070301010048068000002BPA
026896839202408223208003080301010048017000006BPA
026896839202408223208003090301010048034000006BPA
026896839202408223208003100301010048048000003BPA
026896839202408223208003110301010048047000001BPA
026896839202408223208003120301010048067000004BPA
026896839202408223208003130301010048040000004BPA
026896839202408223208003140301010048041000009BPA
026896839202408223208003150301010048080000001BPA
026896839202408223208003160301010048075000002BPA
026896839202408223208003170301010048024000001BPA
026896839202408223208003180301010048003000005BPA
026896839202408223208003190301010048052000001BPA
026896839202408223208003200301010048071000001BPA
026896839202408223208004010301010048005000007BPA
026896839202408223208004020301010048023000009BPA
026896839202408223208004030301010048022000004BPA
026896839202408223208004040301010048054000003BPA
026896839202408223208004050301010048025000010BPA
026896839202408223208004060301010048009000005BPA
026896839202408223208004070301010048035000006BPA
026896839202408223208004080301010048044000005BPA
026896839202408223208004090301010048064000004BPA
026896839202408223208004100301010048027000005BPA
026896839202408223208004110301010048051000003BPA
026896839202408223208004120301010048049000003BPA
026896839202408223212004130301010048028000002BPA
026896839202408223212004140301010048008000003BPA
026896839202408223212004150301010048060000001BPA
026896839202408223212004160301010048030000004BPA
026896839202408223212004170301010048019000003BPA
026896839202408223212004180301010048026000003BPA
026896839202408223212004190301010048068000001BPA
026896839202408223212004200301010048043000006BPA
026896839202408223212005010301010048061000003BPA
026896839202408223212005020301010048015000002BPA
026896839202408223212005030301010048050000001BPA
026896839202408223212005040301010048047000003BPA
026896839202408223212005050301010048040000002BPA
026896839202408223212005060301010048020000003BPA
026896839202408223212005070301010048036000001BPA
026896839202408223212005080301010048012000002BPA
026896839202408223212005090301010048066000002BPA
026896839202408223212005100301010048011000004BPA
026896839202408223212005110301010048049000002BPA
026896839202408223212005120301010048024000002BPA
026896839202408223212005130301010048021000002BPA
026896839202408223212005140301010048029000002BPA
026896839202408223212005150301010048014000002BPA
026896839202408223212005160301010048034000001BPA
026896839202408223212005170301010048056000003BPA
026896839202408223212005180301010048031000005BPA
026896839202408223212005190301010048057000003BPA
026896839202408223212005200301010048042000009BPA
026896839202408223212006010301010048041000003BPA
026896839202408223212006020301010048032000004BPA
026896839202408223212006030301010048038000004BPA
026896839202408223212006040301010048070000002BPA
026896839202408223212006050301010048065000005BPA
026896839202408223212006060301010048027000002BPA
026896839202408223212006070301010048039000003BPA
026896839202408223212006080301010048013000004BPA
026896839202408223212006090301010048059000003BPA
026896839202408223212006100301010048017000002BPA
026896839202408223212006110301010048078000001BPA
026896839202408223212006120301010048045000004BPA
026896839202408223212006130301010048058000003BPA
026896839202408223212006140301010048033000002BPA
026896839202408223212006150301010048025000005BPA
026896839202408223212006160301010048063000003BPA
026896839202408223212006170301010048072000003BPA
026896839202408223212006180301010048044000004BPA
026896839202408223212006190301010048018000001BPA
026896839202408223212006200301010048006000003BPA
026896839202408223212007010301010048051000002BPA
026896839202408223212007020301010048037000003BPA
026896839202408223212007030301010048064000001BPA
026896839202408223212007040301010048009000001BPA
026896839202408223212007050301010048016000005BPA
026896839202408223212007060301010048023000001BPA
026896839202408223212007070301010048046000004BPA
026896839202408223212007080301010048022000002BPA
026896839202408223212007090301010048054000001BPA
026896839202408223212007100301010048035000004BPA
026896839202408223208007110301010153000000104BPA
026896839202408223212007120301010153000000014BPA
026896839202408223212007130301060061000000023BPA
026896839202408223208007140301100039000000001BPA
026896847202408322205001010101040024000001373BPA
026896847202408322230001020101040024000000312BPA
026896847202408225112001030102010072000000005BPA
026896847202408225120001040102010072000000002BPA
026896847202408225125001050102010072000000001BPA
026896847202408225270001060102010072000000001BPA
026896847202408225285001070102010072000000001BPA
026896847202408322205001080211060275000000035BPA
026896847202408322230001090211060275000000043BPA
026896847202408322205001100214010015000000265BPA
026896847202408322230001110214010015000000314BPA
026896847202408223505001120214010058000000034BPA
026896847202408223505001130214010074000000034BPA
026896847202408223505001140301010048030000002BPA
026896847202408223505001150301010048024000002BPA
026896847202408223505001160301010048040000001BPA
026896847202408223505001170301010048046000002BPA
026896847202408223505001180301010048062000001BPA
026896847202408223505001190301010048020000001BPA
026896847202408223505001200301010048009000001BPA
026896847202408223505002010301010048056000001BPA
026896847202408223505002020301010048029000002BPA
026896847202408223505002030301010048022000002BPA
026896847202408223505002040301010048045000001BPA
026896847202408223505002050301010048044000001BPA
026896847202408223505002060301010048057000001BPA
026896847202408223505002070301010048042000002BPA
026896847202408223505002080301010048053000001BPA
026896847202408223505002090301010048028000004BPA
026896847202408223505002100301010048035000002BPA
026896847202408223505002110301010048037000002BPA
026896847202408223505002120301010048021000002BPA
026896847202408223505002130301010048072000001BPA
026896847202408223505002140301010048032000001BPA
026896847202408223505002150301010048026000001BPA
026896847202408223505002160301010048065000001BPA
026896847202408223505002170301010048031000002BPA
026896847202408223505002180301010048016000001BPA
026896847202408223505002190301010048025000001BPA
026896847202408223505002200301010048071000001BPA
026896847202408223505003010301010048049000001BPA
026896847202408223505003020301010048033000001BPA
026896847202408223505003030301010048036000001BPA
026896847202408223505003040301010048059000002BPA
026896847202408223505003050301010048018000002BPA
026896847202408223505003060301010048043000001BPA
026896847202408223505003070301010048017000001BPA
026896847202408223505003080301010048073000002BPA
026896847202408223505003090301010048047000001BPA
026896847202408223505003100301010048078000001BPA
026896847202408223505003110301010048093000002BPA
026896847202408251605003120301010048076000002BPA
026896847202408251605003130301010048040000001BPA
026896847202408251605003140301010048043000003BPA
026896847202408251605003150301010048006000001BPA
026896847202408251605003160301010048003000001BPA
026896847202408251605003170301010048024000001BPA
026896847202408251605003180301010048012000002BPA
026896847202408251605003190301010048051000002BPA
026896847202408251605003200301010048071000001BPA
026896847202408251605004010301010048054000003BPA
026896847202408251605004020301010048050000005BPA
026896847202408251605004030301010048056000006BPA
026896847202408251605004040301010048015000002BPA
026896847202408251605004050301010048005000001BPA
026896847202408251605004060301010048034000002BPA
026896847202408251605004070301010048038000002BPA
026896847202408251605004080301010048009000001BPA
026896847202408251605004090301010048011000002BPA
026896847202408251605004100301010048075000001BPA
026896847202408251605004110301010048016000002BPA
026896847202408251605004120301010048031000002BPA
026896847202408251605004130301010048097000001BPA
026896847202408251605004140301010048066000003BPA
026896847202408251605004150301010048035000003BPA
026896847202408251605004160301010048093000001BPA
026896847202408251605004170301010048061000004BPA
026896847202408251605004180301010048068000001BPA
026896847202408251605004190301010048013000001BPA
026896847202408251605004200301010048060000003BPA
026896847202408251605005010301010048046000002BPA
026896847202408251605005020301010048081000006BPA
026896847202408251605005030301010048059000001BPA
026896847202408251605005040301010048074000003BPA
026896847202408251605005050301010048036000001BPA
026896847202408251605005060301010048052000001BPA
026896847202408251605005070301010048055000003BPA
026896847202408251605005080301010048067000010BPA
026896847202408251605005090301010048049000002BPA
026896847202408251605005100301010048062000004BPA
026896847202408251605005110301010048023000001BPA
026896847202408251605005120301010048063000002BPA
026896847202408251605005130301010048014000002BPA
026896847202408251605005140301010048030000002BPA
026896847202408251605005150301010048065000002BPA
026896847202408251605005160301010048077000002BPA
026896847202408251605005170301010048058000001BPA
026896847202408251605005180301010048042000001BPA
026896847202408251605005190301010048069000003BPA
026896847202408251605005200301010048008000001BPA
026896847202408251605006010301010048079000001BPA
026896847202408251605006020301010048029000003BPA
026896847202408251605006030301010048017000004BPA
026896847202408251605006040301010048064000006BPA
026896847202408251605006050301010048026000003BPA
026896847202408251605006060301010048037000001BPA
026896847202408251605006070301010048010000001BPA
026896847202408251605006080301010048018000002BPA
026896847202408251605006090301010048092000001BPA
026896847202408251605006100301010048057000003BPA
026896847202408251605006110301010048007000002BPA
026896847202408225112006120301010072000000496BPA
026896847202408225120006130301010072000000322BPA
026896847202408225125006140301010072000000066BPA
026896847202408225127006150301010072000000125BPA
026896847202408225133006160301010072000000207BPA
026896847202408225135006170301010072000000189BPA
026896847202408225155006180301010072000000319BPA
026896847202408225265006190301010072000000355BPA
026896847202408225270006200301010072000000631BPA
026896847202408225275007010301010072000000263BPA
026896847202408225285007020301010072000000169BPA
026896847202408225275007030301010161000000001BPA
026896847202408223505007040301040079000000030BPA
026896847202408223505007050301100039000000001BPA
026896847202408322205007060301100039000001333BPA
026896847202408322230007070301100039000000314BPA
026896847202408225275007080404010270000000016BPA
029001808202408225310001010301040079000000132BPA
03049138120240870050453405345222360520240822001010302060030703404648057800F350390G804009     101             BPIANA CLARA PIRES DOS SANTOS    2014122201    010                                07402205081MINAS GERAIS                               15JARDIM PLANALTO               11 46523629
03049138120240870050453405345222360520240829001020302060030703404648057800F350390G804009     101             BPIANA CLARA PIRES DOS SANTOS    2014122201    010                                07402205081MINAS GERAIS                               15JARDIM PLANALTO               11 46523629
03049138120240870050453405345222360520240801001030302060030701401642375631F350390G804003     101             BPIANTONELA PINOTI COSTA CARVALHO2021031501    010                                07411215081SAO LUIS                                  110JORDANPOLIS
03049138120240870050453405345222360520240815001040302060030701401642375631F350390G804003     101             BPIANTONELA PINOTI COSTA CARVALHO2021031501    010                                07411215081SAO LUIS                                  110JORDANPOLIS
03049138120240870050453405345222360520240822001050302060030701401642375631F350390G804003     101             BPIANTONELA PINOTI COSTA CARVALHO2021031501    010                                07411215081SAO LUIS                                  110JORDANPOLIS
03049138120240870050453405345222360520240829001060302060030701401642375631F350390G804003     101             BPIANTONELA PINOTI COSTA CARVALHO2021031501    010                                07411215081SAO LUIS                                  110JORDANPOLIS
03049138120240870050453405345222360520240806001070302060030701409652952736M350390G804025     101             BPIARTHUR DOS SANTOS VIANNA PINHO1998100801    010                                07417265008RAILDA ALVES DE OLIVEIRA      A           856PARQUE RODRIGO BARRETO        11 46554774
03049138120240870050453405345222360520240820001080302060030701409652952736M350390G804025     101             BPIARTHUR DOS SANTOS VIANNA PINHO1998100801    010                                07417265008RAILDA ALVES DE OLIVEIRA      A           856PARQUE RODRIGO BARRETO        11 46554774
03049138120240870050453405345222360520240827001090302060030701409652952736M350390G804025     101             BPIARTHUR DOS SANTOS VIANNA PINHO1998100801    010                                07417265008RAILDA ALVES DE OLIVEIRA      A           856PARQUE RODRIGO BARRETO        11 46554774
03049138120240870050453405345222360520240808001100302060030700402404310640M350390G804009     101             BPIGABRIEL FERNANDES GONTAN      2015050803    010                                07403000008HANS OSSAMU SUZUKI                        220ARUJAMRICA                    11 46550954
03049138120240870050453405345222360520240815001110302060030700402404310640M350390G804009     101             BPIGABRIEL FERNANDES GONTAN      2015050803    010                                07403000008HANS OSSAMU SUZUKI                        220ARUJAMRICA                    11 46550954
03049138120240870050453405345222360520240801001120302060030705002456823155M350390G804017     101             BPIGABRIEL PEDRO LOPES DA SILVA  2007062301    010                                07401720081IRACI PINTO FERREIRA BRAZ     A            19VILA PILAR                    11 46513585
03049138120240870050453405345222360520240808001130302060030705002456823155M350390G804017     101             BPIGABRIEL PEDRO LOPES DA SILVA  2007062301    010                                07401720081IRACI PINTO FERREIRA BRAZ     A            19VILA PILAR                    11 46513585
03049138120240870050453405345222360520240815001140302060030705002456823155M350390G804017     101             BPIGABRIEL PEDRO LOPES DA SILVA  2007062301    010                                07401720081IRACI PINTO FERREIRA BRAZ     A            19VILA PILAR                    11 46513585
03049138120240870050453405345222360520240822001150302060030705002456823155M350390G804017     101             BPIGABRIEL PEDRO LOPES DA SILVA  2007062301    010                                07401720081IRACI PINTO FERREIRA BRAZ     A            19VILA PILAR                    11 46513585
03049138120240870050453405345222360520240801001160302060030704603611129420F350390G804019     101             BPIGIOVANNA OLIVEIRA DE CARVALHO 2004100701    010                                07400885081Armando Tenorio de Araujo                  53Aruja Centro Residencial
03049138120240870050453405345222360520240808001170302060030704603611129420F350390G804019     101             BPIGIOVANNA OLIVEIRA DE CARVALHO 2004100701    010                                07400885081Armando Tenorio de Araujo                  53Aruja Centro Residencial
03049138120240870050453405345222360520240815001180302060030704603611129420F350390G804019     101             BPIGIOVANNA OLIVEIRA DE CARVALHO 2004100701    010                                07400885081Armando Tenorio de Araujo                  53Aruja Centro Residencial
03049138120240870050453405345222360520240806001190302060030704801024804348F350390G804010     101             BPIISABEL SOUSA FONSECA          2014080801    010                                07417565081Jose Barbosa de Souza                      15Parque Rodrigo Barreto
03049138120240870050453405345222360520240820001200302060030704801024804348F350390G804010     101             BPIISABEL SOUSA FONSECA          2014080801    010                                07417565081Jose Barbosa de Souza                      15Parque Rodrigo Barreto
03049138120240870050453405345222360520240806002010302060030700206991639330F350390G804009     101             BPIISABELLA VITORIA ALVES SOARES 2014111201    010                                07403105081JOO LEITE DE CAMARGO                      184ARUJAMRICA
03049138120240870050453405345222360520240806002020302060030700507118196959F350390G804018     101             BPIIZABEL DA LUZ BARROS          2006041503    010                                07417465081ANTONIA MANOEL FERNANDES                  639PARQUE RODRIGO BARRETO        11 46531105
03049138120240870050453405345222360520240813002030302060030700507118196959F350390G804018     101             BPIIZABEL DA LUZ BARROS          2006041503    010                                07417465081ANTONIA MANOEL FERNANDES                  639PARQUE RODRIGO BARRETO        11 46531105
03049138120240870050453405345222360520240820002040302060030700507118196959F350390G804018     101             BPIIZABEL DA LUZ BARROS          2006041503    010                                07417465081ANTONIA MANOEL FERNANDES                  639PARQUE RODRIGO BARRETO        11 46531105
03049138120240870050453405345222360520240827002050302060030700507118196959F350390G804018     101             BPIIZABEL DA LUZ BARROS          2006041503    010                                07417465081ANTONIA MANOEL FERNANDES                  639PARQUE RODRIGO BARRETO        11 46531105
03049138120240870050453405345222360520240822002060302060030708000839197225M350390G804014     101             BPILUAN COSTA MARQUES            2010080503    010                                07405425081ROUXINOL                                   86JARDIM PINHEIRO               11 46533690
03049138120240870050453405345222360520240829002070302060030708000839197225M350390G804014     101             BPILUAN COSTA MARQUES            2010080503    010                                07405425081ROUXINOL                                   86JARDIM PINHEIRO               11 46533690
03049138120240870050453405345222360520240801002080302060030700004487906207M350390G804009     101             BPILUCAS PIETRO DO CARMO SANTOS  2015060701    010                                07417500081ANTO BERNARDO DA SILVA                     96PARQUE RODRIGO BARRETO        11 46497722
03049138120240870050453405345222360520240808002090302060030700004487906207M350390G804009     101             BPILUCAS PIETRO DO CARMO SANTOS  2015060701    010                                07417500081ANTO BERNARDO DA SILVA                     96PARQUE RODRIGO BARRETO        11 46497722
03049138120240870050453405345222360520240815002100302060030700004487906207M350390G804009     101             BPILUCAS PIETRO DO CARMO SANTOS  2015060701    010                                07417500081ANTO BERNARDO DA SILVA                     96PARQUE RODRIGO BARRETO        11 46497722
03049138120240870050453405345222360520240822002110302060030700004487906207M350390G804009     101             BPILUCAS PIETRO DO CARMO SANTOS  2015060701    010                                07417500081ANTO BERNARDO DA SILVA                     96PARQUE RODRIGO BARRETO        11 46497722
03049138120240870050453405345222360520240829002120302060030700004487906207M350390G804009     101             BPILUCAS PIETRO DO CARMO SANTOS  2015060701    010                                07417500081ANTO BERNARDO DA SILVA                     96PARQUE RODRIGO BARRETO        11 46497722
03049138120240870050453405345222360520240808002130302060049703404648057800F350390G804009     101             BPIANA CLARA PIRES DOS SANTOS    2014122201    010                                07402205081MINAS GERAIS                               15JARDIM PLANALTO               11 46523629
03049138120240870050453405345222360520240815002140302060049703404648057800F350390G804009     101             BPIANA CLARA PIRES DOS SANTOS    2014122201    010                                07402205081MINAS GERAIS                               15JARDIM PLANALTO               11 46523629
03049138120240870050453405345222360520240813002150302060049701409652952736M350390G804025     101             BPIARTHUR DOS SANTOS VIANNA PINHO1998100801    010                                07417265008RAILDA ALVES DE OLIVEIRA      A           856PARQUE RODRIGO BARRETO        11 46554774
03049138120240870050453405345222360520240801002160302060049705207421017775M350390G804008     101             BPIARTHUR MOREIRA DA MOTTA       2016081303    010                                07439050081MOLIBIDENIO                               170CHACARAS COPACO               11 46543261
03049138120240870050453405345222360520240808002170302060049705207421017775M350390G804008     101             BPIARTHUR MOREIRA DA MOTTA       2016081303    010                                07439050081MOLIBIDENIO                               170CHACARAS COPACO               11 46543261
03049138120240870050453405345222360520240815002180302060049705207421017775M350390G804008     101             BPIARTHUR MOREIRA DA MOTTA       2016081303    010                                07439050081MOLIBIDENIO                               170CHACARAS COPACO               11 46543261
03049138120240870050453405345222360520240829002190302060049705207421017775M350390G804008     101             BPIARTHUR MOREIRA DA MOTTA       2016081303    010                                07439050081MOLIBIDENIO                               170CHACARAS COPACO               11 46543261
03049138120240870050453405345222360520240815002200302060049705008816205755M350390G804007     101             BPIBERNARDO PINOTI SILVA CARVALHO2017091801    010                                07411215081LUIZ                                      110JORDANPOLIS
03049138120240870050453405345222360520240822003010302060049705008816205755M350390G804007     101             BPIBERNARDO PINOTI SILVA CARVALHO2017091801    010                                07411215081LUIZ                                      110JORDANPOLIS
03049138120240870050453405345222360520240829003020302060049705008816205755M350390G804007     101             BPIBERNARDO PINOTI SILVA CARVALHO2017091801    010                                07411215081LUIZ                                      110JORDANPOLIS
03049138120240870050453405345222360520240801003030302060049700609919724261M350390G804011     101             BPIBRYAN SANTOS DA HORA          2013062803    010                                07417100081Alice Sanches Ribeiro         Casa 03      62Parque Rodrigo Barreto
03049138120240870050453405345222360520240808003040302060049700609919724261M350390G804011     101             BPIBRYAN SANTOS DA HORA          2013062803    010                                07417100081Alice Sanches Ribeiro         Casa 03      62Parque Rodrigo Barreto
03049138120240870050453405345222360520240815003050302060049700609919724261M350390G804011     101             BPIBRYAN SANTOS DA HORA          2013062803    010                                07417100081Alice Sanches Ribeiro         Casa 03      62Parque Rodrigo Barreto
03049138120240870050453405345222360520240829003060302060049700609919724261M350390G804011     101             BPIBRYAN SANTOS DA HORA          2013062803    010                                07417100081Alice Sanches Ribeiro         Casa 03      62Parque Rodrigo Barreto
03049138120240870050453405345222360520240801003070302060049707602259771994M350390G804005     101             BPIDANIEL MEDEIROS DIAS          2018102203    010                                07437050081Cedros                                    185Parque dos Jacarands          11989113704
03049138120240870050453405345222360520240808003080302060049707602259771994M350390G804005     101             BPIDANIEL MEDEIROS DIAS          2018102203    010                                07437050081Cedros                                    185Parque dos Jacarands          11989113704
03049138120240870050453405345222360520240822003090302060049707602259771994M350390G804005     101             BPIDANIEL MEDEIROS DIAS          2018102203    010                                07437050081Cedros                                    185Parque dos Jacarands          11989113704
03049138120240870050453405345222360520240829003100302060049707602259771994M350390G804005     101             BPIDANIEL MEDEIROS DIAS          2018102203    010                                07437050081Cedros                                    185Parque dos Jacarands          11989113704
03049138120240870050453405345222360520240813003110302060049700801940003986M350390G804008     101             BPIDANIEL RIBEIRO AQUINO DA SILVE2016020203    010                                07400470081Siqueira Campos                            30Jardim Rinco
03049138120240870050453405345222360520240820003120302060049700801940003986M350390G804008     101             BPIDANIEL RIBEIRO AQUINO DA SILVE2016020203    010                                07400470081Siqueira Campos                            30Jardim Rinco
03049138120240870050453405345222360520240827003130302060049700801940003986M350390G804008     101             BPIDANIEL RIBEIRO AQUINO DA SILVE2016020203    010                                07400470081Siqueira Campos                            30Jardim Rinco
03049138120240870050453405345222360520240806003140302060049700202902613922M350390G804008     101             BPIDAVI MOTA DE JESUS            2016030801    010                                07405470081PELICANO                      CASA 03      68JARDIM PINHEIRO
03049138120240870050453405345222360520240813003150302060049700202902613922M350390G804008     101             BPIDAVI MOTA DE JESUS            2016030801    010                                07405470081PELICANO                      CASA 03      68JARDIM PINHEIRO
03049138120240870050453405345222360520240820003160302060049700202902613922M350390G804008     101             BPIDAVI MOTA DE JESUS            2016030801    010                                07405470081PELICANO                      CASA 03      68JARDIM PINHEIRO
03049138120240870050453405345222360520240827003170302060049700202902613922M350390G804008     101             BPIDAVI MOTA DE JESUS            2016030801    010                                07405470081PELICANO                      CASA 03      68JARDIM PINHEIRO
03049138120240870050453405345222360520240806003180302060049708904756630113M350390G804009     101             BPIGABRIEL DAVI SOUZA BARROS     2015020601    010                                07404090081SERRA DO JAIRE                CS4         315MIRANTE DO ARUJ               11 46558284
03049138120240870050453405345222360520240813003190302060049708904756630113M350390G804009     101             BPIGABRIEL DAVI SOUZA BARROS     2015020601    010                                07404090081SERRA DO JAIRE                CS4         315MIRANTE DO ARUJ               11 46558284
03049138120240870050453405345222360520240820003200302060049708904756630113M350390G804009     101             BPIGABRIEL DAVI SOUZA BARROS     2015020601    010                                07404090081SERRA DO JAIRE                CS4         315MIRANTE DO ARUJ               11 46558284
03049138120240870050453405345222360520240801004010302060049700402404310640M350390G804009     101             BPIGABRIEL FERNANDES GONTAN      2015050803    010                                07403000008HANS OSSAMU SUZUKI                        220ARUJAMRICA                    11 46550954
03049138120240870050453405345222360520240822004020302060049700402404310640M350390G804009     101             BPIGABRIEL FERNANDES GONTAN      2015050803    010                                07403000008HANS OSSAMU SUZUKI                        220ARUJAMRICA                    11 46550954
03049138120240870050453405345222360520240806004030302060049706906106273834M350390G804011     101             BPIGUSTAVO PEDRO DE JESUS HONORIO2013080401    010                                07411155008Santa Terezinha                           555Jordanpolis
03049138120240870050453405345222360520240813004040302060049706906106273834M350390G804011     101             BPIGUSTAVO PEDRO DE JESUS HONORIO2013080401    010                                07411155008Santa Terezinha                           555Jordanpolis
03049138120240870050453405345222360520240820004050302060049706906106273834M350390G804011     101             BPIGUSTAVO PEDRO DE JESUS HONORIO2013080401    010                                07411155008Santa Terezinha                           555Jordanpolis
03049138120240870050453405345222360520240827004060302060049706906106273834M350390G804011     101             BPIGUSTAVO PEDRO DE JESUS HONORIO2013080401    010                                07411155008Santa Terezinha                           555Jordanpolis
03049138120240870050453405345222360520240801004070302060049702401032630725M350390G804010     101             BPIHENRIQUE ALMEIDA SILVA        2014031401    010                                07400970081LUIZ GONZAGA COLANGELO NOBREGA            525PARQUE RODRIGO BARRETO        11 37545224
03049138120240870050453405345222360520240808004080302060049702401032630725M350390G804010     101             BPIHENRIQUE ALMEIDA SILVA        2014031401    010                                07400970081LUIZ GONZAGA COLANGELO NOBREGA            525PARQUE RODRIGO BARRETO        11 37545224
03049138120240870050453405345222360520240815004090302060049702401032630725M350390G804010     101             BPIHENRIQUE ALMEIDA SILVA        2014031401    010                                07400970081LUIZ GONZAGA COLANGELO NOBREGA            525PARQUE RODRIGO BARRETO        11 37545224
03049138120240870050453405345222360520240822004100302060049702401032630725M350390G804010     101             BPIHENRIQUE ALMEIDA SILVA        2014031401    010                                07400970081LUIZ GONZAGA COLANGELO NOBREGA            525PARQUE RODRIGO BARRETO        11 37545224
03049138120240870050453405345222360520240829004110302060049702401032630725M350390G804010     101             BPIHENRIQUE ALMEIDA SILVA        2014031401    010                                07400970081LUIZ GONZAGA COLANGELO NOBREGA            525PARQUE RODRIGO BARRETO        11 37545224
03049138120240870050453405345222360520240801004120302060049700607493571960M350390G804008     101             BPIHENRIQUE MOREIRA DA MOTTA     2016081303    010                                07400970081A                                            Centro
03049138120240870050453405345222360520240808004130302060049700607493571960M350390G804008     101             BPIHENRIQUE MOREIRA DA MOTTA     2016081303    010                                07400970081A                                            Centro
03049138120240870050453405345222360520240815004140302060049700607493571960M350390G804008     101             BPIHENRIQUE MOREIRA DA MOTTA     2016081303    010                                07400970081A                                            Centro
03049138120240870050453405345222360520240829004150302060049700607493571960M350390G804008     101             BPIHENRIQUE MOREIRA DA MOTTA     2016081303    010                                07400970081A                                            Centro
03049138120240870050453405345222360520240801004160302060049705003094227452M350390G804004     101             BPIHUGO HENRIQUE DE PETTA ANTUNES2020022901    010                                07405445081ANDORINHA                     A            63JARDIM PINHEIRO
03049138120240870050453405345222360520240808004170302060049705003094227452M350390G804004     101             BPIHUGO HENRIQUE DE PETTA ANTUNES2020022901    010                                07405445081ANDORINHA                     A            63JARDIM PINHEIRO
03049138120240870050453405345222360520240815004180302060049705003094227452M350390G804004     101             BPIHUGO HENRIQUE DE PETTA ANTUNES2020022901    010                                07405445081ANDORINHA                     A            63JARDIM PINHEIRO
03049138120240870050453405345222360520240822004190302060049705003094227452M350390G804004     101             BPIHUGO HENRIQUE DE PETTA ANTUNES2020022901    010                                07405445081ANDORINHA                     A            63JARDIM PINHEIRO
03049138120240870050453405345222360520240829004200302060049705003094227452M350390G804004     101             BPIHUGO HENRIQUE DE PETTA ANTUNES2020022901    010                                07405445081ANDORINHA                     A            63JARDIM PINHEIRO
03049138120240870050453405345222360520240801005010302060049700403970687048M350390G804016     101             BPIIAGO RAFIK VIANA DOS SANTOS   2007101204    010                                07404090081SERRA DO JAIRE                            395PEDREIRA                      11993464084
03049138120240870050453405345222360520240808005020302060049700403970687048M350390G804016     101             BPIIAGO RAFIK VIANA DOS SANTOS   2007101204    010                                07404090081SERRA DO JAIRE                            395PEDREIRA                      11993464084
03049138120240870050453405345222360520240815005030302060049700403970687048M350390G804016     101             BPIIAGO RAFIK VIANA DOS SANTOS   2007101204    010                                07404090081SERRA DO JAIRE                            395PEDREIRA                      11993464084
03049138120240870050453405345222360520240829005040302060049700403970687048M350390G804016     101             BPIIAGO RAFIK VIANA DOS SANTOS   2007101204    010                                07404090081SERRA DO JAIRE                            395PEDREIRA                      11993464084
03049138120240870050453405345222360520240813005050302060049704801024804348F350390G804010     101             BPIISABEL SOUSA FONSECA          2014080801    010                                07417565081Jose Barbosa de Souza                      15Parque Rodrigo Barreto
03049138120240870050453405345222360520240827005060302060049704801024804348F350390G804010     101             BPIISABEL SOUSA FONSECA          2014080801    010                                07417565081Jose Barbosa de Souza                      15Parque Rodrigo Barreto
03049138120240870050453405345222360520240813005070302060049700206991639330F350390G804009     101             BPIISABELLA VITORIA ALVES SOARES 2014111201    010                                07403105081JOO LEITE DE CAMARGO                      184ARUJAMRICA
03049138120240870050453405345222360520240820005080302060049700206991639330F350390G804009     101             BPIISABELLA VITORIA ALVES SOARES 2014111201    010                                07403105081JOO LEITE DE CAMARGO                      184ARUJAMRICA
03049138120240870050453405345222360520240806005090302060049708607048327582F350390G804007     101             BPIISADORA GUEDES BORGES         2017060303    010                                07417485081IRACI SOUZA DA ROCHA                       75PARQUE RODRIGO BARRETO        11 46552787
03049138120240870050453405345222360520240813005100302060049708607048327582F350390G804007     101             BPIISADORA GUEDES BORGES         2017060303    010                                07417485081IRACI SOUZA DA ROCHA                       75PARQUE RODRIGO BARRETO        11 46552787
03049138120240870050453405345222360520240820005110302060049708607048327582F350390G804007     101             BPIISADORA GUEDES BORGES         2017060303    010                                07417485081IRACI SOUZA DA ROCHA                       75PARQUE RODRIGO BARRETO        11 46552787
03049138120240870050453405345222360520240827005120302060049708607048327582F350390G804007     101             BPIISADORA GUEDES BORGES         2017060303    010                                07417485081IRACI SOUZA DA ROCHA                       75PARQUE RODRIGO BARRETO        11 46552787
03049138120240870050453405345222360520240801005130302060049700802480068088M350390G804009     101             BPIISAQUE SABINO SOARES          2015043003    010                                07400380081CARACAS                       CASA 2      250CENTRO
03049138120240870050453405345222360520240808005140302060049700802480068088M350390G804009     101             BPIISAQUE SABINO SOARES          2015043003    010                                07400380081CARACAS                       CASA 2      250CENTRO
03049138120240870050453405345222360520240815005150302060049700802480068088M350390G804009     101             BPIISAQUE SABINO SOARES          2015043003    010                                07400380081CARACAS                       CASA 2      250CENTRO
03049138120240870050453405345222360520240822005160302060049700802480068088M350390G804009     101             BPIISAQUE SABINO SOARES          2015043003    010                                07400380081CARACAS                       CASA 2      250CENTRO
03049138120240870050453405345222360520240829005170302060049700802480068088M350390G804009     101             BPIISAQUE SABINO SOARES          2015043003    010                                07400380081CARACAS                       CASA 2      250CENTRO
03049138120240870050453405345222360520240806005180302060049705601486775713M350390G804005     101             BPIJOAQUIM FERREIRA ANTUNES DOS S2019011201    010                                07411390004DAS ROSAS                                 753CIDADE NOVA ARUJA             11956777705
03049138120240870050453405345222360520240813005190302060049705601486775713M350390G804005     101             BPIJOAQUIM FERREIRA ANTUNES DOS S2019011201    010                                07411390004DAS ROSAS                                 753CIDADE NOVA ARUJA             11956777705
03049138120240870050453405345222360520240820005200302060049705601486775713M350390G804005     101             BPIJOAQUIM FERREIRA ANTUNES DOS S2019011201    010                                07411390004DAS ROSAS                                 753CIDADE NOVA ARUJA             11956777705
03049138120240870050453405345222360520240822006010302060049700501149178558M350390G804013     101             BPIJOSE DAVI DE JESUS DA SILVA   2011022503    010                                07417455081Padre Atlio Garrone           Casa 1      336Parque Rodrigo Barreto        11 37541592
03049138120240870050453405345222360520240801006020302060049704105194737072M350390G804007     101             BPIKAUAN PINOTI SILVA CARVALHO   2017091801    010                                07411215081LUIZ                                      110JORDANPOLIS
03049138120240870050453405345222360520240815006030302060049704105194737072M350390G804007     101             BPIKAUAN PINOTI SILVA CARVALHO   2017091801    010                                07411215081LUIZ                                      110JORDANPOLIS
03049138120240870050453405345222360520240822006040302060049704105194737072M350390G804007     101             BPIKAUAN PINOTI SILVA CARVALHO   2017091801    010                                07411215081LUIZ                                      110JORDANPOLIS
03049138120240870050453405345222360520240829006050302060049704105194737072M350390G804007     101             BPIKAUAN PINOTI SILVA CARVALHO   2017091801    010                                07411215081LUIZ                                      110JORDANPOLIS
03049138120240870050453405345222360520240801006060302060049708406711778169M350390G804007     101             BPIKAUE PESQUEIRA LOURENCO DA SIL2017012503    010                                07432445081PITANGUEIRAS                  CASA B      211RECANTO PRIMAVERA
03049138120240870050453405345222360520240808006070302060049708406711778169M350390G804007     101             BPIKAUE PESQUEIRA LOURENCO DA SIL2017012503    010                                07432445081PITANGUEIRAS                  CASA B      211RECANTO PRIMAVERA
03049138120240870050453405345222360520240815006080302060049708406711778169M350390G804007     101             BPIKAUE PESQUEIRA LOURENCO DA SIL2017012503    010                                07432445081PITANGUEIRAS                  CASA B      211RECANTO PRIMAVERA
03049138120240870050453405345222360520240822006090302060049708406711778169M350390G804007     101             BPIKAUE PESQUEIRA LOURENCO DA SIL2017012503    010                                07432445081PITANGUEIRAS                  CASA B      211RECANTO PRIMAVERA
03049138120240870050453405345222360520240801006100302060049708200168857241M350390G804018     101             BPIKLAYVERTT BELO MOITINHO       2005112801    010                                07400970008GEORGETONE                                 16JD RINCAO
03049138120240870050453405345222360520240808006110302060049708200168857241M350390G804018     101             BPIKLAYVERTT BELO MOITINHO       2005112801    010                                07400970008GEORGETONE                                 16JD RINCAO
03049138120240870050453405345222360520240815006120302060049708200168857241M350390G804018     101             BPIKLAYVERTT BELO MOITINHO       2005112801    010                                07400970008GEORGETONE                                 16JD RINCAO
03049138120240870050453405345222360520240822006130302060049708200168857241M350390G804018     101             BPIKLAYVERTT BELO MOITINHO       2005112801    010                                07400970008GEORGETONE                                 16JD RINCAO
03049138120240870050453405345222360520240829006140302060049708200168857241M350390G804018     101             BPIKLAYVERTT BELO MOITINHO       2005112801    010                                07400970008GEORGETONE                                 16JD RINCAO
03049138120240870050453405345222360520240808006150302060049708000839197225M350390G804014     101             BPILUAN COSTA MARQUES            2010080503    010                                07405425081ROUXINOL                                   86JARDIM PINHEIRO               11 46533690
03049138120240870050453405345222360520240806006160302060049706403624093789M350390G804008     101             BPILUCAS CARDOZO DOS SANTOS      2015121501    010                                07428315081RUBELITA                                  155JARDIM FAZENDA RINCO          11 46525079
03049138120240870050453405345222360520240813006170302060049706403624093789M350390G804008     101             BPILUCAS CARDOZO DOS SANTOS      2015121501    010                                07428315081RUBELITA                                  155JARDIM FAZENDA RINCO          11 46525079
03049138120240870050453405345222360520240820006180302060049706403624093789M350390G804008     101             BPILUCAS CARDOZO DOS SANTOS      2015121501    010                                07428315081RUBELITA                                  155JARDIM FAZENDA RINCO          11 46525079
03049138120240870050453405345222360520240827006190302060049706403624093789M350390G804008     101             BPILUCAS CARDOZO DOS SANTOS      2015121501    010                                07428315081RUBELITA                                  155JARDIM FAZENDA RINCO          11 46525079
03049138120240870050453405345222360520240822006200302060049705001225714554M350390G804020     101             BPILUCAS CORTICEIRO SANTOS       2004072004    010                                07417590081Pedro Jos de Morais                        32Parque Rodrigo Barreto
03049138120240870050453405345222360520240829007010302060049705001225714554M350390G804020     101             BPILUCAS CORTICEIRO SANTOS       2004072004    010                                07417590081Pedro Jos de Morais                        32Parque Rodrigo Barreto
03049138120240870050453405345222360520240806007020302060049706708783728020M350390G804014     101             BPIMATHEUS HENDERSON CALHEIRO GOM2009123003    010                                07434130081DOS LIMOEIROS                              75JARDIM LIMOEIRO
03049138120240870050453405345222360520240813007030302060049706708783728020M350390G804014     101             BPIMATHEUS HENDERSON CALHEIRO GOM2009123003    010                                07434130081DOS LIMOEIROS                              75JARDIM LIMOEIRO
03049138120240870050453405345222360520240820007040302060049706708783728020M350390G804014     101             BPIMATHEUS HENDERSON CALHEIRO GOM2009123003    010                                07434130081DOS LIMOEIROS                              75JARDIM LIMOEIRO
03049138120240870050453405345222360520240801007050302060049708603521580584M350390G804015     101             BPIMATHEUS LIMA DOS SANTOS       2008101201    010                                07400970081DADY                          CASA 2      165JARDIM EMILIA
03049138120240870050453405345222360520240808007060302060049708603521580584M350390G804015     101             BPIMATHEUS LIMA DOS SANTOS       2008101201    010                                07400970081DADY                          CASA 2      165JARDIM EMILIA
03049138120240870050453405345222360520240815007070302060049708603521580584M350390G804015     101             BPIMATHEUS LIMA DOS SANTOS       2008101201    010                                07400970081DADY                          CASA 2      165JARDIM EMILIA
03049138120240870050453405345222360520240822007080302060049708603521580584M350390G804015     101             BPIMATHEUS LIMA DOS SANTOS       2008101201    010                                07400970081DADY                          CASA 2      165JARDIM EMILIA
03049138120240870050453405345222360520240829007090302060049708603521580584M350390G804015     101             BPIMATHEUS LIMA DOS SANTOS       2008101201    010                                07400970081DADY                          CASA 2      165JARDIM EMILIA
03049138120240870050453405345222360520240806007100302060049708106526577031M350390G804008     101             BPIMATHEUS PAULO LEITE DA SILVA  2016051203    010                                07405445081ANDORINHA                     L 5         364JARDIM PINHEIRO               11912861623
03049138120240870050453405345222360520240813007110302060049708106526577031M350390G804008     101             BPIMATHEUS PAULO LEITE DA SILVA  2016051203    010                                07405445081ANDORINHA                     L 5         364JARDIM PINHEIRO               11912861623
03049138120240870050453405345222360520240820007120302060049708106526577031M350390G804008     101             BPIMATHEUS PAULO LEITE DA SILVA  2016051203    010                                07405445081ANDORINHA                     L 5         364JARDIM PINHEIRO               11912861623
03049138120240870050453405345222360520240827007130302060049708106526577031M350390G804008     101             BPIMATHEUS PAULO LEITE DA SILVA  2016051203    010                                07405445081ANDORINHA                     L 5         364JARDIM PINHEIRO               11912861623
03049138120240870050453405345222360520240801007140302060049703408226916815M350390G804010     101             BPIMIGUEL PONCIANO SOARES        2013112201    010                                07407040008Airton dos Santos Heras GalvezCasa 24     120Jardim Santo Antonio
03049138120240870050453405345222360520240808007150302060049703408226916815M350390G804010     101             BPIMIGUEL PONCIANO SOARES        2013112201    010                                07407040008Airton dos Santos Heras GalvezCasa 24     120Jardim Santo Antonio
03049138120240870050453405345222360520240829007160302060049703408226916815M350390G804010     101             BPIMIGUEL PONCIANO SOARES        2013112201    010                                07407040008Airton dos Santos Heras GalvezCasa 24     120Jardim Santo Antonio
03049138120240870050453405345222360520240827007170302060049702909551787571M353060G804007     101             BPIMURILO DE SOUZA RAMPAZI       2016122601    010                                08740540081PREFEITO JOSE DE MELO FRANCO              195JARDIM UNIVERSO
03049138120240870050453405345222360520240808007180302060049701203002931919F350390G804015     101             BPINATALIA SILVA SANTOS DO NASCIM2009021803    010                                07412010008P.l. do Brasil                              5Porto
03049138120240870050453405345222360520240815007190302060049701203002931919F350390G804015     101             BPINATALIA SILVA SANTOS DO NASCIM2009021803    010                                07412010008P.l. do Brasil                              5Porto
03049138120240870050453405345222360520240822007200302060049701203002931919F350390G804015     101             BPINATALIA SILVA SANTOS DO NASCIM2009021803    010                                07412010008P.l. do Brasil                              5Porto
03049138120240870050453405345222360520240829008010302060049701203002931919F350390G804015     101             BPINATALIA SILVA SANTOS DO NASCIM2009021803    010                                07412010008P.l. do Brasil                              5Porto
03049138120240870050453405345222360520240801008020302060049700503147078256M350390G804007     101             BPIOSCAR BARUC TAVARES DE JESUS  2017081803    010                                07401110081NANCI ARAKI                                85ARUJA CENTER VILLE            11980798292
03049138120240870050453405345222360520240808008030302060049700503147078256M350390G804007     101             BPIOSCAR BARUC TAVARES DE JESUS  2017081803    010                                07401110081NANCI ARAKI                                85ARUJA CENTER VILLE            11980798292
03049138120240870050453405345222360520240815008040302060049700503147078256M350390G804007     101             BPIOSCAR BARUC TAVARES DE JESUS  2017081803    010                                07401110081NANCI ARAKI                                85ARUJA CENTER VILLE            11980798292
03049138120240870050453405345222360520240822008050302060049700503147078256M350390G804007     101             BPIOSCAR BARUC TAVARES DE JESUS  2017081803    010                                07401110081NANCI ARAKI                                85ARUJA CENTER VILLE            11980798292
03049138120240870050453405345222360520240829008060302060049700503147078256M350390G804007     101             BPIOSCAR BARUC TAVARES DE JESUS  2017081803    010                                07401110081NANCI ARAKI                                85ARUJA CENTER VILLE            11980798292
03049138120240870050453405345222360520240806008070302060049708006887642328M350390G804005     101             BPIPAULO HENRIQUE SILVA LEITE    2019031201    010                                07417380081JOS SEVERINO FILHO            CASA 1      120PARQUE RODRIGO BARRETO        11 46531574
03049138120240870050453405345222360520240813008080302060049708006887642328M350390G804005     101             BPIPAULO HENRIQUE SILVA LEITE    2019031201    010                                07417380081JOS SEVERINO FILHO            CASA 1      120PARQUE RODRIGO BARRETO        11 46531574
03049138120240870050453405345222360520240820008090302060049708006887642328M350390G804005     101             BPIPAULO HENRIQUE SILVA LEITE    2019031201    010                                07417380081JOS SEVERINO FILHO            CASA 1      120PARQUE RODRIGO BARRETO        11 46531574
03049138120240870050453405345222360520240806008100302060049704202761323381M350390G804014     101             BPIRENATO RODRIGUES SANTOS       2010020401    010                                07400795081Benjamin de Jesus Rodrigues   Viela       739Aruj Centro Residencial       11965745780
03049138120240870050453405345222360520240813008110302060049704202761323381M350390G804014     101             BPIRENATO RODRIGUES SANTOS       2010020401    010                                07400795081Benjamin de Jesus Rodrigues   Viela       739Aruj Centro Residencial       11965745780
03049138120240870050453405345222360520240827008120302060049704202761323381M350390G804014     101             BPIRENATO RODRIGUES SANTOS       2010020401    010                                07400795081Benjamin de Jesus Rodrigues   Viela       739Aruj Centro Residencial       11965745780
03049138120240870050453405345222360520240801008130302060049704708700913538M350390G804008     101             BPIRICARDO MIGUEL JUNIOR APARECID2016011001    010                                07405440081Tuim                          A           180Jardim Pinheiro
03049138120240870050453405345222360520240808008140302060049704708700913538M350390G804008     101             BPIRICARDO MIGUEL JUNIOR APARECID2016011001    010                                07405440081Tuim                          A           180Jardim Pinheiro
03049138120240870050453405345222360520240815008150302060049704708700913538M350390G804008     101             BPIRICARDO MIGUEL JUNIOR APARECID2016011001    010                                07405440081Tuim                          A           180Jardim Pinheiro
03049138120240870050453405345222360520240822008160302060049704708700913538M350390G804008     101             BPIRICARDO MIGUEL JUNIOR APARECID2016011001    010                                07405440081Tuim                          A           180Jardim Pinheiro
03049138120240870050453405345222360520240829008170302060049704708700913538M350390G804008     101             BPIRICARDO MIGUEL JUNIOR APARECID2016011001    010                                07405440081Tuim                          A           180Jardim Pinheiro
03049138120240870050453405345222360520240806008180302060049704101245579580M350390G804004     101             BPITHEO ROCHA MACEDO             2020072301    010                                07417265008Railda Alves de Oliveira                  841Parque Rodrigo Barreto
03049138120240870050453405345222360520240813008190302060049704101245579580M350390G804004     101             BPITHEO ROCHA MACEDO             2020072301    010                                07417265008Railda Alves de Oliveira                  841Parque Rodrigo Barreto
03049138120240870050453405345222360520240820008200302060049704101245579580M350390G804004     101             BPITHEO ROCHA MACEDO             2020072301    010                                07417265008Railda Alves de Oliveira                  841Parque Rodrigo Barreto
03049138120240870050453405345222360520240813009010302060049700005631673708F350390G804007     101             BPIYASMIN CREUSA DE MOURA SILVA  2017040901    010                                07400370081La Paz                        Casa 1      114Jardim Rinco                  11 46512002
03049138120240870050453405345222360520240820009020302060049700005631673708F350390G804007     101             BPIYASMIN CREUSA DE MOURA SILVA  2017040901    010                                07400370081La Paz                        Casa 1      114Jardim Rinco                  11 46512002
03456570320240870180826179057122360520240813001010302010025702508377217232F350390N319066     101             BPIANA MARIA RODRIGUES           1957111701    010                                07401000081Juventina Maiolino Sanches                 90Parque Judith                 11974910390
03456570320240870180826179057122360520240827001020302010025702508377217232F350390N319066     101             BPIANA MARIA RODRIGUES           1957111701    010                                07401000081Juventina Maiolino Sanches                 90Parque Judith                 11974910390
03456570320240870180826179057122360520240820001030302010025700506722398757F350390N319045     101             BPIANDREIA NUNES DA SILVA        1979032503    010                                07432070081Alice                         Casa 01     171Jardim Emlia                  11 46555288
03456570320240870180826179057122360520240807001040302010025706902183476031F350390N319063     101             BPIAPARECIDA DA SILVA PAULA CABRA1960101001    010                                07401770081Justino de Jesus Gomes                    173Vila Pilar                    11 46550930
03456570320240870180826179057122360520240819001050302010025708203663600740F350390N319058     101             BPICLEUZA ALVES DA SILVA BUENO   1966021001    010                                07439090081Grafite                                    28Chcaras Copaco
03456570320240870180826179057122360520240816001060302010025704103853271150M350390N319066     101             BPIDORIVAL SANTOS CONSTANTINO    1958032201    010                                07411390004das Rosas                                 245Cidade Nova Aruja
03456570320240870180826179057122360520240812001070302010025704604679795028F350390N319062     101             BPIJULIA BARBOSA MOREIRA         1962070201    010                                07417150081GILBERTO MENDES                           466PQ RODRIGO BARRETO            11967433885
03456570320240870180826179057122360520240827001080302010025704604679795028F350390N319062     101             BPIJULIA BARBOSA MOREIRA         1962070201    010                                07417150081GILBERTO MENDES                           466PQ RODRIGO BARRETO            11967433885
03456570320240870180826179057122360520240812001090302010025708205113239141M350390N319070     101             BPIMANOEL GONCALVES DA COSTA     1954021003    010                                07417150081GILBERTO MENDES                           278PARQUE RODRIGO BARRETO        11987839784
03456570320240870180826179057122360520240827001100302010025708205113239141M350390N319070     101             BPIMANOEL GONCALVES DA COSTA     1954021003    010                                07417150081GILBERTO MENDES                           278PARQUE RODRIGO BARRETO        11987839784
03456570320240870180826179057122360520240826001110302010025703109804162960F350390N319025     101             BPIMARCELA APARECIDA CUNHA DA SIL1999071301    010                                07417505081Giuseppe Antonio Maiolino     Casa B      657Parque Rodrigo Barreto
03456570320240870180826179057122360520240830001120302010025706708541140811F350390N319076     101             BPIMARINA CORREIA BAHIA          1948071701    010                                07417195081Rogerio de Andrade Santos                    Parque Rodrigo Barreto
03456570320240870180826179057122360520240830001130302010025708607025130588F350390N319049     101             BPIRITA DE CASSIA PETERNELA DE BR1975032101    010                                07401705081Guido Reginato                            128Vila Pilar
03456570320240870180826179057122360520240809001140302010025703007891073871F350390N319046     101             BPIROSENILDA ALVES DA ROCHA      1978021601    010                                07417400081Prestes Maia                              285Parque Rodrigo Barreto
03456570320240870180826179057122360520240827001150302010025703007891073871F350390N319046     101             BPIROSENILDA ALVES DA ROCHA      1978021601    010                                07417400081Prestes Maia                              285Parque Rodrigo Barreto
03456570320240870180826179057122360520240829001160302010025703007891073871F350390N319046     101             BPIROSENILDA ALVES DA ROCHA      1978021601    010                                07417400081Prestes Maia                              285Parque Rodrigo Barreto
03456570320240870740305290437822360520240828001170302010025702508377217232F350390N319066     101             BPIANA MARIA RODRIGUES           1957111701    010                                07401000081Juventina Maiolino Sanches                 90Parque Judith                 11974910390
03456570320240870740305290437822360520240812001180302010025706902183476031F350390N319063     101             BPIAPARECIDA DA SILVA PAULA CABRA1960101001    010                                07401770081Justino de Jesus Gomes                    173Vila Pilar                    11 46550930
03456570320240870740305290437822360520240814001190302010025706902183476031F350390N319063     101             BPIAPARECIDA DA SILVA PAULA CABRA1960101001    010                                07401770081Justino de Jesus Gomes                    173Vila Pilar                    11 46550930
03456570320240870740305290437822360520240819001200302010025706902183476031F350390N319063     101             BPIAPARECIDA DA SILVA PAULA CABRA1960101001    010                                07401770081Justino de Jesus Gomes                    173Vila Pilar                    11 46550930
03456570320240870740305290437822360520240826002010302010025704604679795028F350390N319062     101             BPIJULIA BARBOSA MOREIRA         1962070201    010                                07417150081GILBERTO MENDES                           466PQ RODRIGO BARRETO            11967433885
03456570320240870740305290437822360520240828002020302010025708205113239141M350390N319070     101             BPIMANOEL GONCALVES DA COSTA     1954021003    010                                07417150081GILBERTO MENDES                           278PARQUE RODRIGO BARRETO        11987839784
03456570320240870740305290437822360520240820002030302010025706708541140811F350390N319076     101             BPIMARINA CORREIA BAHIA          1948071701    010                                07417195081Rogerio de Andrade Santos                    Parque Rodrigo Barreto
03456570320240870740305290437822360520240822002040302010025706708541140811F350390N319076     101             BPIMARINA CORREIA BAHIA          1948071701    010                                07417195081Rogerio de Andrade Santos                    Parque Rodrigo Barreto
03456570320240870740305290437822360520240830002050302010025706201587605467F350390N319054     101             BPIMIRIAM GOMES SANTANA CAPPONI  1970090902    010                                07417465081Antonia Manoel Fernandes                  215Parque Rodrigo Barreto        11932735436
03456570320240870740305290437822360520240820002060302010025703007891073871F350390N319046     101             BPIROSENILDA ALVES DA ROCHA      1978021601    010                                07417400081Prestes Maia                              285Parque Rodrigo Barreto
03456570320240870740305290437822360520240822002070302010025703007891073871F350390N319046     101             BPIROSENILDA ALVES DA ROCHA      1978021601    010                                07417400081Prestes Maia                              285Parque Rodrigo Barreto
03456570320240870180826179057122360520240819002080302040021708603590966984F350390J998066     101             BPICECILIA MARIA DE OLIVEIRA     1958050901    010                                07405435081JOAO DE BARRO                 B           214JARDIM PINHEIRO               11 46532644
03456570320240870180826179057122360520240802002090302040021706006307178241M350390J998070     101             BPIROBERTO BRESSER KULIKOFF      1954040801    010                                07401075008Armando Colangelo                         586Aruj Center Ville
03456570320240870180826179057122360520240809002100302040021706006307178241M350390J998070     101             BPIROBERTO BRESSER KULIKOFF      1954040801    010                                07401075008Armando Colangelo                         586Aruj Center Ville
03456570320240870180826179057122360520240828002110302040021706006307178241M350390J998070     101             BPIROBERTO BRESSER KULIKOFF      1954040801    010                                07401075008Armando Colangelo                         586Aruj Center Ville
03456570320240870180826179057122360520240830002120302040021706006307178241M350390J998070     101             BPIROBERTO BRESSER KULIKOFF      1954040801    010                                07401075008Armando Colangelo                         586Aruj Center Ville
03456570320240870180826179057122360520240809002130302040021700500556908252M350390J998000     101             BPISAMUEL BENEDITO MIRANDA BUENO 2023102701    010                                07405400081TUM                                       211JARDIM PINHEIRO
03456570320240870180826179057122360520240816002140302040021700500556908252M350390J998000     101             BPISAMUEL BENEDITO MIRANDA BUENO 2023102701    010                                07405400081TUM                                       211JARDIM PINHEIRO
03456570320240870180826179057122360520240821002150302040021700500556908252M350390J998000     101             BPISAMUEL BENEDITO MIRANDA BUENO 2023102701    010                                07405400081TUM                                       211JARDIM PINHEIRO
03456570320240870180826179057122360520240823002160302040021700500556908252M350390J998000     101             BPISAMUEL BENEDITO MIRANDA BUENO 2023102701    010                                07405400081TUM                                       211JARDIM PINHEIRO
03456570320240870180826179057122360520240830002170302040021700500556908252M350390J998000     101             BPISAMUEL BENEDITO MIRANDA BUENO 2023102701    010                                07405400081TUM                                       211JARDIM PINHEIRO
03456570320240870740305290437822360520240802002180302040021700500556908252M350390J998000     101             BPISAMUEL BENEDITO MIRANDA BUENO 2023102701    010                                07405400081TUM                                       211JARDIM PINHEIRO
03456570320240870740305290437822360520240813002190302040021700500556908252M350390J998000     101             BPISAMUEL BENEDITO MIRANDA BUENO 2023102701    010                                07405400081TUM                                       211JARDIM PINHEIRO
03456570320240870740305290437822360520240826002200302040021700500556908252M350390J998000     101             BPISAMUEL BENEDITO MIRANDA BUENO 2023102701    010                                07405400081TUM                                       211JARDIM PINHEIRO
03456570320240870180826179057122360520240820003010302040030708707104263997F350390Q048071     101             BPILUCIA HELENA ROSSI CARLETTI DA1953020801    010                                07499899472RURAL                         ESTRADA SA  100AREA RURAL DE ARUJA           11 46542594
03456570320240870740305290437822360520240802003020302040030707807698875010F350390Q048071     101             BPILUCIA HELENA ROSSI CARLETTI DA1953020801    010                                07499899472RURAL                         SAO BENTO      AREA RURAL DE ARUJA           11 46542594
03456570320240870740305290437822360520240822003030302040030708707104263997F350390Q048071     101             BPILUCIA HELENA ROSSI CARLETTI DA1953020801    010                                07499899472RURAL                         ESTRADA SA  100AREA RURAL DE ARUJA           11 46542594
03456570320240870740305290437822360520240827003040302040030708707104263997F350390Q048071     101             BPILUCIA HELENA ROSSI CARLETTI DA1953020801    010                                07499899472RURAL                         ESTRADA SA  100AREA RURAL DE ARUJA           11 46542594
03456570320240870740305290437822360520240829003050302040030708707104263997F350390Q048071     101             BPILUCIA HELENA ROSSI CARLETTI DA1953020801    010                                07499899472RURAL                         ESTRADA SA  100AREA RURAL DE ARUJA           11 46542594
03456570320240870180826179057122360520240823003060302050019700507909328257M350390T932065     101             BPIALCIDES FERREIRA SAGA         1959072401    010                                07405400081Tum                                        70Jardim Pinheiro
03456570320240870180826179057122360520240801003070302050019700407900308440F350390T932041     101             BPIALESSANDRA NASCIMENTO DOS SANT1983042703    010                                07417475081Manoel Joao de Souza                      103Parque Rodrigo Barreto        11 46555022
03456570320240870180826179057122360520240808003080302050019700407900308440F350390T932041     101             BPIALESSANDRA NASCIMENTO DOS SANT1983042703    010                                07417475081Manoel Joao de Souza                      103Parque Rodrigo Barreto        11 46555022
03456570320240870180826179057122360520240809003090302050019700407900308440F350390T932041     101             BPIALESSANDRA NASCIMENTO DOS SANT1983042703    010                                07417475081Manoel Joao de Souza                      103Parque Rodrigo Barreto        11 46555022
03456570320240870180826179057122360520240815003100302050019700407900308440F350390T932041     101             BPIALESSANDRA NASCIMENTO DOS SANT1983042703    010                                07417475081Manoel Joao de Souza                      103Parque Rodrigo Barreto        11 46555022
03456570320240870180826179057122360520240816003110302050019700407900308440F350390T932041     101             BPIALESSANDRA NASCIMENTO DOS SANT1983042703    010                                07417475081Manoel Joao de Souza                      103Parque Rodrigo Barreto        11 46555022
03456570320240870180826179057122360520240822003120302050019700407900308440F350390T932041     101             BPIALESSANDRA NASCIMENTO DOS SANT1983042703    010                                07417475081Manoel Joao de Souza                      103Parque Rodrigo Barreto        11 46555022
03456570320240870180826179057122360520240830003130302050019700407900308440F350390T932041     101             BPIALESSANDRA NASCIMENTO DOS SANT1983042703    010                                07417475081Manoel Joao de Souza                      103Parque Rodrigo Barreto        11 46555022
03456570320240870180826179057122360520240801003140302050019700409939935146F350390T932019     101             BPIALYSSA THAYANE DE LIMA SANTOS 2004101101    010                                07401330081PRESTES MAIA 1/99999                       63VILA RIMAN                    11948512163
03456570320240870180826179057122360520240808003150302050019700409939935146F350390T932019     101             BPIALYSSA THAYANE DE LIMA SANTOS 2004101101    010                                07401330081PRESTES MAIA 1/99999                       63VILA RIMAN                    11948512163
03456570320240870180826179057122360520240809003160302050019700409939935146F350390T932019     101             BPIALYSSA THAYANE DE LIMA SANTOS 2004101101    010                                07401330081PRESTES MAIA 1/99999                       63VILA RIMAN                    11948512163
03456570320240870180826179057122360520240813003170302050019700409939935146F350390T932019     101             BPIALYSSA THAYANE DE LIMA SANTOS 2004101101    010                                07401330081PRESTES MAIA 1/99999                       63VILA RIMAN                    11948512163
03456570320240870180826179057122360520240815003180302050019700409939935146F350390T932019     101             BPIALYSSA THAYANE DE LIMA SANTOS 2004101101    010                                07401330081PRESTES MAIA 1/99999                       63VILA RIMAN                    11948512163
03456570320240870180826179057122360520240820003190302050019700409939935146F350390T932019     101             BPIALYSSA THAYANE DE LIMA SANTOS 2004101101    010                                07401330081PRESTES MAIA 1/99999                       63VILA RIMAN                    11948512163
03456570320240870180826179057122360520240822003200302050019700409939935146F350390T932019     101             BPIALYSSA THAYANE DE LIMA SANTOS 2004101101    010                                07401330081PRESTES MAIA 1/99999                       63VILA RIMAN                    11948512163
03456570320240870180826179057122360520240801004010302050019708209121730448F350390T932047     101             BPIANA CRISTINA PEREIRA DO NASCIM1977011803    010                                07417445081Sada Joo Fernandes                        113Parque Rodrigo Barreto        11911399839
03456570320240870180826179057122360520240808004020302050019708209121730448F350390T932047     101             BPIANA CRISTINA PEREIRA DO NASCIM1977011803    010                                07417445081Sada Joo Fernandes                        113Parque Rodrigo Barreto        11911399839
03456570320240870180826179057122360520240809004030302050019708209121730448F350390T932047     101             BPIANA CRISTINA PEREIRA DO NASCIM1977011803    010                                07417445081Sada Joo Fernandes                        113Parque Rodrigo Barreto        11911399839
03456570320240870180826179057122360520240822004040302050019708209121730448F350390T932047     101             BPIANA CRISTINA PEREIRA DO NASCIM1977011803    010                                07417445081Sada Joo Fernandes                        113Parque Rodrigo Barreto        11911399839
03456570320240870180826179057122360520240823004050302050019708209121730448F350390T932047     101             BPIANA CRISTINA PEREIRA DO NASCIM1977011803    010                                07417445081Sada Joo Fernandes                        113Parque Rodrigo Barreto        11911399839
03456570320240870180826179057122360520240828004060302050019708209121730448F350390T932047     101             BPIANA CRISTINA PEREIRA DO NASCIM1977011803    010                                07417445081Sada Joo Fernandes                        113Parque Rodrigo Barreto        11911399839
03456570320240870180826179057122360520240829004070302050019708209121730448F350390T932047     101             BPIANA CRISTINA PEREIRA DO NASCIM1977011803    010                                07417445081Sada Joo Fernandes                        113Parque Rodrigo Barreto        11911399839
03456570320240870180826179057122360520240830004080302050019708209121730448F350390T932047     101             BPIANA CRISTINA PEREIRA DO NASCIM1977011803    010                                07417445081Sada Joo Fernandes                        113Parque Rodrigo Barreto        11911399839
03456570320240870180826179057122360520240809004090302050019706301753222576F350390T932051     101             BPIANDREIA DA SILVA MARQUES      1973021203    010                                07400240081Marina Loureno                             51Jardim Albino Neves           11 46531259
03456570320240870180826179057122360520240813004100302050019706301753222576F350390T932051     101             BPIANDREIA DA SILVA MARQUES      1973021203    010                                07400240081Marina Loureno                             51Jardim Albino Neves           11 46531259
03456570320240870180826179057122360520240822004110302050019702403519149122F350390T932044     101             BPIANDREIA DE PAULA              1980032101    010                                07407040008AIRTON DOS SANTOS HERAS GALVEZ           1540JARDIM SANTO ANTONIO
03456570320240870180826179057122360520240829004120302050019702403519149122F350390T932044     101             BPIANDREIA DE PAULA              1980032101    010                                07407040008AIRTON DOS SANTOS HERAS GALVEZ           1540JARDIM SANTO ANTONIO
03456570320240870180826179057122360520240813004130302050019708103512049337F350390T932034     101             BPIANGELICA PEREZ SILVA          1990040301    010                                07406385081DOS MILAGRES                  CASA 2        8VILA ARUJ
03456570320240870180826179057122360520240820004140302050019708103512049337F350390T932034     101             BPIANGELICA PEREZ SILVA          1990040301    010                                07406385081DOS MILAGRES                  CASA 2        8VILA ARUJ
03456570320240870180826179057122360520240802004150302050019704501352321419F350390T932049     101             BPIANGELITA DO PRADO DE PAIVA    1974110401    010                                07438630081BENEDITA MARIA DO ESPRITO SAN             125CACHOEIRA
03456570320240870180826179057122360520240807004160302050019704501352321419F350390T932049     101             BPIANGELITA DO PRADO DE PAIVA    1974110401    010                                07438630081BENEDITA MARIA DO ESPRITO SAN             125CACHOEIRA
03456570320240870180826179057122360520240814004170302050019704501352321419F350390T932049     101             BPIANGELITA DO PRADO DE PAIVA    1974110401    010                                07438630081BENEDITA MARIA DO ESPRITO SAN             125CACHOEIRA
03456570320240870180826179057122360520240828004180302050019704501352321419F350390T932049     101             BPIANGELITA DO PRADO DE PAIVA    1974110401    010                                07438630081BENEDITA MARIA DO ESPRITO SAN             125CACHOEIRA
03456570320240870180826179057122360520240830004190302050019704501352321419F350390T932049     101             BPIANGELITA DO PRADO DE PAIVA    1974110401    010                                07438630081BENEDITA MARIA DO ESPRITO SAN             125CACHOEIRA
03456570320240870180826179057122360520240807004200302050019702400037875121M350390T932064     101             BPIANIZIO ALVES DE OLIVEIRA      1959103003    010                                07417340081CLAUDINO GOMES                             60PARQUE RODRIGO BARRETO        11 45692170
03456570320240870180826179057122360520240807005010302050019706300794716475F350390T932060     101             BPIANTONIA MARIA DOS SANTOS SILVA1964041102    010                                07404080081SERRA DA CANASTRA             SEM INFORM  236PEDREIRA                      11 46513878
03456570320240870180826179057122360520240826005020302050019706300794716475F350390T932060     101             BPIANTONIA MARIA DOS SANTOS SILVA1964041102    010                                07404080081SERRA DA CANASTRA             SEM INFORM  236PEDREIRA                      11 46513878
03456570320240870180826179057122360520240815005030302050019706902102959835F350390T932059     101             BPIANTONIA MORAES AMORIM DA SILVA1965041101    010                                07403110081EURPEDES ANTONIO DO CARMO                 138ARUJAMRICA
03456570320240870180826179057122360520240820005040302050019706902102959835F350390T932059     101             BPIANTONIA MORAES AMORIM DA SILVA1965041101    010                                07403110081EURPEDES ANTONIO DO CARMO                 138ARUJAMRICA
03456570320240870180826179057122360520240827005050302050019706902102959835F350390T932059     101             BPIANTONIA MORAES AMORIM DA SILVA1965041101    010                                07403110081EURPEDES ANTONIO DO CARMO                 138ARUJAMRICA
03456570320240870180826179057122360520240802005060302050019701201030860115M350390T932056     101             BPIANTONIO ALVES DA COSTA        1968061803    010                                07402810081BELO HORIZONTE                            180JARDIM REAL
03456570320240870180826179057122360520240815005070302050019701201030860115M350390T932056     101             BPIANTONIO ALVES DA COSTA        1968061803    010                                07402810081BELO HORIZONTE                            180JARDIM REAL
03456570320240870180826179057122360520240821005080302050019701201030860115M350390T932056     101             BPIANTONIO ALVES DA COSTA        1968061803    010                                07402810081BELO HORIZONTE                            180JARDIM REAL
03456570320240870180826179057122360520240822005090302050019701201030860115M350390T932056     101             BPIANTONIO ALVES DA COSTA        1968061803    010                                07402810081BELO HORIZONTE                            180JARDIM REAL
03456570320240870180826179057122360520240828005100302050019701201030860115M350390T932056     101             BPIANTONIO ALVES DA COSTA        1968061803    010                                07402810081BELO HORIZONTE                            180JARDIM REAL
03456570320240870180826179057122360520240829005110302050019701201030860115M350390T932056     101             BPIANTONIO ALVES DA COSTA        1968061803    010                                07402810081BELO HORIZONTE                            180JARDIM REAL
03456570320240870180826179057122360520240801005120302050019700902915143796M350390T932081     101             BPIANTONIO ALVES DE MATOS        1943091001    010                                07443015081Abati                                      95Jardim Josely                 11945686054
03456570320240870180826179057122360520240807005130302050019700902915143796M350390T932081     101             BPIANTONIO ALVES DE MATOS        1943091001    010                                07443015081Abati                                      95Jardim Josely                 11945686054
03456570320240870180826179057122360520240808005140302050019700902915143796M350390T932081     101             BPIANTONIO ALVES DE MATOS        1943091001    010                                07443015081Abati                                      95Jardim Josely                 11945686054
03456570320240870180826179057122360520240814005150302050019700902915143796M350390T932081     101             BPIANTONIO ALVES DE MATOS        1943091001    010                                07443015081Abati                                      95Jardim Josely                 11945686054
03456570320240870180826179057122360520240815005160302050019700902915143796M350390T932081     101             BPIANTONIO ALVES DE MATOS        1943091001    010                                07443015081Abati                                      95Jardim Josely                 11945686054
03456570320240870180826179057122360520240822005170302050019700902915143796M350390T932081     101             BPIANTONIO ALVES DE MATOS        1943091001    010                                07443015081Abati                                      95Jardim Josely                 11945686054
03456570320240870180826179057122360520240828005180302050019700902915143796M350390T932081     101             BPIANTONIO ALVES DE MATOS        1943091001    010                                07443015081Abati                                      95Jardim Josely                 11945686054
03456570320240870180826179057122360520240830005190302050019700902915143796M350390T932081     101             BPIANTONIO ALVES DE MATOS        1943091001    010                                07443015081Abati                                      95Jardim Josely                 11945686054
03456570320240870180826179057122360520240815005200302050019703409237288900M350390T932075     101             BPIANTONIO GOMES                 1948110302    010                                07417355081Raimundo Pedro da Silva                   136Parque Rodrigo Barreto        11989049993
03456570320240870180826179057122360520240827006010302050019703409237288900M350390T932075     101             BPIANTONIO GOMES                 1948110302    010                                07417355081Raimundo Pedro da Silva                   136Parque Rodrigo Barreto        11989049993
03456570320240870180826179057122360520240829006020302050019703409237288900M350390T932075     101             BPIANTONIO GOMES                 1948110302    010                                07417355081Raimundo Pedro da Silva                   136Parque Rodrigo Barreto        11989049993
03456570320240870180826179057122360520240801006030302050019708100578857935M350390T932072     101             BPIANTONIO TOME LOPES            1952061003    010                                07436795081DOS NBREGAS                               140JARDIM SO JORGE
03456570320240870180826179057122360520240808006040302050019708100578857935M350390T932072     101             BPIANTONIO TOME LOPES            1952061003    010                                07436795081DOS NBREGAS                               140JARDIM SO JORGE
03456570320240870180826179057122360520240813006050302050019708100578857935M350390T932072     101             BPIANTONIO TOME LOPES            1952061003    010                                07436795081DOS NBREGAS                               140JARDIM SO JORGE
03456570320240870180826179057122360520240813006060302050019706507322284096M350390T932057     101             BPIAPARECIDO ANTONIO BARSOTIL    1967050601    010                                07406360081Juscelino Kubitschek                       31Vila Aruja
03456570320240870180826179057122360520240827006070302050019700006723320705M350390T932001     101             BPIARTHUR CARDOSO DA SILVA       2023060603    010                                07417195081Rogrio de Andrade Santos                  343Parque Rodrigo Barreto
03456570320240870180826179057122360520240807006080302050019700004302687708M350390T932023     101             BPICARLOS EDUARDO FRANCISCO LIMA 2000110301    010                                07420880031VELHA DO PIRITUBA                         200PIRITUBA
03456570320240870180826179057122360520240808006090302050019700004302687708M350390T932023     101             BPICARLOS EDUARDO FRANCISCO LIMA 2000110301    010                                07420880031VELHA DO PIRITUBA                         200PIRITUBA
03456570320240870180826179057122360520240802006100302050019708105572808732F350390T932040     101             BPICATIA PEREIRA DOS SANTOS      1984052003    010                                07417565081JOS BARBOSA DE SOUZA          A            85PARQUE RODRIGO BARRETO        11987625139
03456570320240870180826179057122360520240807006110302050019708105572808732F350390T932040     101             BPICATIA PEREIRA DOS SANTOS      1984052003    010                                07417565081JOS BARBOSA DE SOUZA          A            85PARQUE RODRIGO BARRETO        11987625139
03456570320240870180826179057122360520240814006120302050019708105572808732F350390T932040     101             BPICATIA PEREIRA DOS SANTOS      1984052003    010                                07417565081JOS BARBOSA DE SOUZA          A            85PARQUE RODRIGO BARRETO        11987625139
03456570320240870180826179057122360520240801006130302050019705200471948377F350390T932056     101             BPICELIA ALVES LIMA              1968020203    010                                07417255081MARIA HELENA DO CARMO MILANDA             276PARQUE RODRIGO BARRETO        11 46553143
03456570320240870180826179057122360520240829006140302050019702802171898767F350390T932070     101             BPICICERA GOMES DO NASCIMENTO    1954081603    010                                07404165031Fernandes                                3135Mirante do Aruj               11 46514065
03456570320240870180826179057122360520240823006150302050019707000831087937M350390T932055     101             BPICIRILO RICARDO DA SILVA       1969020803    010                                07417575081Anadir Coutinho de vila                   811Parque Rodrigo Barreto        11988938849
03456570320240870180826179057122360520240827006160302050019707000831087937M350390T932055     101             BPICIRILO RICARDO DA SILVA       1969020803    010                                07417575081Anadir Coutinho de vila                   811Parque Rodrigo Barreto        11988938849
03456570320240870180826179057122360520240830006170302050019707000831087937M350390T932055     101             BPICIRILO RICARDO DA SILVA       1969020803    010                                07417575081Anadir Coutinho de vila                   811Parque Rodrigo Barreto        11988938849
03456570320240870180826179057122360520240802006180302050019700009882853107F350390T932046     101             BPICLARA MARIA DA SILVA          1978081401    010                                07417555081Benedito Barbosa de Souza                  97Parque Rodrigo Barreto        11970699195
03456570320240870180826179057122360520240823006190302050019709000883089619M350390T932080     101             BPICLAUCIR FERREIRA GHIRLINZONI  1943100201    010                                07435685081Ibytira                       na           26Arujzinho I, II e III
03456570320240870180826179057122360520240812006200302050019706004346156146M350390T932047     101             BPICLAYTON ESTEVES RAMOS         1977060303    010                                07417445081Sada Joao Fernandes                        51Pirituba                      11 27128789
03456570320240870180826179057122360520240813007010302050019706004346156146M350390T932047     101             BPICLAYTON ESTEVES RAMOS         1977060303    010                                07417445081Sada Joao Fernandes                        51Pirituba                      11 27128789
03456570320240870180826179057122360520240815007020302050019706004346156146M350390T932047     101             BPICLAYTON ESTEVES RAMOS         1977060303    010                                07417445081Sada Joao Fernandes                        51Pirituba                      11 27128789
03456570320240870180826179057122360520240819007030302050019706004346156146M350390T932047     101             BPICLAYTON ESTEVES RAMOS         1977060303    010                                07417445081Sada Joao Fernandes                        51Pirituba                      11 27128789
03456570320240870180826179057122360520240822007040302050019706004346156146M350390T932047     101             BPICLAYTON ESTEVES RAMOS         1977060303    010                                07417445081Sada Joao Fernandes                        51Pirituba                      11 27128789
03456570320240870180826179057122360520240827007050302050019706004346156146M350390T932047     101             BPICLAYTON ESTEVES RAMOS         1977060303    010                                07417445081Sada Joao Fernandes                        51Pirituba                      11 27128789
03456570320240870180826179057122360520240828007060302050019706004346156146M350390T932047     101             BPICLAYTON ESTEVES RAMOS         1977060303    010                                07417445081Sada Joao Fernandes                        51Pirituba                      11 27128789
03456570320240870180826179057122360520240820007070302050019700003439698607M350390T932033     101             BPICLEBERSON LIMA DE JESUS       1991072403    010                                07405430081Prefeito Julio Barbosa de Souz            432Jardim Pinheiro               11975349298
03456570320240870180826179057122360520240815007080302050019700003379504607F350390T932060     101             BPICLEIDA GLAUCIA SILVA FONSECA R1964082603    010                                07417180081JOSE CICERO SOARES            CASA 02      89PQ RODRIGO BARRETO            11995992029
03456570320240870180826179057122360520240822007090302050019700003379504607F350390T932060     101             BPICLEIDA GLAUCIA SILVA FONSECA R1964082603    010                                07417180081JOSE CICERO SOARES            CASA 02      89PQ RODRIGO BARRETO            11995992029
03456570320240870180826179057122360520240827007100302050019700003379504607F350390T932060     101             BPICLEIDA GLAUCIA SILVA FONSECA R1964082603    010                                07417180081JOSE CICERO SOARES            CASA 02      89PQ RODRIGO BARRETO            11995992029
03456570320240870180826179057122360520240813007110302050019700004235623103F350390T932088     101             BPIDEOLINDA COPE DO ESPIRITO SANT1936082703    010                                07432121081REGINA CLIA GOMES ALVARENGA   COND2 BLOC   34CDHU FAZENDA ALBOR            11940119643
03456570320240870180826179057122360520240819007120302050019700004235623103F350390T932088     101             BPIDEOLINDA COPE DO ESPIRITO SANT1936082703    010                                07432121081REGINA CLIA GOMES ALVARENGA   COND2 BLOC   34CDHU FAZENDA ALBOR            11940119643
03456570320240870180826179057122360520240820007130302050019700004235623103F350390T932088     101             BPIDEOLINDA COPE DO ESPIRITO SANT1936082703    010                                07432121081REGINA CLIA GOMES ALVARENGA   COND2 BLOC   34CDHU FAZENDA ALBOR            11940119643
03456570320240870180826179057122360520240827007140302050019700004235623103F350390T932088     101             BPIDEOLINDA COPE DO ESPIRITO SANT1936082703    010                                07432121081REGINA CLIA GOMES ALVARENGA   COND2 BLOC   34CDHU FAZENDA ALBOR            11940119643
03456570320240870180826179057122360520240809007150302050019708101547959737F350390T932071     101             BPIDINAH IARA BALDASSARRE BERGAMA1952112101    010                                07424000031Correas                                  3104Canjicas                      11945351106
03456570320240870180826179057122360520240826007160302050019708101547959737F350390T932071     101             BPIDINAH IARA BALDASSARRE BERGAMA1952112101    010                                07424000031Correas                                  3104Canjicas                      11945351106
03456570320240870180826179057122360520240828007170302050019708101547959737F350390T932071     101             BPIDINAH IARA BALDASSARRE BERGAMA1952112101    010                                07424000031Correas                                  3104Canjicas                      11945351106
03456570320240870180826179057122360520240807007180302050019706209701287470F350390T932068     101             BPIDORALICE FELIX MENDES         1955112702    010                                07404040081SERRA DO ITAPETI              CONJUNTO    523MIRANTE DO ARUJA              11 27128761
03456570320240870180826179057122360520240820007190302050019706209701287470F350390T932068     101             BPIDORALICE FELIX MENDES         1955112702    010                                07404040081SERRA DO ITAPETI              CONJUNTO    523MIRANTE DO ARUJA              11 27128761
03456570320240870180826179057122360520240813007200302050019704203700273083F350390T932057     101             BPIDULCINEIA DOS SANTOS          1967042401    010                                07405445081ANDORINHA                                  23JARDIM PINHEIRO
03456570320240870180826179057122360520240815008010302050019704203700273083F350390T932057     101             BPIDULCINEIA DOS SANTOS          1967042401    010                                07405445081ANDORINHA                                  23JARDIM PINHEIRO
03456570320240870180826179057122360520240823008020302050019704203700273083F350390T932057     101             BPIDULCINEIA DOS SANTOS          1967042401    010                                07405445081ANDORINHA                                  23JARDIM PINHEIRO
03456570320240870180826179057122360520240829008030302050019704203700273083F350390T932057     101             BPIDULCINEIA DOS SANTOS          1967042401    010                                07405445081ANDORINHA                                  23JARDIM PINHEIRO
03456570320240870180826179057122360520240827008040302050019702406396125630F350390T932056     101             BPIEDILMA PEREIRA DA SILVA       1968020901    010                                07411210008Nossa Senhora de Fatima                   603Portao                        11966646984
03456570320240870180826179057122360520240801008050302050019704004371639469M350390T932046     101             BPIEDINALDO FRANCISCO DA SILVA   1978062403    010                                07438000081Bernardes                     Tecnon      414Jardim Via Dutra
03456570320240870180826179057122360520240815008060302050019704004371639469M350390T932046     101             BPIEDINALDO FRANCISCO DA SILVA   1978062403    010                                07438000081Bernardes                     Tecnon      414Jardim Via Dutra
03456570320240870180826179057122360520240827008070302050019704004371639469M350390T932046     101             BPIEDINALDO FRANCISCO DA SILVA   1978062403    010                                07438000081Bernardes                     Tecnon      414Jardim Via Dutra
03456570320240870180826179057122360520240827008080302050019706803263948322M350390T932043     101             BPIEDSON WILLIANS DA SILVA       1981012001    010                                07417345081Jose Claudio dos Santos Filho A            70Parque Rodrigo Barreto        11954542060
