01#BPA#2024120049000001561946SECRETARIA MUNICIPAL DE SAUDE SMS   56901275000150SECRETARIA ESTADUAL DE SAUDE            MD04.01    
022059304202412225142001010301010137064000001BPA
022059304202412223505001020301100039000000005BPA
022059304202412322230001030301100152000000004BPA
022059304202412322250001040301100152000000001BPA
022773228202412322230001010301100039000000001BPA
022773228202412322230001020301100152000000016BPA
022773848202412223710001010301010137094000001BPA
022773848202412223710001020301010137076000001BPA
022773848202412223710001030301010137065000001BPA
022773848202412223505001040301100039000000001BPA
022773848202412322230001050301100039000000003BPA
022773848202412223505001060301100152000000004BPA
022773848202412322230001070301100152000000011BPA
022773848202412322250001080301100152000000007BPA
022773856202412322230001010301100152000000015BPA
022773856202412322250001020301100152000000004BPA
023044114202412322230001010301100039000000025BPA
023044114202412322230001020301100101000000001BPA
023044114202412223505001030301100152000000001BPA
023044114202412322230001040301100152000000009BPA
026430163202412251510001010301080160000000007BPA
026430163202412322230001020301100039000000100BPA
026896847202412225112001010301010072002000002BPA
026896847202412225112001020301010072003000006BPA
026896847202412225112001030301010072004000006BPA
026896847202412225112001040301010072006000003BPA
026896847202412225112001050301010072007000006BPA
026896847202412225112001060301010072008000002BPA
026896847202412225112001070301010072009000001BPA
026896847202412225112001080301010072010000004BPA
026896847202412225112001090301010072011000001BPA
026896847202412225112001100301010072012000002BPA
026896847202412225112001110301010072013000007BPA
026896847202412225112001120301010072014000005BPA
026896847202412225112001130301010072015000006BPA
026896847202412225112001140301010072016000004BPA
026896847202412225112001150301010072017000003BPA
026896847202412225112001160301010072018000005BPA
026896847202412225112001170301010072019000003BPA
026896847202412225112001180301010072020000003BPA
026896847202412225112001190301010072021000003BPA
026896847202412225112001200301010072022000005BPA
026896847202412225112002010301010072023000003BPA
026896847202412225112002020301010072024000005BPA
026896847202412225112002030301010072025000005BPA
026896847202412225112002040301010072026000006BPA
026896847202412225112002050301010072027000004BPA
026896847202412225112002060301010072028000004BPA
026896847202412225112002070301010072029000007BPA
026896847202412225112002080301010072030000007BPA
026896847202412225112002090301010072031000004BPA
026896847202412225112002100301010072032000004BPA
026896847202412225112002110301010072033000005BPA
026896847202412225112002120301010072034000005BPA
026896847202412225112002130301010072035000005BPA
026896847202412225112002140301010072036000005BPA
026896847202412225112002150301010072037000005BPA
026896847202412225112002160301010072038000005BPA
026896847202412225112002170301010072039000002BPA
026896847202412225112002180301010072040000004BPA
026896847202412225112002190301010072041000007BPA
026896847202412225112002200301010072042000006BPA
026896847202412225112003010301010072043000005BPA
026896847202412225112003020301010072044000005BPA
026896847202412225112003030301010072045000011BPA
026896847202412225112003040301010072046000008BPA
026896847202412225112003050301010072047000006BPA
026896847202412225112003060301010072048000007BPA
026896847202412225112003070301010072049000007BPA
026896847202412225112003080301010072050000008BPA
026896847202412225112003090301010072051000007BPA
026896847202412225112003100301010072052000003BPA
026896847202412225112003110301010072053000008BPA
026896847202412225112003120301010072054000005BPA
026896847202412225112003130301010072055000007BPA
026896847202412225112003140301010072056000007BPA
026896847202412225112003150301010072057000007BPA
026896847202412225112003160301010072058000002BPA
026896847202412225112003170301010072059000010BPA
026896847202412225112003180301010072060000011BPA
026896847202412225112003190301010072061000004BPA
026896847202412225112003200301010072062000005BPA
026896847202412225112004010301010072063000009BPA
026896847202412225112004020301010072064000010BPA
026896847202412225112004030301010072065000007BPA
026896847202412225112004040301010072066000012BPA
026896847202412225112004050301010072067000006BPA
026896847202412225112004060301010072068000009BPA
026896847202412225112004070301010072069000005BPA
026896847202412225112004080301010072071000005BPA
026896847202412225112004090301010072070000009BPA
026896847202412225112004100301010072072000010BPA
026896847202412225112004110301010072073000008BPA
026896847202412225112004120301010072074000009BPA
026896847202412225112004130301010072075000005BPA
026896847202412225112004140301010072076000004BPA
026896847202412225112004150301010072077000004BPA
026896847202412225112004160301010072078000004BPA
026896847202412225112004170301010072079000002BPA
026896847202412225112004180301010072080000005BPA
026896847202412225112004190301010072081000003BPA
026896847202412225112004200301010072082000005BPA
026896847202412225112005010301010072083000001BPA
026896847202412225112005020301010072084000001BPA
026896847202412225112005030301010072085000003BPA
026896847202412225112005040301010072086000002BPA
026896847202412225112005050301010072087000002BPA
026896847202412225112005060301010072094000001BPA
026896847202412225112005070301010072092000001BPA
026896847202412225112005080301010072091000002BPA
026896847202412225112005090301010072088000003BPA
026896847202412225112005100301010072001000001BPA
026896847202412225120005110301010072059000004BPA
026896847202412225120005120301010072070000014BPA
026896847202412225120005130301010072071000009BPA
026896847202412225120005140301010072072000010BPA
026896847202412225120005150301010072073000010BPA
026896847202412225120005160301010072074000006BPA
026896847202412225120005170301010072075000011BPA
026896847202412225120005180301010072076000011BPA
026896847202412225120005190301010072077000007BPA
026896847202412225120005200301010072078000004BPA
026896847202412225120006010301010072079000006BPA
026896847202412225120006020301010072080000003BPA
026896847202412225120006030301010072081000006BPA
026896847202412225120006040301010072082000002BPA
026896847202412225120006050301010072083000003BPA
026896847202412225120006060301010072084000001BPA
026896847202412225120006070301010072069000009BPA
026896847202412225120006080301010072011000001BPA
026896847202412225120006090301010072012000001BPA
026896847202412225120006100301010072013000002BPA
026896847202412225120006110301010072016000001BPA
026896847202412225120006120301010072019000002BPA
026896847202412225120006130301010072024000001BPA
026896847202412225120006140301010072026000001BPA
026896847202412225120006150301010072027000001BPA
026896847202412225120006160301010072028000001BPA
026896847202412225120006170301010072030000001BPA
026896847202412225120006180301010072031000001BPA
026896847202412225120006190301010072032000001BPA
026896847202412225120006200301010072034000003BPA
026896847202412225120007010301010072035000003BPA
026896847202412225120007020301010072038000001BPA
026896847202412225120007030301010072039000002BPA
026896847202412225120007040301010072040000001BPA
026896847202412225120007050301010072041000003BPA
026896847202412225120007060301010072042000002BPA
026896847202412225120007070301010072043000004BPA
026896847202412225120007080301010072045000003BPA
026896847202412225120007090301010072046000002BPA
026896847202412225120007100301010072047000005BPA
026896847202412225120007110301010072048000002BPA
026896847202412225120007120301010072049000005BPA
026896847202412225120007130301010072050000002BPA
026896847202412225120007140301010072051000001BPA
026896847202412225120007150301010072052000003BPA
026896847202412225120007160301010072053000004BPA
026896847202412225120007170301010072054000007BPA
026896847202412225120007180301010072055000003BPA
026896847202412225120007190301010072056000008BPA
026896847202412225120007200301010072057000006BPA
026896847202412225120008010301010072058000007BPA
026896847202412225120008020301010072060000004BPA
026896847202412225120008030301010072061000009BPA
026896847202412225120008040301010072062000018BPA
026896847202412225120008050301010072063000008BPA
026896847202412225120008060301010072064000007BPA
026896847202412225120008070301010072065000011BPA
026896847202412225120008080301010072066000007BPA
026896847202412225120008090301010072067000018BPA
026896847202412225120008100301010072068000007BPA
026896847202412225120008110301010072085000003BPA
026896847202412225120008120301010072086000001BPA
026896847202412225120008130301010072087000002BPA
026896847202412225120008140301010072088000003BPA
026896847202412225120008150301010072089000002BPA
026896847202412225120008160301010072093000001BPA
026896847202412225120008170301010072096000001BPA
026896847202412225125008180301010072065000001BPA
026896847202412225125008190301010072080000001BPA
026896847202412225125008200301010072075000001BPA
026896847202412225125009010301010072073000001BPA
026896847202412225125009020301010072068000001BPA
026896847202412225125009030301010072011000001BPA
026896847202412225125009040301010072019000001BPA
026896847202412225125009050301010072023000002BPA
026896847202412225125009060301010072024000004BPA
026896847202412225125009070301010072028000001BPA
026896847202412225125009080301010072031000001BPA
026896847202412225125009090301010072032000001BPA
026896847202412225125009100301010072033000001BPA
026896847202412225125009110301010072035000002BPA
026896847202412225125009120301010072040000001BPA
026896847202412225125009130301010072042000001BPA
026896847202412225125009140301010072043000001BPA
026896847202412225125009150301010072045000003BPA
026896847202412225125009160301010072056000001BPA
026896847202412225125009170301010072059000001BPA
026896847202412225125009180301010072061000001BPA
026896847202412225125009190301010072062000001BPA
026896847202412225125009200301010072063000001BPA
026896847202412225133010010301010072013000008BPA
026896847202412225133010020301010072003000006BPA
026896847202412225133010030301010072004000014BPA
026896847202412225133010040301010072005000013BPA
026896847202412225133010050301010072006000017BPA
026896847202412225133010060301010072007000014BPA
026896847202412225133010070301010072008000010BPA
026896847202412225133010080301010072009000014BPA
026896847202412225133010090301010072010000010BPA
026896847202412225133010100301010072011000008BPA
026896847202412225133010110301010072012000010BPA
026896847202412225133010120301010072014000008BPA
026896847202412225133010130301010072015000004BPA
026896847202412225133010140301010072016000007BPA
026896847202412225133010150301010072017000011BPA
026896847202412225133010160301010072018000006BPA
026896847202412225133010170301010072019000005BPA
026896847202412225133010180301010072020000002BPA
026896847202412225133010190301010072021000001BPA
026896847202412225133010200301010072022000004BPA
026896847202412225133011010301010072024000001BPA
026896847202412225133011020301010072026000001BPA
026896847202412225133011030301010072027000002BPA
026896847202412225133011040301010072031000004BPA
026896847202412225133011050301010072032000002BPA
026896847202412225133011060301010072033000001BPA
026896847202412225133011070301010072034000001BPA
026896847202412225133011080301010072035000002BPA
026896847202412225133011090301010072037000001BPA
026896847202412225133011100301010072038000001BPA
026896847202412225133011110301010072039000003BPA
026896847202412225133011120301010072040000002BPA
026896847202412225133011130301010072042000004BPA
026896847202412225133011140301010072043000005BPA
026896847202412225133011150301010072044000004BPA
026896847202412225133011160301010072045000003BPA
026896847202412225133011170301010072046000002BPA
026896847202412225133011180301010072047000002BPA
026896847202412225133011190301010072048000002BPA
026896847202412225133011200301010072049000003BPA
026896847202412225133012010301010072050000003BPA
026896847202412225133012020301010072051000004BPA
026896847202412225133012030301010072052000003BPA
026896847202412225133012040301010072053000001BPA
026896847202412225133012050301010072054000001BPA
026896847202412225133012060301010072055000001BPA
026896847202412225133012070301010072056000001BPA
026896847202412225133012080301010072057000002BPA
026896847202412225133012090301010072059000001BPA
026896847202412225133012100301010072060000001BPA
026896847202412225133012110301010072062000001BPA
026896847202412225133012120301010072063000001BPA
026896847202412225133012130301010072064000001BPA
026896847202412225133012140301010072065000002BPA
026896847202412225133012150301010072066000001BPA
026896847202412225133012160301010072067000002BPA
026896847202412225133012170301010072068000002BPA
026896847202412225133012180301010072069000002BPA
026896847202412225133012190301010072070000002BPA
026896847202412225133012200301010072071000001BPA
026896847202412225133013010301010072073000001BPA
026896847202412225133013020301010072074000001BPA
026896847202412225133013030301010072077000001BPA
026896847202412225133013040301010072079000001BPA
026896847202412225133013050301010072082000001BPA
026896847202412225135013060301010072067000001BPA
026896847202412225135013070301010072068000003BPA
026896847202412225135013080301010072069000003BPA
026896847202412225135013090301010072070000003BPA
026896847202412225135013100301010072077000001BPA
026896847202412225135013110301010072076000002BPA
026896847202412225135013120301010072075000003BPA
026896847202412225135013130301010072073000001BPA
026896847202412225135013140301010072071000001BPA
026896847202412225135013150301010072000000001BPA
026896847202412225135013160301010072001000002BPA
026896847202412225135013170301010072002000001BPA
026896847202412225135013180301010072004000001BPA
026896847202412225135013190301010072005000001BPA
026896847202412225135013200301010072007000002BPA
026896847202412225135014010301010072011000001BPA
026896847202412225135014020301010072012000001BPA
026896847202412225135014030301010072014000001BPA
026896847202412225135014040301010072072000002BPA
026896847202412225135014050301010072015000005BPA
026896847202412225135014060301010072016000005BPA
026896847202412225135014070301010072017000001BPA
026896847202412225135014080301010072018000003BPA
026896847202412225135014090301010072080000001BPA
026896847202412225135014100301010072081000001BPA
026896847202412225135014110301010072086000001BPA
026896847202412225135014120301010072088000001BPA
026896847202412225135014130301010072019000004BPA
026896847202412225135014140301010072020000002BPA
026896847202412225135014150301010072021000003BPA
026896847202412225135014160301010072022000001BPA
026896847202412225135014170301010072023000002BPA
026896847202412225135014180301010072024000003BPA
026896847202412225135014190301010072025000004BPA
026896847202412225135014200301010072026000003BPA
026896847202412225135015010301010072027000005BPA
026896847202412225135015020301010072030000001BPA
026896847202412225135015030301010072031000002BPA
026896847202412225135015040301010072032000001BPA
026896847202412225135015050301010072033000002BPA
026896847202412225135015060301010072034000002BPA
026896847202412225135015070301010072035000001BPA
026896847202412225135015080301010072037000002BPA
026896847202412225135015090301010072038000002BPA
026896847202412225135015100301010072040000002BPA
026896847202412225135015110301010072041000002BPA
026896847202412225135015120301010072042000001BPA
026896847202412225135015130301010072043000004BPA
026896847202412225135015140301010072044000004BPA
026896847202412225135015150301010072046000002BPA
026896847202412225135015160301010072047000004BPA
026896847202412225135015170301010072049000005BPA
026896847202412225135015180301010072050000002BPA
026896847202412225135015190301010072051000002BPA
026896847202412225135015200301010072052000002BPA
026896847202412225135016010301010072053000003BPA
026896847202412225135016020301010072054000003BPA
026896847202412225135016030301010072055000004BPA
026896847202412225135016040301010072056000002BPA
026896847202412225135016050301010072058000003BPA
026896847202412225135016060301010072059000004BPA
026896847202412225135016070301010072078000003BPA
026896847202412225135016080301010072060000006BPA
026896847202412225135016090301010072062000003BPA
026896847202412225135016100301010072063000003BPA
026896847202412225135016110301010072064000003BPA
026896847202412225135016120301010072065000001BPA
026896847202412225135016130301010072066000004BPA
026896847202412225155016140301010072054000002BPA
026896847202412225155016150301010072012000001BPA
026896847202412225155016160301010072016000004BPA
026896847202412225155016170301010072017000002BPA
026896847202412225155016180301010072020000001BPA
026896847202412225155016190301010072022000002BPA
026896847202412225155016200301010072023000001BPA
026896847202412225155017010301010072024000001BPA
026896847202412225155017020301010072025000001BPA
026896847202412225155017030301010072026000002BPA
026896847202412225155017040301010072027000002BPA
026896847202412225155017050301010072028000001BPA
026896847202412225155017060301010072029000004BPA
026896847202412225155017070301010072030000002BPA
026896847202412225155017080301010072031000003BPA
026896847202412225155017090301010072032000005BPA
026896847202412225155017100301010072033000002BPA
026896847202412225155017110301010072034000002BPA
026896847202412225155017120301010072035000004BPA
026896847202412225155017130301010072036000004BPA
026896847202412225155017140301010072037000003BPA
026896847202412225155017150301010072038000005BPA
026896847202412225155017160301010072039000007BPA
026896847202412225155017170301010072040000004BPA
026896847202412225155017180301010072041000007BPA
026896847202412225155017190301010072042000002BPA
026896847202412225155017200301010072043000002BPA
026896847202412225155018010301010072044000005BPA
026896847202412225155018020301010072045000002BPA
026896847202412225155018030301010072046000005BPA
026896847202412225155018040301010072047000006BPA
026896847202412225155018050301010072048000006BPA
026896847202412225155018060301010072049000005BPA
026896847202412225155018070301010072050000001BPA
026896847202412225155018080301010072051000008BPA
026896847202412225155018090301010072052000007BPA
026896847202412225155018100301010072053000007BPA
026896847202412225155018110301010072055000002BPA
026896847202412225155018120301010072056000002BPA
026896847202412225155018130301010072057000006BPA
026896847202412225155018140301010072058000004BPA
026896847202412225155018150301010072059000010BPA
026896847202412225155018160301010072060000004BPA
026896847202412225155018170301010072061000006BPA
026896847202412225155018180301010072062000008BPA
026896847202412225155018190301010072063000004BPA
026896847202412225155018200301010072064000004BPA
026896847202412225155019010301010072065000007BPA
026896847202412225155019020301010072066000003BPA
026896847202412225155019030301010072067000007BPA
026896847202412225155019040301010072068000003BPA
026896847202412225155019050301010072069000005BPA
026896847202412225155019060301010072070000004BPA
026896847202412225155019070301010072071000005BPA
026896847202412225155019080301010072072000003BPA
026896847202412225155019090301010072073000001BPA
026896847202412225155019100301010072074000002BPA
026896847202412225155019110301010072075000003BPA
026896847202412225155019120301010072076000001BPA
026896847202412225155019130301010072077000002BPA
026896847202412225155019140301010072079000001BPA
026896847202412225155019150301010072080000001BPA
026896847202412225155019160301010072083000001BPA
026896847202412225155019170301010072085000001BPA
026896847202412225155019180301010072087000002BPA
026896847202412225155019190301010072092000001BPA
026896847202412225265019200301010072039000006BPA
026896847202412225265020010301010072001000001BPA
026896847202412225265020020301010072002000001BPA
026896847202412225265020030301010072003000001BPA
026896847202412225265020040301010072004000002BPA
026896847202412225265020050301010072005000001BPA
026896847202412225265020060301010072006000003BPA
026896847202412225265020070301010072007000002BPA
026896847202412225265020080301010072008000001BPA
026896847202412225265020090301010072009000003BPA
026896847202412225265020100301010072010000008BPA
026896847202412225265020110301010072011000007BPA
026896847202412225265020120301010072012000004BPA
026896847202412225265020130301010072013000002BPA
026896847202412225265020140301010072014000003BPA
026896847202412225265020150301010072015000002BPA
026896847202412225265020160301010072016000005BPA
026896847202412225265020170301010072018000003BPA
026896847202412225265020180301010072019000001BPA
026896847202412225265020190301010072020000001BPA
026896847202412225265020200301010072023000001BPA
026896847202412225265021010301010072025000001BPA
026896847202412225265021020301010072026000003BPA
026896847202412225265021030301010072027000002BPA
026896847202412225265021040301010072028000002BPA
026896847202412225265021050301010072029000001BPA
026896847202412225265021060301010072030000001BPA
026896847202412225265021070301010072031000003BPA
026896847202412225265021080301010072032000004BPA
026896847202412225265021090301010072033000003BPA
026896847202412225265021100301010072034000004BPA
026896847202412225265021110301010072036000001BPA
026896847202412225265021120301010072037000002BPA
026896847202412225265021130301010072038000001BPA
026896847202412225265021140301010072040000002BPA
026896847202412225265021150301010072041000006BPA
026896847202412225265021160301010072042000001BPA
026896847202412225265021170301010072043000005BPA
026896847202412225265021180301010072044000008BPA
026896847202412225265021190301010072045000008BPA
026896847202412225265021200301010072046000004BPA
026896847202412225265022010301010072047000007BPA
026896847202412225265022020301010072049000005BPA
026896847202412225265022030301010072050000006BPA
026896847202412225265022040301010072051000005BPA
026896847202412225265022050301010072052000006BPA
026896847202412225265022060301010072053000002BPA
026896847202412225265022070301010072054000008BPA
026896847202412225265022080301010072055000002BPA
026896847202412225265022090301010072056000006BPA
026896847202412225265022100301010072057000003BPA
026896847202412225265022110301010072058000002BPA
026896847202412225265022120301010072059000005BPA
026896847202412225265022130301010072060000004BPA
026896847202412225265022140301010072061000006BPA
026896847202412225265022150301010072062000005BPA
026896847202412225265022160301010072063000004BPA
026896847202412225265022170301010072064000004BPA
026896847202412225265022180301010072065000006BPA
026896847202412225265022190301010072066000005BPA
026896847202412225265022200301010072067000005BPA
026896847202412225265023010301010072068000008BPA
026896847202412225265023020301010072069000005BPA
026896847202412225265023030301010072070000005BPA
026896847202412225265023040301010072071000008BPA
026896847202412225265023050301010072072000004BPA
026896847202412225265023060301010072073000004BPA
026896847202412225265023070301010072074000003BPA
026896847202412225265023080301010072075000004BPA
026896847202412225265023090301010072076000001BPA
026896847202412225265023100301010072077000002BPA
026896847202412225265023110301010072078000003BPA
026896847202412225265023120301010072079000001BPA
026896847202412225265023130301010072080000001BPA
026896847202412225265023140301010072082000001BPA
026896847202412225265023150301010072083000001BPA
026896847202412225265023160301010072085000001BPA
026896847202412225265023170301010072086000001BPA
026896847202412225270023180301010072075000012BPA
026896847202412225270023190301010072076000008BPA
026896847202412225270023200301010072077000007BPA
026896847202412225270024010301010072087000001BPA
026896847202412225270024020301010072086000001BPA
026896847202412225270024030301010072082000003BPA
026896847202412225270024040301010072081000001BPA
026896847202412225270024050301010072078000003BPA
026896847202412225270024060301010072079000004BPA
026896847202412225270024070301010072000000001BPA
026896847202412225270024080301010072001000001BPA
026896847202412225270024090301010072002000004BPA
026896847202412225270024100301010072003000001BPA
026896847202412225270024110301010072007000001BPA
026896847202412225270024120301010072009000003BPA
026896847202412225270024130301010072010000002BPA
026896847202412225270024140301010072011000005BPA
026896847202412225270024150301010072012000002BPA
026896847202412225270024160301010072013000002BPA
026896847202412225270024170301010072015000002BPA
026896847202412225270024180301010072016000002BPA
026896847202412225270024190301010072017000001BPA
026896847202412225270024200301010072018000002BPA
026896847202412225270025010301010072019000001BPA
026896847202412225270025020301010072020000001BPA
026896847202412225270025030301010072021000001BPA
026896847202412225270025040301010072022000002BPA
026896847202412225270025050301010072023000001BPA
026896847202412225270025060301010072024000002BPA
026896847202412225270025070301010072025000003BPA
026896847202412225270025080301010072026000006BPA
026896847202412225270025090301010072027000003BPA
026896847202412225270025100301010072028000004BPA
026896847202412225270025110301010072029000003BPA
026896847202412225270025120301010072030000005BPA
026896847202412225270025130301010072031000001BPA
026896847202412225270025140301010072032000004BPA
026896847202412225270025150301010072033000007BPA
026896847202412225270025160301010072034000002BPA
026896847202412225270025170301010072035000004BPA
026896847202412225270025180301010072080000001BPA
026896847202412225270025190301010072036000004BPA
026896847202412225270025200301010072037000007BPA
026896847202412225270026010301010072038000002BPA
026896847202412225270026020301010072039000011BPA
026896847202412225270026030301010072040000004BPA
026896847202412225270026040301010072041000007BPA
026896847202412225270026050301010072042000007BPA
026896847202412225270026060301010072043000007BPA
026896847202412225270026070301010072044000007BPA
026896847202412225270026080301010072045000007BPA
026896847202412225270026090301010072046000006BPA
026896847202412225270026100301010072047000007BPA
026896847202412225270026110301010072048000009BPA
026896847202412225270026120301010072049000011BPA
026896847202412225270026130301010072050000007BPA
026896847202412225270026140301010072051000011BPA
026896847202412225270026150301010072052000013BPA
026896847202412225270026160301010072053000017BPA
026896847202412225270026170301010072054000009BPA
026896847202412225270026180301010072055000016BPA
026896847202412225270026190301010072056000013BPA
026896847202412225270026200301010072057000011BPA
026896847202412225270027010301010072058000014BPA
026896847202412225270027020301010072059000010BPA
026896847202412225270027030301010072060000011BPA
026896847202412225270027040301010072061000004BPA
026896847202412225270027050301010072062000016BPA
026896847202412225270027060301010072063000010BPA
026896847202412225270027070301010072064000018BPA
026896847202412225270027080301010072065000015BPA
026896847202412225270027090301010072066000014BPA
026896847202412225270027100301010072067000013BPA
026896847202412225270027110301010072068000012BPA
026896847202412225270027120301010072069000018BPA
026896847202412225270027130301010072070000014BPA
026896847202412225270027140301010072071000010BPA
026896847202412225270027150301010072072000013BPA
026896847202412225270027160301010072073000012BPA
026896847202412225270027170301010072074000008BPA
026896847202412225275027180301010072065000005BPA
026896847202412225275027190301010072001000002BPA
026896847202412225275027200301010072002000003BPA
026896847202412225275028010301010072003000001BPA
026896847202412225275028020301010072004000007BPA
026896847202412225275028030301010072005000003BPA
026896847202412225275028040301010072006000004BPA
026896847202412225275028050301010072007000002BPA
026896847202412225275028060301010072008000003BPA
026896847202412225275028070301010072009000004BPA
026896847202412225275028080301010072010000003BPA
026896847202412225275028090301010072011000006BPA
026896847202412225275028100301010072012000002BPA
026896847202412225275028110301010072013000002BPA
026896847202412225275028120301010072014000002BPA
026896847202412225275028130301010072015000001BPA
026896847202412225275028140301010072017000002BPA
026896847202412225275028150301010072019000002BPA
026896847202412225275028160301010072020000002BPA
026896847202412225275028170301010072021000001BPA
026896847202412225275028180301010072022000002BPA
026896847202412225275028190301010072023000001BPA
026896847202412225275028200301010072024000002BPA
026896847202412225275029010301010072025000003BPA
026896847202412225275029020301010072026000001BPA
026896847202412225275029030301010072027000001BPA
026896847202412225275029040301010072028000002BPA
026896847202412225275029050301010072030000001BPA
026896847202412225275029060301010072034000001BPA
026896847202412225275029070301010072035000001BPA
026896847202412225275029080301010072036000001BPA
026896847202412225275029090301010072037000001BPA
026896847202412225275029100301010072038000004BPA
026896847202412225275029110301010072039000002BPA
026896847202412225275029120301010072041000002BPA
026896847202412225275029130301010072042000002BPA
026896847202412225275029140301010072044000003BPA
026896847202412225275029150301010072045000003BPA
026896847202412225275029160301010072046000003BPA
026896847202412225275029170301010072048000002BPA
026896847202412225275029180301010072049000002BPA
026896847202412225275029190301010072050000004BPA
026896847202412225275029200301010072051000002BPA
026896847202412225275030010301010072052000005BPA
026896847202412225275030020301010072053000002BPA
026896847202412225275030030301010072054000001BPA
026896847202412225275030040301010072055000002BPA
026896847202412225275030050301010072056000004BPA
026896847202412225275030060301010072057000001BPA
026896847202412225275030070301010072058000006BPA
026896847202412225275030080301010072059000005BPA
026896847202412225275030090301010072060000004BPA
026896847202412225275030100301010072061000007BPA
026896847202412225275030110301010072062000008BPA
026896847202412225275030120301010072063000006BPA
026896847202412225275030130301010072064000008BPA
026896847202412225275030140301010072066000007BPA
026896847202412225275030150301010072067000008BPA
026896847202412225275030160301010072068000002BPA
026896847202412225275030170301010072069000004BPA
026896847202412225275030180301010072070000002BPA
026896847202412225275030190301010072071000003BPA
026896847202412225275030200301010072072000008BPA
026896847202412225275031010301010072073000003BPA
026896847202412225275031020301010072074000005BPA
026896847202412225275031030301010072075000002BPA
026896847202412225275031040301010072076000002BPA
026896847202412225275031050301010072077000001BPA
026896847202412225275031060301010072078000002BPA
026896847202412225275031070301010072079000002BPA
026896847202412225275031080301010072080000002BPA
026896847202412225275031090301010072083000001BPA
026896847202412225275031100301010072085000001BPA
026896847202412225275031110301010072086000001BPA
026896847202412225275031120301010072089000002BPA
026896847202412225285031130301010072080000002BPA
026896847202412225285031140301010072077000003BPA
026896847202412225285031150301010072078000002BPA
026896847202412225285031160301010072079000001BPA
026896847202412225285031170301010072081000001BPA
026896847202412225285031180301010072089000001BPA
026896847202412225285031190301010072088000001BPA
026896847202412225285031200301010072024000001BPA
026896847202412225285032010301010072025000001BPA
026896847202412225285032020301010072027000001BPA
026896847202412225285032030301010072028000001BPA
026896847202412225285032040301010072032000001BPA
026896847202412225285032050301010072033000001BPA
026896847202412225285032060301010072036000001BPA
026896847202412225285032070301010072039000001BPA
026896847202412225285032080301010072042000002BPA
026896847202412225285032090301010072043000001BPA
026896847202412225285032100301010072045000002BPA
026896847202412225285032110301010072046000005BPA
026896847202412225285032120301010072048000001BPA
026896847202412225285032130301010072049000001BPA
026896847202412225285032140301010072050000003BPA
026896847202412225285032150301010072051000002BPA
026896847202412225285032160301010072052000004BPA
026896847202412225285032170301010072053000002BPA
026896847202412225285032180301010072054000002BPA
026896847202412225285032190301010072055000001BPA
026896847202412225285032200301010072056000008BPA
026896847202412225285033010301010072057000003BPA
026896847202412225285033020301010072058000001BPA
026896847202412225285033030301010072059000003BPA
026896847202412225285033040301010072060000005BPA
026896847202412225285033050301010072061000005BPA
026896847202412225285033060301010072062000008BPA
026896847202412225285033070301010072063000006BPA
026896847202412225285033080301010072064000005BPA
026896847202412225285033090301010072065000004BPA
026896847202412225285033100301010072066000004BPA
026896847202412225285033110301010072067000004BPA
026896847202412225285033120301010072068000005BPA
026896847202412225285033130301010072069000002BPA
026896847202412225285033140301010072070000005BPA
026896847202412225285033150301010072071000004BPA
026896847202412225285033160301010072072000002BPA
026896847202412225285033170301010072073000004BPA
026896847202412225285033180301010072074000006BPA
026896847202412225285033190301010072084000002BPA
026896847202412225285033200301010072082000005BPA
026896847202412225285034010301010072075000004BPA
026896847202412225285034020301010072076000004BPA
026896847202412322205034030301100039000000001BPA
026896847202412322230034040301100039000000002BPA
026896847202412322205034050301100152000000025BPA
027047088202412322230001010301100152000000005BPA
027047088202412322250001020301100152000000006BPA
027047088202412322250001030309050049000000001BPA
029001808202412223505001010301010137031000002BPA
029001808202412223505001020301010137050000001BPA
029001808202412223505001030301010137051000001BPA
029001808202412223505001040301010137054000001BPA
029001808202412223505001050301010137062000002BPA
029001808202412223505001060301010137065000002BPA
029001808202412223505001070301010137067000001BPA
029001808202412223505001080301010137070000002BPA
029001808202412223505001090301010137071000002BPA
029001808202412223505001100301010137073000002BPA
029001808202412223505001110301010137074000002BPA
029001808202412223505001120301010137077000003BPA
029001808202412223505001130301010137078000001BPA
029001808202412223505001140301010137082000001BPA
029001808202412223505001150301010137084000002BPA
029001808202412223505001160301010137087000001BPA
029001808202412223505001170301010137090000001BPA
029001808202412223505001180301010137091000003BPA
029001808202412223505001190301010137092000003BPA
029001808202412223505001200301010137094000001BPA
029001808202412223505002010301010137096000001BPA
029001808202412223505002020301010137001000002BPA
029001808202412223505002030301010137015000003BPA
029001808202412223505002040301010137026000001BPA
029001808202412223505002050301010137029000001BPA
029001808202412223505002060301010137037000002BPA
029001808202412223505002070301010137045000001BPA
029001808202412223605002080301010137078000001BPA
029001808202412223605002090301010137084000001BPA
029001808202412223605002100301010137086000002BPA
029001808202412223605002110301010137094000001BPA
029001808202412223605002120301010137096000001BPA
029001808202412223605002130301010137077000001BPA
029001808202412223605002140301010137082000002BPA
029001808202412223605002150301010137001000001BPA
029001808202412223605002160301010137015000001BPA
029001808202412223605002170301010137028000002BPA
029001808202412223605002180301010137046000001BPA
029001808202412223605002190301010137081000001BPA
029001808202412223605002200301010137062000001BPA
029001808202412223605003010301010137063000001BPA
029001808202412223605003020301010137071000002BPA
029001808202412223605003030301010137072000001BPA
029001808202412223605003040301010137073000001BPA
029001808202412223605003050301010137074000003BPA
029001808202412223710003060301010137078000001BPA
029001808202412223710003070301010137082000001BPA
029001808202412225125003080301010137054000001BPA
029001808202412225125003090301010137094000002BPA
029001808202412225125003100301010137070000001BPA
029001808202412225125003110301010137077000001BPA
029001808202412225125003120301010137074000002BPA
029001808202412225125003130301010137073000002BPA
029001808202412225125003140301010137071000002BPA
029001808202412225125003150301010137084000001BPA
029001808202412225125003160301010137086000003BPA
029001808202412225125003170301010137015000001BPA
029001808202412225125003180301010137028000001BPA
029001808202412225125003190301010137031000001BPA
029001808202412225125003200301010137046000001BPA
029001808202412225125004010301010137047000001BPA
029001808202412322230004020301100152000000014BPA
03049138120241270050453405345222360520241212001110302060030705002456823155M350390G838017     101             BPIGABRIEL PEDRO LOPES DA SILVA  2007062301    010                                07401720081IRACI PINTO FERREIRA BRAZ     A            19VILA PILAR                    11 46513585
03049138120241270050453405345222360520241219001130302060030705002456823155M350390G838017     101             BPIGABRIEL PEDRO LOPES DA SILVA  2007062301    010                                07401720081IRACI PINTO FERREIRA BRAZ     A            19VILA PILAR                    11 46513585
03049138120241270050453405345222360520241205001140302060030708000839197225M350390G838014     101             BPILUAN COSTA MARQUES            2010080503    010                                07405425081ROUXINOL                                   86JARDIM PINHEIRO               11 46533690
03049138120241270050453405345222360520241212001170302060030708000839197225M350390G838014     101             BPILUAN COSTA MARQUES            2010080503    010                                07405425081ROUXINOL                                   86JARDIM PINHEIRO               11 46533690
03049138120241270050453405345222360520241205001180302060030700004487906207M350390G838009     101             BPILUCAS PIETRO DO CARMO SANTOS  2015060701    010                                07417500081ANTO BERNARDO DA SILVA                     96PARQUE RODRIGO BARRETO        11 46497722
03049138120241270050453405345222360520241212001190302060030700004487906207M350390G838009     101             BPILUCAS PIETRO DO CARMO SANTOS  2015060701    010                                07417500081ANTO BERNARDO DA SILVA                     96PARQUE RODRIGO BARRETO        11 46497722
03049138120241270050453405345222360520241219001200302060030700004487906207M350390G838009     101             BPILUCAS PIETRO DO CARMO SANTOS  2015060701    010                                07417500081ANTO BERNARDO DA SILVA                     96PARQUE RODRIGO BARRETO        11 46497722
03049138120241270050453405345222360520241203002010302060030700206991639330F350390G838010     101             BPIISABELLA VITORIA ALVES SOARES 2014111201    010                                07403105081JOO LEITE DE CAMARGO                      184ARUJAMRICA
03049138120241270050453405345222360520241217002020302060030700206991639330F350390G838010     101             BPIISABELLA VITORIA ALVES SOARES 2014111201    010                                07403105081JOO LEITE DE CAMARGO                      184ARUJAMRICA
03049138120241270050453405345222360520241205002030302060030700402404310640M350390G838009     101             BPIGABRIEL FERNANDES GONTAN      2015050803    010                                07403000008HANS OSSAMU SUZUKI                        220ARUJAMRICA                    11 46550954
03049138120241270050453405345222360520241212002040302060030700402404310640M350390G838009     101             BPIGABRIEL FERNANDES GONTAN      2015050803    010                                07403000008HANS OSSAMU SUZUKI                        220ARUJAMRICA                    11 46550954
03049138120241270050453405345222360520241203002050302060030700507118196959F350390G838018     101             BPIIZABEL DA LUZ BARROS          2006041503    010                                07417465081ANTONIA MANOEL FERNANDES                  639PARQUE RODRIGO BARRETO        11 46531105
03049138120241270050453405345222360520241210002060302060030700507118196959F350390G838018     101             BPIIZABEL DA LUZ BARROS          2006041503    010                                07417465081ANTONIA MANOEL FERNANDES                  639PARQUE RODRIGO BARRETO        11 46531105
03049138120241270050453405345222360520241217002070302060030700507118196959F350390G838018     101             BPIIZABEL DA LUZ BARROS          2006041503    010                                07417465081ANTONIA MANOEL FERNANDES                  639PARQUE RODRIGO BARRETO        11 46531105
03049138120241270050453405345222360520241205002080302060030701401642375631F350390G838003     101             BPIANTONELA PINOTI COSTA CARVALHO2021031501    010                                07411215081SAO LUIS                                  110JORDANPOLIS
03049138120241270050453405345222360520241212002090302060030701401642375631F350390G838003     101             BPIANTONELA PINOTI COSTA CARVALHO2021031501    010                                07411215081SAO LUIS                                  110JORDANPOLIS
03049138120241270050453405345222360520241219002100302060030701401642375631F350390G838003     101             BPIANTONELA PINOTI COSTA CARVALHO2021031501    010                                07411215081SAO LUIS                                  110JORDANPOLIS
03049138120241270050453405345222360520241203002110302060030701409652952736M350390G838026     101             BPIARTHUR DOS SANTOS VIANNA PINHO1998100801    010                                07417265008RAILDA ALVES DE OLIVEIRA      A           856PARQUE RODRIGO BARRETO        11 46554774
03049138120241270050453405345222360520241210002120302060030701409652952736M350390G838026     101             BPIARTHUR DOS SANTOS VIANNA PINHO1998100801    010                                07417265008RAILDA ALVES DE OLIVEIRA      A           856PARQUE RODRIGO BARRETO        11 46554774
03049138120241270050453405345222360520241217002130302060030701409652952736M350390G838026     101             BPIARTHUR DOS SANTOS VIANNA PINHO1998100801    010                                07417265008RAILDA ALVES DE OLIVEIRA      A           856PARQUE RODRIGO BARRETO        11 46554774
03049138120241270050453405345222360520241205002140302060030703404648057800F350390G838010     101             BPIANA CLARA PIRES DOS SANTOS    2014122201    010                                07402205081MINAS GERAIS                               15JARDIM PLANALTO               11 46523629
03049138120241270050453405345222360520241212002150302060030703404648057800F350390G838010     101             BPIANA CLARA PIRES DOS SANTOS    2014122201    010                                07402205081MINAS GERAIS                               15JARDIM PLANALTO               11 46523629
03049138120241270050453405345222360520241219002160302060030703404648057800F350390G838010     101             BPIANA CLARA PIRES DOS SANTOS    2014122201    010                                07402205081MINAS GERAIS                               15JARDIM PLANALTO               11 46523629
03049138120241270050453405345222360520241212002170302060030704603611129420F350390G838020     101             BPIGIOVANNA OLIVEIRA DE CARVALHO 2004100701    010                                07400885081Armando Tenorio de Araujo                  53Aruja Centro Residencial
03049138120241270050453405345222360520241219002180302060030704603611129420F350390G838020     101             BPIGIOVANNA OLIVEIRA DE CARVALHO 2004100701    010                                07400885081Armando Tenorio de Araujo                  53Aruja Centro Residencial
03049138120241270050453405345222360520241203002190302060030704801024804348F350390G838010     101             BPIISABEL SOUSA FONSECA          2014080801    010                                07417565081Jose Barbosa de Souza                      15Parque Rodrigo Barreto
03049138120241270050453405345222360520241210002200302060030704801024804348F350390G838010     101             BPIISABEL SOUSA FONSECA          2014080801    010                                07417565081Jose Barbosa de Souza                      15Parque Rodrigo Barreto
03049138120241270050453405345222360520241217003010302060030704801024804348F350390G838010     101             BPIISABEL SOUSA FONSECA          2014080801    010                                07417565081Jose Barbosa de Souza                      15Parque Rodrigo Barreto
03049138120241270050453405345222360520241212003020302060030705001225714554M350390G838020     101             BPILUCAS CORTICEIRO SANTOS       2004072004    010                                07417590081Pedro Jos de Morais                        32Parque Rodrigo Barreto
03049138120241270050453405345222360520241205003030302060030705002456823155M350390G838017     101             BPIGABRIEL PEDRO LOPES DA SILVA  2007062301    010                                07401720081IRACI PINTO FERREIRA BRAZ     A            19VILA PILAR                    11 46513585
03049138120241270050453405345222360520241217001010302060049708006887642328M350390G804005     101             BPIPAULO HENRIQUE SILVA LEITE    2019031201    010                                07417380081JOS SEVERINO FILHO            CASA 1      120PARQUE RODRIGO BARRETO        11 46531574
03049138120241270050453405345222360520241205001020302060049708200168857241M350390G804019     101             BPIKLAYVERTT BELO MOITINHO       2005112801    010                                07400970008GEORGETONE                                 16JD RINCAO
03049138120241270050453405345222360520241212001030302060049708200168857241M350390G804019     101             BPIKLAYVERTT BELO MOITINHO       2005112801    010                                07400970008GEORGETONE                                 16JD RINCAO
03049138120241270050453405345222360520241219001040302060049708200168857241M350390G804019     101             BPIKLAYVERTT BELO MOITINHO       2005112801    010                                07400970008GEORGETONE                                 16JD RINCAO
03049138120241270050453405345222360520241212001050302060049708406711778169M350390G804008     101             BPIKAUE PESQUEIRA LOURENCO DA SIL2017012503    010                                07432445081PITANGUEIRAS                  CASA B      211RECANTO PRIMAVERA
03049138120241270050453405345222360520241219001060302060049708406711778169M350390G804008     101             BPIKAUE PESQUEIRA LOURENCO DA SIL2017012503    010                                07432445081PITANGUEIRAS                  CASA B      211RECANTO PRIMAVERA
03049138120241270050453405345222360520241205001070302060049708603521580584M350390G804016     101             BPIMATHEUS LIMA DOS SANTOS       2008101201    010                                07432075081Dady                          Casa 02     165Jardim Emlia                  11 46525322
03049138120241270050453405345222360520241212001080302060049708603521580584M350390G804016     101             BPIMATHEUS LIMA DOS SANTOS       2008101201    010                                07432075081Dady                          Casa 02     165Jardim Emlia                  11 46525322
03049138120241270050453405345222360520241219001090302060049708603521580584M350390G804016     101             BPIMATHEUS LIMA DOS SANTOS       2008101201    010                                07432075081Dady                          Casa 02     165Jardim Emlia                  11 46525322
03049138120241270050453405345222360520241210001100302060049708904756630113M350390G804009     101             BPIGABRIEL DAVI SOUZA BARROS     2015020601    010                                07404090081SERRA DO JAIRE                CS4         315MIRANTE DO ARUJ               11 46558284
03049138120241270050453405345222360520241217001120302060049708904756630113M350390G804009     101             BPIGABRIEL DAVI SOUZA BARROS     2015020601    010                                07404090081SERRA DO JAIRE                CS4         315MIRANTE DO ARUJ               11 46558284
03049138120241270050453405345222360520241210001150302060049702909551787571M353060G804008     101             BPIMURILO DE SOUZA RAMPAZI       2016122601    010                                08740540081PREFEITO JOSE DE MELO FRANCO              195JARDIM UNIVERSO
03049138120241270050453405345222360520241217001160302060049702909551787571M353060G804008     101             BPIMURILO DE SOUZA RAMPAZI       2016122601    010                                08740540081PREFEITO JOSE DE MELO FRANCO              195JARDIM UNIVERSO
03049138120241270050453405345222360520241210003040302060049708006887642328M350390G804005     101             BPIPAULO HENRIQUE SILVA LEITE    2019031201    010                                07417380081JOS SEVERINO FILHO            CASA 1      120PARQUE RODRIGO BARRETO        11 46531574
03049138120241270050453405345222360520241203003050302060049708006887642328M350390G804005     101             BPIPAULO HENRIQUE SILVA LEITE    2019031201    010                                07417380081JOS SEVERINO FILHO            CASA 1      120PARQUE RODRIGO BARRETO        11 46531574
03049138120241270050453405345222360520241219003060302060049707602259771994M350390G804006     101             BPIDANIEL MEDEIROS DIAS          2018102203    010                                07437050081Cedros                                    185Parque dos Jacarands          11989113704
03049138120241270050453405345222360520241212003070302060049707602259771994M350390G804006     101             BPIDANIEL MEDEIROS DIAS          2018102203    010                                07437050081Cedros                                    185Parque dos Jacarands          11989113704
03049138120241270050453405345222360520241205003080302060049707602259771994M350390G804006     101             BPIDANIEL MEDEIROS DIAS          2018102203    010                                07437050081Cedros                                    185Parque dos Jacarands          11989113704
03049138120241270050453405345222360520241217003090302060049706906106273834M350390G804011     101             BPIGUSTAVO PEDRO DE JESUS HONORIO2013080401    010                                07411155008Santa Terezinha                           555Jordanpolis
03049138120241270050453405345222360520241203003100302060049706906106273834M350390G804011     101             BPIGUSTAVO PEDRO DE JESUS HONORIO2013080401    010                                07411155008Santa Terezinha                           555Jordanpolis
03049138120241270050453405345222360520241217003110302060049706708783728020M350390G804015     101             BPIMATHEUS HENDERSON CALHEIRO GOM2009123003    010                                07434130081DOS LIMOEIROS                              75JARDIM LIMOEIRO
03049138120241270050453405345222360520241210003120302060049706708783728020M350390G804015     101             BPIMATHEUS HENDERSON CALHEIRO GOM2009123003    010                                07434130081DOS LIMOEIROS                              75JARDIM LIMOEIRO
03049138120241270050453405345222360520241203003130302060049706403624093789M350390G804009     101             BPILUCAS CARDOZO DOS SANTOS      2015121501    010                                07428315081RUBELITA                                  155JARDIM FAZENDA RINCO          11 46525079
03049138120241270050453405345222360520241217003140302060049705601486775713M350390G804006     101             BPIJOAQUIM FERREIRA ANTUNES DOS S2019011201    010                                07411390004DAS ROSAS                                 753CIDADE NOVA ARUJA             11956777705
03049138120241270050453405345222360520241203003150302060049705601486775713M350390G804006     101             BPIJOAQUIM FERREIRA ANTUNES DOS S2019011201    010                                07411390004DAS ROSAS                                 753CIDADE NOVA ARUJA             11956777705
03049138120241270050453405345222360520241217003160302060049705207421017775M350390G804008     101             BPIARTHUR MOREIRA DA MOTTA       2016081303    010                                07439050081MOLIBIDENIO                               170CHACARAS COPACO               11 46543261
03049138120241270050453405345222360520241203003170302060049705207421017775M350390G804008     101             BPIARTHUR MOREIRA DA MOTTA       2016081303    010                                07439050081MOLIBIDENIO                               170CHACARAS COPACO               11 46543261
03049138120241270050453405345222360520241219003180302060049705008816205755M350390G804007     101             BPIBERNARDO PINOTI SILVA CARVALHO2017091801    010                                07411215081LUIZ                                      110JORDANPOLIS
03049138120241270050453405345222360520241212003190302060049705008816205755M350390G804007     101             BPIBERNARDO PINOTI SILVA CARVALHO2017091801    010                                07411215081LUIZ                                      110JORDANPOLIS
03049138120241270050453405345222360520241205003200302060049705008816205755M350390G804007     101             BPIBERNARDO PINOTI SILVA CARVALHO2017091801    010                                07411215081LUIZ                                      110JORDANPOLIS
03049138120241270050453405345222360520241219004010302060049705003094227452M350390G804004     101             BPIHUGO HENRIQUE DE PETTA ANTUNES2020022901    010                                07405445081ANDORINHA                     A            63JARDIM PINHEIRO
03049138120241270050453405345222360520241212004020302060049705003094227452M350390G804004     101             BPIHUGO HENRIQUE DE PETTA ANTUNES2020022901    010                                07405445081ANDORINHA                     A            63JARDIM PINHEIRO
03049138120241270050453405345222360520241205004030302060049705003094227452M350390G804004     101             BPIHUGO HENRIQUE DE PETTA ANTUNES2020022901    010                                07405445081ANDORINHA                     A            63JARDIM PINHEIRO
03049138120241270050453405345222360520241219004040302060049705001225714554M350390G804020     101             BPILUCAS CORTICEIRO SANTOS       2004072004    010                                07417590081Pedro Jos de Morais                        32Parque Rodrigo Barreto
03049138120241270050453405345222360520241205004050302060049705001225714554M350390G804020     101             BPILUCAS CORTICEIRO SANTOS       2004072004    010                                07417590081Pedro Jos de Morais                        32Parque Rodrigo Barreto
03049138120241270050453405345222360520241219004060302060049704708700913538M350390G804009     101             BPIRICARDO MIGUEL JUNIOR APARECID2016011001    010                                07405440081Tuim                          A           180Jardim Pinheiro
03049138120241270050453405345222360520241212004070302060049704708700913538M350390G804009     101             BPIRICARDO MIGUEL JUNIOR APARECID2016011001    010                                07405440081Tuim                          A           180Jardim Pinheiro
03049138120241270050453405345222360520241205004080302060049704708700913538M350390G804009     101             BPIRICARDO MIGUEL JUNIOR APARECID2016011001    010                                07405440081Tuim                          A           180Jardim Pinheiro
03049138120241270050453405345222360520241217004090302060049704202761323381M350390G804014     101             BPIRENATO RODRIGUES SANTOS       2010020401    010                                07400795081Benjamin de Jesus Rodrigues   Viela       739Aruj Centro Residencial       11965745780
03049138120241270050453405345222360520241203004100302060049704202761323381M350390G804014     101             BPIRENATO RODRIGUES SANTOS       2010020401    010                                07400795081Benjamin de Jesus Rodrigues   Viela       739Aruj Centro Residencial       11965745780
03049138120241270050453405345222360520241219004110302060049704105194737072M350390G804007     101             BPIKAUAN PINOTI SILVA CARVALHO   2017091801    010                                07411215081LUIZ                                      110JORDANPOLIS
03049138120241270050453405345222360520241212004120302060049704105194737072M350390G804007     101             BPIKAUAN PINOTI SILVA CARVALHO   2017091801    010                                07411215081LUIZ                                      110JORDANPOLIS
03049138120241270050453405345222360520241205004130302060049704105194737072M350390G804007     101             BPIKAUAN PINOTI SILVA CARVALHO   2017091801    010                                07411215081LUIZ                                      110JORDANPOLIS
03049138120241270050453405345222360520241217004140302060049704101245579580M350390G804004     101             BPITHEO ROCHA MACEDO             2020072301    010                                07417265008Railda Alves de Oliveira                  841Parque Rodrigo Barreto
03049138120241270050453405345222360520241210004150302060049704101245579580M350390G804004     101             BPITHEO ROCHA MACEDO             2020072301    010                                07417265008Railda Alves de Oliveira                  841Parque Rodrigo Barreto
03049138120241270050453405345222360520241203004160302060049704101245579580M350390G804004     101             BPITHEO ROCHA MACEDO             2020072301    010                                07417265008Railda Alves de Oliveira                  841Parque Rodrigo Barreto
03049138120241270050453405345222360520241219004170302060049703408226916815M350390G804011     101             BPIMIGUEL PONCIANO SOARES        2013112201    010                                07407040008Airton dos Santos Heras GalvezCasa 24     120Jardim Santo Antonio
03049138120241270050453405345222360520241212004180302060049703408226916815M350390G804011     101             BPIMIGUEL PONCIANO SOARES        2013112201    010                                07407040008Airton dos Santos Heras GalvezCasa 24     120Jardim Santo Antonio
03049138120241270050453405345222360520241205004190302060049703408226916815M350390G804011     101             BPIMIGUEL PONCIANO SOARES        2013112201    010                                07407040008Airton dos Santos Heras GalvezCasa 24     120Jardim Santo Antonio
03049138120241270050453405345222360520241219004200302060049702401032630725M350390G804010     101             BPIHENRIQUE ALMEIDA SILVA        2014031401    010                                07400970081LUIZ GONZAGA COLANGELO NOBREGA            525PARQUE RODRIGO BARRETO        11 37545224
03049138120241270050453405345222360520241212005010302060049702401032630725M350390G804010     101             BPIHENRIQUE ALMEIDA SILVA        2014031401    010                                07400970081LUIZ GONZAGA COLANGELO NOBREGA            525PARQUE RODRIGO BARRETO        11 37545224
03049138120241270050453405345222360520241205005020302060049702401032630725M350390G804010     101             BPIHENRIQUE ALMEIDA SILVA        2014031401    010                                07400970081LUIZ GONZAGA COLANGELO NOBREGA            525PARQUE RODRIGO BARRETO        11 37545224
03049138120241270050453405345222360520241219005030302060049701203002931919F350390G804015     101             BPINATALIA SILVA SANTOS DO NASCIM2009021803    010                                07412010008P.l. do Brasil                              5Porto
03049138120241270050453405345222360520241212005040302060049701203002931919F350390G804015     101             BPINATALIA SILVA SANTOS DO NASCIM2009021803    010                                07412010008P.l. do Brasil                              5Porto
03049138120241270050453405345222360520241205005050302060049701203002931919F350390G804015     101             BPINATALIA SILVA SANTOS DO NASCIM2009021803    010                                07412010008P.l. do Brasil                              5Porto
03049138120241270050453405345222360520241212005060302060049700802480068088M350390G804009     101             BPIISAQUE SABINO SOARES          2015043003    010                                07400380081CARACAS                       CASA 2      250CENTRO
03049138120241270050453405345222360520241205005070302060049700802480068088M350390G804009     101             BPIISAQUE SABINO SOARES          2015043003    010                                07400380081CARACAS                       CASA 2      250CENTRO
03049138120241270050453405345222360520241217005080302060049700801940003986M350390G804008     101             BPIDANIEL RIBEIRO AQUINO DA SILVE2016020203    010                                07400470081Siqueira Campos                            30Jardim Rinco
03049138120241270050453405345222360520241210005090302060049700801940003986M350390G804008     101             BPIDANIEL RIBEIRO AQUINO DA SILVE2016020203    010                                07400470081Siqueira Campos                            30Jardim Rinco
03049138120241270050453405345222360520241203005100302060049700801940003986M350390G804008     101             BPIDANIEL RIBEIRO AQUINO DA SILVE2016020203    010                                07400470081Siqueira Campos                            30Jardim Rinco
03049138120241270050453405345222360520241217005110302060049700609919724261M350390G804011     101             BPIBRYAN SANTOS DA HORA          2013062803    010                                07417100081Alice Sanches Ribeiro         Casa 03      62Parque Rodrigo Barreto
03049138120241270050453405345222360520241203005120302060049700609919724261M350390G804011     101             BPIBRYAN SANTOS DA HORA          2013062803    010                                07417100081Alice Sanches Ribeiro         Casa 03      62Parque Rodrigo Barreto
03049138120241270050453405345222360520241217005130302060049700607493571960M350390G804008     101             BPIHENRIQUE MOREIRA DA MOTTA     2016081303    010                                07400970081Avenida dos Expedicionarios               S/NCentro
03049138120241270050453405345222360520241203005140302060049700607493571960M350390G804008     101             BPIHENRIQUE MOREIRA DA MOTTA     2016081303    010                                07400970081Avenida dos Expedicionarios               S/NCentro
03049138120241270050453405345222360520241212005150302060049700503147078256M350390G804007     101             BPIOSCAR BARUC TAVARES DE JESUS  2017081803    010                                07401110081NANCI ARAKI                                85ARUJA CENTER VILLE            11980798292
03049138120241270050453405345222360520241205005160302060049700503147078256M350390G804007     101             BPIOSCAR BARUC TAVARES DE JESUS  2017081803    010                                07401110081NANCI ARAKI                                85ARUJA CENTER VILLE            11980798292
03049138120241270050453405345222360520241219005170302060049700403970687048M350390G804017     101             BPIIAGO RAFIK VIANA DOS SANTOS   2007101204    010                                07404090081SERRA DO JAIRE                            395PEDREIRA                      11993464084
03049138120241270050453405345222360520241205005180302060049700403970687048M350390G804017     101             BPIIAGO RAFIK VIANA DOS SANTOS   2007101204    010                                07404090081SERRA DO JAIRE                            395PEDREIRA                      11993464084
03049138120241270050453405345222360520241210005190302060049700005631673708F350390G804007     101             BPIYASMIN CREUSA DE MOURA SILVA  2017040901    010                                07400370081La Paz                        Casa 1      114Jardim Rinco                  11 46512002
03049138120241270050453405345222360520241203005200302060049700005631673708F350390G804007     101             BPIYASMIN CREUSA DE MOURA SILVA  2017040901    010                                07400370081La Paz                        Casa 1      114Jardim Rinco                  11 46512002
03049138120241270050453405345222360520241203006010302060049708106526577031M350390G804008     101             BPIMATHEUS PAULO LEITE DA SILVA  2016051203    010                                07405445081ANDORINHA                     L 5         364JARDIM PINHEIRO               11912861623
03049138120241270050453405345222360520241210006020302060049708106526577031M350390G804008     101             BPIMATHEUS PAULO LEITE DA SILVA  2016051203    010                                07405445081ANDORINHA                     L 5         364JARDIM PINHEIRO               11912861623
03049138120241270050453405345222360520241217006030302060049708106526577031M350390G804008     101             BPIMATHEUS PAULO LEITE DA SILVA  2016051203    010                                07405445081ANDORINHA                     L 5         364JARDIM PINHEIRO               11912861623
03205930420241270120002219011322350520241223001010201020033704206290825084F350390    043     101             BPIVANESSA DA SILVA SANTOS DE OLI1981081401    010                                07432000081Negro                                     315Jardim Leika
03205930420241270120002219011322350520241212001020201020033705201401778376F350390    065     101             BPISANDRA REGINA DA SILVA PEREZ  1959051001    010                                07432060081Nicolau                                    65Jardim Emlia
03205930420241270120002219011322350520241223001030201020033706004896013445F350390    049     101             BPISANDRA APARECIDA DA SILVA     1975110101    010                                07432575081Tomi Saburo Yamamoto          A            86Jardim das Cerejeiras
03205930420241270120002219011322350520241223001040201020033706009398940942F350390    037     101             BPITAMIRIS TAVARES DA SILVA      1987070303    010                                07432000081NEGRO                         B CASA 01    41JARDIM LEIKA
03205930420241270120002219011322350520241223001050201020033706401375260790F350390    047     101             BPICRISTIANE FARIAS RODRIGUES    1977042801    010                                07432010081Gabriel Paschoal                           51Jardim Leika
03205930420241270120002219011322350520241205001060201020033706409394611290F350390    059     101             BPIDEUSDETE SOARES DE JESUS      1965031503    010                                07432065081Oscar Schiavon                Casa 03     121Jardim Emilia/perobal
03205930420241270120002219011322350520241216001070201020033707405082705871F350390    043     101             BPITATIANE MARQUES DAS NEVES     1981083001    010                                07432120081Marlene Paiva dos Santos      Casa 2       31Cdhu Fazenda Albor
03205930420241270120002219011322350520241216001080201020033707807609895312F350390    057     101             BPIANTONIA NATALETE DE OLIVEIRA R1967122401    010                                07432010081Gabriel Paschoal              Casa 1       37Jardim Leika
03205930420241270120002219011322350520241209001090201020033708205676388445F350390    050     101             BPIELISANGELA DA GRACA GIRO      1975010301    010                                07432055081Clementina                                180Jardim Emlia
03205930420241270120002219011322350520241205001100201020033708403279380266F350390    047     101             BPITATIANA ROCHA MARTINS         1977043001    010                                07432065081OSCAR SCHIAVON                            265JARDIM EMLIA/PEROBAL
03205930420241270120002219011322350520241209001110201020033708506327297876F350390    042     101             BPIFRANCINEIDE FERREIRA NEVES    1982032203    010                                07413500090Presidente Dutra              Casa 20     S/NPorto
03205930420241270120002219011322350520241223001120201020033709805044461599F350390    041     101             BPITATIANA SOUZA SANTOS HENRIQUE 1983122203    010                                07432465081Jambeiros                     Caso 02     186Recanto Primavera
03205930420241270120002219011322350520241209001130201020033898002903331814F350390    018     101             BPIGEOVANNA DA SILVA MELO PIEDADE2006051401    010                                07432465081DOS JAMBEIROS                             517ARUJA
03205930420241270120002219011322350520241226001150201020033700008656803209F350390    036     101             BPICLAUDEJE MONTEIRO LIMA        1988051403    010                                07432455081dos Abacateiros                           181Recanto Primavera
03205930420241270120002219011322350520241205002020201020033700203958903420F350390    059     101             BPIMARIA DE LOURDES DA SILVA     1965120803    010                                07432060081Nicolau                       Casa A       48Jardim Emlia
03205930420241270120002219011322350520241209002060201020033700003319193001F350390    053     101             BPIANTONIETA ARAGAO COSTA DA SILV1971061301    010                                07432470081Mangueiras                                405Recanto Primavera
03205930420241270120002219011322350520241216002070201020033700005356095001F350390    063     101             BPIROSA MARIA CAVALCANTE DE SOUZA1961062003    010                                07432005081Pedro Pereira da Silva        Cond 3 Bl   200Jardim Leika
03205930420241270120002219011322350520241216002080201020033700007697170102F350390    030     101             BPIDANIELA CAVALCANTE DE SOUZA   1994102401    010                                07432121081Regina Clia Gomes Alvarenga   Regina Cel   61Cdhu Fazenda Albor
03205930420241270120002219011322350520241209002200201020033700303907067438F350390    044     101             BPITEREZINHA DE OLIVEIRA LIMA E S1980112703    010                                07432575081TOMI SABURO YAMAMOTO                       92JARDIM DAS CEREJEIRAS         87 38702013
03205930420241270120002219011322350520241205003010201020033700400992968942F350390    048     101             BPIELISANGELA NANCI DA SILVA DANT1976081603    010                                07432000081NEGRO                                     265JARDIM LEIKA
03205930420241270120002219011322350520241205003020201020033700402334310450F350390    051     101             BPIMARIA ELIZABETH SOARES DE JESU1973122303    010                                07432065081RUA OSCAR SCHIAVON            CASA 03     121JARDIM EMILIA/PEROBAL         11 46536380
03205930420241270120002219011322350520241205003030201020033700800920850380F350390    060     101             BPIDILVA LOPES CANTUARIA SILVEIRA1964061201    010                                07432121081Regina Clia Gomes Alvarenga   Cod 2 Bloc   90Cdhu Fazenda Albor
03205930420241270120002219011322350520241205003040201020033700809927466584F350390    036     101             BPIMARIA APARECIDA DE OLIVEIRA DO1988040203    010                                07432010081Gabriel Paschoal              Casa 1       71Jardim Leika
03205930420241270120002219011322350520241216003050201020033702108742271290F350390    055     101             BPIROSA CICERA DA SILVA          1969091001    010                                07432050008Dutra                                     160Jardim Emlia
03205930420241270120002219011322350520241209003060201020033702307196128611F350390    031     101             BPIGESSICA GALVAO SANTOS         1993041802    010                                07432121081Regina Clia Gomes Alvarenga   Cond2 Bloc   90Cdhu Fazenda Albor            11972734236
03205930420241270120002219011322350520241223003070201020033702309182511215F350390    049     101             BPILUCIMAURA MARIA DA CONCEICAO  1975102801    010                                07432005081Pedro Pereira da Silva        Cond 2 AP    42Jardim Leika
03205930420241270120002219011322350520241223003080201020033702607200315147F350390    037     101             BPILETICIA XAVIER DA SILVA       1987071601    010                                07432670081Tomi Miura                               1116Jd das Cerejeiras
03205930420241270120002219011322350520241216003090201020033702800104412864F350390    037     101             BPITAYNAN MORAIS MARQUES         1987051603    010                                07432075081DADY                                       05JARDIM EMILIA                 11 46543143
03205930420241270120002219011322350520241205003100201020033704004309702667F350390    043     101             BPIMARIA DE JESUS GOMES AMANCIO D1981072101    010                                07432121081Regina Clia Gomes Alvarenga   Cond2 Bloc   33Cdhu Fazenda Albor            11980213014
03205930420241270120002219011322350520241212003110201020033704102199157578F350390    028     101             BPIALESSANDRA COSTA SILVA SANTOS 1996060503    010                                07432121081Pedro Pereira da Silva        Cond 2 Bol   52Jardim Leika
03205930420241270120002219011322350520241216003120201020033704201769922682F350390    034     101             BPIMARLEIDE FERREIRA PEREIRA BARR1990050801    010                                07432121081Regina Clia Gomes Alvarenga   Cond2 Bl e   90Cdhu Fazenda Albor
03205930420241270120002219011322350520241216003130201020033704304594150599F350390    022     101             BPIGISELE ANTUNES DA SILVA       2002080301    010                                07432122081Nicolas Barbosa da Silva      Cond4 Bl A   30Cdhu Fazenda Albor
03205930420241270280161518926622350520241212004040201020033701208087062710F350390    043     101             BPIROSILANDIA LEANDRO DA SILVA   1981041401    010                                07432670081TOMI MIURA                                913PEROBAL
03205930420241270280161518926622350520241212004050201020033702502334747137F350390    034     101             BPIEVELLIN BERNARDES DA SILVA    1990062701    010                                07432120081Marlene Paiva dos Santos      Cond1 Bloc   60Cdhu Fazenda Albor
03205930420241270280161518926622350520241212004060201020033702608290571149F350390    048     101             BPICARMEM SILVA DE ALMEIDA       1976061701    010                                07432675081Tiaki Ogacawara                            81Sitio dos Fernandes
03205930420241270280161518926622350520241212004070201020033703408215910500F350390    027     101             BPIJOSIVANIA DA SILVA OLIVEIRA   1997062202    010                                07432010081Gabriel Paschoal              Casa 2       75Jardim Leika
03205930420241270280161518926622350520241212004080201020033708608521415782F350390    047     101             BPIERICA ALEXANDRE DA SILVA      1977083101    010                                07432465081Jambeiros                     Casa 02     221Recanto Primavera
03205930420241270280161518926622350520241212004090201020033708906748703311F350390    057     101             BPIMARIA IRENE VIANA GABRIEL     1967092701    010                                07432455081Abacateiros                               182Recanto Primavera
03205930420241270120002219011322350520241211001140214010040702100728402696F350390    030     101             BPIALANNE VICTORIA SOUZA RABELO  1994071901    010                                07432685081Hirayoshi Amano                            53Stio dos Fernandes
03205930420241270120002219011322350520241226001160214010040704206238794289F350390    018     101             BPIARIANE PEREIRA DOS SANTOS     2007012203    010                                07432120081Marlene Paiva dos Santos                   15Cdhu Fazenda Albor
03205930420241270120002219011322350520241223001170214010040704700719109435F350390    018     101             BPICAMILA SARAH DA SILVA         2006052003    010                                07432060081Nicolau                       Casa 01     160Jardim Emlia
03205930420241270280161518926622350520241213003180214010040700005371858908F350390    025     101             BPIGABRIELI MAXIMA SANTOS        1999020903    010                                07432450081Coqueiros                     Casa        164Recanto Primavera             11940864259
03205930420241270280161518926622350520241211004010214010040700607903770666M350390    035     101             BPILAUDILINO LUSTOSA DUARTE NETO 1989050703    010                                07432685081Hirayoshi Amano                            53Sitio dos Fernandes
03205930420241270280161518926622350520241230004030214010040708501353897376F350390    019     101             BPIPRISCILA RODRIGUES MARTINS    2005030801    010                                07432080081Haroldo                                    95Jardim Emlia
03205930420241270120002219011322350520241218001180214010058700005825419009F350390    040     101             BPIANA PAULA DA SILVA            1984040402    010                                07432080081Haroldo                                   105Jardim Emlia
03205930420241270120002219011322350520241217001190214010058700104412424220M350390    024     101             BPILUIZ FERNANDO SILVA MATIAS    2000112601    010                                07432055081Clementina                                169Jardim Emlia
03205930420241270120002219011322350520241219001200214010058702601720087844F350390    059     101             BPIMARIA NADIR DE OLIVEIRA ROSA V1965061203    010                                07432010081Gabriel Paschoal                           39Jardim Leika
03205930420241270120002219011322350520241212002010214010058704304594150599F350390    022     101             BPIGISELE ANTUNES DA SILVA       2002080301    010                                07432122081Nicolas Barbosa da Silva      Cond4 Bl A   30Cdhu Fazenda Albor
03205930420241270120002219011322350520241206002130214010058708505049094580F353060    062     101             BPIMARCIA MARIA GALDINO FRANCISCH1962060801    010                                08780790081FRANCISCO LAMAS                            55JARDIM ARMENIA                11 26689165
03205930420241270280161518926622350520241211004020214010058704203288800387M350390    078     101             BPIJORGE DE SOUZA BRAGA          1947012201    010                                07432050008Dutra                         Casa 1      167Jardim Emlia                  11997772456
03205930420241270280161518926622350520241206004110214010058704807094382146M350390    060     101             BPIANTONIO ROBERTO FERREIRA DA CR1964061301    010                                07432121081Regina Celia Gomes de AlvarengCond63 Blo   14Cdhu Fazenda Albor
03205930420241270120002219011322350520241218002030214010074700005825419009F350390    040     101             BPIANA PAULA DA SILVA            1984040402    010                                07432080081Haroldo                                   105Jardim Emlia
03205930420241270120002219011322350520241217002040214010074700104412424220M350390    024     101             BPILUIZ FERNANDO SILVA MATIAS    2000112601    010                                07432055081Clementina                                169Jardim Emlia
03205930420241270120002219011322350520241219002050214010074702601720087844F350390    059     101             BPIMARIA NADIR DE OLIVEIRA ROSA V1965061203    010                                07432010081Gabriel Paschoal                           39Jardim Leika
03205930420241270120002219011322350520241212002090214010074704304594150599F350390    022     101             BPIGISELE ANTUNES DA SILVA       2002080301    010                                07432122081Nicolas Barbosa da Silva      Cond4 Bl A   30Cdhu Fazenda Albor
03205930420241270120002219011322350520241206002120214010074708505049094580F353060    062     101             BPIMARCIA MARIA GALDINO FRANCISCH1962060801    010                                08780790081FRANCISCO LAMAS                            55JARDIM ARMENIA                11 26689165
03205930420241270280161518926622350520241206003200214010074704807094382146M350390    060     101             BPIANTONIO ROBERTO FERREIRA DA CR1964061301    010                                07432121081Regina Celia Gomes de AlvarengCond63 Blo   14Cdhu Fazenda Albor
03205930420241270280161518926622350520241211004100214010074704203288800387M350390    078     101             BPIJORGE DE SOUZA BRAGA          1947012201    010                                07432050008Dutra                         Casa 1      167Jardim Emlia                  11997772456
03205930420241270120002219011322350520241211002100214010082702100728402696F350390    030     101             BPIALANNE VICTORIA SOUZA RABELO  1994071901    010                                07432685081Hirayoshi Amano                            53Stio dos Fernandes
03205930420241270120002219011322350520241226002140214010082704206238794289F350390    018     101             BPIARIANE PEREIRA DOS SANTOS     2007012203    010                                07432120081Marlene Paiva dos Santos                   15Cdhu Fazenda Albor
03205930420241270120002219011322350520241223002150214010082704700719109435F350390    018     101             BPICAMILA SARAH DA SILVA         2006052003    010                                07432060081Nicolau                       Casa 01     160Jardim Emlia
03205930420241270280161518926622350520241230003140214010082708501353897376F350390    019     101             BPIPRISCILA RODRIGUES MARTINS    2005030801    010                                07432080081Haroldo                                    95Jardim Emlia
03205930420241270280161518926622350520241213003170214010082700005371858908F350390    025     101             BPIGABRIELI MAXIMA SANTOS        1999020903    010                                07432450081Coqueiros                     Casa        164Recanto Primavera             11940864259
03205930420241270280161518926622350520241211003190214010082700607903770666M350390    035     101             BPILAUDILINO LUSTOSA DUARTE NETO 1989050703    010                                07432685081Hirayoshi Amano                            53Sitio dos Fernandes
03205930420241270120002219011322350520241206002110214010090708505049094580F353060    062     101             BPIMARCIA MARIA GALDINO FRANCISCH1962060801    010                                08780790081FRANCISCO LAMAS                            55JARDIM ARMENIA                11 26689165
03205930420241270120002219011322350520241218002160214010090700005825419009F350390    040     101             BPIANA PAULA DA SILVA            1984040402    010                                07432080081Haroldo                                   105Jardim Emlia
03205930420241270120002219011322350520241217002170214010090700104412424220M350390    024     101             BPILUIZ FERNANDO SILVA MATIAS    2000112601    010                                07432055081Clementina                                169Jardim Emlia
03205930420241270120002219011322350520241219002180214010090702601720087844F350390    059     101             BPIMARIA NADIR DE OLIVEIRA ROSA V1965061203    010                                07432010081Gabriel Paschoal                           39Jardim Leika
03205930420241270120002219011322350520241212002190214010090704304594150599F350390    022     101             BPIGISELE ANTUNES DA SILVA       2002080301    010                                07432122081Nicolas Barbosa da Silva      Cond4 Bl A   30Cdhu Fazenda Albor
03205930420241270280161518926622350520241206003150214010090704807094382146M350390    060     101             BPIANTONIO ROBERTO FERREIRA DA CR1964061301    010                                07432121081Regina Celia Gomes de AlvarengCond63 Blo   14Cdhu Fazenda Albor
03205930420241270280161518926622350520241211003160214010090704203288800387M350390    078     101             BPIJORGE DE SOUZA BRAGA          1947012201    010                                07432050008Dutra                         Casa 1      167Jardim Emlia                  11997772456
03205930420241270680721788402722514220241209004120301090033704603640389427F350390I10 067     101             BPIMARIA IZABEL MELQUIDES        1957102001    010                                07432670081TOMI MIURA                    A            09JD DAS CEREJEIRAS
03277322820241270080892717798022350520241203001070201020033700503348903254F350390    037     101             BPIJOSIMERE RODRIGUES TEIXEIRA SA1987110503    010                                07417325008Antonio Armando Justica       A            41Parque Rodrigo Barreto        11975326851
03277322820241270080892717798022350520241203001080201020033700702939969076F350390    045     101             BPIGUACIRA APARECIDA DA SILVA SAN1979041301    010                                07417420081Tailor do Nascimento                      165Pirituba                      11930550592
03277322820241270080892717798022350520241203001090201020033700800400064283F350390    019     101             BPILETICIA DE JESUS DA SILVA     2005090303    010                                07417455081Padre Atlio Garrone                       336Parque Rodrigo Barreto        11 37541592
03277322820241270080892717798022350520241203001100201020033702706105607460F350390    050     101             BPICLEIDE BEZERRA DA SILVA       1974101001    010                                07417465081Antonia Manoel Fernandes                  784Parque Rodrigo Barreto
03277322820241270080892717798022350520241217001110201020033702901574693673F350390    027     101             BPIVANESSA SANTANA DE SOUZA      1997092803    010                                07417460081Jorge Cruz                                 23Parque Rodrigo Barreto        11 46413481
03277322820241270080892717798022350520241203001120201020033704106124006274F350390    034     101             BPIFLAVIA REGINA MASS DE OLIVEIRA1990050101    010                                07401765081Macedo Soares                 Casa 02      66Vila Pilar
03277322820241270080892717798022350520241203001130201020033704503336668711F350390    043     101             BPIGILMARA DE SOUZA SANTOS BONINA1981071003    010                                07417335081Raymundo Fernandes            Casa 6      563Parque Rodrigo Barreto
03277322820241270500681930965722350520241210002050201020033702809683293062F350390    036     101             BPIGRACIELA VICTORIA CACERES ALEJ1988091803    010                                07417465081Antonia Manoel Fernandes                  768Parque Rodrigo Barreto
03277322820241270500681930965722350520241210002060201020033702308554119620F350390    052     101             BPIVILMA DE OLIVEIRA             1972030601    010                                07401785081MARIA HELENA                              161VILA PILAR
03277322820241270500681930965722350520241210002070201020033702600744089447F350390    035     101             BPIRENATA DA SILVA OLIVEIRA COSTA1989082601    010                                07417505081GIUSEPPE ANTONIO MAIOLINO                 182PARQUE RODRIGO BARRETO
03277322820241270500681930965722350520241210002080201020033700007003929400F350390    046     101             BPICLAUDIA DOS SANTOS SOUSA      1978110201    010                                07401695081Firmina Maiolino Ribeiro                   51Vila Pilar
03277322820241270500681930965722350520241206002090201020033700006686326806F350390    023     101             BPILARIANY WINNI SANTANA CAPPONI 2001041501    010                                07417465081Antonia Manoel Fernandes                  215Parque Rodrigo Barreto        11939533203
03277322820241270500681930965722350520241206002100201020033700005955102404F350390    045     101             BPIMARIA JANE DA SILVA OLIVEIRA  1980011801    010                                07401695081Firmina Maiolino Ribeiro      Casa        378Vila Pilar
03277322820241270080892717798022350520241219001140214010040700005956142809F350390    028     101             BPIAMANDA APARECIDA RODRIGUES FER1996060101    010                                07401785081Maria Helena                  Cadastro a  114Vila Pilar
03277322820241270080892717798022350520241219001150214010040700502508173851F350390    029     101             BPIANA PAULA DOS SANTOS ALVES    1995061703    010                                07417415081Alfredo Antonio Fernandes                  82Parque Rodrigo Barreto
03277322820241270080892717798022350520241212001160214010040703408970936500F350390    021     101             BPIMARIA EDUARDA MENDONCA DE NOVA2003102001    010                                07417505081Giuseppe Antonio Maiolino                 647Parque Rodrigo Barreto        61 33152425
03277322820241270080892717798022350520241205001170214010040706001391681642F350390    035     101             BPIPATRICIA PEREIRA DA SILVA     1989031501    010                                07417460081Jorge Cruz                    A            81Pirituba
03277322820241270080892717798022350520241223001180214010040708407795808863F350390    015     101             BPIMIKAELY MARTINS NAVARRO       2009083103    010                                07417325008Antonio Armando Justia                    584Parque Rodrigo Barreto
03277322820241270080892717798022350520241212001060214010058700405415427741F350390    036     101             BPIANDRESA FERREIRA DA SILVA     1988112103    010                                07417320081Claudino Antonio Barbosa      Casa 1      129Parque Rodrigo Barreto
03277322820241270080892717798022350520241203001190214010058708101511055536M350390    052     101             BPIJOSE FLORISVALDO DE OLIVEIRA B1972080603    010                                07417465081Antonia Manoel Fernandes                  359Parque Rodrigo Barreto
03277322820241270080892717798022350520241212001200214010074700405415427741F350390    036     101             BPIANDRESA FERREIRA DA SILVA     1988112103    010                                07417320081Claudino Antonio Barbosa      Casa 1      129Parque Rodrigo Barreto
03277322820241270080892717798022350520241203002010214010074708101511055536M350390    052     101             BPIJOSE FLORISVALDO DE OLIVEIRA B1972080603    010                                07417465081Antonia Manoel Fernandes                  359Parque Rodrigo Barreto
03277322820241270080892717798022350520241205001010214010082706001391681642F350390    035     101             BPIPATRICIA PEREIRA DA SILVA     1989031501    010                                07417460081Jorge Cruz                    A            81Pirituba
03277322820241270080892717798022350520241223001020214010082708407795808863F350390    015     101             BPIMIKAELY MARTINS NAVARRO       2009083103    010                                07417325008Antonio Armando Justia                    584Parque Rodrigo Barreto
03277322820241270080892717798022350520241219002020214010082700005956142809F350390    028     101             BPIAMANDA APARECIDA RODRIGUES FER1996060101    010                                07401785081Maria Helena                  Cadastro a  114Vila Pilar
03277322820241270080892717798022350520241219002030214010082700502508173851F350390    029     101             BPIANA PAULA DOS SANTOS ALVES    1995061703    010                                07417415081Alfredo Antonio Fernandes                  82Parque Rodrigo Barreto
03277322820241270080892717798022350520241212002040214010082703408970936500F350390    021     101             BPIMARIA EDUARDA MENDONCA DE NOVA2003102001    010                                07417505081Giuseppe Antonio Maiolino                 647Parque Rodrigo Barreto        61 33152425
03277322820241270080892717798022350520241212001030214010090700405415427741F350390    036     101             BPIANDRESA FERREIRA DA SILVA     1988112103    010                                07417320081Claudino Antonio Barbosa      Casa 1      129Parque Rodrigo Barreto
03277322820241270080892717798022350520241206001040214010090705600436639912F350390    011     101             BPIALICE DE CARVALHO SANTOS      2013071103    010                                07401770081Justino de Jesus Gomes        Casa 1       96Vila Pilar                    11 46512022
03277322820241270080892717798022350520241203001050214010090708101511055536M350390    052     101             BPIJOSE FLORISVALDO DE OLIVEIRA B1972080603    010                                07417465081Antonia Manoel Fernandes                  359Parque Rodrigo Barreto
03277384820241270280866848406422350520241210001030201020033705109412424870F350390    043     101             BPIMELENTINA MIGUEL DE SOUSA     1982012101    010                                07404175081Serra da Mata da Corda        Casa 3      138Mirante do Aruj
03277384820241270280866848406422350520241210001070201020033700004270450600F350390    026     101             BPIVALDINEIA NASCIMENTO DOS SANTO1998090701    010                                07404120081SERRA DE PARANAPIACABA                     79MIRANTE DO ARUJ
03277384820241270280866848406422350520241203001080201020033700005556772708F350390    053     101             BPICARMIRANDA MARIA DE SALES TEIX1971040503    010                                07404170081Serra dos Carajs              Casa 01      35Mirante do Aruj
03277384820241270280866848406422350520241210001090201020033700006372520707F350390    026     101             BPIFERNANDA SERAFIM DA SILVA     1998031601    010                                07404100031FERNANDES                     CASA 02    1831MIRANTE DO ARUJ
03277384820241270280866848406422350520241203001100201020033700006477320902F350390    062     101             BPIRISOMAR DE AMORIM CORREIA CAMP1962021202    010                                07404135081SERRA DOS CANUDOS             CASA 1      120PEDREIRA                      11980280053
03277384820241270280866848406422350520241203001110201020033700302913030337F350390    061     101             BPIAPARECIDA FRANCISCA DE SOUZA P1963061801    010                                07404120081SERRA DE PARANAPIACABA                    245MIRANTE DO ARUJA              11950770781
03277384820241270280866848406422350520241217001120201020033700504579831659F350390    066     101             BPIJULITA GAMA DE JESUS SANTOS   1958090801    010                                07404035081SERRA DA CANTAREIRA                        99MIRANTE                       11 46532591
03277384820241270280866848406422350520241217001130201020033700505949078055F350390    023     101             BPIFERNANDA DO NASCIMENTO RIBEIRO2001121503    010                                07404115081Serra da Bocaina                           77Mirante do Aruj               11 46514065
03277384820241270280866848406422350520241210001140201020033702402584762827F350390    047     101             BPICLENILDE CONCEICAO TEIXEIRA   1977033002    010                                07404165031DOS FERNANDES 2281/99999      CASA       2460MIRANTE DO ARUJA
03277384820241270280866848406422350520241210001150201020033703605089012737F350390    050     101             BPIDAMARIS DE LIMA DE SOUZA      1974071003    010                                07404095081SERRA DO JARI                              03MIRANTE DO ARUJ               11 46531111
03277384820241270280866848406422350520241210001160201020033704805083210347F350390    070     101             BPITEREZA EUNICE BATISTA REZENDE 1954113001    010                                07404135081Serra dos Canudos                         161Mirante do Aruj
03277384820241270280866848406422350520241203001170201020033705006400647452F350390Z34 022     101             BPIKHADIJA VITORIA MOREIRA DA SIL2002113001    010                                07404105081SERRA DO BOTUCATU             CASA          9PEDREIRA                      11989348122
03277384820241270280866848406422350520241203001180201020033705008410642250F350390    063     101             BPIMARIA JOSE DA SILVA           1961120801    010                                07404110081SERRA DA LUA                              200PEDREIRA
03277384820241270280866848406422350520241203001190201020033705306428077690F350390    028     101             BPILARISSA SIMOES DA SILVA       1996030403    010                                07404195081SERRA DO GUARAU               CASA 03     185MIRANTE DO ARUJA
03277384820241270280866848406422350520241217001200201020033706804772640823F350390    048     101             BPIJOSEFA DILMA GOMES DO NASCIMEN1976082801    010                                07404115081SERRA DA BOCAINA                           77MIRANTE DO ARUJ               11977453391
03277384820241270280866848406422350520241203002010201020033707402038873176F350390    040     101             BPIKARINA LOPES RODRIGUES DE SOUZ1984072103    010                                07404095081SERRA DO JARI                 A            99PEDREIRA
03277384820241270280866848406422350520241217002020201020033707403064489176F350390    059     101             BPIELENI MOREIRA DOS SANTOS      1965030201    010                                07404090081Serra do Jaire                             95Mirante do Aruja
03277384820241270280866848406422350520241217002030201020033708903753050018F350390    026     101             BPILETICIA HELLEN DE LIMA DE SOUZ1998102001    010                                07404095081SERRA DO JARI                              03PEDREIRA                      11 46514005
03277384820241270450237014861922350520241217003020201020033700508906734654F350390    058     101             BPIELIANE SEVERINA DA SILVA PINHE1966070101    010                                07404055081SERRA DA MANTIQUEIRA          C           671MIRANTE DO ARUJ
03277384820241270450237014861922350520241210003030201020033700805447812183F350390    049     101             BPIROSANGELA APARECIDA DA COSTA S1975042303    010                                07405310081Jose Rodrigues Barbiosa                   258Pedra Fala
03277384820241270450237014861922350520241210003040201020033700008143625103F350390    045     101             BPICLEIA ALVES DOS SANTOS        1979050801    010                                07405465081Perdizes                      Casa 01 So  416Jardim Pinheiro
03277384820241270450237014861922350520241217003050201020033702007356946387F350390    032     101             BPIMAIARA MARIA DOS SANTOS       1992093003    010                                07405460081Arapongas                                 223Jardim Pinheiro
03277384820241270450237014861922350520241203003060201020033702300128343115F350390    040     101             BPIGENILDA ALVES DA SILVA        1984110203    010                                07405400081Tuim                                       75Pedreira                      11 43950654
03277384820241270450237014861922350520241210003070201020033702800120857360F350390    025     101             BPITAIS CARVALHO DE JESUS        1999031203    010                                07405440081Jacutinga                                 130Jardim Pinheiro               11934039871
03277384820241270450237014861922350520241210003080201020033705002682626152F350390    044     101             BPIPATRICIA EDITE DE SOUSA       1980092403    010                                07405425081ROUXINOL                      CASA 1       61JARDIM PINHEIRO               11910803490
03277384820241270450237014861922350520241203003090201020033706007872674045F350390    035     101             BPIERIKA ANGELICA GOMES          1989101103    010                                07404040081SERRA DO ITAPETI              SOBRADO     535MIRANTE DO ARUJA              11 46533747
