01#BPA#2025050095430002051870SECRETARIA MUNICIPAL DE SAUDE SMS   56901275000150SECRETARIA ESTADUAL DE SAUDE            MD04.01    
022059304202505225142001010101030029000000002BPA
022059304202505223505001020101040024000000012BPA
022059304202505223565001030101040024000000019BPA
022059304202505223710001040101040024000000028BPA
022059304202505225142001050101040024000000003BPA
022059304202505322230001060101040024000000107BPA
022059304202505322250001070101040024000000032BPA
022059304202505322230001080101040059000000009BPA
022059304202505223505001090201020033000000025BPA
022059304202505223565001100201020033000000019BPA
022059304202505223505001110214010015000000004BPA
022059304202505223565001120214010015000000002BPA
022059304202505225142001130214010015000000010BPA
022059304202505322230001140214010015000000007BPA
022059304202505322250001150214010015000000002BPA
022059304202505223505001160214010066000000001BPA
022059304202505322230001170214010066000000010BPA
022059304202505322250001180214010066000000001BPA
022059304202505223505001190214010104000000022BPA
022059304202505223565001200214010104000000001BPA
022059304202505223505002010301010110025000001BPA
022059304202505223505002020301010110032000001BPA
022059304202505223505002030301010110028000001BPA
022059304202505223505002040301010110023000001BPA
022059304202505223505002050301010110016000001BPA
022059304202505223505002060301010110039000001BPA
022059304202505223505002070301010110022000004BPA
022059304202505223565002080301010110019000001BPA
022059304202505223565002090301010110025000001BPA
022059304202505225125002100301010110030000001BPA
022059304202505225125002110301010110039000001BPA
022059304202505225125002120301010110035000001BPA
022059304202505225125002130301010110038000001BPA
022059304202505225125002140301010110019000003BPA
022059304202505225125002150301010110027000002BPA
022059304202505225125002160301010110034000003BPA
022059304202505225125002170301010110028000003BPA
022059304202505225125002180301010110015000001BPA
022059304202505225125002190301010110040000001BPA
022059304202505225125002200301010110037000001BPA
022059304202505225125003010301010110024000001BPA
022059304202505225125003020301010110026000003BPA
022059304202505225125003030301010110020000001BPA
022059304202505225250003040301010110032000002BPA
022059304202505225250003050301010110025000004BPA
022059304202505225250003060301010110019000001BPA
022059304202505225250003070301010110026000002BPA
022059304202505225250003080301010110024000002BPA
022059304202505223505003090301010129022000001BPA
022059304202505223505003100301010129042000001BPA
022059304202505223505003110301010129021000001BPA
022059304202505223505003120301010129019000001BPA
022059304202505225125003130301010129016000001BPA
022059304202505225125003140301010129036000002BPA
022059304202505225125003150301010129026000001BPA
022059304202505225125003160301010129021000001BPA
022059304202505225125003170301010129028000002BPA
022059304202505225125003180301010129023000002BPA
022059304202505225125003190301010129034000001BPA
022059304202505223208003200301010153037000001BPA
022059304202505223208004010301010153063000001BPA
022059304202505223208004020301010153085000001BPA
022059304202505223208004030301010153028000003BPA
022059304202505223208004040301010153054000001BPA
022059304202505223208004050301010153014000001BPA
022059304202505223208004060301010153006000003BPA
022059304202505223208004070301010153015000001BPA
022059304202505223208004080301010153075000001BPA
022059304202505223208004090301010153023000001BPA
022059304202505223208004100301010153032000001BPA
022059304202505223208004110301010153024000002BPA
022059304202505223208004120301010153001000001BPA
022059304202505223208004130301010153033000001BPA
022059304202505223208004140301010153019000001BPA
022059304202505223208004150301010153059000001BPA
022059304202505223208004160301010153003000001BPA
022059304202505223208004170301010153009000001BPA
022059304202505223208004180301010153081000001BPA
022059304202505223208004190301010153025000002BPA
022059304202505223208004200301010153026000001BPA
022059304202505223208005010301010153055000001BPA
022059304202505223208005020301010153048000001BPA
022059304202505223208005030301010153022000003BPA
022059304202505223208005040301010153008000002BPA
022059304202505223208005050301010153056000001BPA
022059304202505223208005060301010153004000005BPA
022059304202505223208005070301010153005000002BPA
022059304202505223208005080301010153016000003BPA
022059304202505223208005090301010153066000001BPA
022059304202505223208005100301010153010000002BPA
022059304202505223208005110301010153040000001BPA
022059304202505223208005120301010153007000003BPA
022059304202505223208005130301010153011000001BPA
022059304202505223208005140301010153064000001BPA
022059304202505223208005150301010153052000001BPA
022059304202505223208005160301010153002000001BPA
022059304202505223208005170301010153053000001BPA
022059304202505223208005180301010153027000001BPA
022059304202505223505005190301040079000000149BPA
022059304202505223565005200301040079000000070BPA
022059304202505322230006010301040079000000172BPA
022059304202505322250006020301040079000000013BPA
022059304202505223208006030301060037000000115BPA
022059304202505223505006040301100039000000019BPA
022059304202505223565006050301100039000000004BPA
022059304202505225125006060301100039000000005BPA
022059304202505225142006070301100039000000078BPA
022059304202505322230006080301100039000000066BPA
022059304202505322250006090301100039000000020BPA
022059304202505223505006100301100152000000001BPA
022059304202505322230006110301100152000000010BPA
022059304202505322250006120301100152000000002BPA
022773228202505223505001010101040024000000026BPA
022773228202505223710001020101040024000000065BPA
022773228202505225125001030101040024000000022BPA
022773228202505225250001040101040024000000083BPA
022773228202505322230001050101040024000000188BPA
022773228202505322250001060101040024000000003BPA
022773228202505223505001070201020033000000029BPA
022773228202505225250001080201020033000000009BPA
022773228202505223505001090214010015000000002BPA
022773228202505225125001100214010015000000008BPA
022773228202505322230001110214010015000000034BPA
022773228202505223505001120214010066000000006BPA
022773228202505322230001130214010066000000001BPA
022773228202505223505001140214010104000000005BPA
022773228202505223505001150301010110030000001BPA
022773228202505223505001160301010110023000001BPA
022773228202505223505001170301010110038000001BPA
022773228202505223505001180301010110019000003BPA
022773228202505223505001190301010110014000002BPA
022773228202505223505001200301010110016000001BPA
022773228202505223505002010301010110025000007BPA
022773228202505223505002020301010110035000002BPA
022773228202505223505002030301010110015000001BPA
022773228202505223505002040301010110029000002BPA
022773228202505223505002050301010110020000003BPA
022773228202505223505002060301010110032000003BPA
022773228202505223505002070301010110024000004BPA
022773228202505223505002080301010110021000002BPA
022773228202505225250002090301010110022000001BPA
022773228202505225250002100301010110018000002BPA
022773228202505225250002110301010110025000006BPA
022773228202505225250002120301010110045000001BPA
022773228202505225250002130301010110015000001BPA
022773228202505225250002140301010110029000008BPA
022773228202505225250002150301010110020000003BPA
022773228202505225250002160301010110026000004BPA
022773228202505225250002170301010110028000007BPA
022773228202505225250002180301010110033000005BPA
022773228202505225250002190301010110030000007BPA
022773228202505225250002200301010110036000002BPA
022773228202505225250003010301010110021000004BPA
022773228202505225250003020301010110023000003BPA
022773228202505225250003030301010110035000003BPA
022773228202505225250003040301010110024000008BPA
022773228202505225250003050301010110038000001BPA
022773228202505225250003060301010110031000002BPA
022773228202505225250003070301010110019000004BPA
022773228202505225250003080301010110027000003BPA
022773228202505225250003090301010110034000002BPA
022773228202505225250003100301010110017000001BPA
022773228202505225250003110301010110037000002BPA
022773228202505225250003120301010110016000001BPA
022773228202505225250003130301010110032000004BPA
022773228202505225250003140301010129036000001BPA
022773228202505225250003150301010129024000001BPA
022773228202505225250003160301010129031000001BPA
022773228202505225250003170301010129020000001BPA
022773228202505225250003180301010129028000001BPA
022773228202505225250003190301010129016000001BPA
022773228202505225250003200301010129030000001BPA
022773228202505223710004010301010137063000001BPA
022773228202505223710004020301010137055000001BPA
022773228202505223710004030301010137026000001BPA
022773228202505223208004040301010153032000001BPA
022773228202505223208004050301010153053000001BPA
022773228202505223208004060301010153024000001BPA
022773228202505223208004070301010153022000001BPA
022773228202505223208004080301010153077000001BPA
022773228202505223208004090301010153021000001BPA
022773228202505223208004100301010153019000002BPA
022773228202505223208004110301010153020000001BPA
022773228202505223208004120301010153025000002BPA
022773228202505223208004130301010153043000002BPA
022773228202505223208004140301010153018000001BPA
022773228202505223208004150301010153047000001BPA
022773228202505223208004160301010153016000001BPA
022773228202505223208004170301010153070000001BPA
022773228202505223208004180301010153067000001BPA
022773228202505223208004190301010153062000001BPA
022773228202505223208004200301010153027000001BPA
022773228202505223208005010301010153045000002BPA
022773228202505223208005020301010153060000001BPA
022773228202505223208005030301010153008000001BPA
022773228202505223208005040301010153028000001BPA
022773228202505223208005050301010153034000001BPA
022773228202505223208005060301010153052000001BPA
022773228202505322230005070301040079000000129BPA
022773228202505223505005080301040087000000001BPA
022773228202505223710005090301040087000000010BPA
022773228202505322230005100301050112000000092BPA
022773228202505223208005110301060037000000083BPA
022773228202505223505005120301100039000000027BPA
022773228202505225125005130301100039000000193BPA
022773228202505225250005140301100039000000090BPA
022773228202505322230005150301100039000000134BPA
022773228202505322230005160301100152000000009BPA
022773848202505225142001010101030029000000009BPA
022773848202505223505001020101040024000000044BPA
022773848202505223710001030101040024000000056BPA
022773848202505225142001040101040024000000008BPA
022773848202505225250001050101040024000000026BPA
022773848202505322230001060101040024000000131BPA
022773848202505322250001070101040024000000086BPA
022773848202505322230001080101040059000000004BPA
022773848202505322250001090101040059000000002BPA
022773848202505223505001100201020033000000060BPA
022773848202505223505001110214010015000000030BPA
022773848202505225125001120214010015000000030BPA
022773848202505225142001130214010015000000014BPA
022773848202505225250001140214010015000000003BPA
022773848202505322230001150214010015000000020BPA
022773848202505322250001160214010015000000028BPA
022773848202505223505001170214010066000000003BPA
022773848202505322230001180214010066000000008BPA
022773848202505322250001190214010066000000010BPA
022773848202505223505001200214010104000000033BPA
022773848202505223505002010301010110029000003BPA
022773848202505223505002020301010110032000002BPA
022773848202505223505002030301010110013000001BPA
022773848202505223505002040301010110042000001BPA
022773848202505223505002050301010110022000001BPA
022773848202505223505002060301010110021000001BPA
022773848202505223505002070301010110023000002BPA
022773848202505223505002080301010110026000001BPA
022773848202505223505002090301010110020000001BPA
022773848202505223505002100301010110030000002BPA
022773848202505223505002110301010110025000001BPA
022773848202505223505002120301010110027000002BPA
022773848202505223505002130301010110024000001BPA
022773848202505225125002140301010110036000001BPA
022773848202505225125002150301010110021000002BPA
022773848202505225125002160301010110023000003BPA
022773848202505225125002170301010110035000003BPA
022773848202505225125002180301010110034000002BPA
022773848202505225125002190301010110031000001BPA
022773848202505225125002200301010110032000002BPA
022773848202505225125003010301010110028000002BPA
022773848202505225125003020301010110025000002BPA
022773848202505225125003030301010110022000001BPA
022773848202505225125003040301010110024000004BPA
022773848202505225125003050301010110033000001BPA
022773848202505225125003060301010110029000001BPA
022773848202505225125003070301010110030000001BPA
022773848202505225250003080301010110038000001BPA
022773848202505225250003090301010110019000002BPA
022773848202505225250003100301010110031000001BPA
022773848202505225250003110301010110029000003BPA
022773848202505225250003120301010110022000003BPA
022773848202505225250003130301010110026000001BPA
022773848202505225250003140301010110033000002BPA
022773848202505225250003150301010110018000001BPA
022773848202505225250003160301010110016000001BPA
022773848202505225250003170301010110025000002BPA
022773848202505225250003180301010110036000001BPA
022773848202505225250003190301010110023000003BPA
022773848202505225250003200301010110035000004BPA
022773848202505225250004010301010110032000004BPA
022773848202505225250004020301010110024000002BPA
022773848202505225250004030301010110021000001BPA
022773848202505225250004040301010110042000001BPA
022773848202505225250004050301010110028000003BPA
022773848202505223505004060301010129038000001BPA
022773848202505223505004070301010129026000001BPA
022773848202505223505004080301010129050000001BPA
022773848202505223505004090301010129037000001BPA
022773848202505223505004100301010129046000001BPA
022773848202505223505004110301010129029000001BPA
022773848202505225125004120301010129017000001BPA
022773848202505225125004130301010129016000001BPA
022773848202505225125004140301010129021000001BPA
022773848202505223710004150301010137094000001BPA
022773848202505223710004160301010137092000001BPA
022773848202505223710004170301010137077000001BPA
022773848202505223710004180301010137084000001BPA
022773848202505223710004190301010137099000001BPA
022773848202505223710004200301010137086000001BPA
022773848202505223208005010301010153077000001BPA
022773848202505223208005020301010153057000001BPA
022773848202505223208005030301010153038000002BPA
022773848202505223208005040301010153067000002BPA
022773848202505223208005050301010153060000001BPA
022773848202505223208005060301010153033000002BPA
022773848202505223208005070301010153046000001BPA
022773848202505223208005080301010153031000004BPA
022773848202505223208005090301010153009000003BPA
022773848202505223208005100301010153041000002BPA
022773848202505223208005110301010153005000003BPA
022773848202505223208005120301010153068000001BPA
022773848202505223208005130301010153061000002BPA
022773848202505223208005140301010153043000003BPA
022773848202505223208005150301010153073000001BPA
022773848202505223208005160301010153049000004BPA
022773848202505223208005170301010153024000002BPA
022773848202505223208005180301010153027000001BPA
022773848202505223208005190301010153065000002BPA
022773848202505223208005200301010153045000001BPA
022773848202505223208006010301010153012000001BPA
022773848202505223208006020301010153026000001BPA
022773848202505223208006030301010153034000002BPA
022773848202505223208006040301010153010000002BPA
022773848202505223208006050301010153025000001BPA
022773848202505223208006060301010153013000002BPA
022773848202505223208006070301010153062000001BPA
022773848202505223208006080301010153004000002BPA
022773848202505223208006090301010153008000006BPA
022773848202505223208006100301010153032000002BPA
022773848202505223208006110301010153050000002BPA
022773848202505223208006120301010153035000002BPA
022773848202505223208006130301010153063000003BPA
022773848202505223208006140301010153044000002BPA
022773848202505223208006150301010153053000003BPA
022773848202505223208006160301010153059000001BPA
022773848202505223208006170301010153011000001BPA
022773848202505223208006180301010153036000001BPA
022773848202505223208006190301010153054000002BPA
022773848202505223208006200301010153006000001BPA
022773848202505223208007010301010153007000001BPA
022773848202505223208007020301010153051000001BPA
022773848202505223208007030301010153070000001BPA
022773848202505223208007040301010153042000001BPA
022773848202505223208007050301010153052000005BPA
022773848202505223208007060301010153022000002BPA
022773848202505223208007070301010153047000001BPA
022773848202505223208007080301010153048000003BPA
022773848202505223208007090301010153018000004BPA
022773848202505223208007100301010153028000001BPA
022773848202505223208007110301010153017000001BPA
022773848202505223208007120301010153029000002BPA
022773848202505223505007130301040079000000065BPA
022773848202505322230007140301040079000000218BPA
022773848202505322250007150301040079000000202BPA
022773848202505223710007160301040087000000010BPA
022773848202505223505007170301050112000000032BPA
022773848202505322230007180301050112000000172BPA
022773848202505322250007190301050112000000091BPA
022773848202505223208007200301060037000000023BPA
022773848202505223505008010301100039000000105BPA
022773848202505223710008020301100039000000001BPA
022773848202505225125008030301100039000000044BPA
022773848202505225142008040301100039000000087BPA
022773848202505225250008050301100039000000024BPA
022773848202505322230008060301100039000000086BPA
022773848202505322250008070301100039000000101BPA
022773848202505223505008080301100152000000001BPA
022773848202505322230008090301100152000000002BPA
022773848202505322250008100301100152000000013BPA
022773856202505223505001010101030029000000002BPA
022773856202505223505001020101040024000000026BPA
022773856202505223710001030101040024000000127BPA
022773856202505225124001040101040024000000166BPA
022773856202505225125001050101040024000000038BPA
022773856202505225142001060101040024000000485BPA
022773856202505225250001070101040024000000009BPA
022773856202505322230001080101040024000000258BPA
022773856202505322250001090101040024000000240BPA
022773856202505322230001100101040059000000050BPA
022773856202505322250001110101040059000000011BPA
022773856202505223505001120201020025000000001BPA
022773856202505223505001130201020033000000108BPA
022773856202505225250001140201020033000000003BPA
022773856202505223505001150214010015000000047BPA
022773856202505225125001160214010015000000008BPA
022773856202505225142001170214010015000000031BPA
022773856202505322230001180214010015000000016BPA
022773856202505322250001190214010015000000035BPA
022773856202505223505001200214010066000000046BPA
022773856202505223505002010214010104000000048BPA
022773856202505223505002020301010110031000002BPA
022773856202505223505002030301010110019000004BPA
022773856202505223505002040301010110020000001BPA
022773856202505223505002050301010110022000001BPA
022773856202505223505002060301010110017000003BPA
022773856202505223505002070301010110035000001BPA
022773856202505223505002080301010110026000002BPA
022773856202505223505002090301010110028000002BPA
022773856202505223505002100301010110027000002BPA
022773856202505223505002110301010110043000003BPA
022773856202505223505002120301010110018000001BPA
022773856202505223505002130301010110021000004BPA
022773856202505223505002140301010110024000005BPA
022773856202505223505002150301010110034000002BPA
022773856202505223505002160301010110032000003BPA
022773856202505223505002170301010110036000002BPA
022773856202505223505002180301010110016000001BPA
022773856202505223505002190301010110030000007BPA
022773856202505223505002200301010110023000002BPA
022773856202505223505003010301010110025000003BPA
022773856202505223505003020301010110033000002BPA
022773856202505225125003030301010110035000001BPA
022773856202505225125003040301010110022000001BPA
022773856202505225125003050301010110019000007BPA
022773856202505225125003060301010110032000003BPA
022773856202505225125003070301010110034000004BPA
022773856202505225125003080301010110031000005BPA
022773856202505225125003090301010110029000004BPA
022773856202505225125003100301010110018000004BPA
022773856202505225125003110301010110024000005BPA
022773856202505225125003120301010110026000007BPA
022773856202505225125003130301010110027000007BPA
022773856202505225125003140301010110038000001BPA
022773856202505225125003150301010110021000005BPA
022773856202505225125003160301010110028000004BPA
022773856202505225125003170301010110036000002BPA
022773856202505225125003180301010110033000001BPA
022773856202505225125003190301010110030000007BPA
022773856202505225125003200301010110016000001BPA
022773856202505225125004010301010110025000004BPA
022773856202505225125004020301010110039000001BPA
022773856202505225125004030301010110017000004BPA
022773856202505225125004040301010110015000002BPA
022773856202505225125004050301010110023000002BPA
022773856202505225125004060301010110020000007BPA
022773856202505225250004070301010110022000001BPA
022773856202505225250004080301010110019000006BPA
022773856202505225250004090301010110033000003BPA
022773856202505225250004100301010110043000002BPA
022773856202505225250004110301010110028000003BPA
022773856202505225250004120301010110026000005BPA
022773856202505225250004130301010110024000004BPA
022773856202505225250004140301010110016000001BPA
022773856202505225250004150301010110023000006BPA
022773856202505225250004160301010110031000004BPA
022773856202505225250004170301010110041000002BPA
022773856202505225250004180301010110032000002BPA
022773856202505225250004190301010110030000005BPA
022773856202505225250004200301010110021000004BPA
022773856202505225250005010301010110035000002BPA
022773856202505225250005020301010110025000003BPA
022773856202505225250005030301010110036000003BPA
022773856202505225250005040301010110027000004BPA
022773856202505225250005050301010110029000001BPA
022773856202505225250005060301010110038000001BPA
022773856202505225250005070301010110034000001BPA
022773856202505223505005080301010129031000001BPA
022773856202505223505005090301010129026000001BPA
022773856202505223505005100301010129025000001BPA
022773856202505223505005110301010129033000001BPA
022773856202505223505005120301010129030000001BPA
022773856202505223505005130301010129040000001BPA
022773856202505223505005140301010129022000001BPA
022773856202505225125005150301010129024000001BPA
022773856202505225125005160301010129030000002BPA
022773856202505225125005170301010129041000001BPA
022773856202505225125005180301010129033000001BPA
022773856202505225125005190301010129023000002BPA
022773856202505225125005200301010129027000001BPA
022773856202505225125006010301010129028000002BPA
022773856202505225125006020301010129031000001BPA
022773856202505225125006030301010129022000002BPA
022773856202505225125006040301010129021000002BPA
022773856202505225125006050301010129025000001BPA
022773856202505225125006060301010129017000001BPA
022773856202505225125006070301010129020000001BPA
022773856202505225125006080301010129029000002BPA
022773856202505225125006090301010129040000001BPA
022773856202505225125006100301010129019000001BPA
022773856202505225125006110301010129026000001BPA
022773856202505225125006120301010129032000001BPA
022773856202505223505006130301010137074000001BPA
022773856202505223505006140301010137040000001BPA
022773856202505223505006150301010137062000001BPA
022773856202505223505006160301010137091000001BPA
022773856202505223505006170301010137058000001BPA
022773856202505223505006180301010137089000001BPA
022773856202505223505006190301010137085000002BPA
022773856202505223505006200301010137081000001BPA
022773856202505223505007010301010137079000002BPA
022773856202505223208007020301010153057000001BPA
022773856202505223208007030301010153044000001BPA
022773856202505223208007040301010153013000003BPA
022773856202505223208007050301010153017000004BPA
022773856202505223208007060301010153034000004BPA
022773856202505223208007070301010153047000002BPA
022773856202505223208007080301010153025000006BPA
022773856202505223208007090301010153028000002BPA
022773856202505223208007100301010153039000003BPA
022773856202505223208007110301010153032000001BPA
022773856202505223208007120301010153031000003BPA
022773856202505223208007130301010153051000003BPA
022773856202505223208007140301010153023000001BPA
022773856202505223208007150301010153004000003BPA
022773856202505223208007160301010153003000001BPA
022773856202505223208007170301010153048000001BPA
022773856202505223208007180301010153010000004BPA
022773856202505223208007190301010153041000003BPA
022773856202505223208007200301010153026000004BPA
022773856202505223208008010301010153067000004BPA
022773856202505223208008020301010153020000002BPA
022773856202505223208008030301010153037000001BPA
022773856202505223208008040301010153030000002BPA
022773856202505223208008050301010153061000002BPA
022773856202505223208008060301010153012000003BPA
022773856202505223208008070301010153045000005BPA
022773856202505223208008080301010153049000004BPA
022773856202505223208008090301010153058000002BPA
022773856202505223208008100301010153050000002BPA
022773856202505223208008110301010153024000002BPA
022773856202505223208008120301010153042000001BPA
022773856202505223208008130301010153005000004BPA
022773856202505223208008140301010153078000001BPA
022773856202505223208008150301010153009000004BPA
022773856202505223208008160301010153015000002BPA
022773856202505223208008170301010153021000002BPA
022773856202505223208008180301010153063000001BPA
022773856202505223208008190301010153043000001BPA
022773856202505223208008200301010153016000003BPA
022773856202505223208009010301010153011000002BPA
022773856202505223208009020301010153046000002BPA
022773856202505223208009030301010153054000001BPA
022773856202505223208009040301010153064000002BPA
022773856202505223208009050301010153070000001BPA
022773856202505223208009060301010153018000002BPA
022773856202505223208009070301010153036000002BPA
022773856202505223208009080301010153027000004BPA
022773856202505223208009090301010153008000002BPA
022773856202505223208009100301010153029000004BPA
022773856202505223208009110301010153040000004BPA
022773856202505223208009120301010153065000003BPA
022773856202505223208009130301010153062000002BPA
022773856202505223208009140301010153053000001BPA
022773856202505223208009150301010153059000002BPA
022773856202505223208009160301010153022000001BPA
022773856202505223208009170301010153019000003BPA
022773856202505223208009180301010153006000002BPA
022773856202505223208009190301010153060000003BPA
022773856202505223208009200301010153033000001BPA
022773856202505223505010010301040079000000128BPA
022773856202505322230010020301040079000000068BPA
022773856202505322250010030301040079000000118BPA
022773856202505322230010040301050112000000327BPA
022773856202505322250010050301050112000000163BPA
022773856202505223208010060301060037000000064BPA
022773856202505223505010070301100039000000071BPA
022773856202505225125010080301100039000000106BPA
022773856202505225142010090301100039000000504BPA
022773856202505225250010100301100039000000024BPA
022773856202505322230010110301100039000000154BPA
022773856202505322250010120301100039000000200BPA
022773856202505322230010130301100152000000027BPA
022773856202505322250010140301100152000000019BPA
022773856202505225125010150404010270000000002BPA
023044114202505223505001010101040024000000039BPA
023044114202505223710001020101040024000000034BPA
023044114202505225125001030101040024000000001BPA
023044114202505322230001040101040024000000083BPA
023044114202505223505001050101040059000000001BPA
023044114202505322230001060101040059000000014BPA
023044114202505223505001070201020033000000042BPA
023044114202505223505001080214010015000000025BPA
023044114202505225125001090214010015000000017BPA
023044114202505322230001100214010015000000013BPA
023044114202505223505001110214010066000000007BPA
023044114202505322230001120214010066000000001BPA
023044114202505223505001130214010104000000013BPA
023044114202505223505001140301010110024000001BPA
023044114202505223505001150301010110033000002BPA
023044114202505223505001160301010110018000002BPA
023044114202505223505001170301010110030000001BPA
023044114202505223505001180301010110036000001BPA
023044114202505223505001190301010110038000001BPA
023044114202505225125001200301010110020000001BPA
023044114202505225125002010301010110029000007BPA
023044114202505225125002020301010110019000002BPA
023044114202505225125002030301010110033000001BPA
023044114202505225125002040301010110027000002BPA
023044114202505225125002050301010110026000009BPA
023044114202505225125002060301010110017000001BPA
023044114202505225125002070301010110034000002BPA
023044114202505225125002080301010110025000003BPA
023044114202505225125002090301010110038000001BPA
023044114202505225125002100301010110018000002BPA
023044114202505225125002110301010110024000006BPA
023044114202505225125002120301010110023000001BPA
023044114202505225125002130301010110035000001BPA
023044114202505225125002140301010110021000002BPA
023044114202505225125002150301010110032000001BPA
023044114202505225125002160301010110028000003BPA
023044114202505223505002170301010129032000001BPA
023044114202505225125002180301010129021000001BPA
023044114202505225125002190301010129031000001BPA
023044114202505225125002200301010129023000001BPA
023044114202505225125003010301010129030000001BPA
023044114202505225125003020301010129032000001BPA
023044114202505225125003030301010129040000001BPA
023044114202505223208003040301010153065000001BPA
023044114202505223208003050301010153009000002BPA
023044114202505223208003060301010153033000001BPA
023044114202505223208003070301010153041000001BPA
023044114202505223208003080301010153035000001BPA
023044114202505223208003090301010153045000001BPA
023044114202505223208003100301010153061000001BPA
023044114202505223208003110301010153042000001BPA
023044114202505223208003120301010153051000002BPA
023044114202505223208003130301010153014000002BPA
023044114202505223208003140301010153011000002BPA
023044114202505223208003150301010153022000001BPA
023044114202505223208003160301010153050000001BPA
023044114202505223208003170301010153016000003BPA
023044114202505223208003180301010153010000001BPA
023044114202505223208003190301010153072000001BPA
023044114202505223208003200301010153029000002BPA
023044114202505223208004010301010153024000001BPA
023044114202505223208004020301010153066000001BPA
023044114202505223208004030301010153076000001BPA
023044114202505223208004040301010153048000001BPA
023044114202505223208004050301010153059000001BPA
023044114202505223208004060301010153018000002BPA
023044114202505322230004070301040079000000030BPA
023044114202505322230004080301050112000000152BPA
023044114202505223208004090301060037000000040BPA
023044114202505322230004100301100012000000001BPA
023044114202505223505004110301100039000000088BPA
023044114202505225125004120301100039000000103BPA
023044114202505322230004130301100039000000117BPA
023044114202505223505004140301100101000000001BPA
023044114202505322230004150301100152000000010BPA
024794486202505223710001010101040024000000002BPA
026430163202505251510001010301080160000000020BPA
026430163202505322230001020301100039000000216BPA
026451098202505225124001010101040024000000034BPA
026896839202505223208001010301010153064000005BPA
026896839202505223208001020301010153065000001BPA
026896839202505223208001030301010153023000002BPA
026896839202505223208001040301010153062000003BPA
026896839202505223208001050301010153032000002BPA
026896839202505223208001060301010153049000001BPA
026896839202505223208001070301010153046000003BPA
026896839202505223208001080301010153021000004BPA
026896839202505223208001090301010153044000001BPA
026896839202505223208001100301010153079000002BPA
026896839202505223208001110301010153041000003BPA
026896839202505223208001120301010153022000003BPA
026896839202505223208001130301010153031000003BPA
026896839202505223208001140301010153086000001BPA
026896839202505223208001150301010153050000004BPA
026896839202505223208001160301010153030000004BPA
026896839202505223208001170301010153002000002BPA
026896839202505223208001180301010153000000001BPA
026896839202505223208001190301010153010000004BPA
026896839202505223208001200301010153043000002BPA
026896839202505223208002010301010153063000003BPA
026896839202505223208002020301010153005000002BPA
026896839202505223208002030301010153074000001BPA
026896839202505223208002040301010153059000002BPA
026896839202505223208002050301010153067000001BPA
026896839202505223208002060301010153037000002BPA
026896839202505223208002070301010153070000002BPA
026896839202505223208002080301010153060000002BPA
026896839202505223208002090301010153056000003BPA
026896839202505223208002100301010153076000002BPA
026896839202505223208002110301010153048000005BPA
026896839202505223208002120301010153052000006BPA
026896839202505223208002130301010153053000003BPA
026896839202505223208002140301010153035000003BPA
026896839202505223208002150301010153029000002BPA
026896839202505223208002160301010153039000002BPA
026896839202505223208002170301010153020000001BPA
026896839202505223208002180301010153066000002BPA
026896839202505223208002190301010153012000001BPA
026896839202505223208002200301010153054000006BPA
026896839202505223208003010301010153007000005BPA
026896839202505223208003020301010153047000002BPA
026896839202505223208003030301010153011000004BPA
026896839202505223208003040301010153051000001BPA
026896839202505223208003050301010153071000004BPA
026896839202505223208003060301010153024000003BPA
026896839202505223208003070301010153042000002BPA
026896839202505223208003080301010153055000001BPA
026896839202505223208003090301010153028000002BPA
026896839202505223208003100301010153034000001BPA
026896839202505223208003110301010153045000003BPA
026896839202505223208003120301010153025000001BPA
026896839202505223208003130301010153027000002BPA
026896839202505223208003140301010153083000001BPA
026896839202505223208003150301010153068000003BPA
026896839202505223208003160301010153015000001BPA
026896839202505223208003170301010153040000007BPA
026896839202505223208003180301010153069000002BPA
026896839202505223208003190301010153058000001BPA
026896839202505223208003200301010153014000002BPA
026896839202505223208004010301010153017000001BPA
026896839202505223208004020301010153009000005BPA
026896839202505223208004030301010153013000002BPA
026896839202505223208004040301010153061000002BPA
026896839202505223208004050301010153006000006BPA
026896839202505223208004060301010153038000002BPA
026896839202505223208004070301010153003000002BPA
026896839202505223208004080301010153073000002BPA
026896839202505223208004090301010153075000001BPA
026896839202505223208004100301010153016000001BPA
026896839202505223208004110301010153008000003BPA
026896839202505223208004120301010153004000002BPA
026896839202505223208004130301010153072000002BPA
026896839202505223212004140301010153033000001BPA
026896839202505223212004150301010153012000001BPA
026896839202505223212004160301010153043000001BPA
026896839202505223212004170301010153032000002BPA
026896839202505223212004180301010153008000001BPA
026896839202505223212004190301010153034000001BPA
026896839202505223212004200301010153045000001BPA
026896839202505223288005010301010153064000001BPA
026896839202505223288005020301010153060000001BPA
026896839202505223288005030301010153008000002BPA
026896839202505223288005040301010153026000001BPA
026896839202505223288005050301010153071000001BPA
026896839202505223288005060301010153009000001BPA
026896839202505223288005070301010153044000001BPA
026896839202505223288005080301010153051000001BPA
026896839202505223288005090301010153032000001BPA
026896839202505223288005100301100039000000005BPA
026896847202505251605001010101030029000000007BPA
026896847202505223505001020101040024000000012BPA
026896847202505223710001030101040024000000065BPA
026896847202505225124001040101040024000000074BPA
026896847202505225125001050101040024000000004BPA
026896847202505322205001060101040024000000763BPA
026896847202505322205001070101040024000000310BPA
026896847202505322230001080101040024000001629BPA
026896847202505322205001090101040059000000006BPA
026896847202505322230001100101040059000000009BPA
026896847202505223505001110201020033000000065BPA
026896847202505223505001120202030245000000028BPA
026896847202505223505001130214010015000000010BPA
026896847202505223505001140214010015000000023BPA
026896847202505225125001150214010015000000008BPA
026896847202505225125001160214010015000000006BPA
026896847202505322205001170214010015000000178BPA
026896847202505322205001180214010015000000072BPA
026896847202505322230001190214010015000000131BPA
026896847202505223505001200214010066000000019BPA
026896847202505223505002010214010104000000009BPA
026896847202505223505002020214010104000000034BPA
026896847202505223505002030301010110028000001BPA
026896847202505223505002040301010110034000001BPA
026896847202505223505002050301010110023000001BPA
026896847202505223505002060301010110029000001BPA
026896847202505223505002070301010110033000002BPA
026896847202505223505002080301010110026000001BPA
026896847202505223505002090301010110015000001BPA
026896847202505223505002100301010110020000001BPA
026896847202505223505002110301010110021000001BPA
026896847202505223505002120301010110025000001BPA
026896847202505223505002130301010110035000001BPA
026896847202505223505002140301010110032000001BPA
026896847202505225125002150301010110036000002BPA
026896847202505225125002160301010110023000001BPA
026896847202505225125002170301010110044000001BPA
026896847202505225125002180301010110021000002BPA
026896847202505225125002190301010110016000001BPA
026896847202505225125002200301010110033000007BPA
026896847202505225125003010301010110020000001BPA
026896847202505225125003020301010110034000001BPA
026896847202505225125003030301010110026000004BPA
026896847202505225125003040301010110035000001BPA
026896847202505225125003050301010110015000001BPA
026896847202505225125003060301010110028000002BPA
026896847202505225125003070301010110032000002BPA
026896847202505225125003080301010110030000002BPA
026896847202505225125003090301010110025000002BPA
026896847202505225125003100301010110029000002BPA
026896847202505225125003110301010110018000001BPA
026896847202505225125003120301010110027000003BPA
026896847202505225125003130301010110022000002BPA
026896847202505225125003140301010110017000002BPA
026896847202505225250003150301010110023000001BPA
026896847202505225250003160301010110015000001BPA
026896847202505225250003170301010110020000002BPA
026896847202505225250003180301010110029000002BPA
026896847202505225250003190301010110024000001BPA
026896847202505225250003200301010110025000002BPA
026896847202505225250004010301010110021000001BPA
026896847202505225125004020301010129024000001BPA
026896847202505225125004030301010129029000001BPA
026896847202505225125004040301010129026000001BPA
026896847202505225125004050301010129027000001BPA
026896847202505225125004060301010129033000001BPA
026896847202505223505004070301010137054000002BPA
026896847202505223505004080301010137040000001BPA
026896847202505223505004090301010137053000002BPA
026896847202505223505004100301010137063000001BPA
026896847202505223505004110301010137029000001BPA
026896847202505223505004120301010137062000001BPA
026896847202505223505004130301010137043000005BPA
026896847202505223505004140301010137032000002BPA
026896847202505223505004150301010137099000002BPA
026896847202505223505004160301010137071000002BPA
026896847202505223505004170301010137058000003BPA
026896847202505223505004180301010137037000002BPA
026896847202505223505004190301010137086000003BPA
026896847202505223505004200301010137093000001BPA
026896847202505223505005010301010137091000004BPA
026896847202505223505005020301010137077000005BPA
026896847202505223505005030301010137001000005BPA
026896847202505223505005040301010137082000004BPA
026896847202505223505005050301010137101000001BPA
026896847202505223505005060301010137075000001BPA
026896847202505223505005070301010137052000001BPA
026896847202505223505005080301010137050000011BPA
026896847202505223505005090301010137069000001BPA
026896847202505223505005100301010137078000007BPA
026896847202505223505005110301010137081000002BPA
026896847202505223505005120301010137055000004BPA
026896847202505223505005130301010137028000001BPA
026896847202505223505005140301010137026000003BPA
026896847202505223505005150301010137068000001BPA
026896847202505223505005160301010137076000002BPA
026896847202505223505005170301010137066000002BPA
026896847202505223505005180301010137087000005BPA
026896847202505223505005190301010137079000002BPA
026896847202505223505005200301010137064000006BPA
026896847202505223505006010301010137009000005BPA
026896847202505223505006020301010137051000007BPA
026896847202505223605006030301010137086000001BPA
026896847202505223605006040301010137064000002BPA
026896847202505223605006050301010137032000001BPA
026896847202505223605006060301010137053000002BPA
026896847202505223605006070301010137087000001BPA
026896847202505223605006080301010137101000001BPA
026896847202505223605006090301010137051000002BPA
026896847202505223605006100301010137091000002BPA
026896847202505223605006110301010137082000001BPA
026896847202505223605006120301010137094000001BPA
026896847202505223605006130301010137055000001BPA
026896847202505223605006140301010137078000003BPA
026896847202505223605006150301010137061000001BPA
026896847202505223605006160301010137050000001BPA
026896847202505223605006170301010137047000001BPA
026896847202505223605006180301010137069000001BPA
026896847202505223605006190301010137077000001BPA
026896847202505223605006200301010137058000002BPA
026896847202505223605007010301010137001000001BPA
026896847202505225125007020301010137090000001BPA
026896847202505225125007030301010137071000001BPA
026896847202505225125007040301010137067000001BPA
026896847202505225125007050301010137009000001BPA
026896847202505225125007060301010137050000001BPA
026896847202505225125007070301010137078000001BPA
026896847202505223208007080301010153023000001BPA
026896847202505223208007090301010153026000002BPA
026896847202505223208007100301010153006000002BPA
026896847202505223208007110301010153005000002BPA
026896847202505223208007120301010153036000001BPA
026896847202505223208007130301010153046000001BPA
026896847202505223208007140301010153010000002BPA
026896847202505223208007150301010153061000002BPA
026896847202505223208007160301010153064000001BPA
026896847202505223208007170301010153058000001BPA
026896847202505223208007180301010153060000001BPA
026896847202505223208007190301010153019000002BPA
026896847202505223208007200301010153020000001BPA
026896847202505223208008010301010153044000002BPA
026896847202505223208008020301010153067000002BPA
026896847202505223208008030301010153039000001BPA
026896847202505223208008040301010153038000001BPA
026896847202505223208008050301010153030000001BPA
026896847202505223208008060301010153007000001BPA
026896847202505223208008070301010153009000001BPA
026896847202505223208008080301010153062000001BPA
026896847202505223208008090301010153066000001BPA
026896847202505223208008100301010153071000001BPA
026896847202505223208008110301010153024000001BPA
026896847202505223208008120301010153050000001BPA
026896847202505223208008130301010153015000001BPA
026896847202505223208008140301010153017000001BPA
026896847202505223208008150301010153014000003BPA
026896847202505223208008160301010153076000001BPA
026896847202505223208008170301010153011000001BPA
026896847202505223505008180301040079000000056BPA
026896847202505223505008190301040079000000049BPA
026896847202505322205008200301040079000001039BPA
026896847202505322205009010301050112000000068BPA
026896847202505223208009020301060037000000027BPA
026896847202505223208009030301100039000000002BPA
026896847202505223505009040301100039000000015BPA
026896847202505223505009050301100039000000002BPA
026896847202505225125009060301100039000000080BPA
026896847202505225125009070301100039000000003BPA
026896847202505322205009080301100039000000237BPA
026896847202505322205009090301100039000000783BPA
026896847202505322230009100301100039000001121BPA
026896847202505223505009110301100047000000001BPA
026896847202505223505009120301100055000000001BPA
026896847202505322205009130301100144000000001BPA
026896847202505223505009140301100152000000001BPA
026896847202505322205009150301100152000000014BPA
026896847202505322205009160301100187000000001BPA
026896847202505225275009170404010270000000002BPA
027047088202505223505001010101030029000000001BPA
027047088202505225142001020101030029000000005BPA
027047088202505223505001030101040024000000029BPA
027047088202505223710001040101040024000000038BPA
027047088202505225125001050101040024000000019BPA
027047088202505225142001060101040024000000014BPA
027047088202505322230001070101040024000000011BPA
027047088202505322250001080101040024000000168BPA
027047088202505322230001090101040059000000005BPA
027047088202505322250001100101040059000000007BPA
027047088202505223505001110201020033000000065BPA
027047088202505223505001120214010015000000013BPA
027047088202505225142001130214010015000000037BPA
027047088202505322230001140214010015000000038BPA
027047088202505322250001150214010015000000113BPA
027047088202505223505001160214010066000000006BPA
027047088202505322250001170214010066000000001BPA
027047088202505223505001180214010104000000014BPA
027047088202505223505001190301010110018000001BPA
027047088202505223505001200301010110037000001BPA
027047088202505223505002010301010110026000001BPA
027047088202505225125002020301010110027000001BPA
027047088202505225125002030301010110020000002BPA
027047088202505225125002040301010110021000003BPA
027047088202505225125002050301010110018000001BPA
027047088202505225125002060301010110028000002BPA
027047088202505225125002070301010110023000001BPA
027047088202505225125002080301010110019000001BPA
027047088202505225125002090301010110035000001BPA
027047088202505225125002100301010110022000001BPA
027047088202505225125002110301010110037000001BPA
027047088202505225125002120301010110025000001BPA
027047088202505225125002130301010110026000005BPA
027047088202505225250002140301010110030000001BPA
027047088202505225250002150301010110025000001BPA
027047088202505225250002160301010110028000002BPA
027047088202505225250002170301010110023000002BPA
027047088202505225250002180301010110029000001BPA
027047088202505225250002190301010110026000001BPA
027047088202505225250002200301010110024000001BPA
027047088202505225250003010301010110020000002BPA
027047088202505225250003020301010110021000001BPA
027047088202505225250003030301010110042000002BPA
027047088202505225250003040301010110019000001BPA
027047088202505223505003050301010129029000002BPA
027047088202505223505003060301010129037000001BPA
027047088202505223505003070301010129026000001BPA
027047088202505223505003080301010129019000001BPA
027047088202505225125003090301010129019000001BPA
027047088202505223208003100301010153007000001BPA
027047088202505223208003110301010153075000001BPA
027047088202505223208003120301010153058000001BPA
027047088202505223208003130301010153029000001BPA
027047088202505223208003140301010153037000002BPA
027047088202505223208003150301010153065000001BPA
027047088202505223208003160301010153002000002BPA
027047088202505223208003170301010153030000002BPA
027047088202505223208003180301010153034000001BPA
027047088202505223208003190301010153006000001BPA
027047088202505223208003200301010153023000001BPA
027047088202505223208004010301010153049000002BPA
027047088202505223208004020301010153026000002BPA
027047088202505223208004030301010153004000001BPA
027047088202505223208004040301010153055000001BPA
027047088202505223208004050301010153048000002BPA
027047088202505223208004060301010153009000002BPA
027047088202505223208004070301010153060000002BPA
027047088202505223208004080301010153035000001BPA
027047088202505223208004090301010153003000002BPA
027047088202505223208004100301010153011000001BPA
027047088202505223208004110301010153036000002BPA
027047088202505223208004120301010153061000001BPA
027047088202505223208004130301010153008000002BPA
027047088202505223208004140301010153010000001BPA
027047088202505322230004150301040079000000035BPA
027047088202505322250004160301040079000000084BPA
027047088202505223710004170301040087000000004BPA
027047088202505223208004180301060037000000033BPA
027047088202505223505004190301100039000000091BPA
027047088202505223710004200301100039000000001BPA
027047088202505225125005010301100039000000019BPA
027047088202505225142005020301100039000000178BPA
027047088202505322230005030301100039000000142BPA
027047088202505322250005040301100039000000483BPA
027047088202505322230005050301100152000000001BPA
027047088202505322250005060301100152000000004BPA
029001808202505223505001010101040024000000113BPA
029001808202505223710001020101040024000000036BPA
029001808202505225124001030101040024000000082BPA
029001808202505225125001040101040024000000001BPA
029001808202505225250001050101040024000000019BPA
029001808202505225310001060101040024000000040BPA
029001808202505322230001070101040024000000066BPA
029001808202505223505001080201020033000000060BPA
029001808202505223505001090214010015000000012BPA
029001808202505225125001100214010015000000001BPA
029001808202505225310001110214010015000000002BPA
029001808202505322230001120214010015000000014BPA
029001808202505223505001130214010066000000002BPA
029001808202505223505001140214010104000000009BPA
029001808202505223505001150301010110031000001BPA
029001808202505223505001160301010110029000002BPA
029001808202505223505001170301010110032000002BPA
029001808202505225250001180301010110023000001BPA
029001808202505225250001190301010110021000001BPA
029001808202505225250001200301010110031000001BPA
029001808202505225250002010301010110025000001BPA
029001808202505225250002020301010110038000001BPA
029001808202505225250002030301010110024000002BPA
029001808202505225250002040301010110020000001BPA
029001808202505225250002050301010110046000001BPA
029001808202505225250002060301010110032000001BPA
029001808202505225250002070301010110022000001BPA
029001808202505225250002080301010110030000001BPA
029001808202505225250002090301010110026000004BPA
029001808202505225250002100301010110028000001BPA
029001808202505225250002110301010110029000002BPA
029001808202505225250002120301010110036000001BPA
029001808202505225250002130301010110040000001BPA
029001808202505223505002140301010129036000002BPA
029001808202505223505002150301010129034000001BPA
029001808202505223505002160301010129035000001BPA
029001808202505223505002170301010129037000002BPA
029001808202505223505002180301010129025000001BPA
029001808202505223505002190301010129027000001BPA
029001808202505225250002200301010129035000001BPA
029001808202505225250003010301010129025000001BPA
029001808202505225250003020301010129036000002BPA
029001808202505225250003030301010129037000001BPA
029001808202505225250003040301010129034000001BPA
029001808202505225250003050301010129045000001BPA
029001808202505223208003060301010153021000001BPA
029001808202505223208003070301010153047000001BPA
029001808202505223208003080301010153042000001BPA
029001808202505223208003090301010153055000001BPA
029001808202505223208003100301010153009000001BPA
029001808202505223208003110301010153054000002BPA
029001808202505223208003120301010153083000001BPA
029001808202505223208003130301010153027000001BPA
029001808202505223208003140301010153087000001BPA
029001808202505223208003150301010153035000001BPA
029001808202505223208003160301010153011000001BPA
029001808202505223505003170301040079000000055BPA
029001808202505225310003180301040079000000040BPA
029001808202505322230003190301040079000000002BPA
029001808202505223505003200301050120000000037BPA
029001808202505225310004010301050120000000037BPA
029001808202505223505004020301100039000000083BPA
029001808202505225125004030301100039000000088BPA
029001808202505225250004040301100039000000019BPA
029001808202505225310004050301100039000000039BPA
029001808202505322230004060301100039000000044BPA
029001808202505223505004070301100144000000037BPA
029001808202505225310004080301100144000000037BPA
029001808202505322230004090301100152000000005BPA
03205930420250570120002219011322350520250515001010214010040709200216665430F350390    032     101             BPIBEATRIZ CADETE DA SILVA       1992120301    010                                07432460081das Jaqueiras                 A            51Recanto Primavera
03205930420250570120002219011322350520250508001070214010040700001385605604F350390    016     101             BPIMARIA EDUARDA DE OLIVEIRA SANT2009051501    010                                07432050008Dutra                         Apto 03     275Jardim Emlia                 11974949975
03205930420250570120002219011322350520250526001100214010040700202474192320M350390    034     101             BPIFLAVIO COUTINHO DE SOUZA PIOLA1990080303    010                                07432450081dos Coqueiros                             134Recanto Primavera
03205930420250570120002219011322350520250527001140214010040709801090863498F350390    022     101             BPIMARJORIE AUGUSTO VIEIRA SOUSA 2003051301    010                                07432121081Regina Clia Gomes Alvarenga  COND3 BLOC   53Cdhu Fazenda Albor
03205930420250570120002219011322350520250516001200214010040709005805241216F350390    022     101             BPIBRENDA LUANY DA SILVA BRITTO  2003052601    010                                07432575081Tomi Saburo Yamamoto          Casa A      170Jardim Das Cerejeiras
03205930420250570120002219011322350520250515002040214010040708402723801167F350390    028     101             BPIBEATRIZ DE ALMEIDA SERAFIM    1997020602    010                                07432050008Dutra                         Casa 02     395Jardim Emlia                 11 46542383
03205930420250570120002219011322350520250523002150214010040706003356765543F352310    039     101             BPIBIBIANE MENDES DA FONSECA     1985090501    010                                08598403081Gonalves de Magalhes                    151Jardim Altos De Itaqu        11993525471
03205930420250570120002219011322350520250527003180214010040700506576288751F350390    022     101             BPIAMANDA YNGRID PORTELA         2003012801    010                                07432450081dos Coqueiros                              91Recanto Primavera
03205930420250570120002219011322350520250529004020214010040704602672816621F350390    025     101             BPIANA CAROLINE SANTOS DA SILVA  1999092403    010                                07432000081Negro                                     53Jardim Leika
03205930420250570120002219011322350520250522004030214010040700002179312401F350390    023     101             BPIJESSICA DOS SANTOS            2001070201    010                                07432450081dos Coqueiros                             138Recanto Primavera
03205930420250570500806699625522356520250506004120214010040700200920166426F350390    019     101             BPIRAQUEL VITORIA DA SILVA CHACON2006031202    010                                07432440081das Carambolas                CASA 1       38Recanto Primavera
03205930420250570120002219011322350520250509001090214010058700003603695903M350390    024     101             BPIJOSE CALEB FUENTES ALVAREZ    2001050703    010                                07431280081Armando Pereira                           345Jardim Jia
03205930420250570120002219011322350520250509001110214010058702007342002381F350390    017     101             BPIANA PAULA DA SILVA LIMA       2008050801    010                                07432450081dos Coqueiros                             153Recanto Primavera             11997331887
03205930420250570120002219011322350520250514001150214010058705708410125330F350390    045     101             BPIJOSENILDA DE SOUZA            1979072301    010                                07432121081Regina Clia Gomes Alvarenga  COND2 BLOC   21Cdhu Fazenda Albor            11 37540876
03205930420250570120002219011322350520250519001160214010058700102437163720F354880    029     101             BPILETICIA ROCHA DE OLIVEIRA     1995062001    010                                09541250081Rafael Correa Sampaio                     390Santa Paula
03205930420250570120002219011322350520250519002030214010058704201715151882M350390    030     101             BPIROBENILTON DA SILVA DE CARVALH1995042903    010                                07432050008Dutra                         CASA 02     174Jardim Emlia
03205930420250570120002219011322350520250523002090214010058700600998427062F350390    019     101             BPIMARIA EDUARDA COSTA LIMA      2005122301    010                                07432470081das Mangueiras                            356Recanto Primavera
03205930420250570120002219011322350520250513002110214010058707005862699734M350390    024     101             BPIJOAO VICTOR LEONCIO ARAUJO    2001040503    010                                07432670081Tomi Miura                    CASA 03      13Stio Dos Fernandes           11 46525792
03205930420250570120002219011322350520250514002140214010058704000824175465M350390    016     101             BPIRYAN FERNANDES GAMA           2008072801    010                                07432120081Marlene Paiva dos Santos      Cond1 Bl B   60Cdhu Fazenda Albor
03205930420250570120002219011322350520250515002170214010058700005932249107M350390    022     101             BPIPEDRO MIGUEL RODRIGUES FERNAND2003050103    010                                07432005081Pedro Pereira da Silva        BL E AOTO   200Jardim Leika                  11998682638
03205930420250570120002219011322350520250516003140214010058706806729623124M350390    019     101             BPICARLOS HENRIQUE MONTEIRO DE AV2006021901    010                                07432685081Hirayoshi Amano               CASA A       60Stio Dos Fernandes
03205930420250570120002219011322350520250522004040214010058700000944567902M350390    034     101             BPIGLEREAN COELHO QUEIROZ        1991052301    010                                07432445081das Pitangueiras                           35Recanto Primavera
03205930420250570120002219011322350520250509001020214010074700003603695903M350390    024     101             BPIJOSE CALEB FUENTES ALVAREZ    2001050703    010                                07431280081Armando Pereira                           345Jardim Jia
03205930420250570120002219011322350520250514001040214010074705708410125330F350390    045     101             BPIJOSENILDA DE SOUZA            1979072301    010                                07432121081Regina Clia Gomes Alvarenga  COND2 BLOC   21Cdhu Fazenda Albor            11 37540876
03205930420250570120002219011322350520250509001050214010074702007342002381F350390    017     101             BPIANA PAULA DA SILVA LIMA       2008050801    010                                07432450081dos Coqueiros                             153Recanto Primavera             11997331887
03205930420250570120002219011322350520250519001170214010074700102437163720F354880    029     101             BPILETICIA ROCHA DE OLIVEIRA     1995062001    010                                09541250081Rafael Correa Sampaio                     390Santa Paula
03205930420250570120002219011322350520250519002010214010074704201715151882M350390    030     101             BPIROBENILTON DA SILVA DE CARVALH1995042903    010                                07432050008Dutra                         CASA 02     174Jardim Emlia
03205930420250570120002219011322350520250523002080214010074700600998427062F350390    019     101             BPIMARIA EDUARDA COSTA LIMA      2005122301    010                                07432470081das Mangueiras                            356Recanto Primavera
03205930420250570120002219011322350520250513002120214010074707005862699734M350390    024     101             BPIJOAO VICTOR LEONCIO ARAUJO    2001040503    010                                07432670081Tomi Miura                    CASA 03      13Stio Dos Fernandes           11 46525792
03205930420250570120002219011322350520250514002160214010074704000824175465M350390    016     101             BPIRYAN FERNANDES GAMA           2008072801    010                                07432120081Marlene Paiva dos Santos      Cond1 Bl B   60Cdhu Fazenda Albor
03205930420250570120002219011322350520250516003050214010074706806729623124M350390    019     101             BPICARLOS HENRIQUE MONTEIRO DE AV2006021901    010                                07432685081Hirayoshi Amano               CASA A       60Stio Dos Fernandes
03205930420250570120002219011322350520250515003110214010074700005932249107M350390    022     101             BPIPEDRO MIGUEL RODRIGUES FERNAND2003050103    010                                07432005081Pedro Pereira da Silva        BL E AOTO   200Jardim Leika                  11998682638
03205930420250570120002219011322350520250522003170214010074700000944567902M350390    034     101             BPIGLEREAN COELHO QUEIROZ        1991052301    010                                07432445081das Pitangueiras                           35Recanto Primavera
03205930420250570120002219011322350520250515001060214010082708402723801167F350390    028     101             BPIBEATRIZ DE ALMEIDA SERAFIM    1997020602    010                                07432050008Dutra                         Casa 02     395Jardim Emlia                 11 46542383
03205930420250570120002219011322350520250529001120214010082704602672816621F350390    025     101             BPIANA CAROLINE SANTOS DA SILVA  1999092403    010                                07432000081Negro                                     53Jardim Leika
03205930420250570120002219011322350520250508001130214010082700001385605604F350390    016     101             BPIMARIA EDUARDA DE OLIVEIRA SANT2009051501    010                                07432050008Dutra                         Apto 03     275Jardim Emlia                 11974949975
03205930420250570120002219011322350520250516002020214010082709005805241216F350390    022     101             BPIBRENDA LUANY DA SILVA BRITTO  2003052601    010                                07432575081Tomi Saburo Yamamoto          Casa A      170Jardim Das Cerejeiras
03205930420250570120002219011322350520250526002060214010082700202474192320M350390    034     101             BPIFLAVIO COUTINHO DE SOUZA PIOLA1990080303    010                                07432450081dos Coqueiros                             134Recanto Primavera
03205930420250570120002219011322350520250527002070214010082700506576288751F350390    022     101             BPIAMANDA YNGRID PORTELA         2003012801    010                                07432450081dos Coqueiros                              91Recanto Primavera
03205930420250570120002219011322350520250523003060214010082706003356765543F352310    039     101             BPIBIBIANE MENDES DA FONSECA     1985090501    010                                08598403081Gonalves de Magalhes                    151Jardim Altos De Itaqu        11993525471
03205930420250570120002219011322350520250522003070214010082700002179312401F350390    023     101             BPIJESSICA DOS SANTOS            2001070201    010                                07432450081dos Coqueiros                             138Recanto Primavera
03205930420250570120002219011322350520250527003080214010082709801090863498F350390    022     101             BPIMARJORIE AUGUSTO VIEIRA SOUSA 2003051301    010                                07432121081Regina Clia Gomes Alvarenga  COND3 BLOC   53Cdhu Fazenda Albor
03205930420250570120002219011322350520250515004070214010082709200216665430F350390    032     101             BPIBEATRIZ CADETE DA SILVA       1992120301    010                                07432460081das Jaqueiras                 A            51Recanto Primavera
03205930420250570500806699625522356520250506004130214010082700200920166426F350390    019     101             BPIRAQUEL VITORIA DA SILVA CHACON2006031202    010                                07432440081das Carambolas                CASA 1       38Recanto Primavera
03205930420250570120002219011322350520250509001030214010090700003603695903M350390    024     101             BPIJOSE CALEB FUENTES ALVAREZ    2001050703    010                                07431280081Armando Pereira                           345Jardim Jia
03205930420250570120002219011322350520250519001180214010090700102437163720F354880    029     101             BPILETICIA ROCHA DE OLIVEIRA     1995062001    010                                09541250081Rafael Correa Sampaio                     390Santa Paula
03205930420250570120002219011322350520250516001190214010090709005805241216F350390    022     101             BPIBRENDA LUANY DA SILVA BRITTO  2003052601    010                                07432575081Tomi Saburo Yamamoto          Casa A      170Jardim Das Cerejeiras
03205930420250570120002219011322350520250523002050214010090700600998427062F350390    019     101             BPIMARIA EDUARDA COSTA LIMA      2005122301    010                                07432470081das Mangueiras                            356Recanto Primavera
03205930420250570120002219011322350520250523002100214010090706003356765543F352310    039     101             BPIBIBIANE MENDES DA FONSECA     1985090501    010                                08598403081Gonalves de Magalhes                    151Jardim Altos De Itaqu        11993525471
03205930420250570120002219011322350520250513002130214010090707005862699734M350390    024     101             BPIJOAO VICTOR LEONCIO ARAUJO    2001040503    010                                07432670081Tomi Miura                    CASA 03      13Stio Dos Fernandes           11 46525792
03205930420250570120002219011322350520250514002180214010090704000824175465M350390    016     101             BPIRYAN FERNANDES GAMA           2008072801    010                                07432120081Marlene Paiva dos Santos      Cond1 Bl B   60Cdhu Fazenda Albor
03205930420250570120002219011322350520250515002200214010090709200216665430F350390    032     101             BPIBEATRIZ CADETE DA SILVA       1992120301    010                                07432460081das Jaqueiras                 A            51Recanto Primavera
03205930420250570120002219011322350520250509003020214010090702007342002381F350390    017     101             BPIANA PAULA DA SILVA LIMA       2008050801    010                                07432450081dos Coqueiros                             153Recanto Primavera             11997331887
03205930420250570120002219011322350520250522003030214010090700000944567902M350390    034     101             BPIGLEREAN COELHO QUEIROZ        1991052301    010                                07432445081das Pitangueiras                           35Recanto Primavera
03205930420250570120002219011322350520250516003040214010090706806729623124M350390    019     101             BPICARLOS HENRIQUE MONTEIRO DE AV2006021901    010                                07432685081Hirayoshi Amano               CASA A       60Stio Dos Fernandes
03205930420250570120002219011322350520250515003090214010090708402723801167F350390    028     101             BPIBEATRIZ DE ALMEIDA SERAFIM    1997020602    010                                07432050008Dutra                         Casa 02     395Jardim Emlia                 11 46542383
03205930420250570120002219011322350520250519003100214010090704201715151882M350390    030     101             BPIROBENILTON DA SILVA DE CARVALH1995042903    010                                07432050008Dutra                         CASA 02     174Jardim Emlia
03205930420250570120002219011322350520250508003130214010090700002493723001F350390    066     101             BPISOLANGE APARECIDA CAPELLA     1958072001    010                                07432121081Regina Clia Gomes Alvarenga  COND3 BLOC   72Cdhu Fazenda Albor
03205930420250570120002219011322350520250522003150214010090700002179312401F350390    023     101             BPIJESSICA DOS SANTOS            2001070201    010                                07432450081dos Coqueiros                             138Recanto Primavera
03205930420250570120002219011322350520250508003160214010090700001385605604F350390    016     101             BPIMARIA EDUARDA DE OLIVEIRA SANT2009051501    010                                07432050008Dutra                         Apto 03     275Jardim Emlia                 11974949975
03205930420250570120002219011322350520250514003190214010090705708410125330F350390    045     101             BPIJOSENILDA DE SOUZA            1979072301    010                                07432121081Regina Clia Gomes Alvarenga  COND2 BLOC   21Cdhu Fazenda Albor            11 37540876
03205930420250570120002219011322350520250526003200214010090700202474192320M350390    034     101             BPIFLAVIO COUTINHO DE SOUZA PIOLA1990080303    010                                07432450081dos Coqueiros                             134Recanto Primavera
03205930420250570120002219011322350520250527004050214010090709801090863498F350390    022     101             BPIMARJORIE AUGUSTO VIEIRA SOUSA 2003051301    010                                07432121081Regina Clia Gomes Alvarenga  COND3 BLOC   53Cdhu Fazenda Albor
03205930420250570120002219011322350520250515004060214010090700005932249107M350390    022     101             BPIPEDRO MIGUEL RODRIGUES FERNAND2003050103    010                                07432005081Pedro Pereira da Silva        BL E AOTO   200Jardim Leika                  11998682638
03205930420250570500806699625522356520250506004080214010090700200920166426F350390    019     101             BPIRAQUEL VITORIA DA SILVA CHACON2006031202    010                                07432440081das Carambolas                CASA 1       38Recanto Primavera
03205930420250570120002219011322350520250523001080214010120702803615318963F350390    025     101             BPIBEATRIZ MARCILIO RODRIGUES AGU1999100201    010                                07432020008Dutra                         A           557Jardim Leika
03205930420250570120002219011322350520250522004010214010120708203188433148M350390    013     101             BPIPEDRO HENRIQUE OLIVEIRA DOS SA2012051201    010                                07431310081Prola                        CASA 2      100Jardim Jia
03205930420250570120002219011322350520250521002190214010163700707984107279M350390    012     101             BPIANDRE TONI DE SANTANA         2012080801    010                                07432010081Gabriel Paschoal              CASA 2      141Jardim Leika                  11 46544059
03205930420250570120002219011322350520250521003010214010163700008720696609F350390    016     101             BPILOUHANA TONI DE SANTANA       2008111401    010                                07432010081Gabriel Paschoal              Casa 2      141Jardim Leika
03205930420250570120002219011322350520250523003120214010163702803615318963F350390    025     101             BPIBEATRIZ MARCILIO RODRIGUES AGU1999100201    010                                07432020008Dutra                         A           557Jardim Leika
03205930420250570500806699625522356520250513004090214010163704005327337062F350390    043     101             BPIFABIANA SANTA ANNA SOARES     1981082103    010                                07432470081das Mangueiras                            280Recanto Primavera
03205930420250570500806699625522356520250512004100214010163706805718770324F350390    037     101             BPIVANESSA BARRETO SOARES        1987062503    010                                07432085081Nick                          CASA 04      97Jardim Emlia
03205930420250570840474880406422512520250522004140301010072706802752590527F350390Z014063     101             BPIALDA MARTINS DE OLIVEIRA      1961070801    010                                07432070081Alice                                     170Jardim Emlia
03205930420250570840474880406422512520250508004150301010072700003495749602F350390Z014065     101             BPIURACY DE OLIVEIRA SENCADES    1960032203    010                                07432050008Dutra                         Termino tr  116Jardim Emlia                 11983198127
03205930420250570840474880406422512520250515004160301010072709103283924330F350390Z014025     101             BPICASSIANE BESERRA DA SILVA     2000050503    010                                07432460081das Jaqueiras                 Casa 1      152Recanto Primavera
03205930420250570840474880406422512520250508004170301010072701203029936210F350390Z34 034     101             BPIGLEICE MARIA FERNANDES MONTEIR1990121801    010                                07432455081dos Abacateiros               Casa 01      32Recanto Primavera
03205930420250570840474880406422512520250508004180301010072703407286654700F350390Z34 026     101             BPIINGRID ISLY CRISPIM DOMINGOS  1999041901    010                                07432455081dos Abacateiros                           200Recanto Primavera
03205930420250570840474880406422512520250508004190301010072703407286654700F350390Z760026     101             BPIINGRID ISLY CRISPIM DOMINGOS  1999041901    010                                07432455081dos Abacateiros                           200Recanto Primavera
03205930420250570840474880406422512520250522004200301010072703407286654700F350390Z35 026     101             BPIINGRID ISLY CRISPIM DOMINGOS  1999041901    010                                07432455081dos Abacateiros                           200Recanto Primavera
03205930420250570840474880406422512520250508005010301010072703600075376338F350390Z34 034     101             BPIDENISE DE MATTOS MORAES       1990080801    010                                07432455081dos Abacateiros                           187Recanto Primavera
03205930420250570840474880406422512520250515005020301010072703600075376338F350390Z34 034     101             BPIDENISE DE MATTOS MORAES       1990080801    010                                07432455081dos Abacateiros                           187Recanto Primavera
03205930420250570840474880406422512520250515005030301010072705601419172212F350390N921015     101             BPIMARIA LUISA DE BRITO ANTUNES  2009091103    010                                07432455081dos Abacateiros               CASA A      264Recanto Primavera             11 46525622
03205930420250570840474880406422512520250508005040301010072708906748703311F350390B37 057     101             BPIMARIA IRENE VIANA GABRIEL     1967092701    010                                07432455081dos Abacateiros                           182Recanto Primavera
03205930420250570840474880406422512520250508005050301010072709207283424330F350390O829037     101             BPICAROLINE PERIS DA SILVA       1988041101    010                                07432455081dos Abacateiros                           179Recanto Primavera
03205930420250570840474880406422512520250515005060301010072706804746536623F350390Z30 021     101             BPIKEILLY MARIAN GARCIA IDROGO   2003091403    010                                07432065081Oscar Schiavon                CASA A      146Jardim Emlia
03205930420250570840474880406422512520250522005070301010072704202243013180F350390Z014042     101             BPIEDMARA OLIVEIRA LEITE DE LIMA 1982070701    010                                07432065081Oscar Schiavon                Casa 1      111Jardim Emlia
03205930420250570840474880406422512520250522005080301010072703400271585418F350390Z014057     101             BPICLEUSA FRANCISCA BARBOZA DA CO1968060103    010                                07432065081Oscar Schiavon                CASA 01     266Jardim Emlia
03205930420250570840474880406422512520250515005090301010072702606224510445F350390O82 028     101             BPIMYLENA MYKAELE RIBEIRO DE LIMA1997030101    010                                07432440081das Carambolas                             38Recanto Primavera
03205930420250570840474880406422512520250515005100301010072706208080315665F350390Z34 019     101             BPITAMIRIS KAROLLINY FERREIRA DE 2005110401    010                                07431295081Safira                        CASA FUNDO  307Jardim Jia                   19999500576
03205930420250570840474880406422512520250522005110301010072705008273731052F350390Z014043     101             BPILUZIA MARIA DA SILVA ALVES    1982051601    010                                07432070081Alice                                     170Jardim Emlia
03205930420250570840474880406422512520250522005120301010072700004721645303F350390Z760022     101             BPIHELOISA HELENA SOARES SANTOS  2002060703    010                                07432000081Negro                                     53Jardim Leika
03205930420250570840474880406422512520250515005130301010072704002880544162F350390Z014045     101             BPIKELY OLIVEIRA DA SILVA VALERIO1980021701    010                                07432000081Negro                                   1200Jardim Leika
03205930420250570840474880406422512520250515005140301010072709201282683531F350390Z34 015     101             BPILORRANY ROCHA DE ALMEIDA SILVA2010032704    010                                07432000081Negro                                    300Jardim Leika
03205930420250570840474880406422512520250522005150301010072706006347791645F350390O80 034     101             BPIJOSELITA XAVIER FERREIRA      1991010203    010                                07432121081Regina Clia Gomes Alvarenga  Cond3 Bloc   61Cdhu Fazenda Albor
03205930420250570840474880406422512520250515005160301010072700506369880256F350390Z014040     101             BPIMICHELE SILVA MONTEIRO        1984091603    010                                07432590081Takeji Shimmyo                CASA 02      77Jardim Das Cerejeiras
03205930420250570840474880406422512520250522005170301010072709800068105496F350390Z014029     101             BPITHAINA APARECIDA SANTOS SILVA 1995072803    010                                07432445081das Pitangueiras                          327Recanto Primavera
03205930420250570840474880406422512520250515005180301010072708902778154614F350390N93 037     101             BPIARIANE SILVA SANTOS           1987103003    010                                07432445081das Pitangueiras              Casa 02     125Recanto Primavera
03205930420250570840474880406422512520250508005190301010072702504330221736F350390Z014043     101             BPIVANESSA SIMOES PINTO DOS REIS 1981080703    010                                07432445081das Pitangueiras                          105Recanto Primavera
03205930420250570840474880406422512520250522005200301010072703406297172116F350390Z34 038     101             BPIERICA VIVIANE LOPES           1987042003    010                                07432685081Hirayoshi Amano               Casa 05     159Stio Dos Fernandes
03205930420250570840474880406422512520250522006010301010072704802574407849F350390Z760019     101             BPIMAISA ALVES OLIVEIRA          2005082901    010                                07432075081Dady                          A APTO 03    50Jardim Emlia
03205930420250570840474880406422512520250515006020301010072701208021819511F350390Z30 019     101             BPIRAISSA ALVES RODRIGUES DA SILV2005110903    010                                07432470081das Mangueiras                            212Recanto Primavera             11956809497
03205930420250570840474880406422512520250515006030301010072705203405253679F350390N951048     101             BPIREGIANE OLIVEIRA SANTANA      1976101003    010                                07432470081das Mangueiras                            345Recanto Primavera
03205930420250570840474880406422512520250515006040301010072706509377152991F350390N771042     101             BPIALANA CAMPOS DE MOURA         1983052203    010                                07432470081das Mangueiras                B           336Recanto Primavera
03205930420250570840474880406422512520250515006050301010072708503370878076F350390N951054     101             BPIELIANE MARIA DA SILVA NOGUEIRA1971050901    010                                07432470081das Mangueiras                B           185Recanto Primavera             11 37543609
03205930420250570840474880406422512520250522006060301010072701004847780097F350390O80 016     101             BPIJULIA NEVES LIMA DIOGO        2008122001    010                                07432120081Marlene Paiva dos Santos                   10Cdhu Fazenda Albor
03205930420250570840474880406422512520250508006070301010072704001826885762F350390Z014047     101             BPIELIZABETH APARECIDA DA CRUZ SA1977121403    010                                07432121081Regina Clia Gomes Alvarenga  Cond2 Bl D   90Cdhu Fazenda Albor
03205930420250570840474880406422512520250515006080301010072701406635033636F350390Z014043     101             BPIMARIA APARECIDA TEIXEIRA DA CO1981112401    010                                07432580081Sango Matsuzaki                            90Jardim Das Cerejeiras
03205930420250570840474880406422512520250515006090301010072702804115030562F350390O82 023     101             BPISORAIA ALVES OLIVEIRA         2002042903    010                                07432580081Sango Matsuzaki                            68Jardim Das Cerejeiras         11 46542857
03205930420250570840474880406422512520250515006100301010072708009340678427F350390R10 017     101             BPIEMILLY KATHYLLIN ARAUJO DE OLI2008021801    010                                07432675081Tiaki Ogaawara               A            85Stio Dos Fernandes
03205930420250570840474880406422512520250508006110301010072706206540697262F350390Z014044     101             BPIPATRICIA FERNANDA LOTTO DE LIM1980062601    010                                07432055081Clementina                                 27Jardim Emlia
03205930420250570840474880406422512520250515006120301010072707006889772735F350390N921051     101             BPIROSA ELIANE FERREIRA GOMES    1973072201    010                                07432055081Clementina                    Casa 01     194Jardim Emlia
03205930420250570840474880406422512520250515006130301010072701204030715517F350390O80 028     101             BPIALINE ALVES SOUZA PAIXAO      1996061003    010                                07432670081Tomi Miura                                240Stio Dos Fernandes
03205930420250570840474880406422512520250522006140301010072701407600072830F350390B37 025     101             BPITAINA LEANDRO DA SILVA SANTARI2000033101    010                                07432670081Tomi Miura                                913Stio Dos Fernandes
03205930420250570840474880406422512520250515006150301010072702300139577813F350390Z014041     101             BPIKELI RODRIGUES BONFIM TEIXEIRA1983092403    010                                07432670081Tomi Miura                                210Stio Dos Fernandes           11997838643
03205930420250570840474880406422512520250508006160301010072704205267196385F350390N926017     101             BPIMARIA CLARA DE SA PEREIRA     2008032503    010                                07432670081Tomi Miura                    C2          931Stio Dos Fernandes
03205930420250570840474880406422512520250508006170301010072704206272768384F350390Z34 026     101             BPISHAIENY DUARTE DINIZ          1998061703    010                                07432670081Tomi Miura                                705Stio Dos Fernandes
03205930420250570840474880406422512520250522006180301010072704206272768384F350390O80 026     101             BPISHAIENY DUARTE DINIZ          1998061703    010                                07432670081Tomi Miura                                705Stio Dos Fernandes
03205930420250570840474880406422512520250522006190301010072706806281704327F350390R10 028     101             BPILARIANNE DOS REIS             1997052103    010                                07432670081Tomi Miura                    Casa A      210Stio Dos Fernandes
03205930420250570840474880406422512520250508006200301010072707605283552698F350390Z34 039     101             BPITAIS CHAGAS DE ARAUJO         1985121503    010                                07432670081Tomi Miura                    A           178Stio Dos Fernandes           11964056130
03205930420250570840474880406422512520250508007010301010072708003390669825F350390Z014018     101             BPILETICIA FRANCISCO BORGES      2007032103    010                                07432670081Tomi Miura                                949Stio Dos Fernandes
03205930420250570840474880406422512520250515007020301010072704005140885570F350390Z34 027     101             BPIPAULA FERREIRA RODRIGUES      1997062304    010                                07432080081Haroldo                       Casa 02     116Jardim Emlia
03205930420250570840474880406422512520250522007030301010072708501353897376F350390Z34 020     101             BPIPRISCILA RODRIGUES MARTINS    2005030801    010                                07432080081Haroldo                                    95Jardim Emlia                 11911050628
03205930420250570840474880406422512520250522007040301010072706208060153864F350390Z014034     101             BPIJESSICA GALVAO DOS SANTOS     1991041701    010                                07400230008Getlio Vargas                Apto 23     301Jardim ngelo
03205930420250570840474880406422512520250522007050301010072703403240988416F350390Z014029     101             BPIEVELYN CRISTINA FEITOSA SILVA 1996011403    010                                07432435008Perimetral                                310Recanto Primavera
03205930420250570840474880406422512520250508007060301010072700002104074600F350390Z014049     101             BPIIRACILDE DANTAS DE JESUS      1975121201    010                                07432465081dos Jambeiros                 Casa 01     294Recanto Primavera
03205930420250570840474880406422512520250522007070301010072705504425504810F350390Z014055     101             BPIMARIA JOSE DA SILVA DE LIMA   1970031904    010                                07432450081dos Coqueiros                              65Recanto Primavera
03205930420250570840474880406422512520250522007080301010072704003352055464F350390Z014074     101             BPIAMANDINA MACHADO LEMOS BOMFIM 1950112901    010                                07432465081dos Jambeiros                 Casa 01     220Recanto Primavera             11 46525089
03205930420250570840474880406422512520250508007090301010072704302579096390F350390Z014068     101             BPIMARIA JOSE DA SILVA           1957032501    010                                07432465081dos Jambeiros                 Casa 2      294Recanto Primavera
03205930420250570840474880406422512520250515007100301010072700004546757209F350390Z014060     101             BPICLELIA DONIZETI MARTINS DOS SA1964061903    010                                07432060081Nicolau                       930931122   263Jardim Emlia
03205930420250570840474880406422512520250508007110301010072700200426861429F350390N920016     101             BPIMARIA EDUARDA DA SILVA SOUSA M2009020401    010                                07432445081das Pitangueiras                          135Recanto Primavera
03205930420250570840474880406422512520250522007120301010072700000892344002F350390K120043     101             BPIMICHELE DA SILVA SOUSA        1982032501    010                                07432445081das Pitangueiras                          135Recanto Primavera
03205930420250570840474880406422512520250508007130301010072700000892344002F350390Z014043     101             BPIMICHELE DA SILVA SOUSA        1982032501    010                                07432445081das Pitangueiras                          135Recanto Primavera
03205930420250570840474880406422512520250508007140301010072702602225145542F350390Z30 028     101             BPIAMANDA ALMEIDA GOMES          1996070403    010                                07432450081dos Coqueiros                             153Recanto Primavera
03205930420250570840474880406422512520250508007150301010072706504349664695F350390Z30 016     101             BPIVITORIA GABRIELY SILVA DE SOUZ2008061104    010                                07432122081Nicolas Barbosa da Silva      Cond4 Bl A   30Cdhu Fazenda Albor
03205930420250570840474880406422512520250508007160301010072702007342002381F350390Z30 017     101             BPIANA PAULA DA SILVA LIMA       2008050801    010                                07432450081dos Coqueiros                             153Recanto Primavera             11997331887
03205930420250570840474880406422512520250522007170301010072700200957333326F350390Z014045     101             BPIFERNANDA REGINA DE PAULA      1980010301    010                                07432060081Nicolau                       Casa A       65Jardim Emlia
03205930420250570840474880406422512520250522007180301010072704009871281568F350390N771030     101             BPIALINE CAVALCANTE DE OLIVEIRA  1994080101    010                                07432060081Nicolau                                    45Jardim Emlia
03205930420250570840474880406422512520250522007190301010072704104138392870F350390N939030     101             BPICATARINE TEIXEIRA SILVA       1995051401    010                                07432700081Julia Serikawa                             06Stio Dos Fernandes
03205930420250570840474880406422512520250508007200301010072707002820646737F350390Z34 040     101             BPIMARLEIDE OLIVEIRA DE FARIAS   1984062401    010                                07432005081Pedro Pereira da Silva                     32Jardim Leika
03205930420250570840474880406422512520250522008010301010072702309182511215F350390Z014049     101             BPILUCIMAURA MARIA DA CONCEICAO  1975102801    010                                07432005081Pedro Pereira da Silva        Cond 2 AP    42Jardim Leika
03205930420250570840474880406422512520250522008020301010072706003813712641F350390Z014041     101             BPIFERNANDA GONCALVES DA SILVA   1984031203    010                                07432050008Dutra                                     448Jardim Emlia
03205930420250570840474880406422512520250515008030301010072708100513586937F350390N97 031     101             BPICAMILA DA SILVA MARTINS       1994041301    010                                07432050008Dutra                         Casa 02     421Jardim Emlia
03205930420250570840474880406422512520250522008040301010072709603678596676F350390O80 021     101             BPIASHLEY NICOLLY DA SILVA OLIVEI2004042801    010                                07432050008Dutra                         CASA 01     274Jardim Emlia
03205930420250570840474880406422512520250508008050301010072704503376540414F350390Z014057     101             BPILUZIA MARIA DOS SANTOS ALMEIDA1967100801    010                                07432050008Dutra                                     475Jardim Emlia
03205930420250570840474880406422512520250515008060301010072702000825960984F350390N771026     101             BPIMAYLANNE ANTONIA DE OLIVEIRA  1999010903    010                                07432050008Dutra                         Casa 02     326Jardim Emlia
03205930420250570840474880406422512520250508008070301010072700906951172494F350390Z014039     101             BPIARIANA APARECIDA LUCIO CAMARGO1985061203    010                                07432121081Regina Clia Gomes Alvarenga  Cond2 Bl B   90Cdhu Fazenda Albor
03205930420250570840474880406422512520250515008080301010072700806427715787F350390Z014026     101             BPIKELLY BARRETO XAVIER          1998111501    010                                07432050008Dutra                         CASA 02    291AJardim Emlia                 11946317890
03205930420250570840474880406422512520250508008090301010072700204976283626F350390O80 023     101             BPIDEBORA JAMILE NASCIMENTO DE OL2002053102    010                                07432050008Dutra                         Casa 02     452Jardim Emlia
03205930420250570840474880406422512520250522008100301010072700108958414611F350390Z34 024     101             BPIALINE EMILLY FERREIRA SANTOS  2001021801    010                                07432050008Dutra                         CASA DE CI  405Jardim Emlia
03205930420250570500806699625522356520250507004110401010015708504312038274M350390    059     101             BPISERGIO RODRIGUES              1965101101    010                                07432450081dos Coqueiros                              34Recanto Primavera
03277322820250570080892717798022350520250521001080214010040700503730088653F350390    025     101             BPIPOLIANA PEREIRA DIAS          1999092903    010                                07401695081Firmina Maiolino Ribeiro                  130Vila Pilar
03277322820250570080892717798022350520250529001110214010040700500745339557F350390    018     101             BPICAROLINA SCHMIDT DA SILVA     2006121103    010                                07417265008Railda Alves de Oliveira                  625Parque Rodrigo Barreto
03277322820250570080892717798022350520250528001030214010058708003326271026M350390    025     101             BPICAIO HENRIQUE DE OLIVEIRA     1999062303    010                                07401730081Carime Buissa                             130Vila Pilar
03277322820250570080892717798022350520250523001070214010058702401007705520M350390    031     101             BPILEONARDO SANTOS DA SILVA      1993100402    010                                07417505081Giuseppe Antonio Maiolino                 591Parque Rodrigo Barreto
03277322820250570080892717798022350520250530001120214010058706407106260789M350390    033     101             BPITIAGO NUNES DE SOUZA          1991082401    010                                07417185081Luiz Paulo Colangelo Nbrega  B            20Parque Rodrigo Barreto
03277322820250570080892717798022350520250523001040214010074702401007705520M350390    031     101             BPILEONARDO SANTOS DA SILVA      1993100402    010                                07417505081Giuseppe Antonio Maiolino                 591Parque Rodrigo Barreto
03277322820250570080892717798022350520250530001090214010074706407106260789M350390    033     101             BPITIAGO NUNES DE SOUZA          1991082401    010                                07417185081Luiz Paulo Colangelo Nbrega  B            20Parque Rodrigo Barreto
03277322820250570080892717798022350520250528001150214010074708003326271026M350390    025     101             BPICAIO HENRIQUE DE OLIVEIRA     1999062303    010                                07401730081Carime Buissa                             130Vila Pilar
03277322820250570080892717798022350520250529001050214010082700500745339557F350390    018     101             BPICAROLINA SCHMIDT DA SILVA     2006121103    010                                07417265008Railda Alves de Oliveira                  625Parque Rodrigo Barreto
03277322820250570080892717798022350520250521001140214010082700503730088653F350390    025     101             BPIPOLIANA PEREIRA DIAS          1999092903    010                                07401695081Firmina Maiolino Ribeiro                  130Vila Pilar
03277322820250570080892717798022350520250521001010214010090700503730088653F350390    025     101             BPIPOLIANA PEREIRA DIAS          1999092903    010                                07401695081Firmina Maiolino Ribeiro                  130Vila Pilar
03277322820250570080892717798022350520250529001020214010090700500745339557F350390    018     101             BPICAROLINA SCHMIDT DA SILVA     2006121103    010                                07417265008Railda Alves de Oliveira                  625Parque Rodrigo Barreto
03277322820250570080892717798022350520250530001060214010090706407106260789M350390    033     101             BPITIAGO NUNES DE SOUZA          1991082401    010                                07417185081Luiz Paulo Colangelo Nbrega  B            20Parque Rodrigo Barreto
03277322820250570080892717798022350520250528001100214010090708003326271026M350390    025     101             BPICAIO HENRIQUE DE OLIVEIRA     1999062303    010                                07401730081Carime Buissa                             130Vila Pilar
03277322820250570080892717798022350520250523001130214010090702401007705520M350390    031     101             BPILEONARDO SANTOS DA SILVA      1993100402    010                                07417505081Giuseppe Antonio Maiolino                 591Parque Rodrigo Barreto
03277322820250570240905660072622371020250508001180301050155700906968831194M350390    063     101             BPIRAIMUNDO DOS SANTOS           1961071803    010                                07417305008Armando Colangelo                        1559Parque Rodrigo Barreto
03277322820250570240905660072622371020250507001190301050155705009838988052F350390    026     101             BPISTEFANI VITORIA DOS SANTOS ROD1999010301    010                                07499899081Rural                                      81rea Rural De Aruj           11943254465
03277322820250570200087129978022320820250522001160307010147702907504945474M350390K02 018     101             BPIJOAO HENRIQUE DE QUADROS GOMES2007012403    010                                07417310008Armando Colangelo                        2020Parque Rodrigo Barreto
03277322820250570200087129978022320820250506001170307010147708008343969227M350390K02 010     101             BPIDAVI DA SILVA PIRES           2015020801    010                                07417405081Marcos Aurlio de Castro                  153Parque Rodrigo Barreto        11934379819
03277384820250570280866848406422350520250530001090214010040704606694253127F350390    025     101             BPINATHALY YASMIN VAIS DE FARIAS 1999121401    010                                07404210081Serra dos Tingus             APTO 3      197Mirante Do Aruj
03277384820250570450237014861922350520250512001120214010040704004383581363F350390    032     101             BPIROSEMEIRE DA SILVA ASSUNO   1992070701    010                                07405415081Macuco                                    188Jardim Pinheiro
03277384820250570450237014861922350520250514001150214010040700000149799203F350390    035     101             BPIERICA SANTOS DA SILVA         1989060301    010                                07404175081Serra da Mata da Corda                    124Mirante Do Aruj              11991404491
03277384820250570450237014861922350520250521001170214010040707004832448430F350390    017     101             BPIMIRELE BARBOSA                2007062004    010                                07404145081Serra Geral                               233Mirante Do Aruj
03277384820250570450237014861922350520250522001180214010040702300165669614F350390    054     101             BPIELENA SOARES PEREIRA          1970110103    010                                07407040008Airton dos Santos Heras Galvez            526Jardim Santo Antnio
03277384820250570450237014861922350520250506002020214010040700201932118627F350390    020     101             BPINICOLE SILVA DA COSTA         2004091801    010                                07405440081Jacutinga                     Retiro      385Jardim Pinheiro               11 25003294
03277384820250570450237014861922350520250514002060214010040705601404758119F350390    035     101             BPICATIA ROBERTA RIBEIRO         1989102402    010                                07405445081Andorinha                     B            40Jardim Pinheiro               11947026472
03277384820250570450237014861922350520250506002070214010040700004400943105M350390    027     101             BPILUCAS BATISTA DE ARRUDA DOS SA1998032803    010                                07405445081Andorinha                                 185Jardim Pinheiro
03277384820250570450237014861922350520250528002100214010040708207696187145F350390    032     101             BPIAMANDA SOUZA BRAGA            1993021701    010                                07404095081Serra do Jari                             148Mirante Do Aruj
03277384820250570450237014861922350520250505002110214010040700006372520707F350390    027     101             BPIFERNANDA SERAFIM DA SILVA     1998031601    010                                07404100031dos Fernandes                 Casa 02    1831Mirante do Aruj
