01#BPA#2024090049560002062145SECRETARIA MUNICIPAL DE SAUDE SMS   56901275000150SECRETARIA ESTADUAL DE SAUDE            MD04.01    
026430163202409251510001010301010048030000001BPA
026430163202409251510001020301010048078000003BPA
026430163202409251510001030301010048048000005BPA
026430163202409251510001040301010048023000001BPA
026430163202409251510001050301010048046000002BPA
026430163202409251510001060301010048073000001BPA
026430163202409251510001070301010048051000002BPA
026430163202409251510001080301010048040000003BPA
026430163202409251510001090301010048042000001BPA
026430163202409251510001100301010048031000005BPA
026430163202409251510001110301010048039000003BPA
026430163202409251510001120301010048033000001BPA
026430163202409251510001130301010048024000001BPA
026430163202409251510001140301010048022000003BPA
026430163202409251510001150301010048037000003BPA
026430163202409251510001160301010048062000001BPA
026430163202409251510001170301010048075000002BPA
026430163202409251510001180301010048027000002BPA
026430163202409251510001190301080160000000022BPA
026430163202409322230001200301100039000000031BPA
026896839202409223208001010301010048025000005BPA
026896839202409223208001020301010048079000001BPA
026896839202409223208001030301010048023000007BPA
026896839202409223208001040301010048004000001BPA
026896839202409223208001050301010048041000016BPA
026896839202409223208001060301010048038000005BPA
026896839202409223208001070301010048088000002BPA
026896839202409223208001080301010048051000003BPA
026896839202409223208001090301010048055000004BPA
026896839202409223208001100301010048029000004BPA
026896839202409223208001110301010048019000003BPA
026896839202409223208001120301010048027000006BPA
026896839202409223208001130301010048030000003BPA
026896839202409223208001140301010048013000003BPA
026896839202409223208001150301010048024000002BPA
026896839202409223208001160301010048016000003BPA
026896839202409223208001170301010048011000002BPA
026896839202409223208001180301010048066000005BPA
026896839202409223208001190301010048008000001BPA
026896839202409223208001200301010048015000002BPA
026896839202409223208002010301010048005000002BPA
026896839202409223208002020301010048058000007BPA
026896839202409223208002030301010048035000007BPA
026896839202409223208002040301010048056000003BPA
026896839202409223208002050301010048032000001BPA
026896839202409223208002060301010048045000007BPA
026896839202409223208002070301010048044000004BPA
026896839202409223208002080301010048003000001BPA
026896839202409223208002090301010048062000005BPA
026896839202409223208002100301010048060000001BPA
026896839202409223208002110301010048028000009BPA
026896839202409223208002120301010048074000003BPA
026896839202409223208002130301010048020000005BPA
026896839202409223208002140301010048064000006BPA
026896839202409223208002150301010048040000008BPA
026896839202409223208002160301010048039000002BPA
026896839202409223208002170301010048021000002BPA
026896839202409223208002180301010048018000007BPA
026896839202409223208002190301010048048000005BPA
026896839202409223208002200301010048010000002BPA
026896839202409223208003010301010048080000001BPA
026896839202409223208003020301010048007000002BPA
026896839202409223208003030301010048017000002BPA
026896839202409223208003040301010048033000006BPA
026896839202409223208003050301010048086000001BPA
026896839202409223208003060301010048065000004BPA
026896839202409223208003070301010048047000003BPA
026896839202409223208003080301010048075000001BPA
026896839202409223208003090301010048077000002BPA
026896839202409223208003100301010048046000004BPA
026896839202409223208003110301010048061000002BPA
026896839202409223208003120301010048049000003BPA
026896839202409223208003130301010048054000001BPA
026896839202409223208003140301010048042000006BPA
026896839202409223208003150301010048026000012BPA
026896839202409223208003160301010048050000001BPA
026896839202409223208003170301010048012000002BPA
026896839202409223208003180301010048057000002BPA
026896839202409223208003190301010048081000001BPA
026896839202409223208003200301010048031000005BPA
026896839202409223208004010301010048068000003BPA
026896839202409223208004020301010048069000005BPA
026896839202409223208004030301010048037000004BPA
026896839202409223208004040301010048059000003BPA
026896839202409223208004050301010048043000003BPA
026896839202409223208004060301010048006000002BPA
026896839202409223208004070301010048067000005BPA
026896839202409223208004080301010048053000003BPA
026896839202409223208004090301010048052000003BPA
026896839202409223208004100301010048036000007BPA
026896839202409223208004110301010048034000002BPA
026896839202409223208004120301010048071000004BPA
026896839202409223208004130301010048070000002BPA
026896839202409223208004140301010048009000007BPA
026896839202409223208004150301010048022000003BPA
026896839202409223208004160301010048014000005BPA
026896839202409223212004170301010048028000002BPA
026896839202409223212004180301010048030000002BPA
026896839202409223212004190301010048026000001BPA
026896839202409223212004200301010048056000001BPA
026896839202409223212005010301010048015000001BPA
026896839202409223212005020301010048057000007BPA
026896839202409223212005030301010048016000003BPA
026896839202409223212005040301010048061000003BPA
026896839202409223212005050301010048059000001BPA
026896839202409223212005060301010048033000005BPA
026896839202409223212005070301010048053000001BPA
026896839202409223212005080301010048031000012BPA
026896839202409223212005090301010048051000002BPA
026896839202409223212005100301010048010000001BPA
026896839202409223212005110301010048018000003BPA
026896839202409223212005120301010048007000002BPA
026896839202409223212005130301010048040000002BPA
026896839202409223212005140301010048006000001BPA
026896839202409223212005150301010048060000004BPA
026896839202409223212005160301010048036000003BPA
026896839202409223212005170301010048065000003BPA
026896839202409223212005180301010048013000006BPA
026896839202409223212005190301010048012000004BPA
026896839202409223212005200301010048011000001BPA
026896839202409223212006010301010048066000005BPA
026896839202409223212006020301010048009000003BPA
026896839202409223212006030301010048045000006BPA
026896839202409223212006040301010048052000001BPA
026896839202409223212006050301010048054000002BPA
026896839202409223212006060301010048034000001BPA
026896839202409223212006070301010048037000005BPA
026896839202409223212006080301010048044000003BPA
026896839202409223212006090301010048027000003BPA
026896839202409223212006100301010048032000004BPA
026896839202409223212006110301010048029000004BPA
026896839202409223212006120301010048022000001BPA
026896839202409223212006130301010048063000001BPA
026896839202409223212006140301010048039000002BPA
026896839202409223212006150301010048048000001BPA
026896839202409223212006160301010048014000001BPA
026896839202409223212006170301010048062000006BPA
026896839202409223212006180301010048035000006BPA
026896839202409223212006190301010048042000013BPA
026896839202409223212006200301010048041000001BPA
026896839202409223212007010301010048074000001BPA
026896839202409223212007020301010048076000001BPA
026896839202409223212007030301010048021000003BPA
026896839202409223212007040301010048058000002BPA
026896839202409223212007050301010048064000001BPA
026896839202409223212007060301010048047000008BPA
026896839202409223212007070301010048068000003BPA
026896839202409223212007080301010048025000001BPA
026896839202409223212007090301010048067000001BPA
026896839202409223212007100301010048038000003BPA
026896839202409223212007110301010048046000007BPA
026896839202409223212007120301010048024000003BPA
026896839202409223212007130301010048043000010BPA
026896839202409223212007140301010048055000001BPA
026896839202409223212007150301010048020000001BPA
026896839202409223212007160301010048049000001BPA
026896839202409223208007170301010153000000066BPA
026896839202409223212007180301010153000000022BPA
026896839202409223288007190301010153000000002BPA
026896839202409223208007200301060061000000001BPA
026896839202409223212008010301060061000000022BPA
026896847202409225265001010101040024000000001BPA
026896847202409225275001020101040024000000001BPA
026896847202409322205001030101040024000001193BPA
026896847202409322230001040101040024000000172BPA
026896847202409225112001050102010072000000001BPA
026896847202409225270001060102010072000000004BPA
026896847202409223505001070201020041000000002BPA
026896847202409322205001080214010015000000157BPA
026896847202409322230001090214010015000000171BPA
026896847202409223505001100214010058000000029BPA
026896847202409223505001110214010074000000027BPA
026896847202409223505001120301010048076000002BPA
026896847202409223505001130301010048006000001BPA
026896847202409223505001140301010048025000001BPA
026896847202409223505001150301010048043000002BPA
026896847202409223505001160301010048022000003BPA
026896847202409223505001170301010048045000002BPA
026896847202409223505001180301010048012000002BPA
026896847202409223505001190301010048072000001BPA
026896847202409223505001200301010048066000002BPA
026896847202409223505002010301010048046000001BPA
026896847202409223505002020301010048018000001BPA
026896847202409223505002030301010048063000001BPA
026896847202409223505002040301010048040000001BPA
026896847202409223505002050301010048065000002BPA
026896847202409223505002060301010048019000002BPA
026896847202409223505002070301010048028000002BPA
026896847202409223505002080301010048048000001BPA
026896847202409223505002090301010048051000002BPA
026896847202409223505002100301010048082000005BPA
026896847202409223505002110301010048071000002BPA
026896847202409223505002120301010048027000003BPA
026896847202409223505002130301010048021000001BPA
026896847202409223505002140301010048042000003BPA
026896847202409223505002150301010048056000001BPA
026896847202409223505002160301010048070000001BPA
026896847202409223505002170301010048068000001BPA
026896847202409223505002180301010048087000001BPA
026896847202409223505002190301010048059000002BPA
026896847202409223505002200301010048077000001BPA
026896847202409223505003010301010048081000002BPA
026896847202409223505003020301010048030000003BPA
026896847202409223505003030301010048037000003BPA
026896847202409223505003040301010048038000002BPA
026896847202409223505003050301010048035000002BPA
026896847202409223505003060301010048017000003BPA
026896847202409223505003070301010048080000002BPA
026896847202409223505003080301010048052000004BPA
026896847202409223505003090301010048069000001BPA
026896847202409223505003100301010048034000001BPA
026896847202409223505003110301010048054000001BPA
026896847202409223505003120301010048064000002BPA
026896847202409223505003130301010048057000001BPA
026896847202409223505003140301010048050000001BPA
026896847202409223505003150301010048058000002BPA
026896847202409223505003160301010048049000001BPA
026896847202409223505003170301010048032000002BPA
026896847202409223505003180301010048085000001BPA
026896847202409223505003190301010048024000003BPA
026896847202409251605003200301010048081000003BPA
026896847202409251605004010301010048056000004BPA
026896847202409251605004020301010048090000002BPA
026896847202409251605004030301010048049000002BPA
026896847202409251605004040301010048011000001BPA
026896847202409251605004050301010048067000003BPA
026896847202409251605004060301010048006000003BPA
026896847202409251605004070301010048031000001BPA
026896847202409251605004080301010048083000001BPA
026896847202409251605004090301010048051000001BPA
026896847202409251605004100301010048076000001BPA
026896847202409251605004110301010048039000001BPA
026896847202409251605004120301010048077000001BPA
026896847202409251605004130301010048016000003BPA
026896847202409251605004140301010048010000001BPA
026896847202409251605004150301010048072000002BPA
026896847202409251605004160301010048050000005BPA
026896847202409251605004170301010048041000001BPA
026896847202409251605004180301010048046000001BPA
026896847202409251605004190301010048078000001BPA
026896847202409251605004200301010048069000001BPA
026896847202409251605005010301010048082000001BPA
026896847202409251605005020301010048044000002BPA
026896847202409251605005030301010048030000001BPA
026896847202409251605005040301010048017000002BPA
026896847202409251605005050301010048054000002BPA
026896847202409251605005060301010048066000001BPA
026896847202409251605005070301010048047000003BPA
026896847202409251605005080301010048068000004BPA
026896847202409251605005090301010048073000003BPA
026896847202409251605005100301010048012000002BPA
026896847202409251605005110301010048059000002BPA
026896847202409251605005120301010048058000003BPA
026896847202409251605005130301010048052000003BPA
026896847202409251605005140301010048015000002BPA
026896847202409251605005150301010048034000002BPA
026896847202409251605005160301010048091000001BPA
026896847202409251605005170301010048065000003BPA
026896847202409251605005180301010048029000001BPA
026896847202409251605005190301010048063000003BPA
026896847202409251605005200301010048009000001BPA
026896847202409251605006010301010048042000001BPA
026896847202409251605006020301010048004000001BPA
026896847202409251605006030301010048055000001BPA
026896847202409251605006040301010048025000002BPA
026896847202409251605006050301010048005000003BPA
026896847202409251605006060301010048060000004BPA
026896847202409251605006070301010048026000002BPA
026896847202409251605006080301010048053000001BPA
026896847202409251605006090301010048014000002BPA
026896847202409251605006100301010048033000004BPA
026896847202409251605006110301010048075000002BPA
026896847202409251605006120301010048007000002BPA
026896847202409251605006130301010048023000001BPA
026896847202409251605006140301010048045000003BPA
026896847202409251605006150301010048008000001BPA
026896847202409251605006160301010048062000001BPA
026896847202409251605006170301010048057000002BPA
026896847202409251605006180301010048094000001BPA
026896847202409251605006190301010048040000005BPA
026896847202409251605006200301010048064000005BPA
026896847202409251605007010301010048080000002BPA
026896847202409225112007020301010072000000470BPA
026896847202409225120007030301010072000000369BPA
026896847202409225125007040301010072000000053BPA
026896847202409225133007050301010072000000248BPA
026896847202409225135007060301010072000000216BPA
026896847202409225155007070301010072000000241BPA
026896847202409225265007080301010072000000457BPA
026896847202409225270007090301010072000000760BPA
026896847202409225275007100301010072000000256BPA
026896847202409225285007110301010072000000159BPA
026896847202409223505007120301040079000000035BPA
026896847202409225265007130301100039000000001BPA
026896847202409322205007140301100039000001145BPA
026896847202409322230007150301100039000000172BPA
026896847202409225275007160404010270000000016BPA
029001808202409225310001010301040079000000106BPA
03049138120240970050453405345222360520240905001010302060030703404648057800F350390G804009     101             BPIANA CLARA PIRES DOS SANTOS    2014122201    010                                07402205081MINAS GERAIS                               15JARDIM PLANALTO               11 46523629
03049138120240970050453405345222360520240912001020302060030703404648057800F350390G804009     101             BPIANA CLARA PIRES DOS SANTOS    2014122201    010                                07402205081MINAS GERAIS                               15JARDIM PLANALTO               11 46523629
03049138120240970050453405345222360520240905001030302060030701401642375631F350390G804003     101             BPIANTONELA PINOTI COSTA CARVALHO2021031501    010                                07411215081SAO LUIS                                  110JORDANPOLIS
03049138120240970050453405345222360520240919001040302060030701401642375631F350390G804003     101             BPIANTONELA PINOTI COSTA CARVALHO2021031501    010                                07411215081SAO LUIS                                  110JORDANPOLIS
03049138120240970050453405345222360520240926001050302060030701401642375631F350390G804003     101             BPIANTONELA PINOTI COSTA CARVALHO2021031501    010                                07411215081SAO LUIS                                  110JORDANPOLIS
03049138120240970050453405345222360520240903001060302060030701409652952736M350390G804026     101             BPIARTHUR DOS SANTOS VIANNA PINHO1998100801    010                                07417265008RAILDA ALVES DE OLIVEIRA      A           856PARQUE RODRIGO BARRETO        11 46554774
03049138120240970050453405345222360520240910001070302060030701409652952736M350390G804026     101             BPIARTHUR DOS SANTOS VIANNA PINHO1998100801    010                                07417265008RAILDA ALVES DE OLIVEIRA      A           856PARQUE RODRIGO BARRETO        11 46554774
03049138120240970050453405345222360520240917001080302060030701409652952736M350390G804026     101             BPIARTHUR DOS SANTOS VIANNA PINHO1998100801    010                                07417265008RAILDA ALVES DE OLIVEIRA      A           856PARQUE RODRIGO BARRETO        11 46554774
03049138120240970050453405345222360520240924001090302060030701409652952736M350390G804026     101             BPIARTHUR DOS SANTOS VIANNA PINHO1998100801    010                                07417265008RAILDA ALVES DE OLIVEIRA      A           856PARQUE RODRIGO BARRETO        11 46554774
03049138120240970050453405345222360520240912001100302060030700402404310640M350390G804009     101             BPIGABRIEL FERNANDES GONTAN      2015050803    010                                07403000008HANS OSSAMU SUZUKI                        220ARUJAMRICA                    11 46550954
03049138120240970050453405345222360520240919001110302060030700402404310640M350390G804009     101             BPIGABRIEL FERNANDES GONTAN      2015050803    010                                07403000008HANS OSSAMU SUZUKI                        220ARUJAMRICA                    11 46550954
03049138120240970050453405345222360520240905001120302060030705002456823155M350390G804017     101             BPIGABRIEL PEDRO LOPES DA SILVA  2007062301    010                                07401720081IRACI PINTO FERREIRA BRAZ     A            19VILA PILAR                    11 46513585
03049138120240970050453405345222360520240919001130302060030705002456823155M350390G804017     101             BPIGABRIEL PEDRO LOPES DA SILVA  2007062301    010                                07401720081IRACI PINTO FERREIRA BRAZ     A            19VILA PILAR                    11 46513585
03049138120240970050453405345222360520240926001140302060030705002456823155M350390G804017     101             BPIGABRIEL PEDRO LOPES DA SILVA  2007062301    010                                07401720081IRACI PINTO FERREIRA BRAZ     A            19VILA PILAR                    11 46513585
03049138120240970050453405345222360520240905001150302060030704603611129420F350390G804020     101             BPIGIOVANNA OLIVEIRA DE CARVALHO 2004100701    010                                07400885081Armando Tenorio de Araujo                  53Aruja Centro Residencial
03049138120240970050453405345222360520240912001160302060030704603611129420F350390G804020     101             BPIGIOVANNA OLIVEIRA DE CARVALHO 2004100701    010                                07400885081Armando Tenorio de Araujo                  53Aruja Centro Residencial
03049138120240970050453405345222360520240919001170302060030704603611129420F350390G804020     101             BPIGIOVANNA OLIVEIRA DE CARVALHO 2004100701    010                                07400885081Armando Tenorio de Araujo                  53Aruja Centro Residencial
03049138120240970050453405345222360520240926001180302060030704603611129420F350390G804020     101             BPIGIOVANNA OLIVEIRA DE CARVALHO 2004100701    010                                07400885081Armando Tenorio de Araujo                  53Aruja Centro Residencial
03049138120240970050453405345222360520240917001190302060030704801024804348F350390G804010     101             BPIISABEL SOUSA FONSECA          2014080801    010                                07417565081Jose Barbosa de Souza                      15Parque Rodrigo Barreto
03049138120240970050453405345222360520240903001200302060030700206991639330F350390G804009     101             BPIISABELLA VITORIA ALVES SOARES 2014111201    010                                07403105081JOO LEITE DE CAMARGO                      184ARUJAMRICA
03049138120240970050453405345222360520240910002010302060030700206991639330F350390G804009     101             BPIISABELLA VITORIA ALVES SOARES 2014111201    010                                07403105081JOO LEITE DE CAMARGO                      184ARUJAMRICA
03049138120240970050453405345222360520240924002020302060030700206991639330F350390G804009     101             BPIISABELLA VITORIA ALVES SOARES 2014111201    010                                07403105081JOO LEITE DE CAMARGO                      184ARUJAMRICA
03049138120240970050453405345222360520240903002030302060030700507118196959F350390G804018     101             BPIIZABEL DA LUZ BARROS          2006041503    010                                07417465081ANTONIA MANOEL FERNANDES                  639PARQUE RODRIGO BARRETO        11 46531105
03049138120240970050453405345222360520240910002040302060030700507118196959F350390G804018     101             BPIIZABEL DA LUZ BARROS          2006041503    010                                07417465081ANTONIA MANOEL FERNANDES                  639PARQUE RODRIGO BARRETO        11 46531105
03049138120240970050453405345222360520240917002050302060030700507118196959F350390G804018     101             BPIIZABEL DA LUZ BARROS          2006041503    010                                07417465081ANTONIA MANOEL FERNANDES                  639PARQUE RODRIGO BARRETO        11 46531105
03049138120240970050453405345222360520240924002060302060030700507118196959F350390G804018     101             BPIIZABEL DA LUZ BARROS          2006041503    010                                07417465081ANTONIA MANOEL FERNANDES                  639PARQUE RODRIGO BARRETO        11 46531105
03049138120240970050453405345222360520240905002070302060030708000839197225M350390G804014     101             BPILUAN COSTA MARQUES            2010080503    010                                07405425081ROUXINOL                                   86JARDIM PINHEIRO               11 46533690
03049138120240970050453405345222360520240912002080302060030708000839197225M350390G804014     101             BPILUAN COSTA MARQUES            2010080503    010                                07405425081ROUXINOL                                   86JARDIM PINHEIRO               11 46533690
03049138120240970050453405345222360520240905002090302060030700004487906207M350390G804009     101             BPILUCAS PIETRO DO CARMO SANTOS  2015060701    010                                07417500081ANTO BERNARDO DA SILVA                     96PARQUE RODRIGO BARRETO        11 46497722
03049138120240970050453405345222360520240912002100302060030700004487906207M350390G804009     101             BPILUCAS PIETRO DO CARMO SANTOS  2015060701    010                                07417500081ANTO BERNARDO DA SILVA                     96PARQUE RODRIGO BARRETO        11 46497722
03049138120240970050453405345222360520240926002110302060030700004487906207M350390G804009     101             BPILUCAS PIETRO DO CARMO SANTOS  2015060701    010                                07417500081ANTO BERNARDO DA SILVA                     96PARQUE RODRIGO BARRETO        11 46497722
03049138120240970050453405345222360520240919002120302060049703404648057800F350390G804009     101             BPIANA CLARA PIRES DOS SANTOS    2014122201    010                                07402205081MINAS GERAIS                               15JARDIM PLANALTO               11 46523629
03049138120240970050453405345222360520240926002130302060049703404648057800F350390G804009     101             BPIANA CLARA PIRES DOS SANTOS    2014122201    010                                07402205081MINAS GERAIS                               15JARDIM PLANALTO               11 46523629
03049138120240970050453405345222360520240905002140302060049705207421017775M350390G804008     101             BPIARTHUR MOREIRA DA MOTTA       2016081303    010                                07439050081MOLIBIDENIO                               170CHACARAS COPACO               11 46543261
03049138120240970050453405345222360520240912002150302060049705207421017775M350390G804008     101             BPIARTHUR MOREIRA DA MOTTA       2016081303    010                                07439050081MOLIBIDENIO                               170CHACARAS COPACO               11 46543261
03049138120240970050453405345222360520240917002160302060049705207421017775M350390G804008     101             BPIARTHUR MOREIRA DA MOTTA       2016081303    010                                07439050081MOLIBIDENIO                               170CHACARAS COPACO               11 46543261
03049138120240970050453405345222360520240926002170302060049705207421017775M350390G804008     101             BPIARTHUR MOREIRA DA MOTTA       2016081303    010                                07439050081MOLIBIDENIO                               170CHACARAS COPACO               11 46543261
03049138120240970050453405345222360520240905002180302060049705008816205755M350390G804007     101             BPIBERNARDO PINOTI SILVA CARVALHO2017091801    010                                07411215081LUIZ                                      110JORDANPOLIS
03049138120240970050453405345222360520240919002190302060049705008816205755M350390G804007     101             BPIBERNARDO PINOTI SILVA CARVALHO2017091801    010                                07411215081LUIZ                                      110JORDANPOLIS
03049138120240970050453405345222360520240926002200302060049705008816205755M350390G804007     101             BPIBERNARDO PINOTI SILVA CARVALHO2017091801    010                                07411215081LUIZ                                      110JORDANPOLIS
03049138120240970050453405345222360520240905003010302060049700609919724261M350390G804011     101             BPIBRYAN SANTOS DA HORA          2013062803    010                                07417100081Alice Sanches Ribeiro         Casa 03      62Parque Rodrigo Barreto
03049138120240970050453405345222360520240912003020302060049700609919724261M350390G804011     101             BPIBRYAN SANTOS DA HORA          2013062803    010                                07417100081Alice Sanches Ribeiro         Casa 03      62Parque Rodrigo Barreto
03049138120240970050453405345222360520240926003030302060049700609919724261M350390G804011     101             BPIBRYAN SANTOS DA HORA          2013062803    010                                07417100081Alice Sanches Ribeiro         Casa 03      62Parque Rodrigo Barreto
03049138120240970050453405345222360520240905003040302060049707602259771994M350390G804005     101             BPIDANIEL MEDEIROS DIAS          2018102203    010                                07437050081Cedros                                    185Parque dos Jacarands          11989113704
03049138120240970050453405345222360520240912003050302060049707602259771994M350390G804005     101             BPIDANIEL MEDEIROS DIAS          2018102203    010                                07437050081Cedros                                    185Parque dos Jacarands          11989113704
03049138120240970050453405345222360520240919003060302060049707602259771994M350390G804005     101             BPIDANIEL MEDEIROS DIAS          2018102203    010                                07437050081Cedros                                    185Parque dos Jacarands          11989113704
03049138120240970050453405345222360520240926003070302060049707602259771994M350390G804005     101             BPIDANIEL MEDEIROS DIAS          2018102203    010                                07437050081Cedros                                    185Parque dos Jacarands          11989113704
03049138120240970050453405345222360520240905003080302060049700801940003986M350390G804008     101             BPIDANIEL RIBEIRO AQUINO DA SILVE2016020203    010                                07400470081Siqueira Campos                            30Jardim Rinco
03049138120240970050453405345222360520240910003090302060049700801940003986M350390G804008     101             BPIDANIEL RIBEIRO AQUINO DA SILVE2016020203    010                                07400470081Siqueira Campos                            30Jardim Rinco
03049138120240970050453405345222360520240917003100302060049700801940003986M350390G804008     101             BPIDANIEL RIBEIRO AQUINO DA SILVE2016020203    010                                07400470081Siqueira Campos                            30Jardim Rinco
03049138120240970050453405345222360520240924003110302060049700801940003986M350390G804008     101             BPIDANIEL RIBEIRO AQUINO DA SILVE2016020203    010                                07400470081Siqueira Campos                            30Jardim Rinco
03049138120240970050453405345222360520240903003120302060049700202902613922M350390G804008     101             BPIDAVI MOTA DE JESUS            2016030801    010                                07405470081PELICANO                      CASA 03      68JARDIM PINHEIRO
03049138120240970050453405345222360520240910003130302060049700202902613922M350390G804008     101             BPIDAVI MOTA DE JESUS            2016030801    010                                07405470081PELICANO                      CASA 03      68JARDIM PINHEIRO
03049138120240970050453405345222360520240924003140302060049700202902613922M350390G804008     101             BPIDAVI MOTA DE JESUS            2016030801    010                                07405470081PELICANO                      CASA 03      68JARDIM PINHEIRO
03049138120240970050453405345222360520240903003150302060049708904756630113M350390G804009     101             BPIGABRIEL DAVI SOUZA BARROS     2015020601    010                                07404090081SERRA DO JAIRE                CS4         315MIRANTE DO ARUJ               11 46558284
03049138120240970050453405345222360520240910003160302060049708904756630113M350390G804009     101             BPIGABRIEL DAVI SOUZA BARROS     2015020601    010                                07404090081SERRA DO JAIRE                CS4         315MIRANTE DO ARUJ               11 46558284
03049138120240970050453405345222360520240917003170302060049708904756630113M350390G804009     101             BPIGABRIEL DAVI SOUZA BARROS     2015020601    010                                07404090081SERRA DO JAIRE                CS4         315MIRANTE DO ARUJ               11 46558284
03049138120240970050453405345222360520240924003180302060049708904756630113M350390G804009     101             BPIGABRIEL DAVI SOUZA BARROS     2015020601    010                                07404090081SERRA DO JAIRE                CS4         315MIRANTE DO ARUJ               11 46558284
03049138120240970050453405345222360520240926003190302060049700402404310640M350390G804009     101             BPIGABRIEL FERNANDES GONTAN      2015050803    010                                07403000008HANS OSSAMU SUZUKI                        220ARUJAMRICA                    11 46550954
03049138120240970050453405345222360520240903003200302060049706906106273834M350390G804011     101             BPIGUSTAVO PEDRO DE JESUS HONORIO2013080401    010                                07411155008Santa Terezinha                           555Jordanpolis
03049138120240970050453405345222360520240910004010302060049706906106273834M350390G804011     101             BPIGUSTAVO PEDRO DE JESUS HONORIO2013080401    010                                07411155008Santa Terezinha                           555Jordanpolis
03049138120240970050453405345222360520240917004020302060049706906106273834M350390G804011     101             BPIGUSTAVO PEDRO DE JESUS HONORIO2013080401    010                                07411155008Santa Terezinha                           555Jordanpolis
03049138120240970050453405345222360520240924004030302060049706906106273834M350390G804011     101             BPIGUSTAVO PEDRO DE JESUS HONORIO2013080401    010                                07411155008Santa Terezinha                           555Jordanpolis
03049138120240970050453405345222360520240905004040302060049702401032630725M350390G804010     101             BPIHENRIQUE ALMEIDA SILVA        2014031401    010                                07400970081LUIZ GONZAGA COLANGELO NOBREGA            525PARQUE RODRIGO BARRETO        11 37545224
03049138120240970050453405345222360520240912004050302060049702401032630725M350390G804010     101             BPIHENRIQUE ALMEIDA SILVA        2014031401    010                                07400970081LUIZ GONZAGA COLANGELO NOBREGA            525PARQUE RODRIGO BARRETO        11 37545224
03049138120240970050453405345222360520240919004060302060049702401032630725M350390G804010     101             BPIHENRIQUE ALMEIDA SILVA        2014031401    010                                07400970081LUIZ GONZAGA COLANGELO NOBREGA            525PARQUE RODRIGO BARRETO        11 37545224
03049138120240970050453405345222360520240905004070302060049700607493571960M350390G804008     101             BPIHENRIQUE MOREIRA DA MOTTA     2016081303    010                                07400970081Avenida dos Expedicionarios               S/NCentro
03049138120240970050453405345222360520240912004080302060049700607493571960M350390G804008     101             BPIHENRIQUE MOREIRA DA MOTTA     2016081303    010                                07400970081Avenida dos Expedicionarios               S/NCentro
03049138120240970050453405345222360520240917004090302060049700607493571960M350390G804008     101             BPIHENRIQUE MOREIRA DA MOTTA     2016081303    010                                07400970081Avenida dos Expedicionarios               S/NCentro
03049138120240970050453405345222360520240926004100302060049700607493571960M350390G804008     101             BPIHENRIQUE MOREIRA DA MOTTA     2016081303    010                                07400970081Avenida dos Expedicionarios               S/NCentro
03049138120240970050453405345222360520240905004110302060049705003094227452M350390G804004     101             BPIHUGO HENRIQUE DE PETTA ANTUNES2020022901    010                                07405445081ANDORINHA                     A            63JARDIM PINHEIRO
03049138120240970050453405345222360520240912004120302060049705003094227452M350390G804004     101             BPIHUGO HENRIQUE DE PETTA ANTUNES2020022901    010                                07405445081ANDORINHA                     A            63JARDIM PINHEIRO
03049138120240970050453405345222360520240926004130302060049705003094227452M350390G804004     101             BPIHUGO HENRIQUE DE PETTA ANTUNES2020022901    010                                07405445081ANDORINHA                     A            63JARDIM PINHEIRO
03049138120240970050453405345222360520240905004140302060049700403970687048M350390G804017     101             BPIIAGO RAFIK VIANA DOS SANTOS   2007101204    010                                07404090081SERRA DO JAIRE                            395PEDREIRA                      11993464084
03049138120240970050453405345222360520240912004150302060049700403970687048M350390G804017     101             BPIIAGO RAFIK VIANA DOS SANTOS   2007101204    010                                07404090081SERRA DO JAIRE                            395PEDREIRA                      11993464084
03049138120240970050453405345222360520240919004160302060049700403970687048M350390G804017     101             BPIIAGO RAFIK VIANA DOS SANTOS   2007101204    010                                07404090081SERRA DO JAIRE                            395PEDREIRA                      11993464084
03049138120240970050453405345222360520240926004170302060049700403970687048M350390G804017     101             BPIIAGO RAFIK VIANA DOS SANTOS   2007101204    010                                07404090081SERRA DO JAIRE                            395PEDREIRA                      11993464084
03049138120240970050453405345222360520240903004180302060049704801024804348F350390G804010     101             BPIISABEL SOUSA FONSECA          2014080801    010                                07417565081Jose Barbosa de Souza                      15Parque Rodrigo Barreto
03049138120240970050453405345222360520240910004190302060049704801024804348F350390G804010     101             BPIISABEL SOUSA FONSECA          2014080801    010                                07417565081Jose Barbosa de Souza                      15Parque Rodrigo Barreto
03049138120240970050453405345222360520240924004200302060049704801024804348F350390G804010     101             BPIISABEL SOUSA FONSECA          2014080801    010                                07417565081Jose Barbosa de Souza                      15Parque Rodrigo Barreto
03049138120240970050453405345222360520240903005010302060049708607048327582F350390G804007     101             BPIISADORA GUEDES BORGES         2017060303    010                                07417485081IRACI SOUZA DA ROCHA                       75PARQUE RODRIGO BARRETO        11 46552787
03049138120240970050453405345222360520240917005020302060049708607048327582F350390G804007     101             BPIISADORA GUEDES BORGES         2017060303    010                                07417485081IRACI SOUZA DA ROCHA                       75PARQUE RODRIGO BARRETO        11 46552787
03049138120240970050453405345222360520240924005030302060049708607048327582F350390G804007     101             BPIISADORA GUEDES BORGES         2017060303    010                                07417485081IRACI SOUZA DA ROCHA                       75PARQUE RODRIGO BARRETO        11 46552787
03049138120240970050453405345222360520240905005040302060049700802480068088M350390G804009     101             BPIISAQUE SABINO SOARES          2015043003    010                                07400380081CARACAS                       CASA 2      250CENTRO
03049138120240970050453405345222360520240912005050302060049700802480068088M350390G804009     101             BPIISAQUE SABINO SOARES          2015043003    010                                07400380081CARACAS                       CASA 2      250CENTRO
03049138120240970050453405345222360520240919005060302060049700802480068088M350390G804009     101             BPIISAQUE SABINO SOARES          2015043003    010                                07400380081CARACAS                       CASA 2      250CENTRO
03049138120240970050453405345222360520240926005070302060049700802480068088M350390G804009     101             BPIISAQUE SABINO SOARES          2015043003    010                                07400380081CARACAS                       CASA 2      250CENTRO
03049138120240970050453405345222360520240903005080302060049705601486775713M350390G804005     101             BPIJOAQUIM FERREIRA ANTUNES DOS S2019011201    010                                07411390004DAS ROSAS                                 753CIDADE NOVA ARUJA             11956777705
03049138120240970050453405345222360520240910005090302060049705601486775713M350390G804005     101             BPIJOAQUIM FERREIRA ANTUNES DOS S2019011201    010                                07411390004DAS ROSAS                                 753CIDADE NOVA ARUJA             11956777705
03049138120240970050453405345222360520240917005100302060049705601486775713M350390G804005     101             BPIJOAQUIM FERREIRA ANTUNES DOS S2019011201    010                                07411390004DAS ROSAS                                 753CIDADE NOVA ARUJA             11956777705
03049138120240970050453405345222360520240924005110302060049705601486775713M350390G804005     101             BPIJOAQUIM FERREIRA ANTUNES DOS S2019011201    010                                07411390004DAS ROSAS                                 753CIDADE NOVA ARUJA             11956777705
03049138120240970050453405345222360520240905005120302060049704105194737072M350390G804007     101             BPIKAUAN PINOTI SILVA CARVALHO   2017091801    010                                07411215081LUIZ                                      110JORDANPOLIS
03049138120240970050453405345222360520240919005130302060049704105194737072M350390G804007     101             BPIKAUAN PINOTI SILVA CARVALHO   2017091801    010                                07411215081LUIZ                                      110JORDANPOLIS
03049138120240970050453405345222360520240926005140302060049704105194737072M350390G804007     101             BPIKAUAN PINOTI SILVA CARVALHO   2017091801    010                                07411215081LUIZ                                      110JORDANPOLIS
03049138120240970050453405345222360520240905005150302060049708406711778169M350390G804007     101             BPIKAUE PESQUEIRA LOURENCO DA SIL2017012503    010                                07432445081PITANGUEIRAS                  CASA B      211RECANTO PRIMAVERA
03049138120240970050453405345222360520240912005160302060049708406711778169M350390G804007     101             BPIKAUE PESQUEIRA LOURENCO DA SIL2017012503    010                                07432445081PITANGUEIRAS                  CASA B      211RECANTO PRIMAVERA
03049138120240970050453405345222360520240926005170302060049708406711778169M350390G804007     101             BPIKAUE PESQUEIRA LOURENCO DA SIL2017012503    010                                07432445081PITANGUEIRAS                  CASA B      211RECANTO PRIMAVERA
03049138120240970050453405345222360520240905005180302060049708200168857241M350390G804018     101             BPIKLAYVERTT BELO MOITINHO       2005112801    010                                07400970008GEORGETONE                                 16JD RINCAO
03049138120240970050453405345222360520240912005190302060049708200168857241M350390G804018     101             BPIKLAYVERTT BELO MOITINHO       2005112801    010                                07400970008GEORGETONE                                 16JD RINCAO
03049138120240970050453405345222360520240919005200302060049708200168857241M350390G804018     101             BPIKLAYVERTT BELO MOITINHO       2005112801    010                                07400970008GEORGETONE                                 16JD RINCAO
03049138120240970050453405345222360520240926006010302060049708200168857241M350390G804018     101             BPIKLAYVERTT BELO MOITINHO       2005112801    010                                07400970008GEORGETONE                                 16JD RINCAO
03049138120240970050453405345222360520240903006020302060049706403624093789M350390G804008     101             BPILUCAS CARDOZO DOS SANTOS      2015121501    010                                07428315081RUBELITA                                  155JARDIM FAZENDA RINCO          11 46525079
03049138120240970050453405345222360520240910006030302060049706403624093789M350390G804008     101             BPILUCAS CARDOZO DOS SANTOS      2015121501    010                                07428315081RUBELITA                                  155JARDIM FAZENDA RINCO          11 46525079
03049138120240970050453405345222360520240917006040302060049706403624093789M350390G804008     101             BPILUCAS CARDOZO DOS SANTOS      2015121501    010                                07428315081RUBELITA                                  155JARDIM FAZENDA RINCO          11 46525079
03049138120240970050453405345222360520240924006050302060049706403624093789M350390G804008     101             BPILUCAS CARDOZO DOS SANTOS      2015121501    010                                07428315081RUBELITA                                  155JARDIM FAZENDA RINCO          11 46525079
03049138120240970050453405345222360520240905006060302060049705001225714554M350390G804020     101             BPILUCAS CORTICEIRO SANTOS       2004072004    010                                07417590081Pedro Jos de Morais                        32Parque Rodrigo Barreto
03049138120240970050453405345222360520240912006070302060049705001225714554M350390G804020     101             BPILUCAS CORTICEIRO SANTOS       2004072004    010                                07417590081Pedro Jos de Morais                        32Parque Rodrigo Barreto
03049138120240970050453405345222360520240919006080302060049705001225714554M350390G804020     101             BPILUCAS CORTICEIRO SANTOS       2004072004    010                                07417590081Pedro Jos de Morais                        32Parque Rodrigo Barreto
03049138120240970050453405345222360520240926006090302060049705001225714554M350390G804020     101             BPILUCAS CORTICEIRO SANTOS       2004072004    010                                07417590081Pedro Jos de Morais                        32Parque Rodrigo Barreto
03049138120240970050453405345222360520240919006100302060049700004487906207M350390G804009     101             BPILUCAS PIETRO DO CARMO SANTOS  2015060701    010                                07417500081ANTO BERNARDO DA SILVA                     96PARQUE RODRIGO BARRETO        11 46497722
03049138120240970050453405345222360520240903006110302060049706708783728020M350390G804014     101             BPIMATHEUS HENDERSON CALHEIRO GOM2009123003    010                                07434130081DOS LIMOEIROS                              75JARDIM LIMOEIRO
03049138120240970050453405345222360520240910006120302060049706708783728020M350390G804014     101             BPIMATHEUS HENDERSON CALHEIRO GOM2009123003    010                                07434130081DOS LIMOEIROS                              75JARDIM LIMOEIRO
03049138120240970050453405345222360520240917006130302060049706708783728020M350390G804014     101             BPIMATHEUS HENDERSON CALHEIRO GOM2009123003    010                                07434130081DOS LIMOEIROS                              75JARDIM LIMOEIRO
03049138120240970050453405345222360520240924006140302060049706708783728020M350390G804014     101             BPIMATHEUS HENDERSON CALHEIRO GOM2009123003    010                                07434130081DOS LIMOEIROS                              75JARDIM LIMOEIRO
03049138120240970050453405345222360520240905006150302060049708603521580584M350390G804016     101             BPIMATHEUS LIMA DOS SANTOS       2008101201    010                                07400970081DADY                          CASA 2      165JARDIM EMILIA
03049138120240970050453405345222360520240912006160302060049708603521580584M350390G804016     101             BPIMATHEUS LIMA DOS SANTOS       2008101201    010                                07400970081DADY                          CASA 2      165JARDIM EMILIA
03049138120240970050453405345222360520240919006170302060049708603521580584M350390G804016     101             BPIMATHEUS LIMA DOS SANTOS       2008101201    010                                07400970081DADY                          CASA 2      165JARDIM EMILIA
03049138120240970050453405345222360520240903006180302060049708106526577031M350390G804008     101             BPIMATHEUS PAULO LEITE DA SILVA  2016051203    010                                07405445081ANDORINHA                     L 5         364JARDIM PINHEIRO               11912861623
03049138120240970050453405345222360520240917006190302060049708106526577031M350390G804008     101             BPIMATHEUS PAULO LEITE DA SILVA  2016051203    010                                07405445081ANDORINHA                     L 5         364JARDIM PINHEIRO               11912861623
03049138120240970050453405345222360520240924006200302060049708106526577031M350390G804008     101             BPIMATHEUS PAULO LEITE DA SILVA  2016051203    010                                07405445081ANDORINHA                     L 5         364JARDIM PINHEIRO               11912861623
03049138120240970050453405345222360520240905007010302060049703408226916815M350390G804010     101             BPIMIGUEL PONCIANO SOARES        2013112201    010                                07407040008Airton dos Santos Heras GalvezCasa 24     120Jardim Santo Antonio
03049138120240970050453405345222360520240912007020302060049703408226916815M350390G804010     101             BPIMIGUEL PONCIANO SOARES        2013112201    010                                07407040008Airton dos Santos Heras GalvezCasa 24     120Jardim Santo Antonio
03049138120240970050453405345222360520240919007030302060049703408226916815M350390G804010     101             BPIMIGUEL PONCIANO SOARES        2013112201    010                                07407040008Airton dos Santos Heras GalvezCasa 24     120Jardim Santo Antonio
03049138120240970050453405345222360520240926007040302060049703408226916815M350390G804010     101             BPIMIGUEL PONCIANO SOARES        2013112201    010                                07407040008Airton dos Santos Heras GalvezCasa 24     120Jardim Santo Antonio
03049138120240970050453405345222360520240903007050302060049702909551787571M353060G804007     101             BPIMURILO DE SOUZA RAMPAZI       2016122601    010                                08740540081PREFEITO JOSE DE MELO FRANCO              195JARDIM UNIVERSO
03049138120240970050453405345222360520240910007060302060049702909551787571M353060G804007     101             BPIMURILO DE SOUZA RAMPAZI       2016122601    010                                08740540081PREFEITO JOSE DE MELO FRANCO              195JARDIM UNIVERSO
03049138120240970050453405345222360520240917007070302060049702909551787571M353060G804007     101             BPIMURILO DE SOUZA RAMPAZI       2016122601    010                                08740540081PREFEITO JOSE DE MELO FRANCO              195JARDIM UNIVERSO
03049138120240970050453405345222360520240924007080302060049702909551787571M353060G804007     101             BPIMURILO DE SOUZA RAMPAZI       2016122601    010                                08740540081PREFEITO JOSE DE MELO FRANCO              195JARDIM UNIVERSO
03049138120240970050453405345222360520240905007090302060049701203002931919F350390G804015     101             BPINATALIA SILVA SANTOS DO NASCIM2009021803    010                                07412010008P.l. do Brasil                              5Porto
03049138120240970050453405345222360520240912007100302060049701203002931919F350390G804015     101             BPINATALIA SILVA SANTOS DO NASCIM2009021803    010                                07412010008P.l. do Brasil                              5Porto
03049138120240970050453405345222360520240919007110302060049701203002931919F350390G804015     101             BPINATALIA SILVA SANTOS DO NASCIM2009021803    010                                07412010008P.l. do Brasil                              5Porto
03049138120240970050453405345222360520240926007120302060049701203002931919F350390G804015     101             BPINATALIA SILVA SANTOS DO NASCIM2009021803    010                                07412010008P.l. do Brasil                              5Porto
03049138120240970050453405345222360520240912007130302060049700503147078256M350390G804007     101             BPIOSCAR BARUC TAVARES DE JESUS  2017081803    010                                07401110081NANCI ARAKI                                85ARUJA CENTER VILLE            11980798292
03049138120240970050453405345222360520240926007140302060049700503147078256M350390G804007     101             BPIOSCAR BARUC TAVARES DE JESUS  2017081803    010                                07401110081NANCI ARAKI                                85ARUJA CENTER VILLE            11980798292
03049138120240970050453405345222360520240903007150302060049708006887642328M350390G804005     101             BPIPAULO HENRIQUE SILVA LEITE    2019031201    010                                07417380081JOS SEVERINO FILHO            CASA 1      120PARQUE RODRIGO BARRETO        11 46531574
03049138120240970050453405345222360520240910007160302060049708006887642328M350390G804005     101             BPIPAULO HENRIQUE SILVA LEITE    2019031201    010                                07417380081JOS SEVERINO FILHO            CASA 1      120PARQUE RODRIGO BARRETO        11 46531574
03049138120240970050453405345222360520240917007170302060049708006887642328M350390G804005     101             BPIPAULO HENRIQUE SILVA LEITE    2019031201    010                                07417380081JOS SEVERINO FILHO            CASA 1      120PARQUE RODRIGO BARRETO        11 46531574
03049138120240970050453405345222360520240924007180302060049708006887642328M350390G804005     101             BPIPAULO HENRIQUE SILVA LEITE    2019031201    010                                07417380081JOS SEVERINO FILHO            CASA 1      120PARQUE RODRIGO BARRETO        11 46531574
03049138120240970050453405345222360520240903007190302060049704202761323381M350390G804014     101             BPIRENATO RODRIGUES SANTOS       2010020401    010                                07400795081Benjamin de Jesus Rodrigues   Viela       739Aruj Centro Residencial       11965745780
03049138120240970050453405345222360520240910007200302060049704202761323381M350390G804014     101             BPIRENATO RODRIGUES SANTOS       2010020401    010                                07400795081Benjamin de Jesus Rodrigues   Viela       739Aruj Centro Residencial       11965745780
03049138120240970050453405345222360520240905008010302060049704708700913538M350390G804008     101             BPIRICARDO MIGUEL JUNIOR APARECID2016011001    010                                07405440081Tuim                          A           180Jardim Pinheiro
03049138120240970050453405345222360520240912008020302060049704708700913538M350390G804008     101             BPIRICARDO MIGUEL JUNIOR APARECID2016011001    010                                07405440081Tuim                          A           180Jardim Pinheiro
03049138120240970050453405345222360520240919008030302060049704708700913538M350390G804008     101             BPIRICARDO MIGUEL JUNIOR APARECID2016011001    010                                07405440081Tuim                          A           180Jardim Pinheiro
03049138120240970050453405345222360520240926008040302060049704708700913538M350390G804008     101             BPIRICARDO MIGUEL JUNIOR APARECID2016011001    010                                07405440081Tuim                          A           180Jardim Pinheiro
03049138120240970050453405345222360520240903008050302060049704101245579580M350390G804004     101             BPITHEO ROCHA MACEDO             2020072301    010                                07417265008Railda Alves de Oliveira                  841Parque Rodrigo Barreto
03049138120240970050453405345222360520240910008060302060049704101245579580M350390G804004     101             BPITHEO ROCHA MACEDO             2020072301    010                                07417265008Railda Alves de Oliveira                  841Parque Rodrigo Barreto
03049138120240970050453405345222360520240917008070302060049704101245579580M350390G804004     101             BPITHEO ROCHA MACEDO             2020072301    010                                07417265008Railda Alves de Oliveira                  841Parque Rodrigo Barreto
03049138120240970050453405345222360520240924008080302060049704101245579580M350390G804004     101             BPITHEO ROCHA MACEDO             2020072301    010                                07417265008Railda Alves de Oliveira                  841Parque Rodrigo Barreto
03049138120240970050453405345222360520240903008090302060049700005631673708F350390G804007     101             BPIYASMIN CREUSA DE MOURA SILVA  2017040901    010                                07400370081La Paz                        Casa 1      114Jardim Rinco                  11 46512002
03049138120240970050453405345222360520240910008100302060049700005631673708F350390G804007     101             BPIYASMIN CREUSA DE MOURA SILVA  2017040901    010                                07400370081La Paz                        Casa 1      114Jardim Rinco                  11 46512002
03049138120240970050453405345222360520240917008110302060049700005631673708F350390G804007     101             BPIYASMIN CREUSA DE MOURA SILVA  2017040901    010                                07400370081La Paz                        Casa 1      114Jardim Rinco                  11 46512002
03049138120240970050453405345222360520240924008120302060049700005631673708F350390G804007     101             BPIYASMIN CREUSA DE MOURA SILVA  2017040901    010                                07400370081La Paz                        Casa 1      114Jardim Rinco                  11 46512002
03456570320240970180826179057122360520240910001010302010025702508377217232F350390N319066     101             BPIANA MARIA RODRIGUES           1957111701    010                                07401000081Juventina Maiolino Sanches                 90Parque Judith                 11974910390
03456570320240970180826179057122360520240911001020302010025702508377217232F350390N319066     101             BPIANA MARIA RODRIGUES           1957111701    010                                07401000081Juventina Maiolino Sanches                 90Parque Judith                 11974910390
03456570320240970180826179057122360520240918001030302010025702508377217232F350390N319066     101             BPIANA MARIA RODRIGUES           1957111701    010                                07401000081Juventina Maiolino Sanches                 90Parque Judith                 11974910390
03456570320240970180826179057122360520240924001040302010025702508377217232F350390N319066     101             BPIANA MARIA RODRIGUES           1957111701    010                                07401000081Juventina Maiolino Sanches                 90Parque Judith                 11974910390
03456570320240970180826179057122360520240925001050302010025702508377217232F350390N319066     101             BPIANA MARIA RODRIGUES           1957111701    010                                07401000081Juventina Maiolino Sanches                 90Parque Judith                 11974910390
03456570320240970180826179057122360520240919001060302010025700506722398757F350390N319045     101             BPIANDREIA NUNES DA SILVA        1979032503    010                                07432070081Alice                         Casa 01     171Jardim Emlia                  11 46555288
03456570320240970180826179057122360520240906001070302010025708203663600740F350390N319058     101             BPICLEUZA ALVES DA SILVA BUENO   1966021001    010                                07439090081Grafite                                    28Chcaras Copaco
03456570320240970180826179057122360520240911001080302010025708203663600740F350390N319058     101             BPICLEUZA ALVES DA SILVA BUENO   1966021001    010                                07439090081Grafite                                    28Chcaras Copaco
03456570320240970180826179057122360520240913001090302010025708203663600740F350390N319058     101             BPICLEUZA ALVES DA SILVA BUENO   1966021001    010                                07439090081Grafite                                    28Chcaras Copaco
03456570320240970180826179057122360520240924001100302010025708203663600740F350390N319058     101             BPICLEUZA ALVES DA SILVA BUENO   1966021001    010                                07439090081Grafite                                    28Chcaras Copaco
03456570320240970180826179057122360520240902001110302010025704604679795028F350390N319062     101             BPIJULIA BARBOSA MOREIRA         1962070201    010                                07417150081GILBERTO MENDES                           466PQ RODRIGO BARRETO            11967433885
03456570320240970180826179057122360520240903001120302010025704604679795028F350390N319062     101             BPIJULIA BARBOSA MOREIRA         1962070201    010                                07417150081GILBERTO MENDES                           466PQ RODRIGO BARRETO            11967433885
03456570320240970180826179057122360520240909001130302010025704604679795028F350390N319062     101             BPIJULIA BARBOSA MOREIRA         1962070201    010                                07417150081GILBERTO MENDES                           466PQ RODRIGO BARRETO            11967433885
03456570320240970180826179057122360520240910001140302010025704604679795028F350390N319062     101             BPIJULIA BARBOSA MOREIRA         1962070201    010                                07417150081GILBERTO MENDES                           466PQ RODRIGO BARRETO            11967433885
03456570320240970180826179057122360520240917001150302010025704604679795028F350390N319062     101             BPIJULIA BARBOSA MOREIRA         1962070201    010                                07417150081GILBERTO MENDES                           466PQ RODRIGO BARRETO            11967433885
03456570320240970180826179057122360520240923001160302010025704604679795028F350390N319062     101             BPIJULIA BARBOSA MOREIRA         1962070201    010                                07417150081GILBERTO MENDES                           466PQ RODRIGO BARRETO            11967433885
03456570320240970180826179057122360520240924001170302010025704604679795028F350390N319062     101             BPIJULIA BARBOSA MOREIRA         1962070201    010                                07417150081GILBERTO MENDES                           466PQ RODRIGO BARRETO            11967433885
03456570320240970180826179057122360520240904001180302010025708205113239141M350390N319070     101             BPIMANOEL GONCALVES DA COSTA     1954021003    010                                07417150081GILBERTO MENDES                           278PARQUE RODRIGO BARRETO        11987839784
03456570320240970180826179057122360520240910001190302010025708205113239141M350390N319070     101             BPIMANOEL GONCALVES DA COSTA     1954021003    010                                07417150081GILBERTO MENDES                           278PARQUE RODRIGO BARRETO        11987839784
03456570320240970180826179057122360520240918001200302010025708205113239141M350390N319070     101             BPIMANOEL GONCALVES DA COSTA     1954021003    010                                07417150081GILBERTO MENDES                           278PARQUE RODRIGO BARRETO        11987839784
03456570320240970180826179057122360520240924002010302010025708205113239141M350390N319070     101             BPIMANOEL GONCALVES DA COSTA     1954021003    010                                07417150081GILBERTO MENDES                           278PARQUE RODRIGO BARRETO        11987839784
03456570320240970180826179057122360520240925002020302010025708205113239141M350390N319070     101             BPIMANOEL GONCALVES DA COSTA     1954021003    010                                07417150081GILBERTO MENDES                           278PARQUE RODRIGO BARRETO        11987839784
03456570320240970180826179057122360520240910002030302010025703109804162960F350390N319025     101             BPIMARCELA APARECIDA CUNHA DA SIL1999071301    010                                07417505081Giuseppe Antonio Maiolino     Casa B      657Parque Rodrigo Barreto
03456570320240970180826179057122360520240912002040302010025703109804162960F350390N319025     101             BPIMARCELA APARECIDA CUNHA DA SIL1999071301    010                                07417505081Giuseppe Antonio Maiolino     Casa B      657Parque Rodrigo Barreto
03456570320240970180826179057122360520240920002050302010025703109804162960F350390N319025     101             BPIMARCELA APARECIDA CUNHA DA SIL1999071301    010                                07417505081Giuseppe Antonio Maiolino     Casa B      657Parque Rodrigo Barreto
03456570320240970180826179057122360520240924002060302010025703109804162960F350390N319025     101             BPIMARCELA APARECIDA CUNHA DA SIL1999071301    010                                07417505081Giuseppe Antonio Maiolino     Casa B      657Parque Rodrigo Barreto
03456570320240970180826179057122360520240926002070302010025703109804162960F350390N319025     101             BPIMARCELA APARECIDA CUNHA DA SIL1999071301    010                                07417505081Giuseppe Antonio Maiolino     Casa B      657Parque Rodrigo Barreto
03456570320240970180826179057122360520240927002080302010025703109804162960F350390N319025     101             BPIMARCELA APARECIDA CUNHA DA SIL1999071301    010                                07417505081Giuseppe Antonio Maiolino     Casa B      657Parque Rodrigo Barreto
03456570320240970180826179057122360520240903002090302010025700002096658408F350390N319051     101             BPIMARIA JOSE BATISTA DA SILVA   1973022101    010                                07417605081ANTONIO PEDROSO BARBOSA       CASA 1       48PARQUE RODRIGO BARRETO        11997451692
03456570320240970180826179057122360520240910002100302010025700002096658408F350390N319051     101             BPIMARIA JOSE BATISTA DA SILVA   1973022101    010                                07417605081ANTONIO PEDROSO BARBOSA       CASA 1       48PARQUE RODRIGO BARRETO        11997451692
03456570320240970180826179057122360520240911002110302010025700002096658408F350390N319051     101             BPIMARIA JOSE BATISTA DA SILVA   1973022101    010                                07417605081ANTONIO PEDROSO BARBOSA       CASA 1       48PARQUE RODRIGO BARRETO        11997451692
03456570320240970180826179057122360520240912002120302010025700002096658408F350390N319051     101             BPIMARIA JOSE BATISTA DA SILVA   1973022101    010                                07417605081ANTONIO PEDROSO BARBOSA       CASA 1       48PARQUE RODRIGO BARRETO        11997451692
03456570320240970180826179057122360520240913002130302010025700002096658408F350390N319051     101             BPIMARIA JOSE BATISTA DA SILVA   1973022101    010                                07417605081ANTONIO PEDROSO BARBOSA       CASA 1       48PARQUE RODRIGO BARRETO        11997451692
03456570320240970180826179057122360520240917002140302010025700002096658408F350390N319051     101             BPIMARIA JOSE BATISTA DA SILVA   1973022101    010                                07417605081ANTONIO PEDROSO BARBOSA       CASA 1       48PARQUE RODRIGO BARRETO        11997451692
03456570320240970180826179057122360520240904002150302010025706708541140811F350390N319076     101             BPIMARINA CORREIA BAHIA          1948071701    010                                07417195081Rogerio de Andrade Santos                180AParque Rodrigo Barreto
03456570320240970180826179057122360520240906002160302010025706708541140811F350390N319076     101             BPIMARINA CORREIA BAHIA          1948071701    010                                07417195081Rogerio de Andrade Santos                180AParque Rodrigo Barreto
03456570320240970180826179057122360520240913002170302010025706708541140811F350390N319076     101             BPIMARINA CORREIA BAHIA          1948071701    010                                07417195081Rogerio de Andrade Santos                180AParque Rodrigo Barreto
03456570320240970180826179057122360520240905002180302010025708607025130588F350390N319049     101             BPIRITA DE CASSIA PETERNELA DE BR1975032101    010                                07401705081Guido Reginato                            128Vila Pilar
03456570320240970180826179057122360520240906002190302010025708607025130588F350390N319049     101             BPIRITA DE CASSIA PETERNELA DE BR1975032101    010                                07401705081Guido Reginato                            128Vila Pilar
03456570320240970180826179057122360520240912002200302010025708607025130588F350390N319049     101             BPIRITA DE CASSIA PETERNELA DE BR1975032101    010                                07401705081Guido Reginato                            128Vila Pilar
03456570320240970180826179057122360520240913003010302010025708607025130588F350390N319049     101             BPIRITA DE CASSIA PETERNELA DE BR1975032101    010                                07401705081Guido Reginato                            128Vila Pilar
03456570320240970740305290437822360520240903003020302010025702508377217232F350390N319066     101             BPIANA MARIA RODRIGUES           1957111701    010                                07401000081Juventina Maiolino Sanches                 90Parque Judith                 11974910390
03456570320240970740305290437822360520240904003030302010025702508377217232F350390N319066     101             BPIANA MARIA RODRIGUES           1957111701    010                                07401000081Juventina Maiolino Sanches                 90Parque Judith                 11974910390
03456570320240970740305290437822360520240917003040302010025702508377217232F350390N319066     101             BPIANA MARIA RODRIGUES           1957111701    010                                07401000081Juventina Maiolino Sanches                 90Parque Judith                 11974910390
03456570320240970740305290437822360520240911003050302010025708600537514486F350390N319034     101             BPIANA PAULA DOS SANTOS          1990082201    010                                07417110081Jos Roberto Tariffe de Olivei A            61Parque Rodrigo Barreto
03456570320240970740305290437822360520240910003060302010025700506722398757F350390N319045     101             BPIANDREIA NUNES DA SILVA        1979032503    010                                07432070081Alice                         Casa 01     171Jardim Emlia                  11 46555288
03456570320240970740305290437822360520240924003070302010025700506722398757F350390N319045     101             BPIANDREIA NUNES DA SILVA        1979032503    010                                07432070081Alice                         Casa 01     171Jardim Emlia                  11 46555288
03456570320240970740305290437822360520240912003080302010025704604689252922M350390N319082     101             BPIANTONIO DOMINGOS DE OLIVEIRA  1942031501    010                                07428020081NOSSA SENHORA DO PERPETUO SOCO             20NOSSA SENHORA DO CARMO        11 46521825
03456570320240970740305290437822360520240927003090302010025706209083488669F350390N319026     101             BPIBIANCA DOS SANTOS PEDROSO     1997111101    010                                07417395081Alice Ramos Barbosa           Atual       115Parque Rodrigo Barreto        11954898376
03456570320240970740305290437822360520240904003100302010025708203663600740F350390N319058     101             BPICLEUZA ALVES DA SILVA BUENO   1966021001    010                                07439090081Grafite                                    28Chcaras Copaco
03456570320240970740305290437822360520240910003110302010025708203663600740F350390N319058     101             BPICLEUZA ALVES DA SILVA BUENO   1966021001    010                                07439090081Grafite                                    28Chcaras Copaco
03456570320240970740305290437822360520240917003120302010025708203663600740F350390N319058     101             BPICLEUZA ALVES DA SILVA BUENO   1966021001    010                                07439090081Grafite                                    28Chcaras Copaco
03456570320240970740305290437822360520240918003130302010025708203663600740F350390N319058     101             BPICLEUZA ALVES DA SILVA BUENO   1966021001    010                                07439090081Grafite                                    28Chcaras Copaco
03456570320240970740305290437822360520240920003140302010025708203663600740F350390N319058     101             BPICLEUZA ALVES DA SILVA BUENO   1966021001    010                                07439090081Grafite                                    28Chcaras Copaco
03456570320240970740305290437822360520240925003150302010025706104034339260M350390N319059     101             BPIJOSE AMARO DA SILVA           1965031801    010                                07411445004das Camelias                              112Portao                        11986181587
03456570320240970740305290437822360520240916003160302010025704604679795028F350390N319062     101             BPIJULIA BARBOSA MOREIRA         1962070201    010                                07417150081GILBERTO MENDES                           466PQ RODRIGO BARRETO            11967433885
03456570320240970740305290437822360520240903003170302010025708205113239141M350390N319070     101             BPIMANOEL GONCALVES DA COSTA     1954021003    010                                07417150081GILBERTO MENDES                           278PARQUE RODRIGO BARRETO        11987839784
03456570320240970740305290437822360520240906003180302010025708205113239141M350390N319070     101             BPIMANOEL GONCALVES DA COSTA     1954021003    010                                07417150081GILBERTO MENDES                           278PARQUE RODRIGO BARRETO        11987839784
03456570320240970740305290437822360520240917003190302010025708205113239141M350390N319070     101             BPIMANOEL GONCALVES DA COSTA     1954021003    010                                07417150081GILBERTO MENDES                           278PARQUE RODRIGO BARRETO        11987839784
03456570320240970740305290437822360520240917003200302010025703109804162960F350390N319025     101             BPIMARCELA APARECIDA CUNHA DA SIL1999071301    010                                07417505081Giuseppe Antonio Maiolino     Casa B      657Parque Rodrigo Barreto
03456570320240970740305290437822360520240913004010302010025702801146814767F350390N319054     101             BPIMARCIA CRISTINA DE OLIVEIRA   1970050401    010                                07413000031ADILIA BARBOSA NEVES                     3500PORTAO
03456570320240970740305290437822360520240906004020302010025705008854396651F350390N319071     101             BPIMARIA IZABEL DA CONCEICAO ROSA1952112001    010                                07402790081RIO DE JANEIRO                            255JARDIM REAL
03456570320240970740305290437822360520240904004030302010025700002096658408F350390N319051     101             BPIMARIA JOSE BATISTA DA SILVA   1973022101    010                                07417605081ANTONIO PEDROSO BARBOSA       CASA 1       48PARQUE RODRIGO BARRETO        11997451692
03456570320240970740305290437822360520240918004040302010025700002096658408F350390N319051     101             BPIMARIA JOSE BATISTA DA SILVA   1973022101    010                                07417605081ANTONIO PEDROSO BARBOSA       CASA 1       48PARQUE RODRIGO BARRETO        11997451692
03456570320240970740305290437822360520240924004050302010025700002096658408F350390N319051     101             BPIMARIA JOSE BATISTA DA SILVA   1973022101    010                                07417605081ANTONIO PEDROSO BARBOSA       CASA 1       48PARQUE RODRIGO BARRETO        11997451692
03456570320240970740305290437822360520240925004060302010025700002096658408F350390N319051     101             BPIMARIA JOSE BATISTA DA SILVA   1973022101    010                                07417605081ANTONIO PEDROSO BARBOSA       CASA 1       48PARQUE RODRIGO BARRETO        11997451692
03456570320240970740305290437822360520240911004070302010025706708541140811F350390N319076     101             BPIMARINA CORREIA BAHIA          1948071701    010                                07417195081Rogerio de Andrade Santos                180AParque Rodrigo Barreto
03456570320240970740305290437822360520240918004080302010025706708541140811F350390N319076     101             BPIMARINA CORREIA BAHIA          1948071701    010                                07417195081Rogerio de Andrade Santos                180AParque Rodrigo Barreto
03456570320240970740305290437822360520240920004090302010025706708541140811F350390N319076     101             BPIMARINA CORREIA BAHIA          1948071701    010                                07417195081Rogerio de Andrade Santos                180AParque Rodrigo Barreto
03456570320240970740305290437822360520240923004100302010025706708541140811F350390N319076     101             BPIMARINA CORREIA BAHIA          1948071701    010                                07417195081Rogerio de Andrade Santos                180AParque Rodrigo Barreto
03456570320240970740305290437822360520240905004110302010025700005853140005F350390N319037     101             BPIROSANGELA CHAVES PEREIRA      1987032203    010                                07417260081Serafim Antonio Domingos      Casa 2      183Parque Rodrigo Barreto        11957784345
03456570320240970740305290437822360520240930004120302010025700005853140005F350390N319037     101             BPIROSANGELA CHAVES PEREIRA      1987032203    010                                07417260081Serafim Antonio Domingos      Casa 2      183Parque Rodrigo Barreto        11957784345
03456570320240970740305290437822360520240911004130302010025703008865094078F350390N319026     101             BPISTEFANIE RIBEIRO SEBASTIAO    1998091801    010                                07417555081BENEDITO BARBOSA DE SOUZA                 150PARQUE RODRIGO BARRETO
03456570320240970180826179057122360520240913004140302040021708603590966984F350390J998066     101             BPICECILIA MARIA DE OLIVEIRA     1958050901    010                                07405435081JOAO DE BARRO                 B           214JARDIM PINHEIRO               11 46532644
03456570320240970180826179057122360520240902004150302040021708905738556714M350390J998076     101             BPIRAIMUNDO BATISTA BRITO DE CARV1948051001    010                                07417165081ADELINO PEREIRA DA SILVA      B           341PARQUE RODRIGO BARRETO        11 34094862
03456570320240970180826179057122360520240904004160302040021706006307178241M350390J998070     101             BPIROBERTO BRESSER KULIKOFF      1954040801    010                                07401075008Armando Colangelo                         586Aruj Center Ville
03456570320240970180826179057122360520240902004170302040021700500556908252M350390J998000     101             BPISAMUEL BENEDITO MIRANDA BUENO 2023102701    010                                07405400081TUM                                       211JARDIM PINHEIRO
03456570320240970740305290437822360520240916004180302040021708603590966984F350390J998066     101             BPICECILIA MARIA DE OLIVEIRA     1958050901    010                                07405435081JOAO DE BARRO                 B           214JARDIM PINHEIRO               11 46532644
03456570320240970740305290437822360520240920004190302040021708603590966984F350390J998066     101             BPICECILIA MARIA DE OLIVEIRA     1958050901    010                                07405435081JOAO DE BARRO                 B           214JARDIM PINHEIRO               11 46532644
03456570320240970740305290437822360520240906004200302040021706006307178241M350390J998070     101             BPIROBERTO BRESSER KULIKOFF      1954040801    010                                07401075008Armando Colangelo                         586Aruj Center Ville
03456570320240970740305290437822360520240909005010302040021706006307178241M350390J998070     101             BPIROBERTO BRESSER KULIKOFF      1954040801    010                                07401075008Armando Colangelo                         586Aruj Center Ville
03456570320240970740305290437822360520240913005020302040021706006307178241M350390J998070     101             BPIROBERTO BRESSER KULIKOFF      1954040801    010                                07401075008Armando Colangelo                         586Aruj Center Ville
03456570320240970740305290437822360520240903005030302040030708707104263997F350390Q048071     101             BPILUCIA HELENA ROSSI CARLETTI DA1953020801    010                                07499899472Rural                         Estrada Sa  100Area Rural de Aruja
03456570320240970740305290437822360520240905005040302040030708707104263997F350390Q048071     101             BPILUCIA HELENA ROSSI CARLETTI DA1953020801    010                                07499899472Rural                         Estrada Sa  100Area Rural de Aruja
03456570320240970740305290437822360520240924005050302040030700008544220902F350390Q048001     101             BPIMARIA JULIA GIMENEZ DE ALMEIDA2023041203    010                                07417280081Angelo de Arajo Franco                    554Parque Rodrigo Barreto
03456570320240970740305290437822360520240924005060302040030705005855201959F350390Q048081     101             BPIMARIA LUCIA IGLESIAS ARENAS   1943091001    010                                07437005081Jacarands                                 816Parque dos Jacarands          11999695932
03456570320240970740305290437822360520240923005070302040030706409177791584F350390Q048050     101             BPISIMONE APARECIDA BARBOSA      1974082102    010                                07402795081Porto Alegre                              353Jardim Real                   11 33701048
03456570320240970180826179057122360520240903005080302050019700407900308440F350390T932041     101             BPIALESSANDRA NASCIMENTO DOS SANT1983042703    010                                07417475081Manoel Joao de Souza                      103Parque Rodrigo Barreto        11 46555022
03456570320240970180826179057122360520240926005090302050019700407900308440F350390T932041     101             BPIALESSANDRA NASCIMENTO DOS SANT1983042703    010                                07417475081Manoel Joao de Souza                      103Parque Rodrigo Barreto        11 46555022
03456570320240970180826179057122360520240906005100302050019708209121730448F350390T932047     101             BPIANA CRISTINA PEREIRA DO NASCIM1977011803    010                                07417445081Sada Joo Fernandes                        113Parque Rodrigo Barreto        11911399839
03456570320240970180826179057122360520240909005110302050019708209121730448F350390T932047     101             BPIANA CRISTINA PEREIRA DO NASCIM1977011803    010                                07417445081Sada Joo Fernandes                        113Parque Rodrigo Barreto        11911399839
03456570320240970180826179057122360520240925005120302050019708209121730448F350390T932047     101             BPIANA CRISTINA PEREIRA DO NASCIM1977011803    010                                07417445081Sada Joo Fernandes                        113Parque Rodrigo Barreto        11911399839
03456570320240970180826179057122360520240926005130302050019708209121730448F350390T932047     101             BPIANA CRISTINA PEREIRA DO NASCIM1977011803    010                                07417445081Sada Joo Fernandes                        113Parque Rodrigo Barreto        11911399839
03456570320240970180826179057122360520240927005140302050019708209121730448F350390T932047     101             BPIANA CRISTINA PEREIRA DO NASCIM1977011803    010                                07417445081Sada Joo Fernandes                        113Parque Rodrigo Barreto        11911399839
03456570320240970180826179057122360520240902005150302050019702403519149122F350390T932044     101             BPIANDREIA DE PAULA              1980032101    010                                07407040008AIRTON DOS SANTOS HERAS GALVEZ           1540JARDIM SANTO ANTONIO
03456570320240970180826179057122360520240905005160302050019702403519149122F350390T932044     101             BPIANDREIA DE PAULA              1980032101    010                                07407040008AIRTON DOS SANTOS HERAS GALVEZ           1540JARDIM SANTO ANTONIO
03456570320240970180826179057122360520240909005170302050019702403519149122F350390T932044     101             BPIANDREIA DE PAULA              1980032101    010                                07407040008AIRTON DOS SANTOS HERAS GALVEZ           1540JARDIM SANTO ANTONIO
03456570320240970180826179057122360520240912005180302050019702403519149122F350390T932044     101             BPIANDREIA DE PAULA              1980032101    010                                07407040008AIRTON DOS SANTOS HERAS GALVEZ           1540JARDIM SANTO ANTONIO
03456570320240970180826179057122360520240919005190302050019702403519149122F350390T932044     101             BPIANDREIA DE PAULA              1980032101    010                                07407040008AIRTON DOS SANTOS HERAS GALVEZ           1540JARDIM SANTO ANTONIO
03456570320240970180826179057122360520240902005200302050019704501352321419F350390T932049     101             BPIANGELITA DO PRADO DE PAIVA    1974110401    010                                07438630081BENEDITA MARIA DO ESPRITO SAN             125CACHOEIRA
03456570320240970180826179057122360520240903006010302050019706902102959835F350390T932059     101             BPIANTONIA MORAES AMORIM DA SILVA1965041101    010                                07403110081EURPEDES ANTONIO DO CARMO                 138ARUJAMRICA
03456570320240970180826179057122360520240904006020302050019706902102959835F350390T932059     101             BPIANTONIA MORAES AMORIM DA SILVA1965041101    010                                07403110081EURPEDES ANTONIO DO CARMO                 138ARUJAMRICA
03456570320240970180826179057122360520240906006030302050019706902102959835F350390T932059     101             BPIANTONIA MORAES AMORIM DA SILVA1965041101    010                                07403110081EURPEDES ANTONIO DO CARMO                 138ARUJAMRICA
03456570320240970180826179057122360520240910006040302050019706902102959835F350390T932059     101             BPIANTONIA MORAES AMORIM DA SILVA1965041101    010                                07403110081EURPEDES ANTONIO DO CARMO                 138ARUJAMRICA
03456570320240970180826179057122360520240912006050302050019706902102959835F350390T932059     101             BPIANTONIA MORAES AMORIM DA SILVA1965041101    010                                07403110081EURPEDES ANTONIO DO CARMO                 138ARUJAMRICA
03456570320240970180826179057122360520240913006060302050019706902102959835F350390T932059     101             BPIANTONIA MORAES AMORIM DA SILVA1965041101    010                                07403110081EURPEDES ANTONIO DO CARMO                 138ARUJAMRICA
03456570320240970180826179057122360520240917006070302050019706902102959835F350390T932059     101             BPIANTONIA MORAES AMORIM DA SILVA1965041101    010                                07403110081EURPEDES ANTONIO DO CARMO                 138ARUJAMRICA
03456570320240970180826179057122360520240919006080302050019706902102959835F350390T932059     101             BPIANTONIA MORAES AMORIM DA SILVA1965041101    010                                07403110081EURPEDES ANTONIO DO CARMO                 138ARUJAMRICA
03456570320240970180826179057122360520240920006090302050019706902102959835F350390T932059     101             BPIANTONIA MORAES AMORIM DA SILVA1965041101    010                                07403110081EURPEDES ANTONIO DO CARMO                 138ARUJAMRICA
03456570320240970180826179057122360520240926006100302050019706902102959835F350390T932059     101             BPIANTONIA MORAES AMORIM DA SILVA1965041101    010                                07403110081EURPEDES ANTONIO DO CARMO                 138ARUJAMRICA
03456570320240970180826179057122360520240930006110302050019706902102959835F350390T932059     101             BPIANTONIA MORAES AMORIM DA SILVA1965041101    010                                07403110081EURPEDES ANTONIO DO CARMO                 138ARUJAMRICA
03456570320240970180826179057122360520240911006120302050019701201030860115M350390T932056     101             BPIANTONIO ALVES DA COSTA        1968061803    010                                07402810081BELO HORIZONTE                            180JARDIM REAL
03456570320240970180826179057122360520240918006130302050019701201030860115M350390T932056     101             BPIANTONIO ALVES DA COSTA        1968061803    010                                07402810081BELO HORIZONTE                            180JARDIM REAL
03456570320240970180826179057122360520240904006140302050019700902915143796M350390T932081     101             BPIANTONIO ALVES DE MATOS        1943091001    010                                07443015081Abati                                      95Jardim Josely                 11945686054
03456570320240970180826179057122360520240906006150302050019700902915143796M350390T932081     101             BPIANTONIO ALVES DE MATOS        1943091001    010                                07443015081Abati                                      95Jardim Josely                 11945686054
03456570320240970180826179057122360520240913006160302050019700902915143796M350390T932081     101             BPIANTONIO ALVES DE MATOS        1943091001    010                                07443015081Abati                                      95Jardim Josely                 11945686054
03456570320240970180826179057122360520240918006170302050019700902915143796M350390T932081     101             BPIANTONIO ALVES DE MATOS        1943091001    010                                07443015081Abati                                      95Jardim Josely                 11945686054
03456570320240970180826179057122360520240919006180302050019700902915143796M350390T932081     101             BPIANTONIO ALVES DE MATOS        1943091001    010                                07443015081Abati                                      95Jardim Josely                 11945686054
03456570320240970180826179057122360520240904006190302050019700801997753682M350390T932074     101             BPIANTONIO BRITO DA SILVA        1950061203    010                                07404150081SERRA DO ESPINHACO                        541MIRANTE DO ARUJA
03456570320240970180826179057122360520240923006200302050019700801997753682M350390T932074     101             BPIANTONIO BRITO DA SILVA        1950061203    010                                07404150081SERRA DO ESPINHACO                        541MIRANTE DO ARUJA
03456570320240970180826179057122360520240906007010302050019702802199513762M350390T932060     101             BPIANTONIO CARLOS DE SOUZA       1964072501    010                                07404085081SERRA DE BRAGANCA                         289MIRANTE DO ARUJA
03456570320240970180826179057122360520240912007020302050019702802199513762M350390T932060     101             BPIANTONIO CARLOS DE SOUZA       1964072501    010                                07404085081SERRA DE BRAGANCA                         289MIRANTE DO ARUJA
03456570320240970180826179057122360520240913007030302050019702802199513762M350390T932060     101             BPIANTONIO CARLOS DE SOUZA       1964072501    010                                07404085081SERRA DE BRAGANCA                         289MIRANTE DO ARUJA
03456570320240970180826179057122360520240917007040302050019702802199513762M350390T932060     101             BPIANTONIO CARLOS DE SOUZA       1964072501    010                                07404085081SERRA DE BRAGANCA                         289MIRANTE DO ARUJA
03456570320240970180826179057122360520240919007050302050019702802199513762M350390T932060     101             BPIANTONIO CARLOS DE SOUZA       1964072501    010                                07404085081SERRA DE BRAGANCA                         289MIRANTE DO ARUJA
03456570320240970180826179057122360520240926007060302050019702802199513762M350390T932060     101             BPIANTONIO CARLOS DE SOUZA       1964072501    010                                07404085081SERRA DE BRAGANCA                         289MIRANTE DO ARUJA
03456570320240970180826179057122360520240906007070302050019702004877132989M350390T932080     101             BPIANTONIO FRANCA MIGUEL         1944093001    010                                07403100081DONATO ANTONIO DE CAMARGO     CASA 01      94ARUJAMRICA                    11 46532888
03456570320240970180826179057122360520240910007080302050019702004877132989M350390T932080     101             BPIANTONIO FRANCA MIGUEL         1944093001    010                                07403100081DONATO ANTONIO DE CAMARGO     CASA 01      94ARUJAMRICA                    11 46532888
03456570320240970180826179057122360520240913007090302050019702004877132989M350390T932080     101             BPIANTONIO FRANCA MIGUEL         1944093001    010                                07403100081DONATO ANTONIO DE CAMARGO     CASA 01      94ARUJAMRICA                    11 46532888
03456570320240970180826179057122360520240917007100302050019702004877132989M350390T932080     101             BPIANTONIO FRANCA MIGUEL         1944093001    010                                07403100081DONATO ANTONIO DE CAMARGO     CASA 01      94ARUJAMRICA                    11 46532888
03456570320240970180826179057122360520240924007110302050019702004877132989M350390T932080     101             BPIANTONIO FRANCA MIGUEL         1944093001    010                                07403100081DONATO ANTONIO DE CAMARGO     CASA 01      94ARUJAMRICA                    11 46532888
03456570320240970180826179057122360520240927007120302050019702004877132989M350390T932080     101             BPIANTONIO FRANCA MIGUEL         1944093001    010                                07403100081DONATO ANTONIO DE CAMARGO     CASA 01      94ARUJAMRICA                    11 46532888
03456570320240970180826179057122360520240903007130302050019703409237288900M350390T932075     101             BPIANTONIO GOMES                 1948110302    010                                07417355081Raimundo Pedro da Silva                   136Parque Rodrigo Barreto        11989049993
03456570320240970180826179057122360520240905007140302050019703409237288900M350390T932075     101             BPIANTONIO GOMES                 1948110302    010                                07417355081Raimundo Pedro da Silva                   136Parque Rodrigo Barreto        11989049993
03456570320240970180826179057122360520240910007150302050019703409237288900M350390T932075     101             BPIANTONIO GOMES                 1948110302    010                                07417355081Raimundo Pedro da Silva                   136Parque Rodrigo Barreto        11989049993
03456570320240970180826179057122360520240912007160302050019703409237288900M350390T932075     101             BPIANTONIO GOMES                 1948110302    010                                07417355081Raimundo Pedro da Silva                   136Parque Rodrigo Barreto        11989049993
03456570320240970180826179057122360520240917007170302050019703409237288900M350390T932075     101             BPIANTONIO GOMES                 1948110302    010                                07417355081Raimundo Pedro da Silva                   136Parque Rodrigo Barreto        11989049993
03456570320240970180826179057122360520240919007180302050019703409237288900M350390T932075     101             BPIANTONIO GOMES                 1948110302    010                                07417355081Raimundo Pedro da Silva                   136Parque Rodrigo Barreto        11989049993
03456570320240970180826179057122360520240924007190302050019703409237288900M350390T932075     101             BPIANTONIO GOMES                 1948110302    010                                07417355081Raimundo Pedro da Silva                   136Parque Rodrigo Barreto        11989049993
03456570320240970180826179057122360520240926007200302050019703409237288900M350390T932075     101             BPIANTONIO GOMES                 1948110302    010                                07417355081Raimundo Pedro da Silva                   136Parque Rodrigo Barreto        11989049993
03456570320240970180826179057122360520240925008010302050019702404584290323M350390T932011     101             BPIARTHUR BOTELHO BATISTA        2013100303    010                                07400500081Prudente de Moraes            Casa 1      105Vila Flora Regina             11972609069
03456570320240970180826179057122360520240902008020302050019705009080919352M350390T932022     101             BPIBRYAN RODRIGUES CONCEICAO     2002021603    010                                07417455081Padre Atilio Garrone                      439Parque Rodrigo Barreto        11972092675
03456570320240970180826179057122360520240904008030302050019705009080919352M350390T932022     101             BPIBRYAN RODRIGUES CONCEICAO     2002021603    010                                07417455081Padre Atilio Garrone                      439Parque Rodrigo Barreto        11972092675
03456570320240970180826179057122360520240909008040302050019705009080919352M350390T932022     101             BPIBRYAN RODRIGUES CONCEICAO     2002021603    010                                07417455081Padre Atilio Garrone                      439Parque Rodrigo Barreto        11972092675
03456570320240970180826179057122360520240913008050302050019705009080919352M350390T932022     101             BPIBRYAN RODRIGUES CONCEICAO     2002021603    010                                07417455081Padre Atilio Garrone                      439Parque Rodrigo Barreto        11972092675
03456570320240970180826179057122360520240923008060302050019705009080919352M350390T932022     101             BPIBRYAN RODRIGUES CONCEICAO     2002021603    010                                07417455081Padre Atilio Garrone                      439Parque Rodrigo Barreto        11972092675
03456570320240970180826179057122360520240902008070302050019702802171898767F350390T932070     101             BPICICERA GOMES DO NASCIMENTO    1954081603    010                                07404165031Fernandes                                3135Mirante do Aruj               11 46514065
03456570320240970180826179057122360520240905008080302050019702802171898767F350390T932070     101             BPICICERA GOMES DO NASCIMENTO    1954081603    010                                07404165031Fernandes                                3135Mirante do Aruj               11 46514065
03456570320240970180826179057122360520240906008090302050019702802171898767F350390T932070     101             BPICICERA GOMES DO NASCIMENTO    1954081603    010                                07404165031Fernandes                                3135Mirante do Aruj               11 46514065
03456570320240970180826179057122360520240909008100302050019702802171898767F350390T932070     101             BPICICERA GOMES DO NASCIMENTO    1954081603    010                                07404165031Fernandes                                3135Mirante do Aruj               11 46514065
03456570320240970180826179057122360520240906008110302050019707000831087937M350390T932055     101             BPICIRILO RICARDO DA SILVA       1969020803    010                                07417575081Anadir Coutinho de vila                   811Parque Rodrigo Barreto        11988938849
03456570320240970180826179057122360520240910008120302050019707000831087937M350390T932055     101             BPICIRILO RICARDO DA SILVA       1969020803    010                                07417575081Anadir Coutinho de vila                   811Parque Rodrigo Barreto        11988938849
03456570320240970180826179057122360520240913008130302050019707000831087937M350390T932055     101             BPICIRILO RICARDO DA SILVA       1969020803    010                                07417575081Anadir Coutinho de vila                   811Parque Rodrigo Barreto        11988938849
03456570320240970180826179057122360520240920008140302050019707000831087937M350390T932055     101             BPICIRILO RICARDO DA SILVA       1969020803    010                                07417575081Anadir Coutinho de vila                   811Parque Rodrigo Barreto        11988938849
03456570320240970180826179057122360520240902008150302050019702607725956846F350390T932066     101             BPICLAUDETE CARDOZO              1958101101    010                                07432470081MANGUEIRAS                                194RECANTO PRIMAVERA             11948408877
03456570320240970180826179057122360520240904008160302050019702607725956846F350390T932066     101             BPICLAUDETE CARDOZO              1958101101    010                                07432470081MANGUEIRAS                                194RECANTO PRIMAVERA             11948408877
