01#BPA#2025010063580002141989SECRETARIA MUNICIPAL DE SAUDE SMS   56901275000150SECRETARIA ESTADUAL DE SAUDE            MD04.01    
022059304202501225142001010301010137062000001BPA
022059304202501225142001020301010137047000001BPA
022059304202501225142001030301010137080000001BPA
022059304202501225142001040301010137067000001BPA
022059304202501223505001050301100039000000003BPA
022059304202501322230001060301100152000000006BPA
022059304202501322250001070301100152000000001BPA
022773228202501322230001010301100152000000013BPA
022773848202501223710001010301010137094000001BPA
022773848202501223710001020301010137060000001BPA
022773848202501223710001030301010137051000001BPA
022773848202501223710001040301010137045000001BPA
022773848202501223710001050301010137050000001BPA
022773848202501223710001060301010137072000002BPA
022773848202501223710001070301010137077000001BPA
022773848202501223710001080301010137084000001BPA
022773848202501223710001090301010137086000001BPA
022773848202501322230001100301100101000000001BPA
022773848202501322250001110301100101000000001BPA
022773848202501223505001120301100152000000001BPA
022773848202501322230001130301100152000000005BPA
022773848202501322250001140301100152000000010BPA
022773856202501322230001010301100101000000001BPA
022773856202501322250001020301100101000000006BPA
022773856202501322230001030301100152000000021BPA
022773856202501322250001040301100152000000019BPA
023044114202501322230001010301100039000000006BPA
023044114202501322230001020301100152000000005BPA
026430163202501251510001010301080160000000025BPA
026430163202501322230001020301100039000000204BPA
026896847202501225112001010301010072053000004BPA
026896847202501225112001020301010072054000009BPA
026896847202501225112001030301010072055000003BPA
026896847202501225112001040301010072056000011BPA
026896847202501225112001050301010072002000001BPA
026896847202501225112001060301010072057000004BPA
026896847202501225112001070301010072058000006BPA
026896847202501225112001080301010072059000014BPA
026896847202501225112001090301010072060000011BPA
026896847202501225112001100301010072061000005BPA
026896847202501225112001110301010072062000011BPA
026896847202501225112001120301010072063000009BPA
026896847202501225112001130301010072064000012BPA
026896847202501225112001140301010072065000007BPA
026896847202501225112001150301010072066000010BPA
026896847202501225112001160301010072067000005BPA
026896847202501225112001170301010072068000016BPA
026896847202501225112001180301010072069000012BPA
026896847202501225112001190301010072070000009BPA
026896847202501225112001200301010072071000011BPA
026896847202501225112002010301010072072000009BPA
026896847202501225112002020301010072073000010BPA
026896847202501225112002030301010072074000008BPA
026896847202501225112002040301010072075000010BPA
026896847202501225112002050301010072076000008BPA
026896847202501225112002060301010072077000008BPA
026896847202501225112002070301010072078000007BPA
026896847202501225112002080301010072079000007BPA
026896847202501225112002090301010072080000002BPA
026896847202501225112002100301010072081000007BPA
026896847202501225112002110301010072082000004BPA
026896847202501225112002120301010072083000004BPA
026896847202501225112002130301010072084000001BPA
026896847202501225112002140301010072085000003BPA
026896847202501225112002150301010072086000002BPA
026896847202501225112002160301010072087000001BPA
026896847202501225112002170301010072088000001BPA
026896847202501225112002180301010072090000002BPA
026896847202501225112002190301010072092000001BPA
026896847202501225112002200301010072094000001BPA
026896847202501225112003010301010072042000007BPA
026896847202501225112003020301010072024000002BPA
026896847202501225112003030301010072025000003BPA
026896847202501225112003040301010072026000008BPA
026896847202501225112003050301010072027000004BPA
026896847202501225112003060301010072028000004BPA
026896847202501225112003070301010072029000002BPA
026896847202501225112003080301010072030000006BPA
026896847202501225112003090301010072031000002BPA
026896847202501225112003100301010072032000004BPA
026896847202501225112003110301010072033000001BPA
026896847202501225112003120301010072034000004BPA
026896847202501225112003130301010072035000004BPA
026896847202501225112003140301010072036000005BPA
026896847202501225112003150301010072037000006BPA
026896847202501225112003160301010072038000007BPA
026896847202501225112003170301010072039000009BPA
026896847202501225112003180301010072040000005BPA
026896847202501225112003190301010072041000006BPA
026896847202501225112003200301010072023000004BPA
026896847202501225112004010301010072043000013BPA
026896847202501225112004020301010072044000008BPA
026896847202501225112004030301010072045000006BPA
026896847202501225112004040301010072046000007BPA
026896847202501225112004050301010072047000007BPA
026896847202501225112004060301010072048000006BPA
026896847202501225112004070301010072049000005BPA
026896847202501225112004080301010072050000005BPA
026896847202501225112004090301010072051000004BPA
026896847202501225112004100301010072052000008BPA
026896847202501225112004110301010072003000002BPA
026896847202501225112004120301010072004000001BPA
026896847202501225112004130301010072005000002BPA
026896847202501225112004140301010072006000005BPA
026896847202501225112004150301010072008000002BPA
026896847202501225112004160301010072011000003BPA
026896847202501225112004170301010072012000004BPA
026896847202501225112004180301010072013000003BPA
026896847202501225112004190301010072014000001BPA
026896847202501225112004200301010072015000007BPA
026896847202501225112005010301010072016000003BPA
026896847202501225112005020301010072017000005BPA
026896847202501225112005030301010072018000009BPA
026896847202501225112005040301010072019000010BPA
026896847202501225112005050301010072020000006BPA
026896847202501225112005060301010072021000002BPA
026896847202501225112005070301010072022000003BPA
026896847202501225120005080301010072049000004BPA
026896847202501225120005090301010072050000007BPA
026896847202501225120005100301010072051000002BPA
026896847202501225120005110301010072052000001BPA
026896847202501225120005120301010072053000005BPA
026896847202501225120005130301010072054000008BPA
026896847202501225120005140301010072055000006BPA
026896847202501225120005150301010072056000001BPA
026896847202501225120005160301010072057000003BPA
026896847202501225120005170301010072058000007BPA
026896847202501225120005180301010072059000007BPA
026896847202501225120005190301010072060000008BPA
026896847202501225120005200301010072061000006BPA
026896847202501225120006010301010072062000017BPA
026896847202501225120006020301010072063000011BPA
026896847202501225120006030301010072064000013BPA
026896847202501225120006040301010072065000012BPA
026896847202501225120006050301010072066000005BPA
026896847202501225120006060301010072067000020BPA
026896847202501225120006070301010072068000006BPA
026896847202501225120006080301010072069000008BPA
026896847202501225120006090301010072070000008BPA
026896847202501225120006100301010072071000006BPA
026896847202501225120006110301010072072000009BPA
026896847202501225120006120301010072073000010BPA
026896847202501225120006130301010072074000006BPA
026896847202501225120006140301010072075000004BPA
026896847202501225120006150301010072076000004BPA
026896847202501225120006160301010072077000008BPA
026896847202501225120006170301010072078000002BPA
026896847202501225120006180301010072079000007BPA
026896847202501225120006190301010072081000005BPA
026896847202501225120006200301010072082000004BPA
026896847202501225120007010301010072083000002BPA
026896847202501225120007020301010072084000001BPA
026896847202501225120007030301010072085000002BPA
026896847202501225120007040301010072086000004BPA
026896847202501225120007050301010072087000002BPA
026896847202501225120007060301010072088000001BPA
026896847202501225120007070301010072089000003BPA
026896847202501225120007080301010072090000001BPA
026896847202501225120007090301010072091000001BPA
026896847202501225120007100301010072093000001BPA
026896847202501225120007110301010072011000001BPA
026896847202501225120007120301010072016000001BPA
026896847202501225120007130301010072017000001BPA
026896847202501225120007140301010072019000001BPA
026896847202501225120007150301010072023000001BPA
026896847202501225120007160301010072024000001BPA
026896847202501225120007170301010072030000002BPA
026896847202501225120007180301010072034000001BPA
026896847202501225120007190301010072039000001BPA
026896847202501225120007200301010072040000002BPA
026896847202501225120008010301010072042000002BPA
026896847202501225120008020301010072043000004BPA
026896847202501225120008030301010072044000002BPA
026896847202501225120008040301010072045000003BPA
026896847202501225120008050301010072046000002BPA
026896847202501225120008060301010072047000005BPA
026896847202501225120008070301010072048000003BPA
026896847202501225125008080301010072062000001BPA
026896847202501225125008080301010072062000001BPA
026896847202501225125008090301010072032000001BPA
026896847202501225125008090301010072032000001BPA
026896847202501225125008100301010072020000001BPA
026896847202501225125008110301010072017000001BPA
026896847202501225125008120301010072068000001BPA
026896847202501225125008140301010072059000001BPA
026896847202501225125008140301010072059000001BPA
026896847202501225125008150301010072014000001BPA
026896847202501225125008160301010072019000001BPA
026896847202501225125008170301010072024000001BPA
026896847202501225125008180301010072030000001BPA
026896847202501225125008190301010072031000001BPA
026896847202501225125009010301010072034000001BPA
026896847202501225125009020301010072035000001BPA
026896847202501225125009030301010072040000001BPA
026896847202501225125009040301010072043000001BPA
026896847202501225125009050301010072044000001BPA
026896847202501225125009060301010072045000001BPA
026896847202501225125009070301010072050000001BPA
026896847202501225125009080301010072053000001BPA
026896847202501225125009090301010072056000001BPA
026896847202501225125009100301010072057000001BPA
026896847202501225125009120301010072060000002BPA
026896847202501225125009130301010072063000002BPA
026896847202501225125009140301010072066000001BPA
026896847202501225125009150301010072069000001BPA
026896847202501225125009160301010072070000002BPA
026896847202501225125009170301010072075000001BPA
026896847202501225125009180301010072077000001BPA
026896847202501225125009190301010072078000001BPA
026896847202501225125009200301010072081000001BPA
026896847202501225125010010301010072058000001BPA
026896847202501225125010020301010072054000001BPA
026896847202501225125010030301010072047000001BPA
026896847202501225125010040301010072038000001BPA
026896847202501225125010050301010072036000001BPA
026896847202501225133010060301010072021000005BPA
026896847202501225133010070301010072022000003BPA
026896847202501225133010080301010072023000001BPA
026896847202501225133010090301010072024000006BPA
026896847202501225133010100301010072025000001BPA
026896847202501225133010110301010072026000001BPA
026896847202501225133010120301010072027000003BPA
026896847202501225133010130301010072028000003BPA
026896847202501225133010140301010072031000003BPA
026896847202501225133010150301010072033000004BPA
026896847202501225133010160301010072034000002BPA
026896847202501225133010170301010072035000002BPA
026896847202501225133010180301010072037000001BPA
026896847202501225133010190301010072038000001BPA
026896847202501225133010200301010072039000002BPA
026896847202501225133011010301010072040000002BPA
026896847202501225133011020301010072041000005BPA
026896847202501225133011030301010072042000002BPA
026896847202501225133011040301010072043000003BPA
026896847202501225133011050301010072044000003BPA
026896847202501225133011060301010072045000003BPA
026896847202501225133011070301010072046000001BPA
026896847202501225133011080301010072047000003BPA
026896847202501225133011090301010072048000002BPA
026896847202501225133011100301010072049000005BPA
026896847202501225133011110301010072051000001BPA
026896847202501225133011120301010072052000001BPA
026896847202501225133011130301010072053000003BPA
026896847202501225133011140301010072054000006BPA
026896847202501225133011150301010072055000005BPA
026896847202501225133011160301010072056000004BPA
026896847202501225133011170301010072057000002BPA
026896847202501225133011180301010072058000002BPA
026896847202501225133011190301010072059000003BPA
026896847202501225133011200301010072060000002BPA
026896847202501225133012010301010072062000005BPA
026896847202501225133012020301010072063000001BPA
026896847202501225133012030301010072064000001BPA
026896847202501225133012040301010072065000003BPA
026896847202501225133012050301010072066000001BPA
026896847202501225133012060301010072067000003BPA
026896847202501225133012070301010072068000002BPA
026896847202501225133012080301010072070000005BPA
026896847202501225133012090301010072072000001BPA
026896847202501225133012100301010072077000001BPA
026896847202501225133012110301010072081000001BPA
026896847202501225133012120301010072082000001BPA
026896847202501225133012130301010072085000001BPA
026896847202501225133012140301010072089000001BPA
026896847202501225133012150301010072003000007BPA
026896847202501225133012160301010072008000012BPA
026896847202501225133012170301010072002000002BPA
026896847202501225133012180301010072011000019BPA
026896847202501225133012190301010072012000015BPA
026896847202501225133012200301010072013000006BPA
026896847202501225133013010301010072014000005BPA
026896847202501225133013020301010072015000011BPA
026896847202501225133013030301010072016000009BPA
026896847202501225133013040301010072017000006BPA
026896847202501225133013050301010072018000004BPA
026896847202501225133013060301010072019000004BPA
026896847202501225133013070301010072020000002BPA
026896847202501225133013080301010072007000011BPA
026896847202501225133013090301010072006000017BPA
026896847202501225133013100301010072005000017BPA
026896847202501225133013110301010072004000013BPA
026896847202501225133013120301010072010000015BPA
026896847202501225133013130301010072009000016BPA
026896847202501225135013140301010072079000001BPA
026896847202501225135013150301010072081000001BPA
026896847202501225135013160301010072085000001BPA
026896847202501225135013170301010072086000001BPA
026896847202501225135013180301010072087000001BPA
026896847202501225135013190301010072090000001BPA
026896847202501225135013200301010072071000006BPA
026896847202501225135014010301010072000000002BPA
026896847202501225135014020301010072003000001BPA
026896847202501225135014030301010072006000002BPA
026896847202501225135014040301010072008000002BPA
026896847202501225135014050301010072010000003BPA
026896847202501225135014060301010072011000002BPA
026896847202501225135014070301010072012000005BPA
026896847202501225135014080301010072013000001BPA
026896847202501225135014090301010072014000006BPA
026896847202501225135014100301010072015000004BPA
026896847202501225135014110301010072016000002BPA
026896847202501225135014120301010072017000004BPA
026896847202501225135014130301010072018000004BPA
026896847202501225135014140301010072019000002BPA
026896847202501225135014150301010072020000001BPA
026896847202501225135014160301010072021000003BPA
026896847202501225135014170301010072022000002BPA
026896847202501225135014180301010072023000001BPA
026896847202501225135014190301010072024000003BPA
026896847202501225135014200301010072025000006BPA
026896847202501225135015010301010072026000003BPA
026896847202501225135015020301010072028000004BPA
026896847202501225135015030301010072029000002BPA
026896847202501225135015040301010072030000002BPA
026896847202501225135015050301010072031000002BPA
026896847202501225135015060301010072032000001BPA
026896847202501225135015070301010072033000005BPA
026896847202501225135015080301010072034000004BPA
026896847202501225135015090301010072035000003BPA
026896847202501225135015100301010072036000002BPA
026896847202501225135015110301010072037000005BPA
026896847202501225135015120301010072038000001BPA
026896847202501225135015130301010072040000002BPA
026896847202501225135015140301010072041000004BPA
026896847202501225135015150301010072042000003BPA
026896847202501225135015160301010072043000001BPA
026896847202501225135015170301010072044000003BPA
026896847202501225135015180301010072045000003BPA
026896847202501225135015190301010072046000003BPA
026896847202501225135015200301010072047000003BPA
026896847202501225135016010301010072048000003BPA
026896847202501225135016020301010072049000004BPA
026896847202501225135016030301010072050000005BPA
026896847202501225135016040301010072051000004BPA
026896847202501225135016050301010072052000003BPA
026896847202501225135016060301010072053000001BPA
026896847202501225135016070301010072054000002BPA
026896847202501225135016080301010072055000005BPA
026896847202501225135016090301010072056000002BPA
026896847202501225135016100301010072057000006BPA
026896847202501225135016110301010072058000004BPA
026896847202501225135016120301010072059000001BPA
026896847202501225135016130301010072060000002BPA
026896847202501225135016140301010072061000001BPA
026896847202501225135016150301010072062000004BPA
026896847202501225135016160301010072063000001BPA
026896847202501225135016170301010072064000004BPA
026896847202501225135016180301010072065000005BPA
026896847202501225135016190301010072066000005BPA
026896847202501225135016200301010072068000003BPA
026896847202501225135017010301010072069000004BPA
026896847202501225135017020301010072070000004BPA
026896847202501225135017030301010072072000005BPA
026896847202501225135017040301010072073000001BPA
026896847202501225135017050301010072074000002BPA
026896847202501225135017060301010072075000003BPA
026896847202501225135017070301010072076000002BPA
026896847202501225155017080301010072054000005BPA
026896847202501225155017090301010072011000001BPA
026896847202501225155017100301010072012000001BPA
026896847202501225155017110301010072013000002BPA
026896847202501225155017120301010072014000001BPA
026896847202501225155017130301010072015000001BPA
026896847202501225155017140301010072016000001BPA
026896847202501225155017150301010072018000001BPA
026896847202501225155017160301010072022000001BPA
026896847202501225155017170301010072023000002BPA
026896847202501225155017180301010072024000003BPA
026896847202501225155017190301010072025000002BPA
026896847202501225155017200301010072026000003BPA
026896847202501225155018010301010072027000002BPA
026896847202501225155018020301010072028000003BPA
026896847202501225155018030301010072031000003BPA
026896847202501225155018040301010072032000001BPA
026896847202501225155018050301010072034000002BPA
026896847202501225155018060301010072035000005BPA
026896847202501225155018070301010072036000004BPA
026896847202501225155018080301010072037000003BPA
026896847202501225155018090301010072038000008BPA
026896847202501225155018100301010072039000003BPA
026896847202501225155018110301010072040000002BPA
026896847202501225155018120301010072041000006BPA
026896847202501225155018130301010072042000007BPA
026896847202501225155018140301010072043000004BPA
026896847202501225155018150301010072045000004BPA
026896847202501225155018160301010072046000007BPA
026896847202501225155018170301010072047000002BPA
026896847202501225155018180301010072048000006BPA
026896847202501225155018190301010072049000003BPA
026896847202501225155018200301010072050000004BPA
026896847202501225155019010301010072051000004BPA
026896847202501225155019020301010072052000004BPA
026896847202501225155019030301010072053000005BPA
026896847202501225155019040301010072055000006BPA
026896847202501225155019050301010072056000002BPA
026896847202501225155019060301010072057000007BPA
026896847202501225155019070301010072058000004BPA
026896847202501225155019080301010072059000005BPA
026896847202501225155019090301010072060000002BPA
026896847202501225155019100301010072061000005BPA
026896847202501225155019110301010072062000008BPA
026896847202501225155019120301010072063000007BPA
026896847202501225155019130301010072064000010BPA
026896847202501225155019140301010072065000007BPA
026896847202501225155019150301010072066000006BPA
026896847202501225155019160301010072067000007BPA
026896847202501225155019170301010072068000002BPA
026896847202501225155019180301010072069000006BPA
026896847202501225155019190301010072070000004BPA
026896847202501225155019200301010072071000002BPA
026896847202501225155020010301010072072000001BPA
026896847202501225155020020301010072073000005BPA
026896847202501225155020030301010072074000006BPA
026896847202501225155020040301010072075000003BPA
026896847202501225155020050301010072076000003BPA
026896847202501225155020060301010072077000003BPA
026896847202501225155020070301010072078000001BPA
026896847202501225155020080301010072079000002BPA
026896847202501225155020090301010072081000002BPA
026896847202501225155020100301010072085000001BPA
026896847202501225155020110301010072092000001BPA
026896847202501225155020120301010072100000001BPA
026896847202501225265020130301010072022000001BPA
026896847202501225265020140301010072024000004BPA
026896847202501225265020150301010072026000001BPA
026896847202501225265020160301010072027000004BPA
026896847202501225265020170301010072028000005BPA
026896847202501225265020180301010072029000001BPA
026896847202501225265020190301010072030000005BPA
026896847202501225265020200301010072031000003BPA
026896847202501225265021010301010072032000003BPA
026896847202501225265021020301010072033000004BPA
026896847202501225265021030301010072034000006BPA
026896847202501225265021040301010072035000003BPA
026896847202501225265021050301010072036000003BPA
026896847202501225265021060301010072037000004BPA
026896847202501225265021070301010072038000004BPA
026896847202501225265021080301010072040000009BPA
026896847202501225265021090301010072041000008BPA
026896847202501225265021100301010072042000007BPA
026896847202501225265021110301010072043000004BPA
026896847202501225265021120301010072044000005BPA
026896847202501225265021130301010072045000007BPA
026896847202501225265021140301010072046000007BPA
026896847202501225265021150301010072047000012BPA
026896847202501225265021160301010072048000007BPA
026896847202501225265021170301010072049000011BPA
026896847202501225265021180301010072050000011BPA
026896847202501225265021190301010072051000014BPA
026896847202501225265021200301010072052000008BPA
026896847202501225265022010301010072053000009BPA
026896847202501225265022020301010072054000013BPA
026896847202501225265022030301010072055000008BPA
026896847202501225265022040301010072056000012BPA
026896847202501225265022050301010072057000009BPA
026896847202501225265022060301010072058000012BPA
026896847202501225265022070301010072059000015BPA
026896847202501225265022080301010072060000015BPA
026896847202501225265022090301010072061000009BPA
026896847202501225265022100301010072062000017BPA
026896847202501225265022110301010072063000013BPA
026896847202501225265022120301010072064000013BPA
026896847202501225265022130301010072065000011BPA
026896847202501225265022140301010072066000014BPA
026896847202501225265022150301010072067000017BPA
026896847202501225265022160301010072068000022BPA
026896847202501225265022170301010072069000012BPA
026896847202501225265022180301010072070000013BPA
026896847202501225265022190301010072071000016BPA
026896847202501225265022200301010072008000009BPA
026896847202501225265023010301010072072000009BPA
026896847202501225265023020301010072073000010BPA
026896847202501225265023030301010072074000007BPA
026896847202501225265023040301010072075000012BPA
026896847202501225265023050301010072076000010BPA
026896847202501225265023060301010072077000008BPA
026896847202501225265023070301010072078000004BPA
026896847202501225265023080301010072079000002BPA
026896847202501225265023090301010072080000003BPA
026896847202501225265023100301010072081000003BPA
026896847202501225265023110301010072082000003BPA
026896847202501225265023120301010072015000010BPA
026896847202501225265023130301010072083000001BPA
026896847202501225265023140301010072085000002BPA
026896847202501225265023150301010072086000002BPA
026896847202501225265023160301010072087000001BPA
026896847202501225265023170301010072091000001BPA
026896847202501225265023180301010072094000001BPA
026896847202501225265023190301010072016000002BPA
026896847202501225265023200301010072017000001BPA
026896847202501225265024010301010072002000001BPA
026896847202501225265024020301010072003000003BPA
026896847202501225265024030301010072004000002BPA
026896847202501225265024040301010072005000002BPA
026896847202501225265024050301010072006000008BPA
026896847202501225265024060301010072007000007BPA
026896847202501225265024070301010072009000003BPA
026896847202501225265024080301010072010000003BPA
026896847202501225265024090301010072011000004BPA
026896847202501225265024100301010072012000008BPA
026896847202501225265024110301010072013000002BPA
026896847202501225265024120301010072014000005BPA
026896847202501225265024130301010072018000002BPA
026896847202501225265024140301010072019000005BPA
026896847202501225265024150301010072020000002BPA
026896847202501225265024160301010072021000002BPA
026896847202501225270024170301010072073000011BPA
026896847202501225270024180301010072001000001BPA
026896847202501225270024190301010072002000002BPA
026896847202501225270024200301010072006000001BPA
026896847202501225270025010301010072008000001BPA
026896847202501225270025020301010072009000001BPA
026896847202501225270025030301010072010000001BPA
026896847202501225270025040301010072011000002BPA
026896847202501225270025050301010072012000001BPA
026896847202501225270025060301010072013000002BPA
026896847202501225270025070301010072014000002BPA
026896847202501225270025080301010072015000005BPA
026896847202501225270025090301010072016000004BPA
026896847202501225270025100301010072018000002BPA
026896847202501225270025110301010072019000001BPA
026896847202501225270025120301010072020000002BPA
026896847202501225270025130301010072022000001BPA
026896847202501225270025140301010072023000001BPA
026896847202501225270025150301010072024000003BPA
026896847202501225270025160301010072025000005BPA
026896847202501225270025170301010072026000002BPA
026896847202501225270025180301010072027000001BPA
026896847202501225270025190301010072029000001BPA
026896847202501225270025200301010072030000003BPA
026896847202501225270026010301010072031000002BPA
026896847202501225270026020301010072032000001BPA
026896847202501225270026030301010072033000001BPA
026896847202501225270026040301010072034000003BPA
026896847202501225270026050301010072035000003BPA
026896847202501225270026060301010072036000006BPA
026896847202501225270026070301010072037000007BPA
026896847202501225270026080301010072038000002BPA
026896847202501225270026090301010072039000010BPA
026896847202501225270026100301010072040000012BPA
026896847202501225270026110301010072041000005BPA
026896847202501225270026120301010072042000011BPA
026896847202501225270026130301010072043000010BPA
026896847202501225270026140301010072044000009BPA
026896847202501225270026150301010072045000013BPA
026896847202501225270026160301010072046000014BPA
026896847202501225270026170301010072047000013BPA
026896847202501225270026180301010072048000010BPA
026896847202501225270026190301010072049000008BPA
026896847202501225270026200301010072050000018BPA
026896847202501225270027010301010072051000006BPA
026896847202501225270027020301010072052000012BPA
026896847202501225270027030301010072053000016BPA
026896847202501225270027040301010072054000022BPA
026896847202501225270027050301010072055000010BPA
026896847202501225270027060301010072056000020BPA
026896847202501225270027070301010072057000015BPA
026896847202501225270027080301010072058000014BPA
026896847202501225270027090301010072059000015BPA
026896847202501225270027100301010072060000022BPA
026896847202501225270027110301010072061000020BPA
026896847202501225270027120301010072062000023BPA
026896847202501225270027130301010072063000016BPA
026896847202501225270027140301010072064000018BPA
026896847202501225270027150301010072065000012BPA
026896847202501225270027160301010072066000017BPA
026896847202501225270027170301010072067000013BPA
026896847202501225270027180301010072068000019BPA
026896847202501225270027190301010072069000020BPA
026896847202501225270027200301010072070000013BPA
026896847202501225270028010301010072071000009BPA
026896847202501225270028020301010072072000012BPA
026896847202501225270028030301010072074000007BPA
026896847202501225270028040301010072075000009BPA
026896847202501225270028050301010072076000007BPA
026896847202501225270028060301010072077000001BPA
026896847202501225270028070301010072078000004BPA
026896847202501225270028080301010072079000006BPA
026896847202501225270028090301010072080000001BPA
026896847202501225270028100301010072081000004BPA
026896847202501225270028110301010072082000002BPA
026896847202501225270028120301010072083000002BPA
026896847202501225270028130301010072085000002BPA
026896847202501225270028140301010072087000001BPA
026896847202501225270028150301010072088000002BPA
026896847202501225270028160301010072097000001BPA
026896847202501225275028170301010072068000006BPA
026896847202501225275028180301010072001000001BPA
026896847202501225275028190301010072002000006BPA
026896847202501225275028200301010072003000006BPA
026896847202501225275029010301010072004000010BPA
026896847202501225275029020301010072005000005BPA
026896847202501225275029030301010072006000015BPA
026896847202501225275029040301010072007000009BPA
026896847202501225275029050301010072008000009BPA
026896847202501225275029060301010072009000015BPA
026896847202501225275029070301010072010000005BPA
026896847202501225275029080301010072011000008BPA
026896847202501225275029090301010072012000008BPA
026896847202501225275029100301010072013000009BPA
026896847202501225275029110301010072014000001BPA
026896847202501225275029120301010072015000004BPA
026896847202501225275029130301010072016000002BPA
026896847202501225275029140301010072017000001BPA
026896847202501225275029150301010072019000002BPA
026896847202501225275029160301010072020000002BPA
026896847202501225275029170301010072021000003BPA
026896847202501225275029180301010072022000003BPA
026896847202501225275029190301010072023000002BPA
026896847202501225275029200301010072024000003BPA
026896847202501225275030010301010072025000003BPA
026896847202501225275030020301010072026000002BPA
026896847202501225275030030301010072029000003BPA
026896847202501225275030040301010072030000003BPA
026896847202501225275030050301010072031000003BPA
026896847202501225275030060301010072032000004BPA
026896847202501225275030070301010072033000001BPA
026896847202501225275030080301010072034000002BPA
026896847202501225275030090301010072035000002BPA
026896847202501225275030100301010072036000004BPA
026896847202501225275030110301010072037000001BPA
026896847202501225275030120301010072038000002BPA
026896847202501225275030130301010072040000001BPA
026896847202501225275030140301010072042000003BPA
026896847202501225275030150301010072043000008BPA
026896847202501225275030160301010072044000005BPA
026896847202501225275030170301010072045000006BPA
026896847202501225275030180301010072047000003BPA
026896847202501225275030190301010072048000005BPA
026896847202501225275030200301010072049000002BPA
026896847202501225275031010301010072050000006BPA
026896847202501225275031020301010072052000005BPA
026896847202501225275031030301010072053000003BPA
026896847202501225275031040301010072054000005BPA
026896847202501225275031050301010072055000004BPA
026896847202501225275031060301010072056000005BPA
026896847202501225275031070301010072057000005BPA
026896847202501225275031080301010072058000004BPA
026896847202501225275031090301010072059000004BPA
026896847202501225275031100301010072060000005BPA
026896847202501225275031110301010072061000006BPA
026896847202501225275031120301010072062000005BPA
026896847202501225275031130301010072063000006BPA
026896847202501225275031140301010072064000009BPA
026896847202501225275031150301010072065000005BPA
026896847202501225275031160301010072066000008BPA
026896847202501225275031170301010072067000007BPA
026896847202501225275031180301010072069000008BPA
026896847202501225275031190301010072070000006BPA
026896847202501225275031200301010072071000002BPA
026896847202501225275032010301010072072000008BPA
026896847202501225275032020301010072073000003BPA
026896847202501225275032030301010072074000001BPA
026896847202501225275032040301010072075000001BPA
026896847202501225275032050301010072076000001BPA
026896847202501225275032060301010072078000003BPA
026896847202501225275032070301010072079000004BPA
026896847202501225275032080301010072080000007BPA
026896847202501225275032090301010072081000002BPA
026896847202501225275032100301010072082000003BPA
026896847202501225275032110301010072084000001BPA
026896847202501225275032120301010072085000001BPA
026896847202501225275032130301010072086000001BPA
026896847202501225275032140301010072087000001BPA
026896847202501225275032150301010072088000002BPA
026896847202501225275032160301010072089000001BPA
026896847202501225285032170301010072038000001BPA
026896847202501225285032180301010072039000001BPA
026896847202501225285032190301010072043000003BPA
026896847202501225285032200301010072044000003BPA
026896847202501225285033010301010072045000002BPA
026896847202501225285033020301010072046000004BPA
026896847202501225285033030301010072047000002BPA
026896847202501225285033040301010072014000001BPA
026896847202501225285033050301010072015000001BPA
026896847202501225285033060301010072019000002BPA
026896847202501225285033070301010072023000003BPA
026896847202501225285033080301010072026000001BPA
026896847202501225285033090301010072028000003BPA
026896847202501225285033100301010072049000002BPA
026896847202501225285033110301010072050000002BPA
026896847202501225285033120301010072051000003BPA
026896847202501225285033130301010072052000006BPA
026896847202501225285033140301010072053000001BPA
026896847202501225285033150301010072054000005BPA
026896847202501225285033160301010072055000004BPA
026896847202501225285033170301010072056000004BPA
026896847202501225285033180301010072057000004BPA
026896847202501225285033190301010072058000005BPA
026896847202501225285033200301010072059000004BPA
026896847202501225285034010301010072060000006BPA
026896847202501225285034020301010072061000006BPA
026896847202501225285034030301010072062000001BPA
026896847202501225285034040301010072063000007BPA
026896847202501225285034050301010072064000003BPA
026896847202501225285034060301010072065000008BPA
026896847202501225285034070301010072066000013BPA
026896847202501225285034080301010072067000012BPA
026896847202501225285034090301010072068000006BPA
026896847202501225285034100301010072069000009BPA
026896847202501225285034110301010072070000007BPA
026896847202501225285034120301010072071000007BPA
026896847202501225285034130301010072072000012BPA
026896847202501225285034140301010072073000005BPA
026896847202501225285034150301010072074000002BPA
026896847202501225285034160301010072075000003BPA
026896847202501225285034170301010072076000004BPA
026896847202501225285034180301010072077000002BPA
026896847202501225285034190301010072078000001BPA
026896847202501225285034200301010072079000002BPA
026896847202501225285035010301010072080000006BPA
026896847202501225285035020301010072081000005BPA
026896847202501225285035030301010072082000003BPA
026896847202501225285035040301010072084000003BPA
026896847202501225285035050301010072085000003BPA
026896847202501225285035060301010072086000001BPA
026896847202501225285035070301010072087000001BPA
026896847202501225285035080301010072088000002BPA
026896847202501225285035090301010072091000001BPA
026896847202501225285035100301010072029000002BPA
026896847202501225285035110301010072031000001BPA
026896847202501225285035120301010072033000001BPA
026896847202501225285035130301010072035000001BPA
026896847202501225285035140301010072036000001BPA
026896847202501225285035150301010072037000002BPA
026896847202501223505035160301010137001000002BPA
026896847202501223505035170301010137015000001BPA
026896847202501223505035180301010137020000001BPA
026896847202501223505035190301010137028000002BPA
026896847202501223505035200301010137031000001BPA
026896847202501223505036010301010137062000001BPA
026896847202501223505036020301010137071000001BPA
026896847202501223505036030301010137073000001BPA
026896847202501223505036040301010137077000001BPA
026896847202501223505036050301010137080000001BPA
026896847202501223505036060301010137082000001BPA
026896847202501223505036070301010137086000001BPA
026896847202501223505036080301010137092000001BPA
026896847202501223605036090301010137031000001BPA
026896847202501223605036100301010137028000002BPA
026896847202501223605036110301010137025000001BPA
026896847202501223605036120301010137020000001BPA
026896847202501223605036130301010137015000001BPA
026896847202501223605036140301010137071000002BPA
026896847202501223605036150301010137072000001BPA
026896847202501223605036160301010137073000001BPA
026896847202501223605036170301010137075000001BPA
026896847202501223605036180301010137077000001BPA
026896847202501223605036190301010137078000001BPA
026896847202501223605036200301010137081000001BPA
026896847202501223605037010301010137082000001BPA
026896847202501223605037020301010137085000002BPA
026896847202501223605037030301010137086000002BPA
026896847202501223605037040301010137092000001BPA
026896847202501223605037050301010137047000001BPA
026896847202501223605037060301010137045000002BPA
026896847202501223605037070301010137050000001BPA
026896847202501223605037080301010137052000001BPA
026896847202501223605037090301010137054000003BPA
026896847202501223605037100301010137014000001BPA
026896847202501225125037110301010137054000002BPA
026896847202501225125037120301010137050000001BPA
026896847202501225125037130301010137063000001BPA
026896847202501225125037140301010137075000001BPA
026896847202501225125037150301010137082000001BPA
026896847202501322205037160301100039000000013BPA
026896847202501322205037170301100152000000021BPA
027047088202501322250001010301100101000000001BPA
027047088202501322230001020301100152000000008BPA
027047088202501322250001030301100152000000004BPA
027047088202501322250001040309050049000000002BPA
029001808202501223605001010301010137001000001BPA
029001808202501322230001020301100152000000011BPA
03049138120250170050453405345222360520250109001180302060030700004487906207M350390G838009     101             BPILUCAS PIETRO DO CARMO SANTOS  2015060701    010                                07417500081ANTO BERNARDO DA SILVA                     96PARQUE RODRIGO BARRETO        11 46497722
03049138120250170050453405345222360520250116001190302060030700004487906207M350390G838009     101             BPILUCAS PIETRO DO CARMO SANTOS  2015060701    010                                07417500081ANTO BERNARDO DA SILVA                     96PARQUE RODRIGO BARRETO        11 46497722
03049138120250170050453405345222360520250123001200302060030700004487906207M350390G838009     101             BPILUCAS PIETRO DO CARMO SANTOS  2015060701    010                                07417500081ANTO BERNARDO DA SILVA                     96PARQUE RODRIGO BARRETO        11 46497722
03049138120250170050453405345222360520250130002010302060030700004487906207M350390G838009     101             BPILUCAS PIETRO DO CARMO SANTOS  2015060701    010                                07417500081ANTO BERNARDO DA SILVA                     96PARQUE RODRIGO BARRETO        11 46497722
03049138120250170050453405345222360520250107002020302060030700206991639330F350390G838010     101             BPIISABELLA VITORIA ALVES SOARES 2014111201    010                                07403105081JOO LEITE DE CAMARGO                      184ARUJAMRICA
03049138120250170050453405345222360520250121002030302060030700206991639330F350390G838010     101             BPIISABELLA VITORIA ALVES SOARES 2014111201    010                                07403105081JOO LEITE DE CAMARGO                      184ARUJAMRICA
03049138120250170050453405345222360520250128002040302060030700206991639330F350390G838010     101             BPIISABELLA VITORIA ALVES SOARES 2014111201    010                                07403105081JOO LEITE DE CAMARGO                      184ARUJAMRICA
03049138120250170050453405345222360520250116002050302060030700402404310640M350390G838009     101             BPIGABRIEL FERNANDES GONTAN      2015050803    010                                07403000008HANS OSSAMU SUZUKI                        220ARUJAMRICA                    11 46550954
03049138120250170050453405345222360520250123002060302060030700402404310640M350390G838009     101             BPIGABRIEL FERNANDES GONTAN      2015050803    010                                07403000008HANS OSSAMU SUZUKI                        220ARUJAMRICA                    11 46550954
03049138120250170050453405345222360520250114002070302060030700507118196959F350390G838018     101             BPIIZABEL DA LUZ BARROS          2006041503    010                                07417465081ANTONIA MANOEL FERNANDES                  639PARQUE RODRIGO BARRETO        11 46531105
03049138120250170050453405345222360520250121002080302060030700507118196959F350390G838018     101             BPIIZABEL DA LUZ BARROS          2006041503    010                                07417465081ANTONIA MANOEL FERNANDES                  639PARQUE RODRIGO BARRETO        11 46531105
03049138120250170050453405345222360520250128002090302060030700507118196959F350390G838018     101             BPIIZABEL DA LUZ BARROS          2006041503    010                                07417465081ANTONIA MANOEL FERNANDES                  639PARQUE RODRIGO BARRETO        11 46531105
03049138120250170050453405345222360520250116002100302060030701401642375631F350390G838003     101             BPIANTONELA PINOTI COSTA CARVALHO2021031501    010                                07411215081SAO LUIS                                  110JORDANPOLIS
03049138120250170050453405345222360520250123002110302060030701401642375631F350390G838003     101             BPIANTONELA PINOTI COSTA CARVALHO2021031501    010                                07411215081SAO LUIS                                  110JORDANPOLIS
03049138120250170050453405345222360520250130002120302060030701401642375631F350390G838003     101             BPIANTONELA PINOTI COSTA CARVALHO2021031501    010                                07411215081SAO LUIS                                  110JORDANPOLIS
03049138120250170050453405345222360520250121002130302060030701409652952736M350390G838026     101             BPIARTHUR DOS SANTOS VIANNA PINHO1998100801    010                                07417265008RAILDA ALVES DE OLIVEIRA      A           856PARQUE RODRIGO BARRETO        11 46554774
03049138120250170050453405345222360520250128002140302060030701409652952736M350390G838026     101             BPIARTHUR DOS SANTOS VIANNA PINHO1998100801    010                                07417265008RAILDA ALVES DE OLIVEIRA      A           856PARQUE RODRIGO BARRETO        11 46554774
03049138120250170050453405345222360520250109002150302060030703404648057800F350390G838010     101             BPIANA CLARA PIRES DOS SANTOS    2014122201    010                                07402205081MINAS GERAIS                               15JARDIM PLANALTO               11 46523629
03049138120250170050453405345222360520250116002160302060030703404648057800F350390G838010     101             BPIANA CLARA PIRES DOS SANTOS    2014122201    010                                07402205081MINAS GERAIS                               15JARDIM PLANALTO               11 46523629
03049138120250170050453405345222360520250114002170302060030704801024804348F350390G838010     101             BPIISABEL SOUSA FONSECA          2014080801    010                                07417565081Jose Barbosa de Souza                      15Parque Rodrigo Barreto
03049138120250170050453405345222360520250121002180302060030704801024804348F350390G838010     101             BPIISABEL SOUSA FONSECA          2014080801    010                                07417565081Jose Barbosa de Souza                      15Parque Rodrigo Barreto
03049138120250170050453405345222360520250128002190302060030704801024804348F350390G838010     101             BPIISABEL SOUSA FONSECA          2014080801    010                                07417565081Jose Barbosa de Souza                      15Parque Rodrigo Barreto
03049138120250170050453405345222360520250109002200302060030705002456823155M350390G838017     101             BPIGABRIEL PEDRO LOPES DA SILVA  2007062301    010                                07401720081IRACI PINTO FERREIRA BRAZ     A            19VILA PILAR                    11 46513585
03049138120250170050453405345222360520250116003010302060030705002456823155M350390G838017     101             BPIGABRIEL PEDRO LOPES DA SILVA  2007062301    010                                07401720081IRACI PINTO FERREIRA BRAZ     A            19VILA PILAR                    11 46513585
03049138120250170050453405345222360520250123003020302060030705002456823155M350390G838017     101             BPIGABRIEL PEDRO LOPES DA SILVA  2007062301    010                                07401720081IRACI PINTO FERREIRA BRAZ     A            19VILA PILAR                    11 46513585
03049138120250170050453405345222360520250130003030302060030705002456823155M350390G838017     101             BPIGABRIEL PEDRO LOPES DA SILVA  2007062301    010                                07401720081IRACI PINTO FERREIRA BRAZ     A            19VILA PILAR                    11 46513585
03049138120250170050453405345222360520250116001010302060049700503147078256M350390G804007     101             BPIOSCAR BARUC TAVARES DE JESUS  2017081803    010                                07401110081NANCI ARAKI                                85ARUJA CENTER VILLE            11980798292
03049138120250170050453405345222360520250109001020302060049700503147078256M350390G804007     101             BPIOSCAR BARUC TAVARES DE JESUS  2017081803    010                                07401110081NANCI ARAKI                                85ARUJA CENTER VILLE            11980798292
03049138120250170050453405345222360520250130001030302060049700403970687048M350390G804017     101             BPIIAGO RAFIK VIANA DOS SANTOS   2007101204    010                                07404090081SERRA DO JAIRE                            395PEDREIRA                      11993464084
03049138120250170050453405345222360520250123001040302060049700403970687048M350390G804017     101             BPIIAGO RAFIK VIANA DOS SANTOS   2007101204    010                                07404090081SERRA DO JAIRE                            395PEDREIRA                      11993464084
03049138120250170050453405345222360520250116001050302060049700403970687048M350390G804017     101             BPIIAGO RAFIK VIANA DOS SANTOS   2007101204    010                                07404090081SERRA DO JAIRE                            395PEDREIRA                      11993464084
03049138120250170050453405345222360520250109001060302060049700403970687048M350390G804017     101             BPIIAGO RAFIK VIANA DOS SANTOS   2007101204    010                                07404090081SERRA DO JAIRE                            395PEDREIRA                      11993464084
03049138120250170050453405345222360520250130001070302060049700402404310640M350390G804009     101             BPIGABRIEL FERNANDES GONTAN      2015050803    010                                07403000008HANS OSSAMU SUZUKI                        220ARUJAMRICA                    11 46550954
03049138120250170050453405345222360520250109001080302060049700402404310640M350390G804009     101             BPIGABRIEL FERNANDES GONTAN      2015050803    010                                07403000008HANS OSSAMU SUZUKI                        220ARUJAMRICA                    11 46550954
03049138120250170050453405345222360520250114001090302060049700206991639330F350390G804010     101             BPIISABELLA VITORIA ALVES SOARES 2014111201    010                                07403105081JOO LEITE DE CAMARGO                      184ARUJAMRICA
03049138120250170050453405345222360520250114001100302060049700202902613922M350390G804008     101             BPIDAVI MOTA DE JESUS            2016030801    010                                07405470081PELICANO                      CASA 04      68JARDIM PINHEIRO
03049138120250170050453405345222360520250107001110302060049700202902613922M350390G804008     101             BPIDAVI MOTA DE JESUS            2016030801    010                                07405470081PELICANO                      CASA 04      68JARDIM PINHEIRO
03049138120250170050453405345222360520250128001120302060049700005631673708F350390G804007     101             BPIYASMIN CREUSA DE MOURA SILVA  2017040901    010                                07400370081La Paz                        Casa 1      114Jardim Rinco                  11 46512002
03049138120250170050453405345222360520250121001130302060049700005631673708F350390G804007     101             BPIYASMIN CREUSA DE MOURA SILVA  2017040901    010                                07400370081La Paz                        Casa 1      114Jardim Rinco                  11 46512002
03049138120250170050453405345222360520250114001140302060049701409652952736M350390G804026     101             BPIARTHUR DOS SANTOS VIANNA PINHO1998100801    010                                07417265008RAILDA ALVES DE OLIVEIRA      A           856PARQUE RODRIGO BARRETO        11 46554774
03049138120250170050453405345222360520250128001150302060049702909551787571M353060G804008     101             BPIMURILO DE SOUZA RAMPAZI       2016122601    010                                08740540081PREFEITO JOSE DE MELO FRANCO              195JARDIM UNIVERSO
03049138120250170050453405345222360520250107001160302060049702909551787571M353060G804008     101             BPIMURILO DE SOUZA RAMPAZI       2016122601    010                                08740540081PREFEITO JOSE DE MELO FRANCO              195JARDIM UNIVERSO
03049138120250170050453405345222360520250121001170302060049702909551787571M353060G804008     101             BPIMURILO DE SOUZA RAMPAZI       2016122601    010                                08740540081PREFEITO JOSE DE MELO FRANCO              195JARDIM UNIVERSO
03049138120250170050453405345222360520250121003040302060049708904756630113M350390G804010     101             BPIGABRIEL DAVI SOUZA BARROS     2015020601    010                                07404090081SERRA DO JAIRE                CS4         315MIRANTE DO ARUJ               11 46558284
03049138120250170050453405345222360520250114003050302060049708904756630113M350390G804010     101             BPIGABRIEL DAVI SOUZA BARROS     2015020601    010                                07404090081SERRA DO JAIRE                CS4         315MIRANTE DO ARUJ               11 46558284
03049138120250170050453405345222360520250107003060302060049708904756630113M350390G804010     101             BPIGABRIEL DAVI SOUZA BARROS     2015020601    010                                07404090081SERRA DO JAIRE                CS4         315MIRANTE DO ARUJ               11 46558284
03049138120250170050453405345222360520250109003070302060049708603521580584M350390G804016     101             BPIMATHEUS LIMA DOS SANTOS       2008101201    010                                07432075081Dady                          Casa 02     165Jardim Emlia                  11 46525322
03049138120250170050453405345222360520250130003080302060049708406711778169M350390G804008     101             BPIKAUE PESQUEIRA LOURENCO DA SIL2017012503    010                                07432445081Pitangueiras                              213Recanto Primavera
03049138120250170050453405345222360520250123003090302060049708406711778169M350390G804008     101             BPIKAUE PESQUEIRA LOURENCO DA SIL2017012503    010                                07432445081Pitangueiras                              213Recanto Primavera
03049138120250170050453405345222360520250116003100302060049708406711778169M350390G804008     101             BPIKAUE PESQUEIRA LOURENCO DA SIL2017012503    010                                07432445081Pitangueiras                              213Recanto Primavera
03049138120250170050453405345222360520250109003110302060049708406711778169M350390G804008     101             BPIKAUE PESQUEIRA LOURENCO DA SIL2017012503    010                                07432445081Pitangueiras                              213Recanto Primavera
03049138120250170050453405345222360520250130003120302060049708200168857241M350390G804019     101             BPIKLAYVERTT BELO MOITINHO       2005112801    010                                07400970008GEORGETONE                                 16JD RINCAO
03049138120250170050453405345222360520250123003130302060049708200168857241M350390G804019     101             BPIKLAYVERTT BELO MOITINHO       2005112801    010                                07400970008GEORGETONE                                 16JD RINCAO
03049138120250170050453405345222360520250116003140302060049708200168857241M350390G804019     101             BPIKLAYVERTT BELO MOITINHO       2005112801    010                                07400970008GEORGETONE                                 16JD RINCAO
03049138120250170050453405345222360520250109003150302060049708200168857241M350390G804019     101             BPIKLAYVERTT BELO MOITINHO       2005112801    010                                07400970008GEORGETONE                                 16JD RINCAO
03049138120250170050453405345222360520250128003160302060049708106526577031M350390G804008     101             BPIMATHEUS PAULO LEITE DA SILVA  2016051203    010                                07405445081ANDORINHA                     L 5         364JARDIM PINHEIRO               11912861623
03049138120250170050453405345222360520250121003170302060049708106526577031M350390G804008     101             BPIMATHEUS PAULO LEITE DA SILVA  2016051203    010                                07405445081ANDORINHA                     L 5         364JARDIM PINHEIRO               11912861623
03049138120250170050453405345222360520250128003180302060049708006887642328M350390G804005     101             BPIPAULO HENRIQUE SILVA LEITE    2019031201    010                                07417380081JOS SEVERINO FILHO            CASA 1      120PARQUE RODRIGO BARRETO        11 46531574
03049138120250170050453405345222360520250121003190302060049708006887642328M350390G804005     101             BPIPAULO HENRIQUE SILVA LEITE    2019031201    010                                07417380081JOS SEVERINO FILHO            CASA 1      120PARQUE RODRIGO BARRETO        11 46531574
03049138120250170050453405345222360520250114003200302060049708006887642328M350390G804005     101             BPIPAULO HENRIQUE SILVA LEITE    2019031201    010                                07417380081JOS SEVERINO FILHO            CASA 1      120PARQUE RODRIGO BARRETO        11 46531574
03049138120250170050453405345222360520250107004010302060049708006887642328M350390G804005     101             BPIPAULO HENRIQUE SILVA LEITE    2019031201    010                                07417380081JOS SEVERINO FILHO            CASA 1      120PARQUE RODRIGO BARRETO        11 46531574
03049138120250170050453405345222360520250130004020302060049707602259771994M350390G804006     101             BPIDANIEL MEDEIROS DIAS          2018102203    010                                07437050081Cedros                                    185Parque dos Jacarands          11989113704
03049138120250170050453405345222360520250123004030302060049707602259771994M350390G804006     101             BPIDANIEL MEDEIROS DIAS          2018102203    010                                07437050081Cedros                                    185Parque dos Jacarands          11989113704
03049138120250170050453405345222360520250116004040302060049707602259771994M350390G804006     101             BPIDANIEL MEDEIROS DIAS          2018102203    010                                07437050081Cedros                                    185Parque dos Jacarands          11989113704
03049138120250170050453405345222360520250109004050302060049707602259771994M350390G804006     101             BPIDANIEL MEDEIROS DIAS          2018102203    010                                07437050081Cedros                                    185Parque dos Jacarands          11989113704
03049138120250170050453405345222360520250128004060302060049706906106273834M350390G804011     101             BPIGUSTAVO PEDRO DE JESUS HONORIO2013080401    010                                07411155008Santa Terezinha                           555Jordanpolis
03049138120250170050453405345222360520250121004070302060049706906106273834M350390G804011     101             BPIGUSTAVO PEDRO DE JESUS HONORIO2013080401    010                                07411155008Santa Terezinha                           555Jordanpolis
03049138120250170050453405345222360520250114004080302060049706906106273834M350390G804011     101             BPIGUSTAVO PEDRO DE JESUS HONORIO2013080401    010                                07411155008Santa Terezinha                           555Jordanpolis
03049138120250170050453405345222360520250128004090302060049706708783728020M350390G804015     101             BPIMATHEUS HENDERSON CALHEIRO GOM2009123003    010                                07434130081DOS LIMOEIROS                              75JARDIM LIMOEIRO
03049138120250170050453405345222360520250121004100302060049706708783728020M350390G804015     101             BPIMATHEUS HENDERSON CALHEIRO GOM2009123003    010                                07434130081DOS LIMOEIROS                              75JARDIM LIMOEIRO
03049138120250170050453405345222360520250114004110302060049706708783728020M350390G804015     101             BPIMATHEUS HENDERSON CALHEIRO GOM2009123003    010                                07434130081DOS LIMOEIROS                              75JARDIM LIMOEIRO
03049138120250170050453405345222360520250128004120302060049706403624093789M350390G804009     101             BPILUCAS CARDOZO DOS SANTOS      2015121501    010                                07428290081Rubi                                      408Jardim Fazenda Rinco
03049138120250170050453405345222360520250121004130302060049706403624093789M350390G804009     101             BPILUCAS CARDOZO DOS SANTOS      2015121501    010                                07428290081Rubi                                      408Jardim Fazenda Rinco
03049138120250170050453405345222360520250114004140302060049706403624093789M350390G804009     101             BPILUCAS CARDOZO DOS SANTOS      2015121501    010                                07428290081Rubi                                      408Jardim Fazenda Rinco
03049138120250170050453405345222360520250107004150302060049706403624093789M350390G804009     101             BPILUCAS CARDOZO DOS SANTOS      2015121501    010                                07428290081Rubi                                      408Jardim Fazenda Rinco
03049138120250170050453405345222360520250128004160302060049705601486775713M350390G804006     101             BPIJOAQUIM FERREIRA ANTUNES DOS S2019011201    010                                07411390004DAS ROSAS                                 753CIDADE NOVA ARUJA             11956777705
03049138120250170050453405345222360520250114004170302060049705601486775713M350390G804006     101             BPIJOAQUIM FERREIRA ANTUNES DOS S2019011201    010                                07411390004DAS ROSAS                                 753CIDADE NOVA ARUJA             11956777705
03049138120250170050453405345222360520250107004180302060049705601486775713M350390G804006     101             BPIJOAQUIM FERREIRA ANTUNES DOS S2019011201    010                                07411390004DAS ROSAS                                 753CIDADE NOVA ARUJA             11956777705
03049138120250170050453405345222360520250128004190302060049705207421017775M350390G804008     101             BPIARTHUR MOREIRA DA MOTTA       2016081303    010                                07439050081MOLIBIDENIO                               170CHACARAS COPACO               11 46543261
03049138120250170050453405345222360520250114004200302060049705207421017775M350390G804008     101             BPIARTHUR MOREIRA DA MOTTA       2016081303    010                                07439050081MOLIBIDENIO                               170CHACARAS COPACO               11 46543261
03049138120250170050453405345222360520250107005010302060049705207421017775M350390G804008     101             BPIARTHUR MOREIRA DA MOTTA       2016081303    010                                07439050081MOLIBIDENIO                               170CHACARAS COPACO               11 46543261
03049138120250170050453405345222360520250130005020302060049705008816205755M350390G804007     101             BPIBERNARDO PINOTI SILVA CARVALHO2017091801    010                                07411215081LUIZ                                      110JORDANPOLIS
03049138120250170050453405345222360520250123005030302060049705008816205755M350390G804007     101             BPIBERNARDO PINOTI SILVA CARVALHO2017091801    010                                07411215081LUIZ                                      110JORDANPOLIS
03049138120250170050453405345222360520250116005040302060049705008816205755M350390G804007     101             BPIBERNARDO PINOTI SILVA CARVALHO2017091801    010                                07411215081LUIZ                                      110JORDANPOLIS
03049138120250170050453405345222360520250130005050302060049705003094227452M350390G804004     101             BPIHUGO HENRIQUE DE PETTA ANTUNES2020022901    010                                07405445081ANDORINHA                     A            63JARDIM PINHEIRO
03049138120250170050453405345222360520250123005060302060049705003094227452M350390G804004     101             BPIHUGO HENRIQUE DE PETTA ANTUNES2020022901    010                                07405445081ANDORINHA                     A            63JARDIM PINHEIRO
03049138120250170050453405345222360520250109005070302060049705003094227452M350390G804004     101             BPIHUGO HENRIQUE DE PETTA ANTUNES2020022901    010                                07405445081ANDORINHA                     A            63JARDIM PINHEIRO
03049138120250170050453405345222360520250123005080302060049705001225714554M350390G804020     101             BPILUCAS CORTICEIRO SANTOS       2004072004    010                                07417590081Pedro Jos de Morais                        32Parque Rodrigo Barreto
03049138120250170050453405345222360520250116005090302060049705001225714554M350390G804020     101             BPILUCAS CORTICEIRO SANTOS       2004072004    010                                07417590081Pedro Jos de Morais                        32Parque Rodrigo Barreto
03049138120250170050453405345222360520250109005100302060049705001225714554M350390G804020     101             BPILUCAS CORTICEIRO SANTOS       2004072004    010                                07417590081Pedro Jos de Morais                        32Parque Rodrigo Barreto
03049138120250170050453405345222360520250130005110302060049704708700913538M350390G804009     101             BPIRICARDO MIGUEL JUNIOR APARECID2016011001    010                                07405440081Tuim                          A           180Jardim Pinheiro
03049138120250170050453405345222360520250123005120302060049704708700913538M350390G804009     101             BPIRICARDO MIGUEL JUNIOR APARECID2016011001    010                                07405440081Tuim                          A           180Jardim Pinheiro
03049138120250170050453405345222360520250109005130302060049704708700913538M350390G804009     101             BPIRICARDO MIGUEL JUNIOR APARECID2016011001    010                                07405440081Tuim                          A           180Jardim Pinheiro
03049138120250170050453405345222360520250121005140302060049704202761323381M350390G804015     101             BPIRENATO RODRIGUES SANTOS       2010020401    010                                07400795081Benjamin de Jesus Rodrigues   Viela       739Aruj Centro Residencial       11965745780
03049138120250170050453405345222360520250114005150302060049704202761323381M350390G804015     101             BPIRENATO RODRIGUES SANTOS       2010020401    010                                07400795081Benjamin de Jesus Rodrigues   Viela       739Aruj Centro Residencial       11965745780
03049138120250170050453405345222360520250107005160302060049704202761323381M350390G804015     101             BPIRENATO RODRIGUES SANTOS       2010020401    010                                07400795081Benjamin de Jesus Rodrigues   Viela       739Aruj Centro Residencial       11965745780
03049138120250170050453405345222360520250130005170302060049704105194737072M350390G804007     101             BPIKAUAN PINOTI SILVA CARVALHO   2017091801    010                                07411215081LUIZ                                      110JORDANPOLIS
03049138120250170050453405345222360520250123005180302060049704105194737072M350390G804007     101             BPIKAUAN PINOTI SILVA CARVALHO   2017091801    010                                07411215081LUIZ                                      110JORDANPOLIS
03049138120250170050453405345222360520250116005190302060049704105194737072M350390G804007     101             BPIKAUAN PINOTI SILVA CARVALHO   2017091801    010                                07411215081LUIZ                                      110JORDANPOLIS
03049138120250170050453405345222360520250128005200302060049704101245579580M350390G804004     101             BPITHEO ROCHA MACEDO             2020072301    010                                07417265008Railda Alves de Oliveira                  841Parque Rodrigo Barreto
03049138120250170050453405345222360520250121006010302060049704101245579580M350390G804004     101             BPITHEO ROCHA MACEDO             2020072301    010                                07417265008Railda Alves de Oliveira                  841Parque Rodrigo Barreto
03049138120250170050453405345222360520250114006020302060049704101245579580M350390G804004     101             BPITHEO ROCHA MACEDO             2020072301    010                                07417265008Railda Alves de Oliveira                  841Parque Rodrigo Barreto
03049138120250170050453405345222360520250107006030302060049704101245579580M350390G804004     101             BPITHEO ROCHA MACEDO             2020072301    010                                07417265008Railda Alves de Oliveira                  841Parque Rodrigo Barreto
03049138120250170050453405345222360520250130006040302060049703408226916815M350390G804011     101             BPIMIGUEL PONCIANO SOARES        2013112201    010                                07407040008Airton dos Santos Heras GalvezCasa 24     120Jardim Santo Antonio
03049138120250170050453405345222360520250130006050302060049703404648057800F350390G804010     101             BPIANA CLARA PIRES DOS SANTOS    2014122201    010                                07402205081MINAS GERAIS                               15JARDIM PLANALTO               11 46523629
03049138120250170050453405345222360520250123006060302060049703404648057800F350390G804010     101             BPIANA CLARA PIRES DOS SANTOS    2014122201    010                                07402205081MINAS GERAIS                               15JARDIM PLANALTO               11 46523629
03049138120250170050453405345222360520250130006070302060049702401032630725M350390G804010     101             BPIHENRIQUE ALMEIDA SILVA        2014031401    010                                07400970081LUIZ GONZAGA COLANGELO NOBREGA            525PARQUE RODRIGO BARRETO        11 37545224
03049138120250170050453405345222360520250123006080302060049702401032630725M350390G804010     101             BPIHENRIQUE ALMEIDA SILVA        2014031401    010                                07400970081LUIZ GONZAGA COLANGELO NOBREGA            525PARQUE RODRIGO BARRETO        11 37545224
03049138120250170050453405345222360520250116006090302060049702401032630725M350390G804010     101             BPIHENRIQUE ALMEIDA SILVA        2014031401    010                                07400970081LUIZ GONZAGA COLANGELO NOBREGA            525PARQUE RODRIGO BARRETO        11 37545224
03049138120250170050453405345222360520250107006100302060049701409652952736M350390G804026     101             BPIARTHUR DOS SANTOS VIANNA PINHO1998100801    010                                07417265008RAILDA ALVES DE OLIVEIRA      A           856PARQUE RODRIGO BARRETO        11 46554774
03049138120250170050453405345222360520250130006110302060049701203002931919F350390G804016     101             BPINATALIA SILVA SANTOS DO NASCIM2009021803    010                                07412010008P.l. do Brasil                              5Porto
03049138120250170050453405345222360520250116006120302060049701203002931919F350390G804016     101             BPINATALIA SILVA SANTOS DO NASCIM2009021803    010                                07412010008P.l. do Brasil                              5Porto
03049138120250170050453405345222360520250109006130302060049701203002931919F350390G804016     101             BPINATALIA SILVA SANTOS DO NASCIM2009021803    010                                07412010008P.l. do Brasil                              5Porto
03049138120250170050453405345222360520250130006140302060049700802480068088M350390G804009     101             BPIISAQUE SABINO SOARES          2015043003    010                                07400380081CARACAS                       CASA 2      250CENTRO
03049138120250170050453405345222360520250116006150302060049700802480068088M350390G804009     101             BPIISAQUE SABINO SOARES          2015043003    010                                07400380081CARACAS                       CASA 2      250CENTRO
03049138120250170050453405345222360520250109006160302060049700802480068088M350390G804009     101             BPIISAQUE SABINO SOARES          2015043003    010                                07400380081CARACAS                       CASA 2      250CENTRO
03049138120250170050453405345222360520250128006170302060049700801940003986M350390G804009     101             BPIDANIEL RIBEIRO AQUINO DA SILVE2016020203    010                                07400470081Siqueira Campos                            30Jardim Rinco
03049138120250170050453405345222360520250121006180302060049700801940003986M350390G804009     101             BPIDANIEL RIBEIRO AQUINO DA SILVE2016020203    010                                07400470081Siqueira Campos                            30Jardim Rinco
03049138120250170050453405345222360520250109006190302060049700801940003986M350390G804009     101             BPIDANIEL RIBEIRO AQUINO DA SILVE2016020203    010                                07400470081Siqueira Campos                            30Jardim Rinco
03049138120250170050453405345222360520250128006200302060049700609919724261M350390G804011     101             BPIBRYAN SANTOS DA HORA          2013062803    010                                07417100081Alice Sanches Ribeiro         Casa 03      62Parque Rodrigo Barreto
03049138120250170050453405345222360520250121007010302060049700609919724261M350390G804011     101             BPIBRYAN SANTOS DA HORA          2013062803    010                                07417100081Alice Sanches Ribeiro         Casa 03      62Parque Rodrigo Barreto
03049138120250170050453405345222360520250114007020302060049700609919724261M350390G804011     101             BPIBRYAN SANTOS DA HORA          2013062803    010                                07417100081Alice Sanches Ribeiro         Casa 03      62Parque Rodrigo Barreto
03049138120250170050453405345222360520250107007030302060049700609919724261M350390G804011     101             BPIBRYAN SANTOS DA HORA          2013062803    010                                07417100081Alice Sanches Ribeiro         Casa 03      62Parque Rodrigo Barreto
03049138120250170050453405345222360520250128007040302060049700607493571960M350390G804008     101             BPIHENRIQUE MOREIRA DA MOTTA     2016081303    010                                07400970081Avenida dos Expedicionarios               S/NCentro
03049138120250170050453405345222360520250114007050302060049700607493571960M350390G804008     101             BPIHENRIQUE MOREIRA DA MOTTA     2016081303    010                                07400970081Avenida dos Expedicionarios               S/NCentro
03049138120250170050453405345222360520250107007060302060049700607493571960M350390G804008     101             BPIHENRIQUE MOREIRA DA MOTTA     2016081303    010                                07400970081Avenida dos Expedicionarios               S/NCentro
03049138120250170050453405345222360520250107007070302060049700507118196959F350390G804018     101             BPIIZABEL DA LUZ BARROS          2006041503    010                                07417465081ANTONIA MANOEL FERNANDES                  639PARQUE RODRIGO BARRETO        11 46531105
03049138120250170050453405345222360520250123007080302060049700503147078256M350390G804007     101             BPIOSCAR BARUC TAVARES DE JESUS  2017081803    010                                07401110081NANCI ARAKI                                85ARUJA CENTER VILLE            11980798292
03205930420250170120002219011322350520250106001050201020033708104552368035F350390    037     101             BPIALESSANDRA ROBERTA DOS SANTOS 1987110901    010                                07432050008Dutra                                     150Jardim Emlia
03205930420250170120002219011322350520250123001060201020033704608631102220F350390    030     101             BPIAMANDA TEIXEIRA DOS SANTOS    1994121301    010                                07432055081Clementina                                194Jardim Emlia
03205930420250170120002219011322350520250106001070201020033703408088526200F350390    048     101             BPIMARIA DO PERPETUO SOCORRO MOUR1976082503    010                                07432685081HIRAYOSHI AMANO               CASA B      160STIO DOS FERNANDES
03205930420250170120002219011322350520250106001080201020033702603279607146F350390    030     101             BPIJESSICA NUNES MARINHO         1994092601    010                                07432020008Dutra                                     565Jardim Leika
03205930420250170280161518926622350520250106002020201020033701401636859436F350390    064     101             BPIANGELA APARECIDA DE SOUZA PRIM1960120301    010                                07432075081Dady                          Casa 01      13Jardim Emlia                  11 46525801
03205930420250170280161518926622350520250116002030201020033700800480076089F350390    043     101             BPIANDRESA APARECIDA DE OLIVEIRA 1981122303    010                                07432455081Abacateiros                               221Recanto Primavera
03205930420250170280161518926622350520250123002040201020033700709999892475F350390    038     101             BPIGRACE KELLY COSTA             1986040901    010                                07400970081Alice                                      20Jardim Emlia
03205930420250170280161518926622350520250116002050201020033700200918152723F350390    030     101             BPIBARBARA CRISTINA BISPO SANTOS 1995013002    010                                07432465081Jambeiros                                 144Recanto Primavera
03205930420250170280161518926622350520250102002060201020033700009446279504F350390    068     101             BPIAUREA FERREIRA SANTOS DE OLIVE1956041003    010                                07432445081Pitangueiras                              229Recanto Primavera
03205930420250170280161518926622350520250123002070201020033700009202681206F350390    047     101             BPILUCIANA TEREZINHA BERNARDES RO1977100101    010                                07432060081Nicolau                       Casa A       80Jardim Emlia
03205930420250170280161518926622350520250130002080201020033700006755067207F350390    044     101             BPIMARIA ROZILENE FERREIRA SANTOS1980090401    010                                07432470081Mangueiras                                313Recanto Primavera             11999030438
03205930420250170280161518926622350520250106002090201020033700002612249405F350390    043     101             BPIROZANA DE OLIVEIRA ALMEIDA    1981051001    010                                07432000081Negro                                     201Jardim Leika
03205930420250170280161518926622350520250130002140201020033704303567821495F355030    060     101             BPIMARIA DA CONCEICAO MARINHO SIL1964121203    010                                07432065081OSCAR SCHIAVON                CASA 01     131JARDIM EMILIA
03205930420250170280161518926622350520250102002150201020033704602132233820F350390    038     101             BPIMILENE LOPO LIMA              1986030501    010                                07170301081MANGUEIRAS                    CASA 02     345RECANTO PRIMAVERA             11951206317
03205930420250170280161518926622350520250106002160201020033703406212605713F350390    027     101             BPIJAQUELINE OLIVEIRA DA SILVA   1997090903    010                                07432465081Jambeiros                     Casa 3       43Recanto Primavera
03205930420250170280161518926622350520250109002170201020033704004355311764F350390    048     101             BPIANA PAULA APARECIDA DAS CHAGAS1977020701    010                                07432121081Regina Clia Gomes Alvarenga   Cond2 Bl B  200Cdhu Fazenda Albor
03205930420250170280161518926622350520250109002180201020033705001836350150F350390    065     101             BPIMARIA DO SOCORRO SILVA        1959050601    010                                07432445081Pitangueiras                  Casa B      135Recanto Primavera
03205930420250170280161518926622350520250130002190201020033705502446036210F350390    057     101             BPISANDRA MARIA DE MORAES        1968020803    010                                07432460081Jaqueiras                     A            38Recanto Primavera
03205930420250170280161518926622350520250123002200201020033706404196683487F350390    024     101             BPITHAIS FREITAS DA SILVA        2000081001    010                                07432455081Abacateiros                   Casa B      320Recanto Primavera
03205930420250170280161518926622350520250109003010201020033706805781474923F350390    034     101             BPICAMILA GRANADO DE BASTOS      1990041401    010                                07432455081ABACATEIROS                               409RECANTO PRIMAVERA
03205930420250170280161518926622350520250116003020201020033706809276095027F350390    053     101             BPIZENAIDE ROCHA ANTUNES         1971092502    010                                07432685081HIRAYOSHI AMANO                            75SITIO DOS FERNANDES
03205930420250170280161518926622350520250116003030201020033706901131099937F350390    059     101             BPIVERA LUCIA FERREIRA DA SILVA  1965102203    010                                07432670081TOMI MIURA                    C2          935PEROBAL
03205930420250170280161518926622350520250116003040201020033707803621389916F350390    041     101             BPIGIRLENE DA SILVA RIBEIRO      1983052301    010                                07432685081Hirayoshi Amano                           687Stio dos Fernandes
03205930420250170280161518926622350520250109003050201020033708006383134523F350390    031     101             BPIBEATRIZ PEREIRA DAMIAO        1993092301    010                                07432685081Hirayoshi Amano               A Casa 2    160Sitio dos Fernandes
03205930420250170280161518926622350520250109003060201020033708201100000044F350390    052     101             BPIREGINA MARIA DA SILVA PAULINO 1972052103    010                                07432670081Tomi Miura                                691Stio dos Fernandes
03205930420250170280161518926622350520250130003070201020033708601519385689F350390    037     101             BPIMICHELE MARIA DE MATOS        1987092401    010                                07432121081Regina Celia Gomes Alvarenga  Cond2 Bl D   90Cdhu Fazenda Albor
03205930420250170280161518926622350520250102003080201020033708609061724583F350390    042     101             BPIPRISCILA KARINA OLIVEIRA DA SI1982062601    010                                07411000081TOMI MIURA                               1131STIO DOS FERNANDES
03205930420250170280161518926622350520250130003090201020033709203266805638F350390    034     101             BPIJESSICA INACIO DA SILVA       1990112504    010                                07432121081Regina Clia Gomes Alvarenga   AP 44        90Cdhu Fazenda Albor
03205930420250170280161518926622350520250116003100201020033709507609821970F350390    042     101             BPIJANAINA GOMES DA SILVA        1982110701    010                                08583310081Tiaki Ogaawara                Casa 2       71Stio dos Fernandes
03205930420250170280161518926622350520250130003140201020033704308503670199F350390    048     101             BPIMARIA TELMA PEREIRA DA SILVA  1976070303    010                                07432580081Sango Matsuzaki               Casa A      184Jardim das Cerejeiras
03205930420250170280161518926622350520250109003190201020033703400249263519F350390    045     101             BPIARIANA LEAL SOUTO             1979102101    010                                07432070081Alice                         Casa 02     191Jardim Emlia
03205930420250170280161518926622350520250123004080201020033702304564661920F350390    034     101             BPIALESSANDRA APARECIDA DE ALMEID1990062703    010                                07432020008Dutra                         Apto 13     516Jardim Leika
03205930420250170280161518926622350520250109004090201020033702101771220899F350390    023     101             BPINICOLY ALVES DA SILVA         2001123103    010                                07432050008Dutra                                      97Jardim Emlia
03205930420250170280161518926622350520250106004100201020033702003840704988F350390    023     101             BPINICOLLY DE OLIVEIRA ALMEIDA   2001091801    010                                07320000081Negro                                     201Jardim Leika                  11982797495
03205930420250170280161518926622350520250116004110201020033702000825960984F350390    026     101             BPIMAYLANNE ANTONIA DE OLIVEIRA  1999010903    010                                07432050008Dutra                         Casa 02     326Jardim Emlia
03205930420250170280161518926622350520250130004120201020033701800229572974F350390    053     101             BPIANGELA MARIA DA SILVA         1971110201    010                                07432455081Abacateiros                                90Recanto Primavera
03205930420250170120002219011322350520250124001010214010040705000241691252F350390    020     101             BPILAUANA NOVAIS FERREIRA        2004121803    010                                07432670081TOMI MIURA                    A           210STIO DOS FERNANDES
03205930420250170120002219011322350520250124001020214010040704108757890680F350390    034     101             BPILUIZA KAROLINE LEAL DA COSTA  1990042902    010                                07432465081Jambeiros                                 260Recanto Primavera
03205930420250170120002219011322350520250129001030214010040703407286654700F350390    025     101             BPIINGRID ISLY CRISPIM DOMINGOS  1999041901    010                                07432455081dos Abacateiros                           200Recanto Primavera
03205930420250170120002219011322350520250131001040214010040700108958414611F350390    024     101             BPIALINE EMILLY FERREIRA SANTOS  2001021801    010                                07432050008Dutra                         Casa de Ci  405Jardim Emlia
03205930420250170120002219011322350520250107001180214010040707405054044572F350390    019     101             BPIGEOVANNA BARRETO FERRARI      2005112603    010                                07432085081NICK                          CASA 04      97JARDIM EMLIA / PEROBAL
03205930420250170120002219011322350520250128001190214010040706800769688027F350390    023     101             BPIECHELYN DA MOTA MACHADO       2001121103    010                                07432020008Dutra 1/429                   Apto 04     516Jardim Emilia
03205930420250170120002219011322350520250102001200214010040706401124787186F350390    030     101             BPIBRUNA DE CASSIA DA SILVA      1994112401    010                                07432670081Tomi Miura                                210Stio dos Fernandes
03205930420250170120002219011322350520250109002010214010040705202483867670F350390    032     101             BPIBARBARA NAHANA NOVA DE SOUZA  1992082003    010                                07432085081Nick                                       77Jardim Emlia                  11975639680
03205930420250170280161518926622350520250114003110214010040700006056654405F350390    026     101             BPINAGERA RODRIGUES RAMALHO      1998053003    010                                31812260081Tomi Miura                    Fundos      957Stio dos Fernandes
03205930420250170280161518926622350520250106003120214010040704808006901740F350390    035     101             BPITHALITA JESSICA DA SILVA      1989122701    010                                07432455081dos Abacateiros                           195Recanto Primavera
03205930420250170280161518926622350520250120003130214010040706705520854111F350390    027     101             BPIJULIANA SANTANA NUNES         1997120901    010                                07432020008Dutra                                     565Jardim Leika
03205930420250170280161518926622350520250109002120214010058700204451262421M352340    027     101             BPIRENATO ALEXANDRE TEODORO FAHL 1997122301    010                                07431297081Sebastiana de Souza Bezana                 40Bairro do Engenho
03205930420250170280161518926622350520250110003150214010058700503503389555F350390    038     101             BPIMARIA DARLENE LIMA            1986102001    010                                08584584008Dutra                         Apto 11     244Jardim Emlia
03205930420250170280161518926622350520250129003160214010058704702038883840F350390    034     101             BPIANA CLAUDIA CORREA DOS SANTOS 1990073001    010                                07432595081Keitome Hosoe                              92Jardim das Cerejeiras
03205930420250170280161518926622350520250113003170214010058706800743429822F350390    026     101             BPIJANAINA DIAS DE OLIVEIRA      1998092501    010                                07432122081Nicolas Barbosa da Silva      Cond 4 Bl    30Cdhu Fazenda Albor
03205930420250170280161518926622350520250109002110214010074700204451262421M352340    027     101             BPIRENATO ALEXANDRE TEODORO FAHL 1997122301    010                                07431297081Sebastiana de Souza Bezana                 40Bairro do Engenho
03205930420250170280161518926622350520250110003180214010074700503503389555F350390    038     101             BPIMARIA DARLENE LIMA            1986102001    010                                08584584008Dutra                         Apto 11     244Jardim Emlia
03205930420250170280161518926622350520250129003200214010074704702038883840F350390    034     101             BPIANA CLAUDIA CORREA DOS SANTOS 1990073001    010                                07432595081Keitome Hosoe                              92Jardim das Cerejeiras
03205930420250170280161518926622350520250113004010214010074706800743429822F350390    026     101             BPIJANAINA DIAS DE OLIVEIRA      1998092501    010                                07432122081Nicolas Barbosa da Silva      Cond 4 Bl    30Cdhu Fazenda Albor
03205930420250170120002219011322350520250107001100214010082707405054044572F350390    019     101             BPIGEOVANNA BARRETO FERRARI      2005112603    010                                07432085081NICK                          CASA 04      97JARDIM EMLIA / PEROBAL
03205930420250170120002219011322350520250128001110214010082706800769688027F350390    023     101             BPIECHELYN DA MOTA MACHADO       2001121103    010                                07432020008Dutra 1/429                   Apto 04     516Jardim Emilia
03205930420250170120002219011322350520250102001120214010082706401124787186F350390    030     101             BPIBRUNA DE CASSIA DA SILVA      1994112401    010                                07432670081Tomi Miura                                210Stio dos Fernandes
03205930420250170120002219011322350520250109001130214010082705202483867670F350390    032     101             BPIBARBARA NAHANA NOVA DE SOUZA  1992082003    010                                07432085081Nick                                       77Jardim Emlia                  11975639680
03205930420250170120002219011322350520250124001140214010082705000241691252F350390    020     101             BPILAUANA NOVAIS FERREIRA        2004121803    010                                07432670081TOMI MIURA                    A           210STIO DOS FERNANDES
03205930420250170120002219011322350520250124001150214010082704108757890680F350390    034     101             BPILUIZA KAROLINE LEAL DA COSTA  1990042902    010                                07432465081Jambeiros                                 260Recanto Primavera
03205930420250170120002219011322350520250129001160214010082703407286654700F350390    025     101             BPIINGRID ISLY CRISPIM DOMINGOS  1999041901    010                                07432455081dos Abacateiros                           200Recanto Primavera
03205930420250170120002219011322350520250131001170214010082700108958414611F350390    024     101             BPIALINE EMILLY FERREIRA SANTOS  2001021801    010                                07432050008Dutra                         Casa de Ci  405Jardim Emlia
03205930420250170280161518926622350520250114004020214010082700006056654405F350390    026     101             BPINAGERA RODRIGUES RAMALHO      1998053003    010                                31812260081Tomi Miura                    Fundos      957Stio dos Fernandes
03205930420250170280161518926622350520250106004030214010082704808006901740F350390    035     101             BPITHALITA JESSICA DA SILVA      1989122701    010                                07432455081dos Abacateiros                           195Recanto Primavera
03205930420250170280161518926622350520250120004040214010082706705520854111F350390    027     101             BPIJULIANA SANTANA NUNES         1997120901    010                                07432020008Dutra                                     565Jardim Leika
03205930420250170120002219011322350520250131001090214010090700108958414611F350390    024     101             BPIALINE EMILLY FERREIRA SANTOS  2001021801    010                                07432050008Dutra                         Casa de Ci  405Jardim Emlia
03205930420250170280161518926622350520250110002100214010090700503503389555F350390    038     101             BPIMARIA DARLENE LIMA            1986102001    010                                08584584008Dutra                         Apto 11     244Jardim Emlia
03205930420250170280161518926622350520250109002130214010090700204451262421M352340    027     101             BPIRENATO ALEXANDRE TEODORO FAHL 1997122301    010                                07431297081Sebastiana de Souza Bezana                 40Bairro do Engenho
03205930420250170280161518926622350520250114004050214010090700006056654405F350390    026     101             BPINAGERA RODRIGUES RAMALHO      1998053003    010                                31812260081Tomi Miura                    Fundos      957Stio dos Fernandes
03205930420250170280161518926622350520250129004060214010090704702038883840F350390    034     101             BPIANA CLAUDIA CORREA DOS SANTOS 1990073001    010                                07432595081Keitome Hosoe                              92Jardim das Cerejeiras
03205930420250170280161518926622350520250113004070214010090706800743429822F350390    026     101             BPIJANAINA DIAS DE OLIVEIRA      1998092501    010                                07432122081Nicolas Barbosa da Silva      Cond 4 Bl    30Cdhu Fazenda Albor
03277322820250170080892717798022350520250107001100201020033704806563111041F350390    042     101             BPIIRACEMA ALVARENGA DA SILVA    1982101503    010                                07401755081Benedita Maria Barbosa Souza              376Vila Pilar                    11 46551136
03277322820250170080892717798022350520250103001110201020033700701931675471F350390    047     101             BPIISABEL CRISTINA OLIVEIRA DOS S1977123002    010                                07417435081ABDON FERREIRA SILVA                      201PARQUE RODRIGO BARRETO        11950305010
03277322820250170500681930965722350520250114002010201020033708109515081334F350390    047     101             BPIPATRICIA DOS SANTOS SILVA     1977060201    010                                07417445081Sada Joao Fernandes           Casa         79Parque Rodrigo Barreto
03277322820250170500681930965722350520250131002020201020033704608196895625F350390    050     101             BPIPATRICIA JULIETA CALLE APAZA  1974080903    010                                07417465081Antonia Manoel Fernandes                  768Parque Rodrigo Barreto
03277322820250170500681930965722350520250124002030201020033705003031137456F350390    063     101             BPICLEUSA FIEL DA CONCEICAO      1961120703    010                                07417440081Benedito de Maggio            Casa A      165Parque Rodrigo Barreto
03277322820250170500681930965722350520250114002040201020033705806498077636F350390    061     101             BPIROSA MARIA DOS SANTOS         1963090801    010                                07417325008Antonio Armando Justica                   682Parque Rodrigo Barreto        11 46552153
03277322820250170500681930965722350520250107002050201020033706006328736146F350390    049     101             BPIGIVONETE DA SILVA LIMA DE JESU1975102001    010                                07401775081Carmellino de Jesus                        13Vila Pilar
03277322820250170500681930965722350520250110002060201020033706109593867360F350390    025     101             BPIDEBORA SANTOS ALVES           1999053103    010                                07401370081Benedito Palmiro Rodrigues                234Parque Rodrigo Barreto        11988709676
03277322820250170500681930965722350520250107002070201020033706408174700382F350390    039     101             BPIEUSLANE ARAUJO VIEIRA         1985072501    010                                07417265008Railda Alves de Oliveira                  896Parque Rodrigo Barreto        11 35970430
03277322820250170500681930965722350520250128002080201020033706703521104319F350390    024     101             BPICYNTHIA DE FATIMA GONCALVES   2000113003    010                                07417325008Antonio Armando Justia        B            59Parque Rodrigo Barreto
03277322820250170500681930965722350520250117002090201020033704300500451197F350390    049     101             BPILUCIANA MARCELO DE SOUZA      1975112601    010                                07401725081Durval Ferreira de Almeida    Casa 2       54Vila Pilar                    11 46522249
03277322820250170500681930965722350520250114002100201020033708903727856817F350390    046     101             BPIEDIVANIA NUNES FEIJO FONTANA  1978111903    010                                07417320081Claudino Antonio Barbosa                   73Parque Rodrigo Barreto
03277322820250170500681930965722350520250124002110201020033709601670863975F350390    059     101             BPIMIRIAM BATISTA DE OLIVEIRA    1965081101    010                                07417450081Rodrigo Mendes Barreto                      9Parque Rodrigo Barreto        11 38300077
03277322820250170500681930965722350520250128002120201020033801440458518471F350390    025     101             BPIINGRID LILIAN SILVA DIAS      1999082903    010                                07417440081Benedito de Maggio                         84Parque Rodrigo Barreto
03277322820250170500681930965722350520250110002130201020033700401958942546F350390    025     101             BPISTEFANY OLIVEIRA FRANCA       1999102501    010                                07417335081Raymundo Fernandes            Casa C      579Parque Rodrigo Barreto
03277322820250170500681930965722350520250128002140201020033700500776771256F350390    061     101             BPIANA MARIA DE CARVALHO TEIXEIRA1964012203    010                                07417325008Antonio Armando Justia                    850Parque Rodrigo Barreto
03277322820250170500681930965722350520250107002150201020033700505367539750F350390    025     101             BPIELIZANDRA APARECIDA DOS SANTOS1999091001    010                                07424000031Correas                                  4225Correas                       11961893662
03277322820250170500681930965722350520250107002160201020033700509167810551F350390    066     101             BPIMARIA DA CONCEICAO RODRIGUES A1958101803    010                                07401785081Maria Helena                              120Vila Pilar                    11 46514259
03277322820250170500681930965722350520250114002170201020033701206084457917F350390    057     101             BPIMARIA HELENA ALVES AZEVEDO    1967112001    010                                07417325008Antonio Armando Justica                   838Parque Rodrigo Barreto        11990219590
03277322820250170500681930965722350520250128002180201020033701209020900316F350390    062     101             BPIRISALVA GOMES DE SOUZA        1962112103    010                                07417325008Antonio Armando Justica                   860Parque Rodrigo Barreto        11 46533544
03277322820250170500681930965722350520250121002190201020033702002850400980F350390    037     101             BPISIRLEIA DOS SANTOS SILVA      1987040801    010                                07401735081Pedro de Alcntara             Casa 04     102Vila Pilar
03277322820250170500681930965722350520250107002200201020033702007317491080F350390    062     101             BPIMARIA CRISTINA DA SILVA FERREI1962092103    010                                07401735081Pedro de Alcntara                          40Vila Pilar
03277322820250170500681930965722350520250107003010201020033702102777495599F350390    066     101             BPIMARIA TEREZA VIEIRA           1958070702    010                                07417510081Jose Maria Leandro da Silva   Casa 1 A    425Parque Rodrigo Barreto
03277322820250170500681930965722350520250128003020201020033702401562758923F350390    025     101             BPIANA BEATRIZ FERREIRA DE MIRAND1999050101    010                                07417380081JOS SEVERINO FILHO                        306PARQUE RODRIGO BARRETO        12 88858814
03277322820250170500681930965722350520250114003030201020033702603724869148F350390    034     101             BPIJESSICA DA SILVA LOPES        1990072203    010                                07417510081JOSE MARIA LEANDRO DA SILVA               203PARQUE RODRIGO BARRETO        11 46514543
03277322820250170500681930965722350520250114003040201020033702807198930062F350390    029     101             BPIALINE OLIVEIRA ALMEIDA        1995110503    010                                07401755081Benedita Maria Barbosa Souza              146Vila Pilar
03277322820250170500681930965722350520250124003050201020033704205793840481F350390    055     101             BPIMARIA JOSIANE FERREIRA DA SILV1969082903    010                                07417410081Zulmira Isabel de Moura                    97Parque Rodrigo Barreto
